:100000000C9489000C94B1000C94B1000C94B100D4
:100010000C94B1000C94B1000C94B1000C94B1009C
:100020000C94B1000C94B1000C94B1000C94B1008C
:100030000C94B1000C94B1000C94B1000C94B1007C
:100040000C94DF0A0C94B1000C94B9090C94930938
:100050000C94B1000C94B1000C94B1000C94B1005C
:100060000C94290B0C94B100CB00D100D700DD001B
:10007000E300E900EF002A02310238023F024602A3
:100080005D024D025D025402084AD73B3BCE016E31
:1000900084BCBFFDC12F3D6C74319ABD56833DDADF
:1000A0003D00C77F11BED9E4BB4C3E916BAAAABEEE
:1000B000000000803F00000000002300260029000F
:1000C00000000000240027002A0000000000250096
:1000D00028002B00040404040404040402020202A5
:1000E00002020303030303030102040810204080FB
:1000F000010204081020010204081020000000087A
:1001000000020100000304070000000000000000DE
:100110008E1411241FBECFEFD8E0DEBFCDBF11E09B
:10012000A0E0B1E0E6EFF3E302C005900D92AA383B
:10013000B107D9F725E0AAE8B1E001C01D92A134CA
:10014000B207E1F710E0C9E8D0E004C02197FE0152
:100150000E94EE19C838D107C9F70E94C8100C9444
:10016000F9190C940000CF93DF9347705527662749
:100170007727FA013197EC01A881B981E730F105C1
:1001800020F4EC5CFF4F0C94EE191496ED91FC9169
:10019000159761E029C01496ED91FC91159765E0E3
:1001A00023C01496ED91FC91159764E01DC0149640
:1001B000ED91FC91159766E017C01496ED91FC91B6
:1001C000159762E011C01496ED91FC9115976AE0C5
:1001D0000BC01496ED91FC91159768E005C014963C
:1001E000ED91FC91159769E0DF91CF910994CF9340
:1001F000DF93EC01CB01BA0126E030E040E050E0B3
:100200000E94D117623071058105910559F18CF476
:100210006115710581059105F1F061307105810568
:100220009105C1F5E881F9810480F581E02D65E053
:100230002DC0643071058105910511F1D4F0653050
:1002400071058105910531F5E881F9810480F58119
:10025000E02D66E01BC0E881F9810480F581E02D86
:1002600064E014C0E881F9810480F581E02D61E04B
:100270000DC0E881F9810480F581E02D63E006C0BE
:10028000E881F9810480F581E02D62E0CE01DF9103
:10029000CF910994DF91CF91089543705527662738
:1002A0007727DC01ED91FC910480F581E02D42304F
:1002B00051056105710571F0433051056105710506
:1002C00059F0413051056105710511F065E005C037
:1002D00066E003C06AE001C069E00994CF93DF9350
:1002E000EC01CB01BA0123E030E040E050E00E9495
:1002F000D117613071058105910581F0623071057A
:100300008105910591F0672B682B692BC1F4E88179
:10031000F9810480F581E02D64E00DC0E881F98168
:100320000480F581E02D61E006C0E881F981048058
:10033000F581E02D62E0CE01DF91CF910994DF914C
:10034000CF9108954370552766277727DC01ED91FB
:10035000FC910480F581E02D423051056105710565
:1003600071F0433051056105710559F04130510577
:100370006105710511F062E005C063E003C061E052
:1003800001C060E009940F931F93CF93DF93EC01BA
:10039000E881F9810480F581E02D8C010D5B1F4F10
:1003A000D8018C91811102C060E001C062E0CE01F1
:1003B0000995E881F9810480F581E02DD8018C91BF
:1003C000811102C061E001C063E0CE010995EBA597
:1003D000FCA5E230F10538F0EE0FFF1FEE0FFF1F16
:1003E00035973197F1F7E881F9810480F581E02DA7
:1003F000D8018C91811102C060E001C062E0CE01A1
:10040000DF91CF911F910F910994CF93DF93EC016E
:1004100020E030E0A9016B897C898D899E890E944A
:100420007D1918161CF4EFA5F8A902C0E9A9FAA9CC
:10043000DF91CF9109940F931F93DC011296EC91F9
:100440000E2F10E009301105C0F5F801E55CFF4FF3
:100450000C94EE19DC01ED91FC910084F185E02D06
:1004600029C0DC01ED91FC910284F385E02D22C0CE
:10047000DC01ED91FC910484F585E02D1BC0DC01CD
:10048000ED91FC910684F785E02D14C0DC01ED911F
:10049000FC910088F189E02D0DC0DC01ED91FC910B
:1004A0000288F389E02D06C0DC01ED91FC910488FF
:1004B000F589E02D1F910F9109941F910F910895D7
:1004C000CF93DF93FC012281222359F1EC0161E0FB
:1004D00083810E94440A61E08C810E94440A8A81DF
:1004E000843011F0883039F461E08D810E94440A33
:1004F00061E08E8106C0833011F0863021F461E026
:100500008D810E94440A8EA58F3F59F061E00E94C0
:10051000440A6DA581E068278EA5DF91CF910C94E8
:10052000140ADF91CF910895CF93DF93FC012281CC
:100530002223A9F0EC010190F081E02D0480F581E7
:10054000E02D60E009958EA58F3F49F061E00E94A3
:10055000440A6DA58EA5DF91CF910C94140ADF910A
:10056000CF910895CF92DF92EF92FF920F931F9356
:10057000CF93DF93FC012281243041F0283031F009
:10058000233031F0263021F012E003C014E001C026
:1005900013E0EC012796E12CF12CC62ED12C01E0C2
:1005A000C6010E2C02C0959587950A94E2F76881E2
:1005B00080FD6027FE01349780810E94140AFFEFBE
:1005C000EF1AFF0A2196E11658F3DF91CF911F91A0
:1005D0000F91FF90EF90DF90CF900895CF92DF9230
:1005E000EF92FF920F931F93CF93DF93EC01613053
:1005F000710511F08FE101C08EE588A36AE00E94C9
:100600003A1010926302809362028A3009F0ABC004
:100610008E010F5D1F4F6E018BE2C80ED11C780159
:10062000EC14FD0441F087E593E00E94CE08F70149
:1006300081937F01F5CFCE018696F80121918F013C
:10064000211193C0E817F907C1F719AA88A588777F
:100650008AAB89A58BAB8AA58F708CABDE01D9964E
:100660008E010F5C1F4F7E01F5E3EF0EF11CF801C8
:10067000EE15FF0529F08D919081892B8193F8CF9C
:10068000C8A181E080930F02C093EE011092610235
:10069000109260020E151F0559F0F80161918F014B
:1006A00087E593E00E941A098130A1F386E05EC0DD
:1006B00090916002913208F04AC08091B902811194
:1006C000FCCF22E02093B90221E02093B8022FEF63
:1006D0002093B7021092B6029093B502AFEEB1E04C
:1006E00043E952E0FA012E2F241B291718F42D910B
:1006F0002193F9CF1092B4029091B402CC0FC92B80
:10070000C093B4029091B302913061F41092B3029D
:100710009091B4029093BB009091BC0093FDF8CFF0
:1007200095EC01C095EE9093BC009091B902923087
:10073000E1F39091B7029F3F79F08091B702803248
:1007400041F08091B702803331F084E005C081E050
:1007500003C082E001C083E0109261021092600247
:1007600010920F0203C085E001C087E0DF91CF91B6
:100770001F910F91FF90EF90DF90CF900895FC01B3
:1007800010821182128213821482158216821782BD
:10079000108611861286138614861586168617868D
:1007A000108A118A128A138A148A158A168A178A5D
:1007B000108E118E128E138E148E158E168E178E2D
:1007C00010A215AA81E086AB17AA90E890AF11AEEF
:1007D00082AF13AE20EC24AF15AE22E026AF17AEE9
:1007E000DF01A05CBF4F9C9311961C9211968C93D5
:1007F00011961C9211961C929397CF018B961D9285
:10080000A817B907E1F713A614A615A616A617A6EA
:1008100010AA11AA12AA13AA14AA08952F923F92FD
:100820004F925F926F927F928F929F92AF92BF9200
:10083000CF92DF92EF92FF920F931F93CF93DF93AC
:1008400000D000D0CDB7DEB71C01FC0187849088B2
:10085000A188B28883859485A585B685881A990A6A
:10086000AA0ABB0A63897489858996899B01AC01B0
:100870000E9413176B017C01F101638D748D858DCE
:10088000968D9B01AC010E9413189B01AC01C7011E
:10089000B6010E94AE180E94201981149104A1048F
:1008A000B104A1F462307105810591050CF07CC0A2
:1008B000F10113A214A215A216A2138A148A158A92
:1008C000168A13AA14AA15AA16AA03C1F10103A92C
:1008D00014A925A936A9ED5BFF4F181419041A04B1
:1008E0001B04FCF410161106120613064CF46815CE
:1008F00079058A059B054CF52081211155C025C03D
:10090000011511052105310509F44EC06815790559
:100910008A059B050CF048C08081882309F444C0F7
:1009200037C01016110612061306F4F4002711271B
:100930009801081919092A093B09601771078207EC
:1009400093071CF42081222379F19B01AC018827B5
:100950009927DC01821B930BA40BB50BF10183AB30
:1009600094ABA5ABB6AB20C001151105210531052F
:10097000D9F0CC24DD247601C818D908EA08FB0890
:100980006C157D058E059F057CF4808181110CC05E
:1009900030952095109501951F4F2F4F3F4FF10136
:1009A00003AB14AB25AB36ABF101C3A8D4A8E5A8C3
:1009B000F6A881010D5B1F4FC114D104E104F104BD
:1009C00091F487A990ADA1ADB2AD83AF94AFA5AFBF
:1009D000B6AF81E0181419041A041B040CF080E06F
:1009E000F801808340C0F10183AC94ACA5ACB6ACF7
:1009F000A5019401C501B4010E9413182B013C010B
:100A0000C701B6010E94B41620E030E040E850E48F
:100A10000E94131720E030E040E85FE30E941318C3
:100A20009B01AC01C301B2010E94AE189B01AC0155
:100A3000C501B4010E9412184B015C01F101FF963F
:100A400040805180628073809201A3010E947D19D1
:100A5000181614F042015301A401B501F10143AF8E
:100A600054AF65AF76AFFFEFCF1ADF0AEF0AFF0A88
:100A7000F101C3AAD4AAE5AAF6AA23AD34AD45ADC7
:100A800056ADCA01B90129833A834B835C830E9426
:100A90002719F10163A374A385A396A329813A8141
:100AA0004B815C8160E074E284E799E40E94AE18B7
:100AB000F101638B748B858B968BF801208121115A
:100AC00008C0DC01CB01B058F101838B948BA58B5E
:100AD000B68B0F900F900F900F90DF91CF911F91D9
:100AE0000F91FF90EF90DF90CF90BF90AF909F90CD
:100AF0008F907F906F905F904F903F902F900895D0
:100B00004F925F926F927F928F929F92AF92BF921D
:100B1000CF92DF92EF92FF92CF93DF93EC016A01C5
:100B20007B018B8C9C8CAD8CBE8C9A01AB01C5017A
:100B3000B4010E94AD16882309F449C06BA97CA9B1
:100B40008DA99EA90E94B4162B013C01A701960114
:100B5000C501B4010E94AE189B01AC01C301B201F2
:100B60000E9413170E9420196BAB7CAB8DAB9EAB20
:100B7000A701960160E070E080E090E40E94AE186A
:100B80000E94901926E53EE04DE25FE30E941317B4
:100B900020E034E244E759E40E9413176FAB78AFCA
:100BA00089AF9AAFCB8EDC8EED8EFE8ECE01DF91BB
:100BB000CF91FF90EF90DF90CF90BF90AF909F903C
:100BC0008F907F906F905F904F900C940E04DF9108
:100BD000CF91FF90EF90DF90CF90BF90AF909F901C
:100BE0008F907F906F905F904F9008958F929F921B
:100BF000AF92BF92CF92DF92EF92FF92CF93DF93AB
:100C0000EC018B889C88AD88BE8820E030E0A9018B
:100C1000C501B4010E94AD16882309F44FC0A50197
:100C20009401C501B4010E9413176B017C016B8D07
:100C30007C8D8D8D9E8D9B01AC010E9413189B01B4
:100C4000AC01C701B6010E94AE180E9420196B01C9
:100C50007C012FEFC21AD20AE20AF20A20E030E049
:100C6000A901C501B4010E947D194B855C856D8584
:100C70007E858F849888A988BA8818162CF44C0D24
:100C80005D1D6E1D7F1D04C04C195D096E097F0935
:100C900084169506A606B70689F04F87588B698B90
:100CA0007A8BCE01DF91CF91FF90EF90DF90CF90C4
:100CB000BF90AF909F908F900C940E04DF91CF91D6
:100CC000FF90EF90DF90CF90BF90AF909F908F906C
:100CD0000895CF93DF93EC0188E695ECAFEFBFEF7B
:100CE0008B879C87AD87BE878F87988BA98BBA8BA4
:100CF0001BAA1CAA1DAA1EAA1BA21CA21DA21EA2E0
:100D00001B8A1C8A1D8A1E8ACE010E94E20FCE0118
:100D10000E94640F40E050E06AEF73E4CE010E944D
:100D200080058F859889A989BA89892B8A2B8B2B75
:100D300039F01F86188A198A1A8ACE010E940E0479
:100D400081E0DF91CF910895CF92DF92EF92FF92F1
:100D50000F931F93CF93DF93EC018B01FB0122854F
:100D600033853327F901E450FF4F8491F901E851AD
:100D7000FF4FE490F901EC52FF4FF490FF20A1F0F7
:100D800081110E94EB09EF2DF0E0EE0FFF1FEA54F6
:100D9000FF4FA591B491EC91EE2131E020E009F4F0
:100DA00030E0832F922F02C080E090E0F801228192
:100DB00033818217930789F0938382832FB7F89446
:100DC0008091100290911102A0911202B091130231
:100DD0002FBF84839583A683B7832FB7F894809120
:100DE000100290911102A0911202B09113022FBF34
:100DF000F8014481558166817781841B950BA60B90
:100E0000B70B4485558566857785481759076A0766
:100E10007B0708F09AC0828193819183808320852B
:100E200031858217930709F090C04F8558896989E9
:100E30007A898B859C85AD85BE85481759076A07D9
:100E40007B070CF082C0CE010E94F6058B859C8545
:100E5000AD85BE858F87988BA98BBA8B1BAA1CAAE0
:100E60001DAA1EAA1BA21CA21DA21EA21B8A1C8AAE
:100E70001D8A1E8A11E04B855C856D857E858F8578
:100E80009889A989BA89481759076A077B0709F41D
:100E900051C0E881F9810280F381E02DCE010995EE
:100EA0008BA19CA1ADA1BEA1892B8A2B8B2B09F410
:100EB0004EC00E94800A6B017C018FA198A5A9A554
:100EC000BAA5B701A601481B590B6A0B7B0B8BA176
:100ED0009CA1ADA1BEA1481759076A077B07B8F1CD
:100EE000FE01ED5BFF4F80814B855C856D857E85C6
:100EF000882329F04F5F5F4F6F4F7F4F04C04150F1
:100F00005109610971094B875C876D877E87E8818C
:100F1000F9814B855C856D857E850680F781E02DA6
:100F2000CE010995CFA2D8A6E9A6FAA6CE010E94C5
:100F30000E040DC0CE010E94F605E881F9810190F2
:100F4000F081E02DCE01099502C010E094CF812FF1
:100F5000DF91CF911F910F91FF90EF90DF90CF9095
:100F60000895FC01538D448D252F30E0842F90E0AF
:100F7000821B930B541710F0CF9608950197089594
:100F8000FC01918D828D981761F0828DDF01A80F91
:100F9000B11D5D968C91928D9F5F9F73928F90E0B3
:100FA00008958FEF9FEF0895FC01918D828D981722
:100FB00031F0828DE80FF11D858D90E008958FEF5F
:100FC0009FEF0895FC01918D228D892F90E0805C28
:100FD0009F4F821B91098F73992708958AEB92E0A6
:100FE0000E94E20721E0892B09F420E0822F089576
:100FF000FC01848DDF01A80FB11DA35ABF4F2C91B6
:10100000848D90E001968F739927848FA689B78984
:101010002C93A089B1898C9180648C93938D848D5D
:10102000981306C00288F389E02D80818F7D80832C
:101030000895EF92FF920F931F93CF93DF93EC01EC
:1010400081E0888F9B8D8C8D981305C0E889F98984
:10105000808185FD24C0F62E0B8D10E00F5F1F4FA1
:101060000F731127E02E8C8DE8120CC00FB607FC11
:10107000FACFE889F989808185FFF5CFCE010E94FA
:10108000F807F1CF8B8DFE01E80FF11DE35AFF4FFA
:10109000F0820B8FEA89FB898081806207C0EE892C
:1010A000FF896083E889F98980818064808381E099
:1010B00090E0DF91CF911F910F91FF90EF900895F5
:1010C000CF93DF93EC01888D8823C9F0EA89FB89EF
:1010D000808185FD05C0A889B9898C9186FD0FC0E6
:1010E0000FB607FCF5CF808185FFF2CFA889B989BB
:1010F0008C9185FFEDCFCE010E94F807E7CFDF91FD
:10110000CF91089580E090E0892B29F00E94EE07AE
:1011100081110C940000089585ED8093BC008091AE
:10112000BC0084FDFCCF1092B902089540913602B4
:10113000262F30E0240F311D21323105DCF42091BF
:10114000B9022430C9F4FC0180E090E0861758F41D
:10115000309136022191DC01AC5EBD4FA30FB11D71
:101160002C930196F3CF80913602680F609336027C
:1011700080E0089581E0089582E008950895E09167
:10118000630280916202E81730F4F0E0ED58FD4F01
:10119000808190E008958FEF9FEF08959091630212
:1011A00080916202981750F4E92FF0E0ED58FD4F5E
:1011B000208130E09F5F9093630202C02FEF3FEFEA
:1011C000C90108958091620290E020916302821B20
:1011D00091090895CF92DF92EF92FF920F931F93A0
:1011E000CF93DF937C01262F972F8A0180910F02E6
:1011F000882391F0C62FD72F6E01C40ED51ECC15B3
:10120000DD0571F06991D701ED91FC910190F081BC
:10121000E02DC7010995F3CF642F822F0E94960815
:10122000C801DF91CF911F910F91FF90EF90DF9058
:10123000CF900895CF93DF931F92CDB7DEB7698328
:1012400020910F022223D1F020916002203240F041
:1012500021E030E0FC013383228380E090E015C080
:1012600080916102E82FF0E0E151FE4F9981908377
:101270008F5F809361028093600205C061E0CE01C0
:1012800001960E94960881E090E00F90DF91CF9147
:101290000895089580E090E008958F929F92AF9214
:1012A000BF92CF92DF92EF92FF920F931F93CF9353
:1012B000DF937C018B016C0182E0C80ED11C4701D9
:1012C000E5E08E0E911CC0E0D0E0F60141916F0187
:1012D00050E060E070E02AE0C8010E944A0E5C0124
:1012E0006EE2C8010E942E0E8A0D9B1DC80FD91FE9
:1012F000C814D90451F7F701458150E060E070E06F
:101300002AE0C8010E944A0E8C0F9D1FDF91CF91E9
:101310001F910F91FF90EF90DF90CF90BF90AF9013
:101320009F908F9008951F920F920FB60F921124E5
:101330002F933F934F935F936F937F938F939F93DD
:10134000AF93BF93EF93FF938AEB92E00E94F8076D
:10135000FF91EF91BF91AF919F918F917F916F918D
:101360005F914F913F912F910F900FBE0F901F9063
:1013700018951F920F920FB60F9211242F938F93EF
:101380009F93EF93FF93E091CA02F091CB0280818B
:10139000E091D002F091D10282FD12C09081809143
:1013A000D3028F5F8F732091D402821751F0E091A6
:1013B000D302F0E0E654FD4F958F8093D30201C035
:1013C0008081FF91EF919F918F912F910F900FBE90
:1013D0000F901F901895833081F028F4813099F098
:1013E0008230A1F008958730A9F08830B9F08430B8
:1013F000D1F4809180008F7D03C0809180008F7731
:1014000080938000089584B58F7702C084B58F7D66
:1014100084BD08958091B0008F7703C08091B000A3
:101420008F7D8093B00008951F93CF93DF93282F73
:1014300030E0F901E450FF4F8491F901E851FF4F8A
:10144000D491F901EC52FF4FC491CC23C9F0162F6F
:1014500081110E94EB09EC2FF0E0EE0FFF1FE65325
:10146000FF4FA591B4918FB7F894111105C09C91CD
:10147000ED2FE095E92302C0EC91ED2BEC938FBFAB
:10148000DF91CF911F910895CF93DF9390E0FC01FE
:10149000E851FF4F2491FC01EC52FF4F84918823C7
:1014A00061F190E0880F991FFC01E054FF4FC59156
:1014B000D491FC01E653FF4FA591B491611109C08D
:1014C0009FB7F8948881209582238883EC912E23FE
:1014D0000BC0623061F49FB7F8943881822F8095F9
:1014E00083238883EC912E2B2C939FBF06C08FB74C
:1014F000F894E8812E2B28838FBFDF91CF91089538
:101500003FB7F89480915C0290915D02A0915E02D9
:10151000B0915F0226B5A89B05C02F3F19F0019638
:10152000A11DB11D3FBFBA2FA92F982F8827820F69
:10153000911DA11DB11DBC01CD0142E0660F771FB9
:10154000881F991F4A95D1F708958F929F92AF9265
:10155000BF92CF92DF92EF92FF926B017C010E94CB
:10156000800A4B015C01C114D104E104F104F1F0E3
:101570000E94800ADC01CB0188199909AA09BB09DC
:10158000883E9340A105B10570F321E0C21AD1084D
:10159000E108F10888EE880E83E0981EA11CB11CBA
:1015A000C114D104E104F10419F7DDCFFF90EF90ED
:1015B000DF90CF90BF90AF909F908F9008951F9233
:1015C0000F920FB60F9211242F933F938F939F93F7
:1015D000AF93BF938091100290911102A0911202DB
:1015E000B091130230915B0223E0230F2D3720F4DA
:1015F0000196A11DB11D05C026E8230F0296A11D6D
:10160000B11D20935B028093100290931102A0936E
:101610001202B093130280915C0290915D02A0913E
:101620005E02B0915F020196A11DB11D80935C0224
:1016300090935D02A0935E02B0935F02BF91AF9161
:101640009F918F913F912F910F900FBE0F901F9000
:1016500018951F920F920FB60F9211242F933F935C
:101660004F935F936F937F938F939F93AF93BF93AA
:10167000EF93FF938091B900887F803609F49CC076
:1016800068F5883209F45BC090F4803109F454C0E5
:1016900038F4882309F4F6C0883009F44DC0F6C048
:1016A000883109F44CC0803209F45DC0EFC0803449
:1016B00009F468C048F4803309F455C0883309F050
:1016C000E5C08093B702D8C0803509F44FC0883593
:1016D00009F45DC0883409F0D9C0D6C0883909F44E
:1016E000C7C0A8F4883709F467C038F4883609F40D
:1016F00063C0803709F460C0C9C0883809F4B8C035
:10170000803909F45FC0803809F0C0C05BC0803BFD
:1017100009F486C038F4803A09F466C0883A09F4BE
:101720007FC0B4C0803C09F4A7C0883C09F4A4C0C1
:10173000883B09F48AC0AAC08091B40210C090917D
:10174000B6028091B502981770F5E091B60281E07B
:101750008E0F8093B602F0E0ED56FD4F80818093AE
:10176000BB0085EC86C08093B7028EC0E091B602C4
:1017700081E08E0F8093B6028091BB00F0E0ED56C1
:10178000FD4F80839091B6028091B5026EC0E091CA
:10179000B60281E08E0F8093B6028091BB00F0E02C
:1017A000ED56FD4F80838091B80281116DC081E0BC
:1017B0008093B30284EA61C083E08093B9021092FF
:1017C0005A02CFCF80915A02803208F051C0E09186
:1017D0005A0281E08E0F80935A028091BB00F0E0A4
:1017E000E65CFD4F8083BDCF85EC8093BC001092FA
:1017F000B90280915A02803230F4E0915A02F0E04E
:10180000E65CFD4F108260915A0270E0E091380270
:10181000F09139028AE392E0099510925A0236C09B
:1018200084E08093B9021092370210923602E09160
:101830003402F0913502099580913602811105C07C
:1018400081E08093360210921402E091370281E029
:101850008E0F80933702F0E0EC5EFD4F8081809325
:10186000BB009091370280913602981708F479CF27
:1018700085E88093BC000AC085EC8093BC00109280
:10188000B90204C01092B7020E948C08FF91EF9138
:10189000BF91AF919F918F917F916F915F914F9188
:1018A0003F912F910F900FBE0F901F9018952F9280
:1018B0003F924F925F926F927F928F929F92AF92E0
:1018C000BF92CF92DF92EF92FF920F931F93CF932D
:1018D000DF93CDB7DEB72A970FB6F894DEBF0FBE01
:1018E000CDBF1C0149835A836B837C830D831E8388
:1018F0002F83388766E0FC0180A10E943A10109285
:10190000630280936202863009F05FC18101055D48
:101910001F4F91012F5C3F4F0217130761F087E5BE
:1019200093E029873A870E94CE08F80181938F01BE
:101930003A852985F1CFF10127A5622F607F70E0FC
:1019400034E0759567953A95E1F783A5F0E18F9FAF
:10195000C0011124682B792B611538E073070CF056
:1019600070512F70F10104A5F0E10F9F8001112447
:10197000022B011538E013070CF01051072E000C54
:10198000880B990B0E94B41629E334EB48EC5DE315
:101990000E94131729813A814B815C810E941318A0
:1019A000A70196010E94AE186B017C01F1016083D2
:1019B000718382839383B801110F880B990B0E9466
:1019C000B41629E334EB48EC5DE30E9413172D8134
:1019D0003E814F8158850E941318A50194010E94F1
:1019E000AE184B015C01F101648375838683978394
:1019F00020E030E0A901C701B6010E94AD1620E049
:101A000030E0A901811107C0C501B4010E94AD16E3
:101A1000811111C0AEC0C701B6010E947D19181610
:101A20009CF420E030E0A901C501B4010E94AD168C
:101A3000811113C09EC020E030E0A901C701B601AA
:101A40000E947D1918164CF020E030E0A901C70172
:101A5000B6010E947D19181694F420E030E0A90127
:101A6000C501B4010E947D1918164CF4A701960116
:101A7000C501B4010E94AE180E947F1877C020E013
:101A800030E0A901C701B6010E94AD1681110AC05C
:101A900020E030E0A901C501B4010E947D191816AB
:101AA0000CF46BC020E030E0A901C701B6010E9430
:101AB000AD1687FF29C020E030E0A901C501B401BF
:101AC0000E947D1918169CF020E030E0A901C501A4
:101AD000B4010E94AD16882309F458C020E030E01C
:101AE000A901C501B4010E94AD1687FF0DC0A70171
:101AF0009601C501B4010E94AE180E947F182BED1B
:101B00003FE049E450E430C020E030E0A901C701E3
:101B1000B6010E94AD16811109C020E030E0A90194
:101B2000C501B4010E94AD1687FD39C020E030E048
:101B3000A901C701B6010E947D191816C4F520E05D
:101B400030E0A901C501B4010E94AD1687FF2FC086
:101B5000A7019601C501B4010E94AE180E947F182A
:101B60002BED3FE049EC50E40E9413182B013C019F
:101B70001EC0412C512C32011AC02BED422E2FE0F9
:101B8000522E29EC622E2FE3722E11C09BED492EAE
:101B90009FE0592E99E4692E90E4792E08C084EED6
:101BA000482E8BEC582E86E9682E80E4782EF101C1
:101BB000408A518A628A738A86A580FD08C090A9EE
:101BC000892F817090FD03C003C081E001C082E0D5
:101BD0002A960FB6F894DEBF0FBECDBFDF91CF912E
:101BE0001F910F91FF90EF90DF90CF90BF90AF903B
:101BF0009F908F907F906F905F904F903F902F902D
:101C00000895CF92DF92EF92FF920F931F93CF939D
:101C1000DF936C017A018B01C0E0D0E0CE15DF05C7
:101C200089F0D8016D918D01D601ED91FC91019063
:101C3000F081E02DC6010995892B11F47E0102C0C7
:101C40002196ECCFC701DF91CF911F910F91FF90AB
:101C5000EF90DF90CF9008950E94F419DC01ED9190
:101C6000FC910190F081E02D09946115710579F0E6
:101C7000FB0101900020E9F73197AF01461B570B9C
:101C8000DC01ED91FC910280F381E02D099480E06C
:101C900090E008954F925F926F927F92EF92FF9241
:101CA0000F931F93CF93DF93CDB7DEB7A1970FB6F6
:101CB000F894DEBF0FBECDBF7C01FA01CB0119A2A3
:101CC000223008F42AE08E010F5D1F4F422E512C66
:101CD000612C712CBF01A30192010E94F017F90140
:101CE000CA01015011096A3014F4605D01C0695CD9
:101CF000D8016C93232B242B252B61F7B801C70146
:101D00000E94350EA1960FB6F894DEBF0FBECDBF70
:101D1000DF91CF911F910F91FF90EF907F906F9087
:101D20005F904F9008958F929F92AF92BF92CF9203
:101D3000DF92EF92FF92CF93DF936B017C019B01C7
:101D4000AC010E94D419882319F064E471E027C023
:101D500046015701E894B7F82FEF3FEF4FE75FE7F1
:101D6000C501B4010E94D41981110DC02FEF3FEFBE
:101D70004FE75FE7C501B4010E94AD1618161CF4C9
:101D800068E471E00CC02FEF3FEF4FE75FE4C7015D
:101D9000B6010E947D19181684F46CE471E08AEB98
:101DA00092E0DF91CF91FF90EF90DF90CF90BF90C6
:101DB000AF909F908F900C94350E2FEF3FEF4FE731
:101DC0005FECC701B6010E94AD1687FDE6CF20E0AB
:101DD00030E0A901C701B6010E94AD1687FF0BC014
:101DE0006DE28AEB92E00E942E0EEC01F7FAF0947D
:101DF000F7F8F09402C0C0E0D0E02AE037ED43EA03
:101E00005BE3C701B6010E9413184B015C010E94FD
:101E100027196B017C010E94B2169B01AC01C50120
:101E2000B4010E9412184B015C012AE0B701A6011F
:101E30008AEB92E00E944A0EC80FD91F6EE28AEB2D
:101E400092E00E942E0EC80FD91F20E030E040E241
:101E500051E4C501B4010E9413174B015C010E94BB
:101E600027196B01E12CF12C2AE0B701A6018AEBBE
:101E700092E00E944A0EC80FD91FC701B6010E9406
:101E8000B2169B01AC01C501B4010E94121820E0FA
:101E900030E040E251E40E9413170E942719AB0181
:101EA00060E070E02AE08AEB92E00E944A0E8C0F1C
:101EB0009D1FDF91CF91FF90EF90DF90CF90BF906B
:101EC000AF909F908F9008958F929F92AF92BF9204
:101ED000CF92DF92EF92FF921F93CF93DF93EC01AB
:101EE00020E030E04AEF53E46B897C898D899E893C
:101EF0000E94AD16882309F459C0CF88D88CE98C8C
:101F0000FA8C46015701B7FAB094B7F8B09420E0C4
:101F100030E04AEF53E4C501B4010E947D19181660
:101F20005CF020E030E04AEF53E4C701B6010E94C4
:101F3000AD1687FD03C010C07501640120E030E0DC
:101F4000A901C701B6010E94AD1681110BC01BA2E9
:101F50001CA21DA21EA226C0C12CD12C8AEFE82EE5
:101F600083E4F82EA701960160E074E284E799E427
:101F70000E94AE189F770E9427196BA37CA38DA3A4
:101F80009EA35E0183E4A80EB11C11E020E030E0C6
:101F9000A901C701B6010E947D1918160CF010E0C6
:101FA000F5011083CB8ADC8AED8AFE8ADF91CF911E
:101FB0001F91FF90EF90DF90CF90BF90AF909F90D8
:101FC0008F900895CF92DF92EF92FF92CF93DF939D
:101FD000EC0120E030E04AE754E46F89788D898D88
:101FE0009A8D0E94AD168823F1F180E090E0AAE777
:101FF000B4E48F8B988FA98FBA8FFE01FF968083F0
:102000009183A283B3838BA99CA9ADA9BEA91816FD
:1020100019061A061B063CF56B897C898D899E89F9
:102020009B01AC010E9413176B017C016B8D7C8DB1
:102030008D8D9E8D9B01AC010E9413189B01AC01FC
:10204000C701B6010E94AE180E9420196BAB7CAB91
:102050008DAB9EABCE01DF91CF91FF90EF90DF90E3
:10206000CF900C940E04DF91CF91FF90EF90DF9012
:10207000CF9008959091B9029111FCCF91E0909387
:10208000B9029093B8022FEF2093B7021092B602D4
:10209000260F2093B5029093B4029091B402880F5A
:1020A000892B8093B4028091B302813061F4109245
:1020B000B3028091B4028093BB008091BC0083FD89
:1020C000F8CF85EC01C085EE8093BC008091B90209
:1020D0008130E1F38091B602861710F46091B60268
:1020E000A3E9B2E023E732E0F9018E2F821B8617C5
:1020F00018F48D918193F9CF862F0895CF93DF93B4
:10210000BC018AEB92E00E94350EEC0167E871E0B9
:102110008AEB92E00E94350E8C0F9D1FDF91CF91CC
:102120000895CF92DF92EF92FF92CF93DF93AB01AE
:10213000BC0177FF1DC06A017B016DE28AEB92E072
:102140000E942E0EEC0144275527BA014C195D0957
:102150006E097F092AE08AEB92E00E944A0E8C0FFA
:102160009D1FDF91CF91FF90EF90DF90CF9008956A
:102170002AE08AEB92E0DF91CF91FF90EF90DF9021
:10218000CF900C944A0EBC018AEB92E00C94350E71
:10219000789484B5826084BD84B5816084BD85B542
:1021A000826085BD85B5816085BD80916E0081604E
:1021B00080936E00109281008091810082608093F4
:1021C00081008091810081608093810080918000F6
:1021D0008160809380008091B10084608093B10021
:1021E0008091B00081608093B00080917A0084601B
:1021F00080937A0080917A00826080937A00809147
:102200007A00816080937A0080917A008068809360
:102210007A001092C100E091CA02F091CB0282E0F4
:102220008083E091C602F091C7021082E091C8025B
:10223000F091C90280E180831092D202E091CE0237
:10224000F091CF0286E08083E091CC02F091CD0244
:10225000808180618083E091CC02F091CD02808109
:1022600088608083E091CC02F091CD02808180680B
:102270008083E091CC02F091CD0280818F7D8083BC
:1022800061E082E00E94440A61E080E10E94440A29
:1022900061E081E10E94440A61E082E10E94440A17
:1022A00060E080E10E94140A60E081E10E94140A6B
:1022B00060E082E10E94140A64E670E080E090E051
:1022C0000E94A50A61E080E10E94140A60E082E1B8
:1022D0000E94140A64EF71E080E090E00E94A50A79
:1022E00061E081E10E94140A61E082E10E94140A27
:1022F00064EF71E080E090E00E94A50A1092630212
:102300001092620210926102109260021092B90261
:1023100081E08093B8021092B30261E082E10E94F2
:10232000140A61E083E10E94140A8091B9008E7F53
:102330008093B9008091B9008D7F8093B90088E4C3
:102340008093B80085E48093BC008CE08093B80053
:1023500060E070E084EA94E00E94EE0280936902FB
:1023600061E070E08FE594E00E94EE0280936802E5
:1023700010926F0210926E0210927102109270020F
:1023800081E090E0909367028093660290936502EB
:10239000809364021092260410922704109228045D
:1023A0001092290410922A0410922B0410922C04EB
:1023B00010922D0410924E0410924F04109250046B
:1023C0001092510410923E0410923F041092400467
:1023D0001092410410922E0410922F041092300497
:1023E000109231048BE194E00E94E20F8BE194E0C3
:1023F0000E94640F40E050E06AEF73E48BE194E0E8
:102400000E9480058BE194E00E9494021092E20306
:102410001092E3031092E4031092E5031092E60396
:102420001092E7031092E8031092E90310920A0455
:1024300010920B0410920C0410920D041092FA03E7
:102440001092FB031092FC031092FD031092EA031A
:102450001092EB031092EC031092ED0387ED93E0E2
:102460000E94E20F87ED93E00E94640F40E050E08D
:102470006AEF73E487ED93E00E94800587ED93E0B7
:102480000E94940268EE73E080E090E00E94A50A4A
:10249000C0E0C13661F08AEB92E00E94E207892B2E
:1024A000C1F38AEB92E00E94C007C82FF2CF612CE3
:1024B00040EF742E50E7252E50EA352E5EEF452E64
:1024C00055245A9480916E0290916F02823091054A
:1024D00009F45EC030F4009761F0019709F445C03B
:1024E000E0C18330910509F470C0049709F4C8C1B4
:1024F000D8C180E591E00E947E1080912A049091DD
:102500002B04A0912C04B0912D048037904AAE4F3B
:10251000BF4F61F020922A0430922B0440922C0489
:1025200050922D048BE194E00E940E048091E6030A
:102530009091E703A091E803B091E9038037904AB6
:10254000AE4FBF4F61F02092E6033092E703409216
:10255000E8035092E90387ED93E00E940E0481E0C6
:102560008093720281E090E00EC080917102882316
:1025700009F497C180917002882309F492C11092E6
:10258000720282E090E090936F0280936E0289C1A4
:102590008091260490912704A0912804B0912904E9
:1025A000883D9C4DAF4FBF4F0CF47BC18091E2033F
:1025B0009091E303A091E403B091E503883D9C4D25
:1025C000AF4FBF4F0CF094C16CC1409126045091A5
:1025D00027046091280470912904411580EF580761
:1025E0008FEF680778070CF491C080916C0290918E
:1025F0006D02092E000CAA0BBB0B84179507A607CA
:10260000B70709F483C050936D0240936C02C0E099
:10261000D0E021EE822E2AE7922E2EE3A22E21E494
:10262000B22E36E6C32EDC2C3CEEE32E31E4F32E44
:1026300007ED13EA20EB3EE34DEC5CEC6CE47DEB44
:1026400084EA94E00E94570C882311F02196E1CF90
:1026500087E691E00E94C3108BE691E00E94C310D0
:102660006091A4047091A5048091A6049091A704A0
:102670000E94930E8BE691E00E94C3106091A80423
:102680007091A9048091AA049091AB040E94930ECA
:102690008BE691E00E94C3106091B4047091B50480
:1026A0008091B6049091B7040E94930E8BE691E05E
:1026B0000E94C31060912604709127048091280421
:1026C000909129040E9491108BE691E00E94C31022
:1026D0008BE691E00E94C3108BE691E00E94C3104C
:1026E0008BE691E00E94C3108BE691E00E94C3103C
:1026F0008BE691E00E94C310BE01DD0F880B990BA1
:102700000E9491108BE691E00E947E104091E203BE
:102710005091E3036091E4037091E503411590EF5C
:1027200059079FEF690779070CF490C080916A02FE
:1027300090916B02092E000CAA0BBB0B8417950716
:10274000A607B70709F482C050936B0240936A0250
:10275000C0E0D0E083E3882E982C8BE9A82E80E49B
:10276000B82E96E6C92EDC2C92E1E92E92E4F92EE1
:102770000AE919E929E13EE34AE057ED63E87FEB16
:102780008FE594E00E94570C882311F02196E2CF48
:102790008BE691E00E94C3108BE691E00E94C3108B
:1027A0008BE691E00E94C3108BE691E00E94C3107B
:1027B0008BE691E00E94C3108DE691E00E94C31069
:1027C0008BE691E00E94C31060915F0470916004F9
:1027D00080916104909162040E94930E8BE691E0D7
:1027E0000E94C31060916304709164048091650439
:1027F000909166040E94930E8BE691E00E94C310B4
:1028000060916F04709170048091710490917204D2
:102810000E94930E8BE691E00E94C3106091E20348
:102820007091E3038091E4039091E5030E9491107D
:102830008BE691E00E94C310BE01DD0F880B990B5F
:102840000E9491108BE691E00E947E1080912604F8
:1028500090912704A0912804B0912904892B8A2BF8
:102860008B2BF9F48091E2039091E303A091E403B0
:10287000B091E503892B8A2B8B2B09F44CC011C036
:102880008AEB92E00E94E207892B59F08AEB92E0F2
:102890000E94C0078136910521F410926F021092B8
:1028A0006E0269EF74E08BE194E00E94A406D82FD9
:1028B00069EE74E087ED93E00E94A406C82F809132
:1028C0007202882391F0DD2339F08BE194E00E94BD
:1028D000690621E020937102CC2339F087ED93E063
:1028E0000E94690681E0809370020E948208EACD0E
:1028F00081E791E00E947E1083E090E090936F0268
:1029000080936E0270926D0260926C0270926B0204
:1029100060926A02C6CF84E090E035CE2F923F925B
:102920004F925F926F927F928F929F92AF92BF92DF
:10293000CF92DF92EF92FF920F931F93CF93DF938B
:10294000E9E0F5E088E291E09183808312821382CE
:1029500014821582EAEBF2E01382128248EE53E011
:1029600060E070E0448355836683778324E031E040
:102970003183208325EC30E03587248724EC30E058
:102980003787268720EC30E0318B208B21EC30E03C
:10299000338B228B22EC30E0358B248B26EC30E01D
:1029A000378B268B118E128E138E148EEFE0F5E08E
:1029B000918380831282138214821582E5E1F5E00F
:1029C000918380831282138214821582EBE1F5E0F9
:1029D000918380831282138214821582E9E2F5E0EA
:1029E000918380831282138214821582E1E2F5E0E2
:1029F000918380831282138214821582EFE2F5E0C4
:102A0000918380831282138214821582E5E3F5E0BC
:102A1000918380831282138214821582E7E5F3E0AA
:102A200013821282448355836683778326E131E0E3
:102A300031832083EBE3F5E091838083128213825C
:102A40001482158289EFC82E84E0D82EAA24A3947C
:102A5000B12CF601B182A082B382A28214821582C7
:102A6000168217821186108683E090E09387828712
:102A700022E3422E512C612C712C448655866686A9
:102A8000778660E00E94440A39EEE32E34E0F32EAC
:102A9000F701B182A082B382A282148215821682CB
:102AA00017821186108684E090E09387828744869F
:102AB00055866686778660E00E94440A84EA94E040
:102AC0000E94BF038FE594E00E94BF030BE114E076
:102AD0004EE2842E41E0942EF8019182808258E0EB
:102AE000352E328213861486158616861786108A2E
:102AF000118A128A138A148A158A168A412C512C3B
:102B000060E8662E6FE3762E478A508E618E728E55
:102B1000138E148E158E168E478E50A261A272A24D
:102B200013A214A215A216A2B4A6A3A622242A9424
:102B300026A617A210A611A612A68AE083838EE00D
:102B4000848389E085838FE0868313AA14AA15AA5B
:102B500016AA17AA10AE11AE12AE13AE14AE15AE71
:102B600016AE40925A0450925B0460925C047092DC
:102B70005D0410925E041782108611861286B301DE
:102B8000A201C8010E948005C7EDD3E09982888226
:102B90003A821B861C861D861E861F86188A198A05
:102BA0001A8A1B8A1C8A1D8A1E8A4F8A588E698E31
:102BB0007A8E1B8E1C8E1D8E1E8E4F8E58A269A281
:102BC0007AA21BA21CA21DA21EA2BCA6ABA62EA668
:102BD0001FA218A619A61AA685E08B8387E08C830E
:102BE00086E08D833E821BAA1CAA1DAA1EAA1FAACC
:102BF00018AE19AE1AAE1BAE1CAE1DAE1EAE409284
:102C000016045092170460921804709219041092DE
:102C10001A041F82188619861A86B301A201CE01F2
:102C20000E948005EDEAF3E0D182C08284EA94E05C
:102C300093838283158304831782168211861086FC
:102C4000168E178E10A211A212A213A214A215A200
:102C500046A257A260A671A640E050E160E070E095
:102C6000428753876487758716861786108A118A6C
:102C7000128A138A148A158A168A178A108E118E60
:102C8000128E138E148E158EE3E8F3E0F182E0824B
:102C90008FE594E093838283D583C4831782168261
:102CA00011861086168E178E10A211A212A213A2E0
:102CB00014A215A246A257A260A671A64287538706
:102CC0006487758716861786108A118A128A138A76
:102CD000148A158A168A178A108E118E128E138EF8
:102CE000148E158EEBE7F3E0D182C082138302834A
:102CF0001582148217821682E3E7F3E0F182E08204
:102D0000D383C2831582148217821682EBE6F3E026
:102D1000D182C082138302831582148217821682A5
:102D2000E3E6F3E0F182E082D383C283158214826A
:102D300017821682DF91CF911F910F91FF90EF9034
:102D4000DF90CF90BF90AF909F908F907F906F90CB
:102D50005F904F903F902F9008950E94EF1608F4D7
:102D600081E00895E89409C097FB3EF49095809522
:102D7000709561957F4F8F4F9F4F9923A9F0F92F41
:102D800096E9BB279395F695879577956795B795BF
:102D9000F111F8CFFAF4BB0F11F460FF1BC06F5FA5
:102DA0007F4F8F4F9F4F16C0882311F096E911C0B7
:102DB000772321F09EE8872F762F05C0662371F0D8
:102DC00096E8862F70E060E02AF09A95660F771FEC
:102DD000881FDAF7880F9695879597F90895990FC8
:102DE0000008550FAA0BE0E8FEEF16161706E807D5
:102DF000F907C0F012161306E407F50798F0621BF6
:102E0000730B840B950B39F40A2661F0232B242BCA
:102E1000252B21F408950A2609F4A140A6958FEFE9
:102E2000811D811D08950E9426170C9497170E94FA
:102E3000891738F00E94901720F0952311F00C9418
:102E400080170C94861711240C94CB170E94A81796
:102E500070F3959FC1F3950F50E0551F629FF001ED
:102E6000729FBB27F00DB11D639FAA27F00DB11D06
:102E7000AA1F649F6627B00DA11D661F829F22278F
:102E8000B00DA11D621F739FB00DA11D621F839F16
:102E9000A00D611D221F749F3327A00D611D231FEC
:102EA000849F600D211D822F762F6A2F11249F573A
:102EB00050409AF0F1F088234AF0EE0FFF1FBB1F3D
:102EC000661F771F881F91505040A9F79E3F5105FC
:102ED00080F00C9480170C94CB175F3FE4F3983E7E
:102EE000D4F3869577956795B795F795E7959F5FA6
:102EF000C1F7FE2B880F911D9695879597F9089538
:102F000097F99F6780E870E060E008959FEF80EC9C
:102F1000089500240A94161617061806090608953F
:102F200000240A9412161306140605060895092EA5
:102F30000394000C11F4882352F0BB0F40F4BF2B14
:102F400011F460FF04C06F5F7F4F8F4F9F4F089554
:102F500057FD9058440F551F59F05F3F71F047954A
:102F6000880F97FB991F61F09F3F79F0879508952F
:102F7000121613061406551FF2CF4695F1DF08C04E
:102F8000161617061806991FF1CF8695710561056B
:102F900008940895E894BB2766277727CB0197F913
:102FA0000895052E97FB1EF400940E94E81757FD24
:102FB00007D00E94F01707FC03D04EF40C94E817DA
:102FC00050954095309521953F4F4F4F5F4F089555
:102FD00090958095709561957F4F8F4F9F4F089585
:102FE000A1E21A2EAA1BBB1BFD010DC0AA1FBB1F0D
:102FF000EE1FFF1FA217B307E407F50720F0A21B7F
:10300000B30BE40BF50B661F771F881F991F1A94EB
:1030100069F760957095809590959B01AC01BD0115
:10302000CF0108955058BB27AA270E942A180C9454
:1030300097170E94891738F00E94901720F039F4F2
:103040009F3F19F426F40C9486170EF4E095E7FBE5
:103050000C948017E92F0E94A81758F3BA1762073B
:1030600073078407950720F079F4A6F50C94CA1726
:103070000EF4E0950B2EBA2FA02D0B01B901900193
:103080000C01CA01A0011124FF27591B99F0593FD7
:1030900050F4503E68F11A16F040A22F232F342F1F
:1030A0004427585FF3CF469537952795A795F0406D
:1030B0005395C9F77EF41F16BA0B620B730B840B82
:1030C000BAF09150A1F0FF0FBB1F661F771F881F3A
:1030D000C2F70EC0BA0F621F731F841F48F4879592
:1030E00077956795B795F7959E3F08F0B0CF939584
:1030F000880F08F09927EE0F979587950895DF932D
:10310000DD27B92FBF7740E85FE31616170648079B
:103110005B0718F4D92F0E9482199F938F937F9396
:103120006F930E94D019E8E8F0E00E9456190E94BF
:1031300097172F913F914F915F910E942617DD23A2
:1031400051F09058A2EA2AED3FE049EC5FE3D078D5
:103150005D270E942A18DF910C9497170E94C218CD
:103160000C9497170E94901758F00E94891740F00E
:1031700029F45F3F29F00C94801751110C94CB1760
:103180000C9486170E94A81768F39923B1F355236E
:1031900091F3951B550BBB27AA276217730784076A
:1031A00038F09F5F5F4F220F331F441FAA1FA9F300
:1031B00035D00E2E3AF0E0E832D091505040E695EE
:1031C000001CCAF72BD0FE2F29D0660F771F881F4F
:1031D000BB1F261737074807AB07B0E809F0BB0B42
:1031E000802DBF01FF2793585F4F3AF09E3F510556
:1031F00078F00C9480170C94CB175F3FE4F3983E63
:10320000D4F3869577956795B795F7959F5FC9F73E
:10321000880F911D9695879597F90895E1E0660FBF
:10322000771F881FBB1F621773078407BA0720F038
:10323000621B730B840BBA0BEE1F88F7E0950895A1
:103240000E9427196894B1110C94CB1708950E941D
:10325000B01788F09F5798F0B92F9927B751B0F061
:10326000E1F0660F771F881F991F1AF0BA95C9F70A
:1032700014C0B13091F00E94CA17B1E008950C94C7
:10328000CA17672F782F8827B85F39F0B93FCCF37A
:10329000869577956795B395D9F73EF49095809587
:1032A000709561957F4F8F4F9F4F0895DF93CF9318
:1032B0001F930F93FF92EF92DF927B018C01689432
:1032C00006C0DA2EEF010E942617FE01E894A591B0
:1032D0002591359145915591A6F3EF010E942A1849
:1032E000FE019701A801DA9469F7DF90EF90FF9053
:1032F0000F911F91CF91DF9108950E94EF1608F46E
:103300008FEF08959B01AC0160E070E080E89FE3DF
:103310000C94AE1819F416F40C9486170C94D91961
:103320000E94B017B8F39923C9F3B6F39F57550B12
:1033300087FF0E94E7190024A0E640EA9001805828
:103340005695979528F4805C660F771F881F20F0AC
:1033500026173707480730F4621B730B840B2029AC
:1033600031294A2BA69517940794202531254A2701
:1033700058F7660F771F881F20F026173707480772
:1033800030F4620B730B840B200D311D411DA09591
:1033900081F7B901842F9158880F969587950895E4
:1033A0009B01AC010C9413170E94EF16880B990B2C
:1033B00008959F3F31F0915020F487957795679558
:1033C000B795880F911D9695879597F90895915017
:1033D0005040660F771F881FD2F70895EE0FFF1F2A
:1033E0000590F491E02D099481E090E0F8940C941C
:0633F000F919F894FFCF6B
:1033F600000000001908010EB1076008E207C007C7
:10340600D407000000001A09EA084A09BE08E208C3
:10341600CE08BF08000000004D090000000094021D
:103426006002B2021B020502C301A2016E014D0138
:10343600F700B3006E616E00696E66006F76660017
:10344600537461727420686F6D696E672070726F55
:103456006365647572650053313A002C0053323A45
:103466000053746172742072656164696E672073BB
:0A347600656E736F7273000D0A009B
:00000001FF
