:100000000C94B3000C94DB000C94DB000C94DB002C
:100010000C94DB000C94DB000C94DB000C94DB00F4
:100020000C94DB000C94DB000C94DB000C94DB00E4
:100030000C94DB000C94DB000C94DB000C94DB00D4
:100040000C94A30F0C94DB000C947D0E0C94570EB3
:100050000C94DB000C94DB000C94DB000C94DB00B4
:100060000C94ED0F0C94DB00F900FF0005010B016F
:10007000110117011D0158025F0266026D02740230
:100080008B027B028B02820256155E15C316BF18C7
:10009000EC186B19671974190019084AD73B3BCE45
:1000A000016E84BCBFFDC12F3D6C74319ABD568377
:1000B0003DDA3D00C77F11BED9E4BB4C3E916BAA2F
:1000C000AABE000000803F000000000023002600C0
:1000D0002900000000006410B71DC8206E3BAC3042
:1000E000D9269041DC76F4516B6B5861B24D3C716E
:1000F00005502083B8ED44930FF0E8A3D6D68CB317
:1001000061CBB0C2649BD4D2D38678E20AA01CF241
:10011000BDBD00000000250028002B0004040404DD
:1001200004040404020202020202030303030303A1
:10013000010204081020408001020408102001027E
:100140000408102000000000240027002A000000FE
:100150000008000201000003040700000000000086
:10016000000043110E1A11241FBECFEFD8E0DEBFEE
:10017000CDBF11E0A0E0B1E0E0E4FDE302C00590F6
:100180000D92AE35B107D9F726E0AEE5B1E001C07A
:100190001D92AC34B207E1F710E0C2EBD0E004C02E
:1001A0002197FE010E944B1DC13BD107C9F70E9458
:1001B000B0130C94931E0C940000089580E090E01E
:1001C0000895CF93DF934770552766277727FA0165
:1001D0003197EC01A881B981E730F10520F4EC5C9E
:1001E000FF4F0C944B1D1496ED91FC91159761E017
:1001F00029C01496ED91FC91159765E023C01496E3
:10020000ED91FC91159764E01DC01496ED91FC9161
:10021000159766E017C01496ED91FC91159762E072
:1002200011C01496ED91FC9115976AE00BC01496DD
:10023000ED91FC91159768E005C01496ED91FC9145
:10024000159769E0DF91CF910994CF93DF93EC018B
:10025000CB01BA0126E030E040E050E00E94331BC1
:10026000623071058105910559F18CF461157105B4
:1002700081059105F1F06130710581059105C1F5A8
:10028000E881F9810480F581E02D65E02DC06430BE
:1002900071058105910511F1D4F065307105810575
:1002A000910531F5E881F9810480F581E02D66E062
:1002B0001BC0E881F9810480F581E02D64E014C061
:1002C000E881F9810480F581E02D61E00DC0E881CD
:1002D000F9810480F581E02D63E006C0E881F981B1
:1002E0000480F581E02D62E0CE01DF91CF91099489
:1002F000DF91CF9108954370552766277727DC015A
:10030000ED91FC910480F581E02D423051056105AD
:10031000710571F0433051056105710559F04130A7
:1003200051056105710511F065E005C066E003C087
:100330006AE001C069E00994CF93DF93EC01CB013F
:10034000BA0123E030E040E050E00E94331B61300E
:1003500071058105910581F0623071058105910576
:1003600091F0672B682B692BC1F4E881F981048037
:10037000F581E02D64E00DC0E881F9810480F5810C
:10038000E02D61E006C0E881F9810480F581E02D6F
:1003900062E0CE01DF91CF910994DF91CF91089572
:1003A0004370552766277727DC01ED91FC91048087
:1003B000F581E02D423051056105710571F0433042
:1003C00051056105710559F041305105610571050F
:1003D00011F062E005C063E003C061E001C060E0CD
:1003E00009940F931F93CF93DF93EC01E881F98178
:1003F0000480F581E02D8C010D5B1F4FD8018C919D
:10040000811102C060E001C062E0CE010995E8817F
:10041000F9810480F581E02DD8018C91811102C011
:1004200061E001C063E0CE010995EBA5FCA5E230D7
:10043000F10538F0EE0FFF1FEE0FFF1F35973197D4
:10044000F1F7E881F9810480F581E02DD8018C91E4
:10045000811102C060E001C062E0CE01DF91CF9166
:100460001F910F910994CF93DF93EC0120E030E0CE
:10047000A9016B897C898D899E890E94DF1C1816D1
:100480001CF4EFA5F8A902C0E9A9FAA9DF91CF9160
:1004900009940F931F93DC011296EC910E2F10E03C
:1004A00009301105C0F5F801E55CFF4F0C944B1DB8
:1004B000DC01ED91FC910084F185E02D29C0DC0187
:1004C000ED91FC910284F385E02D22C0DC01ED91D9
:1004D000FC910484F585E02D1BC0DC01ED91FC91BD
:1004E0000684F785E02D14C0DC01ED91FC910088B5
:1004F000F189E02D0DC0DC01ED91FC910288F389BA
:10050000E02D06C0DC01ED91FC910488F589E02D19
:100510001F910F9109941F910F910895CF92DF922F
:10052000EF92FF920F931F93CF93DF937C01262FBF
:10053000972F8A0180917F01882391F0C62FD72FB2
:100540006E01C40ED51ECC15DD0571F06991D70181
:10055000ED91FC910190F081E02DC7010995F3CF59
:10056000642F822F0E941B11C801DF91CF911F9130
:100570000F91FF90EF90DF90CF900895CF93DF938E
:100580001F92CDB7DEB7698320917F012223D1F07E
:100590002091B403203240F021E030E0FC013383AD
:1005A000228380E090E015C08091B503E82FF0E051
:1005B000E15AFE4F998190838F5F8093B5038093BA
:1005C000B40305C061E0CE0101960E941B1181E0D9
:1005D00090E00F90DF91CF910895CF93DF93FC01CE
:1005E0002281222359F1EC0161E083810E94080FEE
:1005F00061E08C810E94080F8A81843011F088307C
:1006000039F461E08D810E94080F61E08E8106C09F
:10061000833011F0863021F461E08D810E94080F53
:100620008EA58F3F59F061E00E94080F6DA581E013
:1006300068278EA5DF91CF910C94D80EDF91CF91D2
:100640000895CF93DF93FC0122812223A9F0EC01CE
:100650000190F081E02D0480F581E02D60E00995A6
:100660008EA58F3F49F061E00E94080F6DA58EA511
:10067000DF91CF910C94D80EDF91CF910895CF9256
:10068000DF92EF92FF920F931F93CF93DF93FC01C2
:100690002281243041F0283031F0233031F02630EF
:1006A00021F012E003C014E001C013E0EC01279632
:1006B000E12CF12CC62ED12C01E0C6010E2C02C07B
:1006C000959587950A94E2F7688180FD6027FE0181
:1006D000349780810E94D80EFFEFEF1AFF0A21960F
:1006E000E11658F3DF91CF911F910F91FF90EF909A
:1006F000DF90CF900895CF92DF92EF92FF920F9309
:100700001F93CF93DF93EC016130710511F08FE1FE
:1007100001C08EE588A36AE00E94540A109281010C
:10072000809380018A3009F0ABC08E010F5D1F4FAE
:100730006E018BE2C80ED11C7801EC14FD0441F06F
:1007400080E793E00E94F10DF70181937F01F5CFDF
:10075000CE018696F80121918F01211193C0E817EF
:10076000F907C1F719AA88A588778AAB89A58BAB49
:100770008AA58F708CABDE01D9968E010F5C1F4F5E
:100780007E01F5E3EF0EF11CF801EE15FF0529F0EF
:100790008D919081892B8193F8CFC8A181E08093BE
:1007A0007F01C0935E011092B5031092B4030E1541
:1007B0001F0559F0F80161918F0180E793E00E94D5
:1007C000BE028130A1F386E05EC09091B403913205
:1007D00008F04AC08091C8018111FCCF22E020932B
:1007E000C80121E02093C7012FEF2093C60110928A
:1007F000C5019093C401AFE5B1E042EA51E0FA01CE
:100800002E2F241B291718F42D912193F9CF109224
:10081000C3019091C301CC0FC92BC093C301909128
:10082000C201913061F41092C2019091C301909382
:10083000BB009091BC0093FDF8CF95EC01C095EE04
:100840009093BC009091C8019230E1F39091C60161
:100850009F3F79F08091C601803241F08091C601BE
:10086000803331F084E005C081E003C082E001C044
:1008700083E01092B5031092B40310927F0103C07D
:1008800085E001C087E0DF91CF911F910F91FF902C
:10089000EF90DF90CF900895FC01108211821282B8
:1008A0001382148215821682178210861186128690
:1008B00013861486158616861786108A118A128A60
:1008C000138A148A158A168A178A108E118E128E30
:1008D000138E148E158E168E178E10A215AA81E017
:1008E00086AB17AA90E890AF11AE82AF13AE20ECA2
:1008F00024AF15AE22E026AF17AEDF01A05CBF4FDC
:100900009C9311961C9211968C9311961C921196A1
:100910001C929397CF018B961D92A817B907E1F708
:1009200013A614A615A616A617A610AA11AA12AAEF
:1009300013AA14AA08952F923F924F925F926F923A
:100940007F928F929F92AF92BF92CF92DF92EF925F
:10095000FF920F931F93CF93DF9300D000D0CDB7BA
:10096000DEB71C01FC0187849088A188B28883854A
:100970009485A585B685881A990AAA0ABB0A63894F
:100980007489858996899B01AC010E94751A6B0157
:100990007C01F101638D748D858D968D9B01AC0179
:1009A0000E94751B9B01AC01C701B6010E94101C7F
:1009B0000E94821C81149104A104B104A1F462304C
:1009C0007105810591050CF07CC0F10113A214A200
:1009D00015A216A2138A148A158A168A13AA14AAB3
:1009E00015AA16AA03C1F10103A914A925A936A9BC
:1009F000ED5BFF4F181419041A041B04FCF41016C5
:100A00001106120613064CF4681579058A059B0534
:100A10004CF52081211155C025C001151105210576
:100A2000310509F44EC0681579058A059B050CF05F
:100A300048C08081882309F444C037C010161106CD
:100A400012061306F4F40027112798010819190952
:100A50002A093B0960177107820793071CF420815C
:100A6000222379F19B01AC0188279927DC01821BA5
:100A7000930BA40BB50BF10183AB94ABA5ABB6AB59
:100A800020C00115110521053105D9F0CC24DD2444
:100A90007601C818D908EA08FB086C157D058E0593
:100AA0009F057CF4808181110CC0309520951095B4
:100AB00001951F4F2F4F3F4FF10103AB14AB25ABF7
:100AC00036ABF101C3A8D4A8E5A8F6A881010D5B57
:100AD0001F4FC114D104E104F10491F487A990AD32
:100AE000A1ADB2AD83AF94AFA5AFB6AF81E018149E
:100AF00019041A041B040CF080E0F801808340C044
:100B0000F10183AC94ACA5ACB6ACA5019401C501D0
:100B1000B4010E94751B2B013C01C701B6010E9464
:100B2000161A20E030E040E850E40E94751A20E0F8
:100B300030E040E85FE30E94751B9B01AC01C301FC
:100B4000B2010E94101C9B01AC01C501B4010E94BE
:100B5000741B4B015C01F101FF9640805180628063
:100B600073809201A3010E94DF1C181614F0420149
:100B70005301A401B501F10143AF54AF65AF76AFA6
:100B8000FFEFCF1ADF0AEF0AFF0AF101C3AAD4AAC6
:100B9000E5AAF6AA23AD34AD45AD56ADCA01B901FB
:100BA00029833A834B835C830E94891CF10163A3F0
:100BB00074A385A396A329813A814B815C8160E06F
:100BC00074E284E799E40E94101CF101638B748B3A
:100BD000858B968BF8012081211108C0DC01CB01A7
:100BE000B058F101838B948BA58BB68B0F900F902F
:100BF0000F900F90DF91CF911F910F91FF90EF9089
:100C0000DF90CF90BF90AF909F908F907F906F902C
:100C10005F904F903F902F9008954F925F926F9208
:100C20007F928F929F92AF92BF92CF92DF92EF927C
:100C3000FF92CF93DF93EC016A017B018B8C9C8C3C
:100C4000AD8CBE8C9A01AB01C501B4010E940F1A94
:100C5000882309F449C06BA97CA98DA99EA90E948B
:100C6000161A2B013C01A7019601C501B4010E948F
:100C7000101C9B01AC01C301B2010E94751A0E94B5
:100C8000821C6BAB7CAB8DAB9EABA701960160E089
:100C900070E080E090E40E94101C0E94F21C26E5A7
:100CA0003EE04DE25FE30E94751A20E034E244E743
:100CB00059E40E94751A6FAB78AF89AF9AAFCB8EAB
:100CC000DC8EED8EFE8ECE01DF91CF91FF90EF9006
:100CD000DF90CF90BF90AF909F908F907F906F905C
:100CE0005F904F900C949B04DF91CF91FF90EF9019
:100CF000DF90CF90BF90AF909F908F907F906F903C
:100D00005F904F9008950F931F93FC010785108902
:100D100021893289041715072607370741F04787CD
:100D2000508B618B728B1F910F910C949B041F91C0
:100D30000F9108958F929F92AF92BF92CF92DF92C0
:100D4000EF92FF92CF93DF93EC018B889C88AD8864
:100D5000BE8820E030E0A901C501B4010E940F1A4D
:100D6000882309F442C0A5019401C501B4010E9481
:100D7000751A6B017C016B8D7C8D8D8D9E8D9B0119
:100D8000AC010E94751B9B01AC01C701B6010E941A
:100D9000101C0E94821C6B017C012FEFC21AD20A28
:100DA000E20AF20A20E030E0A901C501B4010E9484
:100DB000DF1C4B855C856D857E8518162CF44C0DEB
:100DC0005D1D6E1D7F1D04C04C195D096E097F09F4
:100DD000CE01DF91CF91FF90EF90DF90CF90BF9049
:100DE000AF909F908F900C948306DF91CF91FF90EE
:100DF000EF90DF90CF90BF90AF909F908F9008952D
:100E00008F929F92AF92BF92CF92DF92EF92FF921A
:100E10000F931F93CF93DF93FC0100811181DC01BD
:100E2000CC24CA94DC2C760120E030E02017310776
:100E300009F446C01596CD91DC91169713964D9105
:100E40005C9114974C0F5D1FC417D50709F434C08B
:100E50009991E92FEC25EF7084E0E89FF0011124CF
:100E6000EE52FF4F85909590A590B49084E0F69453
:100E7000E794D794C7948A95D1F78C249D24AE2407
:100E8000BF24E92FE295EF70E825EF7084E0E89F3A
:100E9000F0011124EE52FF4FC590D590E590F490EB
:100EA00094E0B694A794979487949A95D1F7C82420
:100EB000D924EA24FB24C8CF2F5F3F4F1596B6CF25
:100EC000C701B60160957095809590950E94511D5F
:100ED000DF91CF911F910F91FF90EF90DF90CF9016
:100EE000BF90AF909F908F900895EF92FF920F93D5
:100EF0001F93CF93DF93EC017C0100E010E0F5E05D
:100F0000EF0EF11C888199810817190740F4F70149
:100F1000808191810E94ED1D0F5F1F4FF0CF8FE701
:100F2000FE0111928A95E9F7DF91CF911F910F9100
:100F3000FF90EF900895CF93DF93EC0188E695EC56
:100F4000AFEFBFEF8B879C87AD87BE878F87988B6E
:100F5000A98BBA8B1BAA1CAA1DAA1EAA1BA21CA283
:100F60001DA21EA21B8A1C8A1D8A1E8ACE010E94F7
:100F70005809CE010E94DA0840E050E06AEF73E4BD
:100F8000CE010E940D0640E050E0BA01CE010E9461
:100F9000830681E0DF91CF910895CF92DF92EF92A7
:100FA000FF920F931F93CF93DF93EC018B01FB0113
:100FB000228533853327F901E25BFE4F8491F901E5
:100FC000E05DFE4FE490F901E45EFE4FF490FF20F7
:100FD000A1F081110E94AF0EEF2DF0E0EE0FFF1F88
:100FE000E853FF4FA591B491EC91EE2131E020E060
:100FF00009F430E0832F922F02C080E090E0F801E6
:10100000228133818217930789F0938382832FB7DC
:10101000F89480913D0490913E04A0913F04B091DA
:1010200040042FBF84839583A683B7832FB7F8949A
:1010300080913D0490913E04A0913F04B091400402
:101040002FBFF8014481558166817781841B950B00
:10105000A60BB70B448555856685778548175907D4
:101060006A077B0708F09AC082819381918380830D
:10107000208531858217930709F090C04F855889E4
:1010800069897A898B859C85AD85BE854817590706
:101090006A077B070CF082C0CE010E949A068B85FE
:1010A0009C85AD85BE858F87988BA98BBA8B1BAA33
:1010B0001CAA1DAA1EAA1BA21CA21DA21EA21B8A3C
:1010C0001C8A1D8A1E8A11E04B855C856D857E8594
:1010D0008F859889A989BA89481759076A077B07B4
:1010E00009F451C0E881F9810280F381E02DCE013D
:1010F00009958BA19CA1ADA1BEA1892B8A2B8B2B1D
:1011000009F44EC00E94440F6B017C018FA198A589
:10111000A9A5BAA5B701A601481B590B6A0B7B0B01
:101120008BA19CA1ADA1BEA1481759076A077B07F7
:10113000B8F1FE01ED5BFF4F80814B855C856D85CD
:101140007E85882329F04F5F5F4F6F4F7F4F04C02C
:1011500041505109610971094B875C876D877E8712
:10116000E881F9814B855C856D857E850680F781F8
:10117000E02DCE010995CFA2D8A6E9A6FAA6CE0108
:101180000E949B040DC0CE010E949A06E881F9815D
:101190000190F081E02DCE01099502C010E094CFBE
:1011A000812FDF91CF911F910F91FF90EF90DF90F2
:1011B000CF9008958F929F92AF92BF92CF92DF927D
:1011C000EF92FF921F93CF93DF93EC0120E030E08A
:1011D0004AEF53E46B897C898D899E890E940F1A9E
:1011E000882309F459C0CF88D88CE98CFA8C460141
:1011F0005701B7FAB094B7F8B09420E030E04AEF66
:1012000053E4C501B4010E94DF1C18165CF020E015
:1012100030E04AEF53E4C701B6010E940F1A87FD80
:1012200003C010C07501640120E030E0A901C701CE
:10123000B6010E940F1A81110BC01BA21CA21DA295
:101240001EA226C0C12CD12C8AEFE82E83E4F82EF2
:10125000A701960160E074E284E799E40E94101C03
:101260009F770E94891C6BA37CA38DA39EA35E0124
:1012700083E4A80EB11C11E020E030E0A901C70111
:10128000B6010E94DF1C18160CF010E0F501108367
:10129000CB8ADC8AED8AFE8ADF91CF911F91FF9085
:1012A000EF90DF90CF90BF90AF909F908F90089578
:1012B000CF92DF92EF92FF92CF93DF93EC0120E089
:1012C00030E04AE754E46F89788D898D9A8D0E94C9
:1012D0000F1A8823F1F180E090E0AAE7B4E48F8B45
:1012E000988FA98FBA8FFE01FF9680839183A28386
:1012F000B3838BA99CA9ADA9BEA9181619061A0615
:101300001B063CF56B897C898D899E899B01AC010C
:101310000E94751A6B017C016B8D7C8D8D8D9E8D6D
:101320009B01AC010E94751B9B01AC01C701B6017A
:101330000E94101C0E94821C6BAB7CAB8DAB9EABE1
:10134000CE01DF91CF91FF90EF90DF90CF900C9482
:101350009B04DF91CF91FF90EF90DF90CF900895A5
:10136000609154027091550226E532E080E090E0F1
:101370008617970709F44AC02B5F3F4FF90135974D
:10138000E081AC014F5F5F4FE430F1F525E0289F2D
:10139000F001299FF00D1124EC5AFD4F249FD0013C
:1013A000259FB00D1124AC5ABD4F6D917C914381A6
:1013B000548188E492E00E948A1E609148027091F4
:1013C000490280914A0290914B020E94511D609304
:1013D00048027093490280934A0290934B026091B5
:1013E0004C0270914D0280914E0290914F020E94EA
:1013F000511D60934C0270934D0280934E02909366
:101400004F0280E090E00895CA01B2CF8AEF9FEFCB
:101410000895AF92BF92CF92DF92FF920F931F93E6
:10142000CF93DF93A090C901B090CA0129E1A21621
:10143000B10458F58A01EB01F82ECB010E94581D2A
:1014400065012FEFC21AD20A25E02C9DF0012D9DD7
:10145000F00D1124E753FE4F918380830097C1F074
:101460002A9DF0012B9DF00D1124E753FE4FF282CF
:10147000D483C383AE01B8010E948A1ED092CA01F0
:10148000C092C90180E090E005C08FEF9FEF02C0DD
:101490008EEF9FEFDF91CF911F910F91FF90DF9023
:1014A000CF90BF90AF9008959091C8019111FCCF5B
:1014B00091E09093C8019093C7012FEF2093C6014C
:1014C0001092C501260F2093C4019093C3019091FF
:1014D000C301880F892B8093C3018091C2018130A1
:1014E00061F41092C2018091C3018093BB0080918E
:1014F000BC0083FDF8CF85EC01C085EE8093BC0075
:101500008091C8018130E1F38091C501861710F404
:101510006091C501A2EAB1E022E831E0F9018E2F25
:10152000821B861718F48D918193F9CF862F089529
:101530004F925F926F927F928F929F92AF92BF92E3
:10154000CF92DF92EF92FF920F931F93CF93DF938F
:10155000EC0166E088A10E94540A109281018093F8
:101560008001863009F04DC18E01055D1F4F7E015F
:1015700031E3E30EF11C0E151F0541F080E793E007
:101580000E94F10DF80181938F01F5CF2FA5622FF5
:10159000607F70E034E0759567953A95E1F78BA52B
:1015A000F0E18F9FC0011124682B792B611538E081
:1015B00073070CF070512F700CA580E1089F80011B
:1015C0001124022B0115E8E01E070CF01051072E24
:1015D000000C880B990B0E94161A29E334EB48EC97
:1015E0005DE30E94751A20E030E0A9010E94751B9E
:1015F0006B017C01688379838A839B83B801110F17
:10160000880B990B0E94161A29E334EB48EC5DE332
:101610000E94751A20E030E0A9010E94751B2B0181
:101620003C016C837D838E839F8320E030E0A901A1
:10163000C701B6010E940F1A20E030E0A901811114
:1016400007C0C301B2010E940F1A811111C0AEC0C0
:10165000C701B6010E94DF1C18169CF420E030E0A0
:10166000A901C301B2010E940F1A811113C09EC0CB
:1016700020E030E0A901C701B6010E94DF1C181666
:101680004CF020E030E0A901C701B6010E94DF1C48
:10169000181694F420E030E0A901C301B2010E94C1
:1016A000DF1C18164CF4A7019601C301B2010E9479
:1016B000101C0E94E11B77C020E030E0A901C701A7
:1016C000B6010E940F1A81110AC020E030E0A90182
:1016D000C301B2010E94DF1C18160CF46BC020E09D
:1016E00030E0A901C701B6010E940F1A87FF29C087
:1016F00020E030E0A901C301B2010E94DF1C1816EE
:101700009CF020E030E0A901C301B2010E940F1A51
:10171000882309F458C020E030E0A901C301B201D8
:101720000E940F1A87FF0DC0A7019601C301B201E5
:101730000E94101C0E94E11B2BED3FE049E450E4A5
:1017400030C020E030E0A901C701B6010E940F1AA5
:10175000811109C020E030E0A901C301B2010E945B
:101760000F1A87FD39C020E030E0A901C701B6019A
:101770000E94DF1C1816C4F520E030E0A901C30167
:10178000B2010E940F1A87FF2FC0A7019601C30163
:10179000B2010E94101C0E94E11B2BED3FE049ECBE
:1017A00050E40E94751B4B015C011EC0812C912CE2
:1017B00054011AC02BED822E2FE0922E29ECA22E7E
:1017C0002FE3B22E11C09BED892E9FE0992E99E454
:1017D000A92E90E4B92E08C084EE882E8BEC982EAA
:1017E00086E9A82E80E4B82E888A998AAA8ABB8ABC
:1017F0008EA580FD08C098A9892F817090FD03C037
:1018000003C081E001C082E0DF91CF911F910F9171
:10181000FF90EF90DF90CF90BF90AF909F908F9010
:101820007F906F905F904F9008950E94851E4F9219
:101830005F926F927F92EF92FF920F931F93CF93DD
:10184000DF93CDB7DEB7A1970FB6F894DEBF0FBE1A
:10185000CDBF7C01FA01CB0119A2223008F42AE0A5
:101860008E010F5D1F4F422E512C612C712CBF0138
:10187000A30192010E94521BF901CA0101501109F2
:101880006A3014F4605D01C0695CD8016C93232B4D
:10189000242B252B61F70115110591F0F80101901A
:1018A0000020E9F73197AF01401B510BD701ED91B3
:1018B000FC910280F381E02DB801C701099502C0B7
:1018C00080E090E0A1960FB6F894DEBF0FBECDBFCA
:1018D000DF91CF911F910F91FF90EF907F906F90CC
:1018E0005F904F900895CF92DF92EF92FF920F9307
:1018F0001F93CF93DF936C017A018B01C0E0D0E09E
:10190000CE15DF0589F0D8016D918D01D601ED91DD
:10191000FC910190F081E02DC6010995892B11F40D
:101920007E0102C02196ECCFC701DF91CF911F91BC
:101930000F91FF90EF90DF90CF900895FC01538DB1
:10194000448D252F30E0842F90E0821B930B541799
:1019500010F0CF96089501970895FC01918D828D26
:10196000981761F0828DDF01A80FB11D5D968C91F3
:10197000928D9F5F9F73928F90E008958FEF9FEFFE
:101980000895FC01918D828D981731F0828DE80FBA
:10199000F11D858D90E008958FEF9FEF0895FC0174
:1019A000918D228D892F90E0805C9F4F821B910941
:1019B0008F739927089583ED92E00E94CF0C21E068
:1019C000892B09F420E0822F0895FC01848DDF012A
:1019D000A80FB11DA35ABF4F2C91848D90E00196A2
:1019E0008F739927848FA689B7892C93A089B18991
:1019F0008C9180648C93938D848D981306C002889B
:101A0000F389E02D80818F7D80830895EF92FF928E
:101A10000F931F93CF93DF93EC0181E0888F9B8D11
:101A20008C8D981305C0E889F989808185FD24C0D3
:101A3000F62E0B8D10E00F5F1F4F0F731127E02E56
:101A40008C8DE8120CC00FB607FCFACFE889F98933
:101A5000808185FFF5CFCE010E94E50CF1CF8B8D03
:101A6000FE01E80FF11DE35AFF4FF0820B8FEA8968
:101A7000FB898081806207C0EE89FF896083E889E5
:101A8000F98980818064808381E090E0DF91CF914B
:101A90001F910F91FF90EF900895CF93DF93EC018A
:101AA000888D8823C9F0EA89FB89808185FD05C07E
:101AB000A889B9898C9186FD0FC00FB607FCF5CFB8
:101AC000808185FFF2CFA889B9898C9185FFEDCF00
:101AD000CE010E94E50CE7CFDF91CF91089580E021
:101AE00090E0892B29F00E94DB0C81110C940000FE
:101AF00008958FEF9FEF089580E090E008958FEFB5
:101B00009FEF089508951F93CF93DF93DC015296C2
:101B10002D913C9153972115310539F481E090E0E6
:101B200013969C938E9312973DC01D96ED91FC9158
:101B30001E971C969C911C97892F80951FB75496D1
:101B40004C91549741FB772770F941FD6095F894CB
:101B50004081772311F0492B01C048234083E901DC
:101B60002197F1F748E0508160FF02C0592B01C076
:101B700058235083E9012197F1F76695415099F771
:101B8000772321F090818923808303C08081982B63
:101B900090831FBF52968D919C9153970197F1F7B7
:101BA00021E030E0C901DF91CF911F91089585EDCB
:101BB0008093BC008091BC0084FDFCCF1092C801D2
:101BC00008950895E091810180918001E81730F433
:101BD000F0E0EE57FE4F808190E008958FEF9FEF89
:101BE00008959091810180918001981750F4E92F18
:101BF000F0E0EE57FE4F208130E09F5F909381012F
:101C000002C02FEF3FEFC90108958091800190E05D
:101C100020918101821B910908958F929F92AF922A
:101C2000BF92CF92DF92EF92FF920F931F93CF93C9
:101C3000DF937C01EB016C0182E0C80ED11C4701EF
:101C4000E5E08E0E911C00E010E0F60141916F017D
:101C500050E060E070E02AE0CE010E94170C5C01C9
:101C6000E881F9810190F081E02D6EE2CE010995C5
:101C70008A0D9B1D080F191FC814D90431F7F701ED
:101C8000458150E060E070E02AE0CE010E94170C30
:101C9000800F911FDF91CF911F910F91FF90EF90D7
:101CA000DF90CF90BF90AF909F908F9008951F923C
:101CB0000F920FB60F9211242F933F934F935F9380
:101CC0006F937F938F939F93AF93BF93EF93FF9304
:101CD00083ED92E00E94E50CFF91EF91BF91AF91EF
:101CE0009F918F917F916F915F914F913F912F9134
:101CF0000F900FBE0F901F9018951F920F920FB666
:101D00000F9211242F938F939F93EF93FF93E09162
:101D1000E302F091E4028081E091E902F091EA02AD
:101D200082FD12C090818091EC028F5F8F732091B1
:101D3000ED02821751F0E091EC02F0E0ED52FD4F20
:101D4000958F8093EC0201C08081FF91EF919F916C
:101D50008F912F910F900FBE0F901F901895833089
:101D600081F028F4813099F08230A1F00895873015
:101D7000A9F08830B9F08430D1F4809180008F7D53
:101D800003C0809180008F7780938000089584B590
:101D90008F7702C084B58F7D84BD08958091B00097
:101DA0008F7703C08091B0008F7D8093B00008953D
:101DB0001F93CF93DF93282F30E0F901E25BFE4FB2
:101DC0008491F901E05DFE4FD491F901E45EFE4F8C
:101DD000C491CC23C9F0162F81110E94AF0EEC2FB5
:101DE000F0E0EE0FFF1FEE5EFE4FA591B4918FB7AE
:101DF000F894111105C09C91ED2FE095E92302C0E4
:101E0000EC91ED2BEC938FBFDF91CF911F91089553
:101E1000CF93DF9390E0FC01E05DFE4F2491FC0145
:101E2000E45EFE4F8491882361F190E0880F991F52
:101E3000FC01EC5BFE4FC591D491FC01EE5EFE4FC0
:101E4000A591B491611109C09FB7F894888120953C
:101E500082238883EC912E230BC0623061F49FB7FC
:101E6000F8943881822F809583238883EC912E2BE0
:101E70002C939FBF06C08FB7F894E8812E2B288340
:101E80008FBFDF91CF9108953FB7F8948091890477
:101E900090918A04A0918B04B0918C0426B5A89BE4
:101EA00005C02F3F19F00196A11DB11D3FBFBA2FEC
:101EB000A92F982F8827820F911DA11DB11DBC014C
:101EC000CD0142E0660F771F881F991F4A95D1F711
:101ED00008958F929F92AF92BF92CF92DF92EF922E
:101EE000FF926B017C010E94440F4B015C01C11405
:101EF000D104E104F104F1F00E94440FDC01CB01B4
:101F000088199909AA09BB09883E9340A105B10522
:101F100070F321E0C21AD108E108F10888EE880EBA
:101F200083E0981EA11CB11CC114D104E104F1048A
:101F300019F7DDCFFF90EF90DF90CF90BF90AF907B
:101F40009F908F9008951F920F920FB60F921124B9
:101F50002F933F938F939F93AF93BF9380913D04B3
:101F600090913E04A0913F04B091400430918804C8
:101F700023E0230F2D3720F40196A11DB11D05C0CC
:101F800026E8230F0296A11DB11D2093880480939B
:101F90003D0490933E04A0933F04B093400480918D
:101FA000890490918A04A0918B04B0918C040196CD
:101FB000A11DB11D8093890490938A04A0938B0482
:101FC000B0938C04BF91AF919F918F913F912F91CE
:101FD0000F900FBE0F901F9018951F920F920FB683
:101FE0000F9211242F933F934F935F936F937F939F
:101FF0008F939F93AF93BF93EF93FF938091B9001B
:10200000887F803609F49CC068F5883209F45BC08B
:1020100090F4803109F454C038F4882309F4F6C0F0
:10202000883009F44DC0F6C0883109F44CC08032C4
:1020300009F45DC0EFC0803409F468C048F480330F
:1020400009F455C0883309F0E5C08093C601D8C0B3
:10205000803509F44FC0883509F45DC0883409F033
:10206000D9C0D6C0883909F4C7C0A8F4883709F4A4
:1020700067C038F4883609F463C0803709F460C05B
:10208000C9C0883809F4B8C0803909F45FC0803805
:1020900009F0C0C05BC0803B09F486C038F4803AC8
:1020A00009F466C0883A09F47FC0B4C0803C09F4E2
:1020B000A7C0883C09F4A4C0883B09F48AC0AAC020
:1020C0008091C30110C09091C5018091C4019817FF
:1020D00070F5E091C50181E08E0F8093C501F0E0BD
:1020E000EE55FE4F80818093BB0085EC86C08093C7
:1020F000C6018EC0E091C50181E08E0F8093C501BD
:102100008091BB00F0E0EE55FE4F80839091C501B9
:102110008091C4016EC0E091C50181E08E0F809373
:10212000C5018091BB00F0E0EE55FE4F80838091A9
:10213000C70181116DC081E08093C20184EA61C052
:1021400083E08093C80110928704CFCF80918704E9
:10215000803208F051C0E091870481E08E0F8093B7
:1021600087048091BB00F0E0E959FB4F8083BDCF2D
:1021700085EC8093BC001092C80180918704803266
:1021800030F4E0918704F0E0E959FB4F1082609150
:10219000870470E0E0916504F091660487E694E0BE
:1021A00009951092870436C084E08093C80110928C
:1021B000640410926304E0916104F0916204099553
:1021C00080916304811105C081E0809363041092C3
:1021D0004104E091640481E08E0F80936404F0E098
:1021E000EF5BFB4F80818093BB00909164048091F2
:1021F0006304981708F479CF85E88093BC000AC07F
:1022000085EC8093BC001092C80104C01092C601F6
:102210000E94D70DFF91EF91BF91AF919F918F9148
:102220007F916F915F914F913F912F910F900FBED2
:102230000F901F90189540916304262F30E0240FD3
:10224000311D21323105DCF42091C8012430C9F45C
:10225000FC0180E090E0861758F4309163042191EE
:10226000DC01AF5BBB4FA30FB11D2C930196F3CFE5
:1022700080916304680F6093630480E0089581E0B7
:10228000089582E008952F923F924F925F926F924D
:102290007F928F929F92AF92BF92CF92DF92EF92F6
:1022A000FF920F931F93CF93DF93ECE7F3E0CFE21E
:1022B000D1E0D183C0831282138214821582E3EDB0
:1022C000F2E01382128288EE93E0A0E0B0E0848313
:1022D0009583A683B7832BE031E03183208325ECFF
:1022E00030E03587248724EC30E03787268720ECE0
:1022F00030E0318B208B21EC30E0338B228B22ECD1
:1023000030E0358B248B26EC30E0378B268B118E1A
:10231000128E138E148EE2E8F3E0D183C083128212
:10232000138214821582E8E8F3E0D183C08312821D
:10233000138214821582EEE8F3E0D183C083128207
:10234000138214821582ECE9F3E0D183C0831282F8
:10235000138214821582E4E9F3E0D183C0831282F0
:10236000138214821582E2EAF3E0D183C0831282E1
:10237000138214821582E8EAF3E0D183C0831282CB
:10238000138214821582E0E7F3E0138212828483C1
:102390009583A683B7832DE131E03183208303E366
:1023A00016E0F8011382128284839583A683B78393
:1023B0008FE491E091838083138A128AE7E4F6E048
:1023C00060816D7F60836695617081E0682782E03F
:1023D0000E94D80E61E082E00E94080FE2E3F1E083
:1023E000E491D8011C96EC93EEE1F1E0E491F0E089
:1023F000EE0FFF1FEE5EFE4F85919491F8019687D8
:102400008587EEEAF3E0D183C083128213821482BF
:10241000158293E2C92E96E0D92EAA24A394B12C5A
:10242000D6011196BC92AE921396BC92AE921297C0
:10243000F60114821582168217821186108683E0B7
:1024400090E09387828732E3432E512C612C712CCC
:102450001C964D925D926D927C921F9760E00E9457
:10246000080F43E1E42E46E0F42EF701B182A0828A
:10247000B382A28214821582168217821186108678
:1024800084E090E0938782874486558666867786C7
:1024900060E00E94080F8EEC95E00E944C0489E8F1
:1024A00095E00E944C0405E415E055E3852E51E0CB
:1024B000952ED80111969C928E9268E0362E129637
:1024C0003C921297F80113861486158616861F967D
:1024D0001D921D921D921C925297138A148A158A7E
:1024E000168A412C512C70E8672E7FE3772E579681
:1024F0004D925D926D927C925A97138E148E158E2A
:10250000168E5F964D925D926D927C92929713A279
:1025100014A215A216A2B4A6A3A622242A9426A623
:1025200097961D921D921D921C929A978AE013967F
:102530008C9313978EE014968C93149789E01596DC
:102540008C9315978FE016968C93169713AA14AA5E
:1025500015AA16AAD7961D921D921D921C92DA9763
:1025600013AE14AE15AE16AE40928405509285059A
:1025700060928605709287051092880517821086F2
:1025800011861286B301A201C8010E940D06C1E0A6
:10259000D5E0998288823A821B861C861D861E861B
:1025A0001F86188A198A1A8A1B8A1C8A1D8A1E8A03
:1025B0004F8A588E698E7A8E1B8E1C8E1D8E1E8EB3
:1025C0004F8E58A269A27AA21BA21CA21DA21EA213
:1025D000BCA6ABA62EA61FA218A619A61AA685E011
:1025E0008B8387E08C8386E08D833E821BAA1CAAA6
:1025F0001DAA1EAA1FAA18AE19AE1AAE1BAE1CAE9B
:102600001DAE1EAE409240055092410560924205BB
:1026100070924305109244051F82188619861A8607
:10262000B301A201CE010E940D06E7EDF4E0D182D4
:10263000C0828EEC95E09383828315830483178296
:10264000168211861086168E178E10A211A212A263
:1026500013A214A215A246A257A260A671A640E03A
:1026600050E160E070E04287538764877587168683
:102670001786108A118A128A138A148A158A168A72
:10268000178A108E118E128E138E148E158EEDEA0F
:10269000F4E0F182E08289E895E093838283D58338
:1026A000C4831782168211861086168E178E10A28A
:1026B00011A212A213A214A215A246A257A260A6AA
:1026C00071A6428753876487758716861786108A96
:1026D000118A128A138A148A158A168A178A108E0A
:1026E000118E128E138E148E158EE5EAF4E0D182CF
:1026F000C082138302831582148217821682EDE949
:10270000F4E0F182E082D383C283158214821782BF
:102710001682E5E9F4E0D182C08213830283158238
:10272000148217821682EDE8F4E0F182E082D3830E
:10273000C2831582148217821682DF91CF911F9176
:102740000F91FF90EF90DF90CF90BF90AF909F9050
:102750008F907F906F905F904F903F902F90089553
:10276000CF93DF93CDB7DEB7C856D1090FB6F89433
:10277000DEBF0FBECDBF789484B5826084BD84B5C2
:10278000816084BD85B5826085BD85B5816085BD6C
:1027900080916E00816080936E0010928100809124
:1027A00081008260809381008091810081608093AC
:1027B0008100809180008160809380008091B100D1
:1027C00084608093B1008091B00081608093B000FC
:1027D00080917A00846080937A0080917A00826090
:1027E00080937A0080917A00816080937A00809152
:1027F0007A00806880937A001092C100E091E30231
:10280000F091E40282E08083E091DF02F091E00247
:102810001082E091E102F091E20280E18083109267
:10282000EB02E091E702F091E80286E08083E0911C
:10283000E502F091E602808180618083E091E5020B
:10284000F091E602808188608083E091E502F0915A
:10285000E602808180688083E091E502F091E602E3
:1028600080818F7D808361E082E00E94080F61E0BB
:1028700080E10E94080F61E081E10E94080F61E0A1
:1028800082E10E94080F60E080E10E94D80E60E0C3
:1028900081E10E94D80E60E082E10E94D80E64E6D9
:1028A00070E080E090E00E94690F61E080E10E94AA
:1028B000D80E60E082E10E94D80E64EF71E080E003
:1028C00090E00E94690F61E081E10E94D80E61E012
:1028D00082E10E94D80E64EF71E080E090E00E94F7
:1028E000690F10928101109280011092B50310922D
:1028F000B4031092C80181E08093C7011092C20115
:1029000061E082E10E94D80E61E083E10E94D80E6E
:102910008091B9008E7F8093B9008091B9008D7F3E
:102920008093B90088E48093B80085E48093BC006C
:102930008CE08093B80060E070E08EEC95E00E943F
:102940007B038093B70361E070E089E895E00E9423
:102950007B038093B603109250051092510510929C
:10296000520510925305109254051092550510927D
:10297000560510925705109278051092790510921D
:102980007A0510927B0510926805109269051092E5
:102990006A0510926B051092580510925905109215
:1029A0005A0510925B0585E495E00E94580985E47C
:1029B00095E00E94DA0840E050E06AEF73E485E4B5
:1029C00095E00E940D0685E495E00E942103109297
:1029D0000C0510920D0510920E0510920F05109225
:1029E0001005109211051092120510921305109205
:1029F0003405109235051092360510923705109265
:102A00002405109225051092260510922705109294
:102A1000140510921505109216051092170581E005
:102A200095E00E94580981E095E00E94DA0840E0B4
:102A300050E06AEF73E481E095E00E940D0681E0CA
:102A400095E00E94210368EE73E080E090E00E9430
:102A5000690FA7E0AA2EB12C63E276E085E495E049
:102A60000E94CD07082F63E176E081E095E00E94A7
:102A7000CD07182F8091B803882361F0002321F03F
:102A800085E495E00E949B07112321F081E095E009
:102A90000E949B07E091CF03F091D003E930F1054C
:102AA00008F019C4EC5BFF4F0C944B1D8091D103CF
:102AB000882309F41FC481E090E041C16091D203F2
:102AC000E6EDF3E080E090E000E010E0462F50E01B
:102AD0009F01265D3340241735070CF0DDC081309F
:102AE0009105B1F01CF40097B1F0D4C0823091058B
:102AF000D1F08330910509F0CDC0A1E0B0E0AC0F7A
:102B0000BD1FA00FB11F80818C930F5F1F4FB8C0F6
:102B100080E090E0BFC02081233F09F4B4C0213F92
:102B200009F0B8C0ADC02081233F09F4AFC0213FF8
:102B300009F4AFC0223F09F099C08FE7E4E5F2E065
:102B4000DF011D928A95E9F7E12CF12CF5E03F2E8B
:102B5000E016F10608F0A0C0C0905402D0905502D3
:102B6000B9E1CB16D10408F072C03C9CF0013D9C49
:102B7000F00D11249F012C5A3D4F4901A1E0B0E016
:102B8000AC0FBD1FAE0DBF1D8C91D90112968C9359
:102B9000D7011196270123E0420E511C041515059B
:102BA00008F455C0E95AFD4F81E090E08C0F9D1F5D
:102BB000A80FB91F8D919C9191838083D4011396A6
:102BC0006D907C90149776246724762414967C92DA
:102BD0006E9213977201E60CF71C0E151F05B8F1E3
:102BE000C3010E94581D96012F5F3F4F329EA001E6
:102BF000339E500D1124FA01EC5AFD4F6F01918361
:102C00008083009721F161E070E06C0F7D1F640DFF
:102C1000751DA3010E948A1ED40112968C918330E7
:102C2000D9F484E592E00E940007A6966FAFA697BC
:102C3000A7967FAFA797A8968FAFA897A9969FAFA3
:102C4000A997D601ED91FC918081861729F084E542
:102C500092E00E94750720C0809154029091550225
:102C60000196909355028093540272CFA1E0B0E098
:102C7000AC0FBD1FA00FB11F2C930F5F1F4F0AC0D9
:102C800082E090E007C081E090E004C083E090E043
:102C900001C060E031961ACF6091540270915502E4
:102CA00026E532E080E090E08617970761F12B5F20
:102CB0003F4FF9013597E081AC014F5F5F4FE13045
:102CC00001F525E0289FF001299FF00D1124EC5A11
:102CD000FD4F249FD001259FB00D1124AC5ABD4F4C
:102CE0006D917C9143815481CE0101960E948A1E90
:102CF000898190E09093CE038093CD0380E090E0B3
:102D000004C0CA01D1CF8AEF9FEF892B59F084E527
:102D100092E00E947507E6E0F0E0F093D003E093C4
:102D2000CF03D9C2209100018091CD039091CE03B1
:102D30002223A1F08730910539F488E090E0909348
:102D4000D0038093CF03C7C2019709F0C0C222E02D
:102D500030E03093D0032093CF03BDC28130910582
:102D6000B1F38230910519F483E090E0E8CF86302A
:102D7000910519F484E090E0E2CF099709F0A7C229
:102D800085E090E0DCCF8EEC95E00E94980A89E81F
:102D900095E00E94980A20E030E048EC52E460910F
:102DA000DE057091DF058091E0059091E1050E94BC
:102DB000751A0E94821C6093C5037093C6038093AA
:102DC000C7039093C80320E030E048EC52E46091E0
:102DD000990570919A0580919B0590919C050E94A0
:102DE000751A0E94821C6093C9037093CA03809372
:102DF000CB039093CC038FE7A9ECB1E01D928A95A9
:102E0000E9F781E08983AE014F5F5F4F61E070E0D9
:102E100082E00E94090A409150055091510560914D
:102E20005205709153054093B9035093BA036093D0
:102E3000BB037093BC0380910C0590910D05A0918C
:102E40000E05B0910F058093BD039093BE03A09330
:102E5000BF03B093C0031092C1031092C20310923B
:102E6000C3031092C403209100012111D0C0C72ECA
:102E7000DD24EE24FF24342F222711270027C02A27
:102E8000D12AE22AF32A0027142F252F362F0027D4
:102E900011273327C02AD12AE22AF32A052F162F19
:102EA000272F332727FD3A950027222733270C2980
:102EB0001D292E293F2909831A832B833C83CB2E7E
:102EC000DD24EE24FF24782F662755274427C42AC3
:102ED000D52AE62AF72A4427582F692F7A2F8A0104
:102EE0009B01002711273327B701A601402B512B47
:102EF000622B732B892F9A2FAB2FBB27A7FDBA9577
:102F00008827AA27BB27842B952BA62BB72B8D832D
:102F10009E83AF83B88719861A861B861C86AE01EE
:102F20004F5F5F4F6CE070E084E00E94090A80917F
:102F3000C5039091C603A091C703B091C803CB2EDF
:102F4000DD24EE24FF24782F662755274427C42A42
:102F5000D52AE62AF72A4427582F692F7A2F8A0183
:102F60009B01002711273327B701A601402B512BC6
:102F7000622B732B892F9A2FAB2FBB27A7FDBA95F6
:102F80008827AA27BB27842B952BA62BB72B8983B1
:102F90009A83AB83BC838091C9039091CA03A091AB
:102FA000CB03B091CC03CB2EDD24EE24FF24782F6D
:102FB000662755274427C42AD52AE62AF72A442714
:102FC000582F692F7A2F8A019B0100271127332759
:102FD000B701A601402B512B622B732B892F9A2FFF
:102FE000AB2FBB27A7FDBA958827AA27BB27842B21
:102FF000952BA62BB72B8D839E83AF83B887AE010D
:103000004F5F5F4F68E070E089E00E94090A89EC39
:1030100091E00E94000769837A838B839C83AE01D1
:103020004F5F5F4F64E070E083E00E94090A4091C7
:10303000C9015091CA01E9ECF1E080E090E0C12CB7
:10304000D12C8417950749F0238134812D5F3F4FA0
:10305000C20ED31E01963596F4CF2601C601029604
:103060008536910508F0C7C1C6010E94581D8C0124
:10307000892B49F02BEC822E21E0922E212C312C31
:10308000E12CF12C2BC00E94851EF401418152815C
:103090003A01F3E06F0E711C4614570408F44CC05B
:1030A000942F852FF801EE0DFF1DD4012C91208364
:1030B00092838183C701039613966D917C91149737
:1030C000800F911F0E948A1EE60CF71C46185708B5
:1030D000BFEF2B1A3B0AE5E08E0E911C8091C901CF
:1030E0009091CA012816390680F2EC14FD0421F5EE
:1030F00081EF8983F801E00EF11E81E090E016C0B7
:1031000021913FE0320F333048F4A1E0B0E0AC0F42
:10311000BD1FA80FB91F33EF3C930196A1E0B0E0AB
:10312000AC0FBD1FA80FB91F2C930196EE15FF051C
:1031300039F08436910520F3C8010E94ED1D5BC172
:103140007C01AFEFEA1AFA0AE1E0F0E0EC0FFD1FB4
:10315000E80FF91F22EF2083C8010E94ED1DE11442
:10316000F10441F0A701BE016F5F7F4F83ED92E054
:103170000E94730C89EC91E00E947507A8C00E9420
:10318000B009892B09F0C3CD1092B80340914802D1
:103190005091490260914A0270914B0241155105CC
:1031A0006105B0E87B0721F085E495E00E94830685
:1031B00040914C0250914D0260914E0270914F022D
:1031C000411551056105E0E87E0709F480C081E002
:1031D00095E00E9483067BC040E750EA6EEF7FEFE8
:1031E00085E495E00E94830640E750EA6EEF7FEFAA
:1031F00081E095E00E94830681E08093B80367C078
:103200000E94B009892B09F082CD809148029091EB
:103210004902A0914A02B0914B02809350059093CD
:103220005105A0935205B093530580935405909394
:103230005505A0935605B093570510927805109246
:10324000790510927A0510927B051092680510920C
:10325000690510926A0510926B051092580510923C
:10326000590510925A0510925B0580914C0290917D
:103270004D02A0914E02B0914F0280930C059093A5
:103280000D05A0930E05B0930F0580931005909344
:103290001105A0931205B0931305109234051092F6
:1032A00035051092360510923705109224051092BC
:1032B00025051092260510922705109214051092EC
:1032C0001505109216051092170510920001B09284
:1032D000D003A092CF03FF24F39482EFE82E01E005
:1032E00010E091EFD92E31C084E592E00E9475077D
:1032F0001092D1031092D0031092CF03ECCF83ED44
:1033000092E00E94AD0C80933B04813F29F1823F03
:10331000E9F19091D603913F79F42091D403309153
:10332000D503A9014F5F5F4F5093D5034093D4035A
:10333000F901EA52FC4F8083833F09F056C0809127
:103340003A04811152C0F0923A0483ED92E00E9457
:10335000CF0C892BA1F64CC080913A04882329F028
:103360002091D603213F09F449C080E090E0FC01A0
:10337000EA52FC4F1082019684369105C1F71093F2
:10338000D5030093D403D092D6032FC090913A0472
:103390009923A1F09091D603913F81F42091D40319
:1033A0003091D503A9014F5F5F4F5093D5034093F0
:1033B000D403F901EA52FC4F808317C08091D603F1
:1033C000813F99F48091D4039091D503FC01EA5296
:1033D000FC4FE08201969093D3038093D203109226
:1033E000D5031092D403F092D10310923A04ADCFDA
:1033F0000E946F0D31CB4FEF5FEFB5CE8091D403BC
:103400009091D503AC014F5F5F4F5093D50340932C
:10341000D403FC01EA52FC4F2083E7CF08950E94B9
:10342000511A08F481E00895E89409C097FB3EF42E
:1034300090958095709561957F4F8F4F9F4F992301
:10344000A9F0F92F96E9BB279395F695879577957F
:103450006795B795F111F8CFFAF4BB0F11F460FF3F
:103460001BC06F5F7F4F8F4F9F4F16C0882311F097
:1034700096E911C0772321F09EE8872F762F05C0AB
:10348000662371F096E8862F70E060E02AF09A9546
:10349000660F771F881FDAF7880F9695879597F93B
:1034A0000895990F0008550FAA0BE0E8FEEF1616D5
:1034B0001706E807F907C0F012161306E407F50728
:1034C00098F0621B730B840B950B39F40A2661F09C
:1034D000232B242B252B21F408950A2609F4A1403F
:1034E000A6958FEF811D811D08950E94881A0C9466
:1034F000F91A0E94EB1A38F00E94F21A20F0952374
:1035000011F00C94E21A0C94E81A11240C942D1B5F
:103510000E940A1B70F3959FC1F3950F50E0551F51
:10352000629FF001729FBB27F00DB11D639FAA2718
:10353000F00DB11DAA1F649F6627B00DA11D661F67
:10354000829F2227B00DA11D621F739FB00DA11D88
:10355000621F839FA00D611D221F749F3327A00D42
:10356000611D231F849F600D211D822F762F6A2FDE
:1035700011249F5750409AF0F1F088234AF0EE0F43
:10358000FF1FBB1F661F771F881F91505040A9F770
:103590009E3F510580F00C94E21A0C942D1B5F3F66
:1035A000E4F3983ED4F3869577956795B795F795AC
:1035B000E7959F5FC1F7FE2B880F911D9695879524
:1035C00097F9089597F99F6780E870E060E00895A3
:1035D0009FEF80EC089500240A941616170618062B
:1035E0000906089500240A94121613061406050607
:1035F0000895092E0394000C11F4882352F0BB0F98
:1036000040F4BF2B11F460FF04C06F5F7F4F8F4FFA
:103610009F4F089557FD9058440F551F59F05F3F35
:1036200071F04795880F97FB991F61F09F3F79F0E4
:1036300087950895121613061406551FF2CF469566
:10364000F1DF08C0161617061806991FF1CF8695E8
:103650007105610508940895E894BB2766277727CC
:10366000CB0197F90895052E97FB1EF400940E9454
:103670004A1B57FD07D00E94521B07FC03D04EF493
:103680000C944A1B50954095309521953F4F4F4FD4
:103690005F4F089590958095709561957F4F8F4FFE
:1036A0009F4F0895A1E21A2EAA1BBB1BFD010DC05E
:1036B000AA1FBB1FEE1FFF1FA217B307E407F507E2
:1036C00020F0A21BB30BE40BF50B661F771F881FBE
:1036D000991F1A9469F760957095809590959B0154
:1036E000AC01BD01CF0108955058BB27AA270E9405
:1036F0008C1B0C94F91A0E94EB1A38F00E94F21AF3
:1037000020F039F49F3F19F426F40C94E81A0EF4D3
:10371000E095E7FB0C94E21AE92F0E940A1B58F38C
:10372000BA17620773078407950720F079F4A6F5A6
:103730000C942C1B0EF4E0950B2EBA2FA02D0B0130
:10374000B90190010C01CA01A0011124FF27591BE6
:1037500099F0593F50F4503E68F11A16F040A22FEC
:10376000232F342F4427585FF3CF4695379527955D
:10377000A795F0405395C9F77EF41F16BA0B620B5C
:10378000730B840BBAF09150A1F0FF0FBB1F661FA3
:10379000771F881FC2F70EC0BA0F621F731F841FE6
:1037A00048F4879577956795B795F7959E3F08F00C
:1037B000B0CF9395880F08F09927EE0F97958795CE
:1037C0000895DF93DD27B92FBF7740E85FE3161632
:1037D000170648075B0718F4D92F0E94E41C9F9333
:1037E0008F937F936F930E94321DEAE9F0E00E946D
:1037F000B81C0E94F91A2F913F914F915F910E943E
:10380000881ADD2351F09058A2EA2AED3FE049ECF6
:103810005FE3D0785D270E948C1BDF910C94F91A2E
:103820000E94241C0C94F91A0E94F21A58F00E946B
:10383000EB1A40F029F45F3F29F00C94E21A511181
:103840000C942D1B0C94E81A0E940A1B68F3992310
:10385000B1F3552391F3951B550BBB27AA2762178C
:103860007307840738F09F5F5F4F220F331F441F99
:10387000AA1FA9F335D00E2E3AF0E0E832D09150CD
:103880005040E695001CCAF72BD0FE2F29D0660FBA
:10389000771F881FBB1F261737074807AB07B0E8FD
:1038A00009F0BB0B802DBF01FF2793585F4F3AF003
:1038B0009E3F510578F00C94E21A0C942D1B5F3F4B
:1038C000E4F3983ED4F3869577956795B795F79589
:1038D0009F5FC9F7880F911D9695879597F9089571
:1038E000E1E0660F771F881FBB1F6217730784070D
:1038F000BA0720F0621B730B840BBA0BEE1F88F71C
:10390000E09508950E94891C6894B1110C942D1BB8
:1039100008950E94121B88F09F5798F0B92F99279D
:10392000B751B0F0E1F0660F771F881F991F1AF0AA
:10393000BA95C9F714C0B13091F00E942C1BB1E0C8
:1039400008950C942C1B672F782F8827B85F39F0C7
:10395000B93FCCF3869577956795B395D9F73EF443
:1039600090958095709561957F4F8F4F9F4F0895EB
:10397000DF93CF931F930F93FF92EF92DF927B0120
:103980008C01689406C0DA2EEF010E94881AFE01AD
:10399000E894A5912591359145915591A6F3EF01B4
:1039A0000E948C1BFE019701A801DA9469F7DF9051
:1039B000EF90FF900F911F91CF91DF9108950E949A
:1039C000511A08F48FEF08959B01AC0160E070E09C
:1039D00080E89FE30C94101C19F416F40C94E81A78
:1039E0000C94361D0E94121BB8F39923C9F3B6F349
:1039F0009F57550B87FF0E94441D0024A0E640EA14
:103A0000900180585695979528F4805C660F771F33
:103A1000881F20F026173707480730F4621B730B06
:103A2000840B202931294A2BA69517940794202529
:103A300031254A2758F7660F771F881F20F0261771
:103A40003707480730F4620B730B840B200D311DD0
:103A5000411DA09581F7B901842F9158880F969543
:103A6000879508959B01AC010C94751A9F3F31F026
:103A7000915020F4879577956795B795880F911D9C
:103A80009695879597F9089591505040660F771F46
:103A9000881FD2F70895EE0FFF1F0590F491E02DD7
:103AA0000994692796276927782787277827089513
:103AB000CF93DF938230910510F482E090E0E091A3
:103AC0004A06F0914B0620E030E0C0E0D0E03097AD
:103AD00011F14081518148175907C0F04817590723
:103AE00061F482819381209719F09B838A832BC094
:103AF00090934B0680934A0626C02115310519F094
:103B00004217530718F49A01BE01DF01EF0102804A
:103B1000F381E02DDCCF2115310509F1281B390B8C
:103B20002430310590F412968D919C911397611574
:103B3000710521F0FB019383828304C090934B06AF
:103B400080934A06FD01329644C0FD01E20FF31F47
:103B500081939193225031092D933C933AC0209147
:103B6000480630914906232B41F4209103013091FE
:103B700004013093490620934806209101013091B9
:103B800002012115310541F42DB73EB740910501E1
:103B900050910601241B350BE0914806F09149062F
:103BA000E217F307A0F42E1B3F0B2817390778F014
:103BB000AC014E5F5F4F2417350748F04E0F5F1F73
:103BC00050934906409348068193919302C0E0E0E8
:103BD000F0E0CF01DF91CF9108950F931F93CF9322
:103BE000DF93009709F48CC0FC0132971382128294
:103BF00000914A0610914B060115110581F42081B0
:103C00003181820F931F2091480630914906281771
:103C1000390779F5F0934906E093480671C0D80159
:103C200040E050E0AE17BF0750F412962D913C9142
:103C30001397AD012115310509F1D901F3CF9D018C
:103C4000DA013383228360817181860F971F821787
:103C5000930769F4EC0128813981260F371F2E5F05
:103C60003F4F318320838A819B8193838283452BBD
:103C700029F4F0934B06E0934A0642C01396FC9356
:103C8000EE931297ED01499159919E01240F351F32
:103C9000E217F30771F480819181840F951F0296DA
:103CA00011969C938E938281938113969C938E930D
:103CB0001297E0E0F0E0D80112968D919C91139755
:103CC000009719F0F8018C01F6CF8D919C91980125
:103CD0002E5F3F4F820F931F209148063091490677
:103CE0002817390769F4309729F410924B0610927F
:103CF0004A0602C0138212821093490600934806B6
:103D0000DF91CF911F910F91089581E090E0F89499
:103D10000C94931EFB01DC0102C001900D924150F6
:103D20005040D8F7089510E0C2EBD0E004C0FE0187
:103D30000E944B1D2196C33BD107C9F7F894FFCFD2
:103D40000100004C06800000000000060D730C9E70
:103D50000C4D0DCF0CAD0CC10C00000000BE028E4E
:103D600002DE00E10D050EF10DE20D000000000D78
:103D70000E000000002103ED023F0349023302F16F
:103D800001D0019C017B012501E1000000000083BE
:0E3D90000D730CDE00820D7C0D7F0D790D0091
:00000001FF
