:100000000C94A7000C94CF000C94CF000C94CF005C
:100010000C94CF000C94CF000C94CF000C94CF0024
:100020000C94CF000C94CF000C94CF000C94CF0014
:100030000C94CF000C94CF000C94CF000C94CF0004
:100040000C948A150C94CF000C9489180C94BB184E
:100050000C94CF000C94CF000C94CF000C94CF00E4
:100060000C94E9120C94CF00A203AA03D7030C044A
:100070003F046B045A04610473097A0981098809F1
:100080008F09A6099609A6099D09160A1A0A1E0AC9
:10009000220A260A2A0A2E0A000000006410B71D50
:1000A000C8206E3BAC30D9269041DC76F4516B6BA6
:1000B0005861B24D3C7105502083B8ED44930FF068
:1000C000E8A3D6D68CB361CBB0C2649BD4D2D3861E
:1000D00078E20AA01CF2BDBD000000080002010089
:1000E00000030407000000000000000001020408F3
:1000F0001020408001020408102001020408102092
:1001000004040404040404040202020202020303BD
:100110000303030300000000230026002900000061
:100120000000250028002B0000000000240027000C
:100130002A006C0486085B09FF1144154F155A15F7
:10014000681573157E15EB187E19DE0461091124FC
:100150001FBECFEFD8E0DEBFCDBF11E0A0E0B1E021
:10016000EEE8FCE302C005900D92AA35B107D9F77D
:1001700026E0AAE5B1E001C01D92A133B207E1F784
:1001800011E0CAE4D1E004C02297FE010E94FA1CEB
:10019000C233D107C9F70E94361A0C943A1E0C9448
:1001A0000000FC0171836083538342833583248381
:1001B0001782168211861086168E178E10A211A233
:1001C00012A213A214A215A240E050E060E87FE35F
:1001D00046A357A360A771A740E050E160E070E03C
:1001E000428753876487758716861786108A118A17
:1001F000128A138A148A158A168A178A108E118E0B
:10020000128E138E148E158E0895CF93DF93CDB773
:10021000DEB7C456D1090FB6F894DEBF0FBECDBF0E
:10022000AC0164E670E0CE0101960E94AE01AC0123
:10023000009779F0E0918A05F0918B050280F381B7
:10024000E02DBE016F5F7F4F8AE895E0099581E060
:1002500001C080E0CC59DF4F0FB6F894DEBF0FBE6F
:10026000CDBFDF91CF910895CF92DF92EF92FF92B1
:100270000F931F93CF93DF93CDB7DEB7C456D10949
:100280000FB6F894DEBF0FBECDBF6A01FC0120E0BF
:1002900030E000E010E0462F50E07F01E81AF90A54
:1002A000E416F5060CF049C021303105B9F124F40B
:1002B0002115310599F03FC022303105A9F02330D6
:1002C0003105C9F521E030E02C0F3D1F200F311F13
:1002D0004081D9014C930F5F1F4F26C04081433F9F
:1002E00001F1413F41F520C07081733F01F1713F41
:1002F00009F1723F41F4A801BE016F5F7F4FC60153
:100300000E94B3071AC041E050E04C0F5D1F400F40
:10031000511FDA017C930F5F1F4F0DC020E030E0CA
:100320000AC021E030E007C022E030E004C023E052
:1003300030E001C060E03196AECFC801CC59DF4F4C
:100340000FB6F894DEBF0FBECDBFDF91CF911F91E6
:100350000F91FF90EF90DF90CF900895AF92BF92F2
:10036000CF92DF92EF92FF920F931F93CF93DF9381
:100370008C016B015A01CA010E940D077C01029693
:10038000C816D90608F443C0C7010E94051DEC0138
:10039000009711F40E942C1EA501B7010E942207AC
:1003A0008E159F0511F521EFF8012083FE018C0FBA
:1003B0009D1F21E030E053EF12C040816FE0640FD9
:1003C000633030F4D801A20FB31F5C932F5F3F4F0F
:1003D0003196D801A20FB31F4C932F5F3F4FE81700
:1003E000F90739F02C153D0540F3CE010E949D1D03
:1003F0000EC07901FFEFEF1AFF0AF801E20FF31FB9
:1004000082EF8083CE010E949D1DC70102C08FEF45
:100410009FEFDF91CF911F910F91FF90EF90DF90B1
:10042000CF90BF90AF900895FC0171836083538398
:10043000428315821482178216820895FC018481FA
:1004400095810895CF93DF93EC0140E050E0BA012D
:100450008A819B810E94010C40E050E06AE774E4CD
:100460008A819B810E94BE0E40E050E068EC72E4FD
:100470008A819B810E94470F40E050E068EC72E463
:100480008A819B810E94230F40EC5DEB60EF7FEF40
:100490008A819B810E94A00D8A819B81DC01ED9164
:1004A000FC910280F381E02D09951D821C821F8240
:1004B0001E82DF91CF910895CF93DF93EC018C8161
:1004C0009D81009731F0029741F4CE010E942202F3
:1004D000F6CF81E090E09D838C83DF91CF910895EA
:1004E000CF93DF93EC018C819D81019709F04CC083
:1004F000888199810E94EF0F882379F18A819B81FD
:100500000E94E90B97FF29C048E55EE96FEF7FEF96
:100510008A819B810E94010C40E050E06AE774E40C
:100520008A819B810E94BE0E40E050E068EC72E43C
:100530008A819B810E94470F40E050E068EC72E4A2
:100540008A819B810E94230F40E050E0BA018A819A
:100550009B81DF91CF910C94890D8A819B810E94B0
:10056000250E8A819B810E94E90B672B682B692BE2
:1005700059F48A819B81DC01ED91FC910190F0811D
:10058000E02D09951D821C82DF91CF910895982757
:1005900089279827089598278927982708950E94E2
:1005A000FE1C089526E040E052EC61E070E08AE82D
:1005B00095E00E94271861E082E00E94AC1661E09D
:1005C00080E10E94AC1661E081E10E94AC1661E01E
:1005D00082E10E94AC1660E080E10E94E51660E0D6
:1005E00081E10E94E51660E082E10E94E51664E682
:1005F00070E080E090E00C94031680916D01909182
:100600006E018430910554F4823091050CF08DC058
:10061000009739F0019709F445C073C0049791F031
:1006200070C080916C0181117AC080916B01882328
:1006300019F082E090E075C080916A01882309F486
:1006400060C067C08BE891E00E94070983E891E0F1
:100650000E9407098BE891E00E949B08892B21F4F6
:100660008BE891E00E949F0883E891E00E949B083C
:10067000892B21F483E891E00E949F088BE891E0A8
:100680000E949B08892B09F041C083E891E00E94F9
:100690009B08892BD9F510926E0110926D01109272
:1006A0006A0108958BE791E00E94700283E791E070
:1006B0000E9470028BE791E00E941E02892B21F4B8
:1006C0008BE791E00E94220283E791E00E941E02E4
:1006D000892B21F483E791E00E9422028BE791E0CD
:1006E0000E941E02892BC1F483E791E00E941E0242
:1006F000892B91F410926E0110926D0110926C0191
:10070000089510926E0110926D01089581E080931A
:100710006A0184E090E005C081E080936A0181E095
:1007200090E090936E0180936D010895E0916F01C8
:10073000F0917001E830F10508F0CDC0EC5CFF4F9E
:100740000C94F81C80917904882309F4C0C081E0DE
:1007500090E0B2C04EE853E060910D0485E194E072
:100760000E9434016DE073E08EE893E00E94C806B9
:10077000892B09F059C080910D0390910E038130AF
:10078000910519F482E090E097C08230910519F448
:1007900083E090E091C08630910519F484E090E008
:1007A0008BC0099709F086C085E090E085C08FE096
:1007B00093E00E94D00561E070E08FE093E00E943A
:1007C00044068BE292E00E94FB0B609362017093FF
:1007D0006301809364019093650187EE91E00E942C
:1007E000FB0B60936601709367018093680190939F
:1007F000690162E671E08FE093E00E9456068FE0A7
:1008000093E00E9465088FE093E00E9405018FE06D
:1008100093E00E94D8054EC06AE571E08EE893E04F
:100820000E94E506892B39F08EE893E00E94D805F6
:1008300086E090E041C08BE891E00E949F0883E849
:1008400091E00E949F0840915A0150915B01609194
:100850005C0170915D018BE891E00E94CA084091B3
:100860005E0150915F01609160017091610183E8C8
:1008700091E00E94CA0881E080936A011BC08BE767
:1008800091E00E94220283E791E00E9422028BE81D
:1008900091E00E949F0883E891E00E949F088BE707
:1008A00091E00E945C0283E791E00E945C0281E09B
:1008B00080936C0187E090E09093700180936F01CA
:1008C00008958EE893E00E94D80510927904109262
:1008D000700110926F010895CF92EF92FF920F93E3
:1008E0001F9312E3E12EF12C00E010E020E040E045
:1008F00050E064E070E08DEF92E00E94C60F20E0CF
:1009000040E050E063E070E08DEE92E00E94C60FA0
:100910008EEA92E00E9427108FE692E00E94271054
:10092000C12C98E0E92E06E027E045E068E08BE284
:1009300092E00E94520E2FE0E22E09E02EE04AE003
:1009400068E087EE91E00E94520E2BE232E04EEA20
:1009500052E06DEF72E08DEB91E00E94D10027EE46
:1009600031E04FE652E06DEE72E083E991E00E94E3
:10097000D1004BE252E06DEF72E08BE891E00E9413
:10098000910847EE51E06DEE72E083E891E00E943D
:1009900091084BE252E06DEF72E08BE791E00E942C
:1009A000140247EE51E06DEE72E083E791E01F9193
:1009B0000F91FF90EF90CF900C9414028FE692E08D
:1009C0000E946D108EEA92E00E946D108DEE92E012
:1009D0000E94EE0F8DEF92E00C94EE0F61E080E14B
:1009E0000E94E51660E082E10E94E51664EF71E086
:1009F00080E090E00E94031661E081E10E94E5162C
:100A000061E082E10E94E51664EF71E080E090E031
:100A10000E94031685E994E00E94711160E070E085
:100A20008EEA92E00E946E108093720161E070E0A5
:100A30008FE692E00E946E108093710140E050E0DA
:100A4000BA018BE292E00E94010C40E050E46CE1BC
:100A500076E48BE292E00E94BE0E40E050E46CE946
:100A600075E48BE292E00E94470F40E050E46CE9AD
:100A700075E48BE292E00E94230F8BE292E00E94E9
:100A80003E0B40E050E0BA0187EE91E00E94010C7D
:100A900040E050E46CE176E487EE91E00E94BE0E07
:100AA00040E050E46CE975E487EE91E00E94470F66
:100AB00040E050E46CE975E487EE91E00E94230F7A
:100AC00087EE91E00E943E0B68EE73E080E090E0DC
:100AD0000C9403161F93CF93DF9311E0C1E0D0E095
:100AE0008AE895E00E944417892B09F455C08AE8EA
:100AF00095E00E945D1780931304209111043091BA
:100B000012042115310519F0813FC1F40CC040E0F9
:100B100050E0FA01EB5EFB4F10824F5F5F4F4436AF
:100B20005105B9F7F1CF90910F04933F91F0D09315
:100B30001204C0931104809315041AC0823F49F433
:100B400090910F04933F29F090911504913F81F407
:100B500012C090911504913F59F4A9014F5F5F4F66
:100B60005093120440931104F901EB5EFB4F808314
:100B700080930F04B5CFF901EB5EFB4F80832F5FAD
:100B80003F4F30930E0420930D04109212041092E4
:100B9000110410937904ECCFDF91CF911F91089548
:100BA0002FE7FC0111922A95E9F780E090E0089583
:100BB000EF92FF920F931F93CF93DF93EC017C0191
:100BC00000E010E0F5E0EF0EF11C88819981081734
:100BD000190740F4F701808191810E949D1D0F5FEC
:100BE0001F4FF0CFCE01DF91CF911F910F91FF905A
:100BF000EF900C94D005CF92DF92EF92FF920F937B
:100C00001F93CF93DF9300D01F92CDB7DEB76C0157
:100C10007901DC010D911C910931110520F5CA0102
:100C20004A835B8369830E94051D25E0209FF001B4
:100C3000219FF00D1124EC0DFD1D968385834A81C3
:100C40005B816981009791F0628354834383B7018C
:100C50000E94311EF60180819181019691838083EB
:100C600080E090E005C08FEF9FEF02C08EEF9FEF16
:100C70000F900F900F90DF91CF911F910F91FF90E8
:100C8000EF90DF90CF900895CF93DF931F92CDB771
:100C9000DEB769839E012F5F3F4F41E050E062E085
:100CA0000E94FB050F90DF91CF910895CF93DF93C2
:100CB000CDB7DEB728970FB6F894DEBF0FBECDBF15
:100CC000FC01DB016D917D918D919C9113970E94A8
:100CD000FE1C69837A838B839C8314966D917D912E
:100CE0008D919C9117970E94FE1C6D837E838F834C
:100CF00098879E012F5F3F4F48E050E064E0CF01AE
:100D00000E94FB0528960FB6F894DEBF0FBECDBF3C
:100D1000DF91CF9108950F931F93CF93DF93FC0141
:100D2000CA0140815181A0E0B0E020E030E024170A
:100D3000350739F11596EF01CA0FDB1F239778812C
:100D400089010F5F1F4F76131AC045E0429FD00103
:100D5000439FB00D1124AE0FBF1F409FE001419F84
:100D6000D00D1124CE0FDF1F6881798113964D912C
:100D70005C9114970E94311E80E090E004C09801BD
:100D8000D6CF8AEF9FEFDF91CF911F910F910895FA
:100D90000F931F93CF93DF931F92CDB7DEB78B01D5
:100DA00021E030E0AE014F5F5F4F61E00E948B06B3
:100DB000009729F4298130E0F801318320830F90D6
:100DC000DF91CF911F910F9108950F931F93CF93B0
:100DD000DF93EB0128E030E0AB0164E00E948B067A
:100DE0008C010097A1F4688179818A819B810E949E
:100DF000CF02688379838A839B836C817D818E8116
:100E00009F810E94CF026C837D838E839F83C80164
:100E1000DF91CF911F910F910895FC016081718145
:100E200020E030E080E090E02617370751F0438162
:100E300054814D5F5F4F840F951F2F5F3F4F359655
:100E4000F3CF08956F927F928F929F92AF92BF924D
:100E5000CF92DF92EF92FF920F931F93CF93DF9386
:100E60005C016B014A01EA012296E12CF12C00E0C1
:100E700010E0F40180819181E816F90628F5898156
:100E80009A813C0123E0620E711CC614D704F0F075
:100E90000E94C702F501E00FF11F28812083928391
:100EA0008183C80103966B817C8149815A818A0DB7
:100EB0009B1D0E94311E060D171DC618D7088FEF07
:100EC000E81AF80A2596D5CFC80102C08DEF9FEF2A
:100ED000DF91CF911F910F91FF90EF90DF90CF9016
:100EE000BF90AF909F908F907F906F900895CF921A
:100EF000DF92EF92FF920F931F93CF93DF9300D077
:100F000000D0CDB7DEB76C01CE0101960E94D5149A
:100F10008601E12CF12CF60180819181E816F90619
:100F200078F4F8014381548165817681CE01019680
:100F30000E942015FFEFEF1AFF0A0B5F1F4FEBCF48
:100F4000CE0101960E943A150E94FE1C0F900F9050
:100F50000F900F90DF91CF911F910F91FF90EF9025
:100F6000DF90CF9008955F926F927F928F929F92C1
:100F7000AF92BF92CF92DF92EF92FF920F931F93A7
:100F8000CF93DF9300D000D0CDB7DEB78C014B01FB
:100F90005A010E94D005612C712C85E0582E6A14EC
:100FA0007B0408F07CC0D8018D919C91893191051A
:100FB00030F0C8010E94D8058FEF9FEF72C0F40196
:100FC000E60DF71D2081589EF001599EF00D112469
:100FD0007801EE0EFF1ED70112962C93D3011196C5
:100FE000630183E0C80ED11CAC14BD0430F4C80109
:100FF0000E94D8058CEF9FEF54C0E00FF11FA80DA1
:10100000B91D8D919C9194838383D70113968D9103
:101010009C9114970E94CB023C01F7019483838337
:101020008C0D9D1DA816B90610F3C3010E94051D65
:10103000D70116969C938E931597009731F4C801AB
:101040000E94D8058EEF9FEF2CC0B4016C0D7D1D62
:10105000A3010E94311EF701638074806C0C7D1C1B
:1010600082818330A9F4C8010E94770769837A835B
:101070008B839C83D7011596ED91FC911697808107
:10108000861731F0C8010E94D8058BEF9FEF09C089
:10109000F8018081918101969183808380CF80E0E7
:1010A00090E00F900F900F900F90DF91CF911F91D4
:1010B0000F91FF90EF90DF90CF90BF90AF909F90F7
:1010C0008F907F906F905F9008950F931F93CF93B1
:1010D000DF9300D000D0CDB7DEB78C010E94770738
:1010E00069837A838B839C839E012F5F3F4F44E00B
:1010F00050E063E0C8010E94FB050F900F900F9035
:101100000F90DF91CF911F910F9108950F9300E001
:1011100020E040E060E08AE794E00E9472190F91BD
:101120000895FC0171836083538342831582148286
:10113000178216820895FC01848195810895CF93CA
:10114000DF93EC0140E050E46CE176E48A819B811E
:101150000E94BE0E40E050E46CE975E48A819B81F8
:101160000E94470F40E050E46CE975E48A819B815E
:101170000E94230F8A819B81DC01ED91FC910190FB
:10118000F081E02D09951D821C821F821E82DF9155
:10119000CF9108950F931F93CF93DF9300D000D08A
:1011A000CDB7DEB78C01D80114968D919C9115971F
:1011B000009771F0029711F5C80149835A836B8338
:1011C0007C830E949F0849815A816B817C81EBCF8F
:1011D000F801828193810E94890DD80112968D9128
:1011E0009C911397DC01ED91FC910280F381E02D3D
:1011F000099581E090E0F801958384830F900F902A
:101200000F900F90DF91CF911F910F9108950F9341
:101210001F93CF93DF93EC010C811D8101301105E9
:1012200099F5888199810E94EF0F8823B1F08A8116
:101230009B810E94E90B97FF10C08A819B81DC0192
:10124000ED91FC910190F081E02D099582E090E014
:101250009D838C831F830E8317C08A819B810E948C
:10126000250E8A819B810E94E90B672B682B692BD5
:1012700059F48A819B81DC01ED91FC910190F08110
:10128000E02D09951D821C82DF91CF911F910F9156
:10129000089540E052EC61E070E080E894E00E9444
:1012A000BD140E94D2020C94EE040E94FD020E9422
:1012B00096030C946A0540E062E080E894E00C94A8
:1012C000A11480E894E00C9472140F931F93DC0136
:1012D00012960C9110E009301105C0F5F801E45C9C
:1012E000FF4F0C94F81CDC01ED91FC910084F1851A
:1012F000E02D29C0DC01ED91FC910284F385E02D05
:1013000022C0DC01ED91FC910484F585E02D1BC029
:10131000DC01ED91FC910684F785E02D14C0DC0121
:10132000ED91FC910088F189E02D0DC0DC01ED917B
:10133000FC910288F389E02D06C0DC01ED91FC915F
:101340000488F589E02D1F910F9109941F910F9149
:101350000895CF93DF93EC01CB01BA0126E030E092
:1013600040E050E00E94D91C623071058105910572
:1013700059F18CF46115710581059105F1F0613029
:10138000710581059105C1F5E881F9810480F58138
:10139000E02D65E02DC0643071058105910511F1E6
:1013A000D4F0653071058105910531F5E881F98149
:1013B0000480F581E02D66E01BC0E881F98104809E
:1013C000F581E02D64E014C0E881F9810480F581A5
:1013D000E02D61E00DC0E881F9810480F581E02D08
:1013E00063E006C0E881F9810480F581E02D62E0C8
:1013F000CE01DF91CF910994DF91CF910895CF93E2
:10140000DF93477055276627772741505109DC0144
:10141000CD91DC914730510528F44B5B5F4FFA01C9
:101420000C94F81CEC81FD8161E01BC0EC81FD8116
:1014300065E017C0EC81FD8164E013C0EC81FD81A3
:1014400066E00FC0EC81FD8162E00BC0EC81FD81A4
:101450006AE007C0EC81FD8168E003C0EC81FD819A
:1014600069E0DF91CF910994AF92BF92DF92EF9242
:10147000FF920F931F93CF93DF931F92CDB7DEB7E9
:101480008C01FC018281843041F0883031F083305E
:1014900031F0863021F022E003C024E001C023E0D7
:1014A000A12CB12CE62EF12CDD24D394F801EA0D09
:1014B000FB1DC7010A2C02C0959587950A94E2F797
:1014C000678180FD6D25838129830E94E516FFEFEA
:1014D000AF1ABF0A2981A21648F30F90DF91CF916E
:1014E0001F910F91FF90EF90DF90BF90AF90089504
:1014F0000F931F93CF93DF93EC01E881F981048070
:10150000F581E02D8C010D5B1F4FD8018C91882354
:1015100011F062E001C060E0CE010995E881F98137
:101520000480F581E02DD8018C91882311F063E0CF
:1015300001C061E0CE0109958BA59CA50E943D16D6
:10154000E881F9810480F581E02DD8018C91882310
:1015500011F062E001C060E0CE01DF91CF911F91F8
:101560000F910994CF93DF93EC0120E030E0A901C3
:101570006B897C898D899E890E94F91B18161CF441
:10158000EFA5F8A902C0E9A9FAA9DF91CF910994C2
:101590004370552766277727DC01ED91FC91048085
:1015A000F581E02D423051056105710571F0433040
:1015B00051056105710559F041305105610571050D
:1015C00011F062E005C063E003C061E001C060E0CB
:1015D0000994CF93DF93EC01CB01BA0123E030E013
:1015E00040E050E00E94D91C6130710581059105F1
:1015F00081F0623071058105910591F0672B682BB0
:10160000692BC1F4E881F9810480F581E02D64E063
:101610000DC0E881F9810480F581E02D61E006C00C
:10162000E881F9810480F581E02D62E0CE01DF914F
:10163000CF910994DF91CF91089543705527662784
:101640007727DC01ED91FC910480F581E02D42309B
:1016500051056105710571F0433051056105710552
:1016600059F0413051056105710511F065E005C083
:1016700066E003C06AE001C069E00994CF93DF939C
:10168000EC018A818823A1F0E881F9810480F58149
:10169000E02D60E0CE0109958EA58F3F49F061E015
:1016A0000E94AC166DA58EA5DF91CF910C94E51626
:1016B000DF91CF910895CF93DF93EC018A81882346
:1016C00051F161E08B810E94AC1661E08C810E9437
:1016D000AC168A81843011F0883039F461E08D8154
:1016E0000E94AC1661E08E8106C0833011F0863016
:1016F00021F461E08D810E94AC168EA58F3F59F0D8
:1017000061E00E94AC166DA581E068278EA5DF918F
:10171000CF910C94E516DF91CF910895CF92DF928F
:10172000EF92FF920F931F93CF93DF93EC014BA1A6
:101730005CA16DA17EA1452B462B472B09F43FC030
:101740000E94E0156B017C014FA158A569A57AA5FF
:1017500097018601041B150B260B370B4BA15CA1CF
:101760006DA17EA1041715072607370740F1FE017A
:10177000ED5BFF4F80814B855C856D857E85882381
:1017800029F04F5F5F4F6F4F7F4F04C041505109A9
:10179000610971094B875C876D877E87E881F981D4
:1017A0004B855C856D857E850680F781E02DCE01B9
:1017B0000995CFA2D8A6E9A6FAA681E001C080E0EB
:1017C000DF91CF911F910F91FF90EF90DF90CF901D
:1017D00008950F931F93FC01678570898189928911
:1017E0000385148525853685601B710B820B930B51
:1017F0001F910F910895FC016385748585859685F9
:101800000895FC0143875487658776874787508B07
:10181000618B728B13AA14AA15AA16AA13A214A27A
:1018200015A216A2138A148A158A168A08952F9271
:101830003F924F925F926F927F928F929F92AF9260
:10184000BF92CF92DF92EF92FF920F931F93CF93AD
:10185000DF9300D000D0CDB7DEB71C01FC01878438
:101860009088A188B28883859485A585B685881AD5
:10187000990AAA0ABB0A63897489858996899B019A
:10188000AC010E94FD1B6B017C01F101638D748D25
:10189000858D968D9B01AC010E94461A9B01AC017F
:1018A000C701B6010E94AE1A0E94161B8114910452
:1018B000A104B104A1F462307105810591050CF019
:1018C0007CC0F10113A214A215A216A2138A148AD5
:1018D000158A168A13AA14AA15AA16AA03C1F10119
:1018E00003A914A925A936A9ED5BFF4F1814190403
:1018F0001A041B04FCF410161106120613064CF40D
:10190000681579058A059B054CF52081211155C084
:1019100025C0011511052105310509F44EC06815D2
:1019200079058A059B050CF048C08081882309F45D
:1019300044C037C01016110612061306F4F400272F
:1019400011279801081919092A093B09601771071D
:10195000820793071CF42081222379F19B01AC01BB
:1019600088279927DC01821B930BA40BB50BF1018F
:1019700083AB94ABA5ABB6AB20C001151105210517
:101980003105D9F0CC24DD247601C818D908EA083D
:10199000FB086C157D058E059F057CF48081811107
:1019A0000CC030952095109501951F4F2F4F3F4F3C
:1019B000F10103AB14AB25AB36ABF101C3A8D4A83E
:1019C000E5A8F6A881010D5B1F4FC114D104E10405
:1019D000F10491F487A990ADA1ADB2AD83AF94AFFE
:1019E000A5AFB6AF81E0181419041A041B040CF05B
:1019F00080E0F801808340C0F10183AC94ACA5ACD9
:101A0000B6ACA5019401C501B4010E94461A2B0190
:101A10003C01C701B6010E94491B20E030E040E8CC
:101A200050E40E94FD1B20E030E040E85FE30E94AC
:101A3000461A9B01AC01C301B2010E94AE1A9B0180
:101A4000AC01C501B4010E94451A2B013C01F10112
:101A5000FF9680809180A280B3809401A5010E94AE
:101A6000F91B181614F442015301C401D501F10108
:101A700083AF94AFA5AFB6AFFFEFCF1ADF0AEF0A7F
:101A8000FF0AF101C3AAD4AAE5AAF6AA23AD34AD90
:101A900045AD56ADCA01B90129833A834B835C83B6
:101AA0000E941B1BF10163A374A385A396A3298144
:101AB0003A814B815C8160E074E284E799E40E94A2
:101AC000AE1AF101638B748B858B968BF8012081A4
:101AD000211108C0DC01CB01B058F101838B948B3C
:101AE000A58BB68B0F900F900F900F90DF91CF9139
:101AF0001F910F91FF90EF90DF90CF90BF90AF902C
:101B00009F908F907F906F905F904F903F902F901D
:101B100008950F931F93FC0107851089218932894D
:101B2000041715072607370741F04787508B618B4D
:101B3000728B1F910F910C94170C1F910F910895A8
:101B40000F931F93FC010385148525853685400F6F
:101B5000511F621F731F1F910F910C94890D4F929B
:101B60005F926F927F928F929F92AF92BF92CF922D
:101B7000DF92EF92FF92CF93DF93EC016A017B013A
:101B80008B8C9C8CAD8CBE8C9A01AB01C501B401D1
:101B90000E94AA1A882309F449C06BA97CA98DA9BF
:101BA0009EA90E94491B2B013C01A7019601C5017A
:101BB000B4010E94AE1A9B01AC01C301B2010E94A4
:101BC000FD1B0E94161B6BAB7CAB8DAB9EABA701C4
:101BD000960160E070E080E090E40E94AE1A0E94FE
:101BE000641C26E53EE04DE25FE30E94FD1B20E021
:101BF00034E244E759E40E94FD1B6FAB78AF89AF34
:101C00009AAFCB8EDC8EED8EFE8ECE01DF91CF9122
:101C1000FF90EF90DF90CF90BF90AF909F908F900C
:101C20007F906F905F904F900C94170CDF91CF9145
:101C3000FF90EF90DF90CF90BF90AF909F908F90EC
:101C40007F906F905F904F9008950F931F93CF9365
:101C5000DF93EC010E948E0B882319F0CE010E94C5
:101C6000170C20E030E0A9016B897C898D899E8961
:101C70000E94AA1A811110C081E00F851889298954
:101C80003A894B855C856D857E8504171507260787
:101C9000370719F480E001C081E0DF91CF911F91F7
:101CA0000F9108958F929F92AF92BF92CF92EF9231
:101CB0000F93CF93DF93EC018EE091E099838883BB
:101CC0006A831B861C861D861E861F86188A198AB3
:101CD0001A8A1B8A1C8A1D8A1E8A812C912C80E8F4
:101CE000A82E8FE3B82E8F8A988EA98EBA8E1B8E5F
:101CF0001C8E1D8E1E8E8F8E98A2A9A2BAA21BA228
:101D00001CA21DA21EA281E090E09CA78BA78FEFD2
:101D10008EA71FA218A619A61AA64B832C830D8383
:101D2000EE821BAA1CAA1DAA1EAA1FAA18AE19AED3
:101D30001AAE1BAE1CAE1DAE1EAEFE01FF9680821B
:101D40009182A282B382349610821F8218861986ED
:101D50001A86CC2019F0CE010E945B0B40E050E0C7
:101D600060E87FE3CE01DF91CF910F91EF90CF90AC
:101D7000BF90AF909F908F900C94AF0DCF92DF9259
:101D8000EF92FF920F931F93CF93DF93EC016A01C1
:101D90007B019A01AB016F89788D898D9A8D0E94A4
:101DA000AA1A882309F446C0CF8AD88EE98EFA8E03
:101DB0008E01015C1F4FA701960160E074E284E789
:101DC00099E40E94AE1AF801608371838283938341
:101DD0008BA99CA9ADA9BEA9181619061A061B063F
:101DE0004CF56B897C898D899E899B01AC010E9491
:101DF000FD1B6B017C016B8D7C8D8D8D9E8D9B0100
:101E0000AC010E94461A9B01AC01C701B6010E94B9
:101E1000AE1A0E94161B6BAB7CAB8DAB9EABCE019A
:101E2000DF91CF911F910F91FF90EF90DF90CF90B6
:101E30000C94170CDF91CF911F910F91FF90EF90B1
:101E4000DF90CF900895CF92DF92EF92FF92CF93E1
:101E5000DF93EC016A017B0120E030E0A901C701BA
:101E6000B6010E94AA1A882359F0B701A601CE0133
:101E7000DF91CF91FF90EF90DF90CF900C94AF0D5A
:101E8000DF91CF91FF90EF90DF90CF9008956F9208
:101E90007F928F929F92AF92BF92CF92DF92EF92FA
:101EA000FF920F931F93CF93DF93EC013A018B01C5
:101EB0002B893C894D895E89B301C8010E94AA1A09
:101EC000882309F454C0CF88D88CE98CFA8C460159
:101ED0005701B7FAB094B7F8B094A5019401B301D3
:101EE000C8010E94AA1A87FD0BC0A7019601B30181
:101EF000C8010E94F91B18162CF43601870102C094
:101F00003401850120E030E0A901B301C8010E943D
:101F1000AA1A811105C01BA21CA21DA21EA221C0CB
:101F20009301A80160E074E284E799E40E94AE1A8C
:101F30009F770E941B1B6BA37CA38DA39EA37E0196
:101F400083E4E80EF11CDD24D39420E030E0A90105
:101F5000B301C8010E94F91B18160CF0D12CF7012F
:101F6000D082C301D8018B8B9C8BAD8BBE8BDF9154
:101F7000CF911F910F91FF90EF90DF90CF90BF9086
:101F8000AF909F908F907F906F900895EF92FF9207
:101F90000F931F93FC01862FA1E0B0E04130510563
:101FA00011F4A0E0B0E0B183A083B383A2831482D4
:101FB0001582168217825187408782877387E4864D
:101FC000F58606871787222311F062E001C060E0E2
:101FD0001F910F91FF90EF900C94AC1608950F9302
:101FE0001F93CF93DF93EC018A850E941B172A81F0
:101FF0003B818217930741F09B838A830E94D4150B
:102000006C837D838E839F830E94D4150C811D81F8
:102010002E813F81601B710B820B930B0C851D85FC
:102020002E853F85061717072807390750F42A81A0
:102030003B813983288381E04885598524173507FA
:1020400009F080E0DF91CF911F910F910895FC017D
:1020500010821182128213821482158216821782D4
:1020600010861186128613861486158616861786A4
:10207000108A118A128A138A148A158A168A178A74
:10208000108E118E128E138E148E158E168E178E44
:1020900010A217A681E080AB11AA90E892AB13AA18
:1020A00084AB15AA20EC26AB17AA22E020AF11AE14
:1020B00092AF13AE84AF15AE16AE80E090E0DF01B4
:1020C000A80FB91F91961C9201968A309105B9F715
:1020D00013A614A615A616A6089508950F931F9388
:1020E000CF93DF93EC016130710511F46EE501C00F
:1020F0006FE168A34AE085E994E00E94F9118A3013
:1021000011F085E052C000E010E085E994E00E9403
:10211000E210FE01E00FF11F81A30F5F1F4F0A3095
:10212000110599F780E090E0FE01E80FF91F21A169
:10213000211138C0019685309105B1F71BA688A5FD
:1021400088778CA789A58DA78AA58F708EA780E038
:1021500090E0FE01E80FF91F23A533A9232B23A745
:10216000019684309105A9F768A185E994E00E9461
:102170007B1100E010E0FE01E00FF11F63A585E98F
:1021800094E00E943211813079F40F5F1F4F0430C8
:10219000110589F785E994E0DF91CF911F910F91A7
:1021A0000C94FC1187E001C086E0DF91CF911F9174
:1021B0000F9108958091C50490E02091C604821B80
:1021C000910908952091C6048091C504281750F400
:1021D000E22FF0E0E953FB4F808190E02F5F2093E6
:1021E000C60408958FEF9FEF0895E091C604809193
:1021F000C504E81730F4F0E0E953FB4F808190E02C
:1022000008958FEF9FEF08950895CF92DF92EF9298
:10221000FF920F931F93CF93DF937C01CB018A0131
:102220002091A104222389F0EB016B01C40ED51E7D
:10223000CC15DD0569F06991D701ED91FC91019014
:10224000F081E02DC7010995F3CF642F0E94C012E1
:10225000C801DF91CF911F910F91FF90EF90DF9018
:10226000CF900895CF93DF931F92CDB7DEB76983E8
:102270002091A1042223D1F02091A204203240F029
:1022800021E030E0FC013383228380E090E015C040
:102290008091A304E82FF0E0EC55FB4F99819083E7
:1022A0008F5F8093A3048093A20405C061E0CE01F8
:1022B00001960E94C01281E090E00F90DF91CF91D3
:1022C0000895FC011382128248EE53E060E070E052
:1022D000448355836683778388E291E0918380838A
:1022E00008951092C6041092C5041092A30410928F
:1022F000A2040C94031281E08093A1046093C404AF
:102300001092A3041092A20408950F93062F21E0C7
:102310004091A20464EA74E08091C4040E946912AE
:102320001092A3041092A2041092A1040F91089598
:102330008F929F92AF92BF92CF92DF92EF92FF92D5
:102340000F931F93CF93DF93EC01F62ED42E480109
:102350005901EE2019F10E947B111E2D143008F056
:1023600013E01150B8F0E881F98128E0129FB00124
:102370001124A501940104C05695479537952795DA
:102380006A95D2F7CA01B9010190F081E02DCE0122
:102390000995E7CF60E0CE010E9485114D2D4132B5
:1023A00008F040E22C2D67EC74E08F2D0E94211282
:1023B0001092C6048093C504DF91CF911F910F91B5
:1023C000FF90EF90DF90CF90BF90AF909F908F9055
:1023D0000895CF92EF920F931F93C22EE12C00E04D
:1023E00010E098010E9498111F910F91EF90CF90EB
:1023F000089521E00C94E91161E00C94851185E9C0
:1024000094E00C9461111092540581E08093520580
:102410001092510561E082E10E94E51661E083E1DE
:102420000E94E516E9EBF0E080818E7F8083808159
:102430008D7F808388E48093B80085E48093BC001E
:102440000895413208F043C0909154059111FCCF9A
:1024500091E090935405209352052FEF2093E704C9
:1024600010922C05240F20932B05909353059091E7
:102470005305880F892B8093530580915105813036
:1024800061F410925105809153058093BB008091B7
:10249000BC0083FDF8CF85EC01C085EE8093BC00C5
:1024A000809154058130E1F380912C05841710F45C
:1024B00040912C052DE235E0FB01D9018A2F821BCA
:1024C000841718F48D918193F9CF842F089580E0BB
:1024D00008950F93413208F04AC09091540591112C
:1024E000FCCF92E090935405009352059FEF909398
:1024F000E70410922C0540932B05FB016DE275E07B
:10250000DB019A2F961B941718F491919D93F9CFA4
:102510001092530590915305880F892B8093530592
:1025200080915105813061F41092510580915305DD
:102530008093BB008091BC0083FDF8CF85EC01C087
:1025400085EE8093BC00222321F0809154058230D7
:10255000E1F38091E7048F3F61F08091E7048032DE
:1025600051F08091E704803341F483E007C081E0BB
:1025700005C080E003C082E001C084E00F910895AF
:10258000613298F420915405243089F46093090550
:10259000FC018BE095E0DC012A2F281B261718F49C
:1025A00021912D93F9CF80E0089581E0089582E094
:1025B000089585ED8093BC008091BC0084FDFCCF24
:1025C00010925405089585EC8093BC001092540538
:1025D00008951F920F920FB60F9211242F933F93DD
:1025E0004F935F936F937F938F939F93AF93BF931B
:1025F000EF93FF938091B900887F803609F49EC0E5
:1026000078F5883209F45DC090F4803109F456C041
:1026100038F4882309F4F5C0883009F44FC0F5C0B8
:10262000883109F44EC0803209F45FC0EEC08034B6
:1026300009F46AC058F4803309F457C0883309F0AC
:10264000E4C08093E7040E94E312DFC0803509F400
:102650004FC0883509F45DC0883409F0D6C0D3C0B6
:10266000883909F4C4C0A8F4883709F467C038F47D
:10267000883609F463C0803709F460C0C6C0883862
:1026800009F4B5C0803909F45FC0803809F0BDC0D5
:102690005BC0803B09F483C038F4803A09F466C01B
:1026A000883A09F47CC0B1C0803C09F4A4C0883CDD
:1026B00009F4A1C0883B09F487C0A7C080915305E5
:1026C00010C090912C0580912B05981770F5E09122
:1026D0002C0581E08E0F80932C05F0E0E35DFA4F2E
:1026E00080818093BB0085EC83C08093E7048BC01E
:1026F000E0912C0581E08E0F80932C058091BB002A
:10270000F0E0E35DFA4F808390912C0580912B05DA
:102710006BC0E0912C0581E08E0F80932C05809199
:10272000BB00F0E0E35DFA4F808380915205811198
:102730006AC081E08093510584EA5EC083E08093A3
:1027400054051092E804CFCF8091E804803208F05D
:102750004EC0E091E80481E08E0F8093E804809100
:10276000BB00F0E0E751FB4F8083BDCF0E94E31236
:102770008091E804803230F4E091E804F0E0E75121
:10278000FB4F10826091E80470E0E0914D05F091FC
:102790004E0589EE94E009951092E80436C084E075
:1027A0008093540510920A0510920905E0914F0597
:1027B000F0915005099580910905811105C081E0CE
:1027C0008093090510920B05E0910A0581E08E0FB8
:1027D00080930A05F0E0E55FFA4F80818093BB00AB
:1027E00090910A0580910905981708F47CCF85E837
:1027F0008093BC000AC085EC8093BC001092540505
:1028000004C01092E7040E94D912FF91EF91BF918A
:10281000AF919F918F917F916F915F914F913F9178
:102820002F910F900FBE0F901F9018951F93CF936D
:10283000DF93DC0152968D919C915397009749F458
:1028400081E090E013969C938E93129780E090E045
:102850003BC01D96ED91FC911E971C962C911C97E8
:10286000322F30951FB754964C91549741FB7727E0
:1028700070F941FD6095F8944081772311F0422B67
:1028800001C043234083EC012197F1F748E05081D8
:1028900060FF02C0522B01C053235083EC012197EB
:1028A000F1F76695415099F78081772311F08323E2
:1028B00001C0822B80831FBF52968D919C915397AC
:1028C0000197F1F781E090E0DF91CF911F9108959A
:1028D00008958FEF9FEF089580E090E008958FEFC7
:1028E0009FEF089528E331E0FC01318320830895B0
:1028F0001F93CF93DF93EC01162F6C89669561705F
:1029000081E06827812F0E94E51661E0812F0E94F7
:10291000AC16812F90E0FC01E451FF4FE491EC876D
:10292000FC01E050FF4FE491F0E0EE0FFF1FE25E8C
:10293000FE4F859194919E878D87DF91CF911F9156
:1029400008950F931F93FC011382128208EE13E087
:1029500020E030E0048315832683378388E391E009
:1029600091838083138A128A848940FB81F9848B46
:10297000CF011F910F910C947814CF93DF93EC014A
:102980009A01AB0160E079E08DE390E00E94D91CF0
:102990002430310518F02350310902C021E030E025
:1029A0003B8B2A8BDF91CF9108954FEF5FEFBA01F8
:1029B000FC01408351836283738308950F931F93B7
:1029C000A62FFC0140815181628173812A2F242727
:1029D0002F7034E0239FF0011124E856FF4F05913A
:1029E000159125913491E4E0769567955795479533
:1029F000EA95D1F74027512762277327EA2FE295FE
:102A0000EF70E427EF7024E0E29FF0011124E85614
:102A1000FF4F0591159125913491F4E076956795D6
:102A200057954795FA95D1F7402751276227732785
:102A3000FC0140835183628373831F910F9108953A
:102A4000EF92FF920F931F93CF93DF937C018A0144
:102A5000EB01060F171FC017D10729F06991C701B5
:102A60000E94DE14F8CFDF91CF911F910F91FF905C
:102A7000EF900895FC01608171818281938160955E
:102A800070958095909508950F9300E020E040E0C8
:102A900060E085E595E00E9472190F9108950F930B
:102AA00000E020E040E060E08BE595E00E947219D4
:102AB0000F9108950F9300E020E040E060E089E688
:102AC00095E00E94721981E695E00F910C946819C7
:102AD0000F9300E020E040E060E08FE695E00E9488
:102AE00072190F9108950F9300E020E040E060E03C
:102AF00085E795E00E9472190F9108950F9300E009
:102B000020E040E060E08BE795E00E9472190F91B1
:102B1000089508951F920F920FB60F9211242F93CC
:102B20003F938F939F93AF93BF9380918205909132
:102B30008305A0918405B09185053091810523E03E
:102B4000230F2D3720F40196A11DB11D05C026E8E5
:102B5000230F0296A11DB11D20938105809382054C
:102B600090938305A0938405B09385058091860595
:102B700090918705A0918805B09189050196A11DC6
:102B8000B11D8093860590938705A0938805B09327
:102B90008905BF91AF919F918F913F912F910F9098
:102BA0000FBE0F901F9018952FB7F8946091820573
:102BB0007091830580918405909185052FBF0895BC
:102BC0003FB7F8948091860590918705A09188057C
:102BD000B091890526B5A89B05C02F3F19F0019635
:102BE000A11DB11D3FBF6627782F892F9A2F620F35
:102BF000711D811D911D42E0660F771F881F991F6F
:102C00004A95D1F708958F929F92AF92BF92CF923B
:102C1000DF92EF92FF926B017C010E94E0154B0165
:102C20005C01C114D104E104F104F1F00E948915A2
:102C30000E94E015681979098A099B09683E73406A
:102C40008105910570F321E0C21AD108E108F1086D
:102C500088EE880E83E0981EA11CB11CC114D1041B
:102C6000E104F10429F7DDCFFF90EF90DF90CF90E2
:102C7000BF90AF909F908F9008958230910538F06B
:102C8000880F991F880F991F05970197F1F70895ED
:102C9000789484B5826084BD84B5816084BD85B537
:102CA000826085BD85B5816085BDEEE6F0E08081FE
:102CB00081608083E1E8F0E010828081826080831F
:102CC000808181608083E0E8F0E0808181608083A2
:102CD000E1EBF0E0808184608083E0EBF0E08081D4
:102CE00081608083EAE7F0E0808184608083808176
:102CF000826080838081816080838081806880831E
:102D00001092C1000895833081F028F4813099F049
:102D10008230A1F008958730A9F08830B9F084306E
:102D2000D1F4809180008F7D03C0809180008F77E7
:102D300080938000089584B58F7702C084B58F7D1D
:102D400084BD08958091B0008F7703C08091B0005A
:102D50008F7D8093B0000895CF93DF9390E0FC01C6
:102D6000E451FF4F2491FC01E050FF4F84918823F0
:102D700049F190E0880F991FFC01E85DFE4FA59195
:102D8000B491825E9E4FFC01C591D4919FB76111B1
:102D900008C0F8948C91209582238C93888182239B
:102DA0000AC0623051F4F8948C91322F309583230D
:102DB0008C938881822B888304C0F8948C91822B19
:102DC0008C939FBFDF91CF9108950F931F93CF9363
:102DD000DF931F92CDB7DEB7282F30E0F901E8521C
:102DE000FF4F8491F901E451FF4F1491F901E05034
:102DF000FF4F04910023C9F0882321F069830E94CA
:102E000083166981E02FF0E0EE0FFF1FE25EFE4FB8
:102E1000A591B4919FB7F8948C91611103C010955E
:102E2000812301C0812B8C939FBF0F90DF91CF91A5
:102E30001F910F910895CF93DF93282F30E0F90170
:102E4000E852FF4F8491F901E451FF4FD491F90109
:102E5000E050FF4FC491CC2391F081110E94831662
:102E6000EC2FF0E0EE0FFF1FEC5EFE4FA591B4914A
:102E70002C912D2381E090E021F480E002C080E0DD
:102E800090E0DF91CF910895FC01818D228D90E03B
:102E9000805C9F4F821B91098F7399270895FC01D5
:102EA000918D828D981731F0828DE80FF11D858DFF
:102EB00090E008958FEF9FEF0895FC01918D828D32
:102EC000981761F0828DDF01A80FB11D5D968C917E
:102ED000928D9F5F9F73928F90E008958FEF9FEF89
:102EE000089581EE98E1892B49F080E090E0892BEC
:102EF00029F00E94E11881110C9400000895FC0152
:102F0000848DDF01A80FB11DA35ABF4F2C91848D72
:102F100090E001968F739927848FA689B7892C93A7
:102F2000A089B1898C9180648C93938D848D981342
:102F300006C00288F389E02D80818F7D808308950B
:102F4000CF93DF93EC01888D8823C9F0EA89FB8950
:102F5000808185FD05C0A889B9898C9186FD0FC047
:102F60000FB607FCF5CF808185FFF2CFA889B9891C
:102F70008C9185FFEDCFCE010E947F17E7CFDF91C7
:102F8000CF910895CF92DF92FF920F931F93CF932B
:102F9000DF931F92CDB7DEB76C0181E0D601589662
:102FA0008C9358975B969C915B975C968C915C9701
:102FB000981307C05096ED91FC915197808185FD43
:102FC0002EC0F601038D10E00F5F1F4F0F73112706
:102FD000F02EF601848DF81211C00FB607FCF9CF60
:102FE000D6015096ED91FC915197808185FFF1CFEC
:102FF000C60169830E947F176981EBCF838DE80F3B
:10300000F11DE35AFF4F6083D6015B960C935B97EB
:103010005296ED91FC915397808180620CC0D6014D
:103020005696ED91FC91579760835096ED91FC91E7
:10303000519780818064808381E090E00F90DF91E0
:10304000CF911F910F91FF90DF90CF900895BF9285
:10305000CF92DF92EF92FF92CF93DF93EC016A0160
:103060007B01B22EE889F98982E08083411581EEE7
:10307000580761057105A1F060E079E08DE390E00B
:10308000A70196010E94B71C21503109410951093D
:103090005695479537952795211580E1380798F083
:1030A000E889F989108260E874E88EE190E0A70170
:1030B00096010E94B71C21503109410951095695CA
:1030C000479537952795EC85FD853083EE85FF85FF
:1030D0002083188EEC89FD89B082EA89FB89808182
:1030E00080618083EA89FB89808188608083EA89A6
:1030F000FB89808180688083EA89FB8980818F7D5C
:103100008083DF91CF91FF90EF90DF90CF90BF90C1
:1031100008951F920F920FB60F9211242F938F9341
:103120009F93EF93FF93E0919A05F0919B05808127
:10313000E091A005F091A10582FD12C090818091DF
:10314000A3058F5F8F732091A405821751F0E09142
:10315000A305F0E0E657FA4F958F8093A30501C0D1
:103160008081FF91EF919F918F912F910F900FBED2
:103170000F901F9018951F920F920FB60F92112467
:103180002F933F934F935F936F937F938F939F936F
:10319000AF93BF93EF93FF938AE895E00E947F1768
:1031A000FF91EF91BF91AF919F918F917F916F911F
:1031B0005F914F913F912F910F900FBE0F901F90F5
:1031C00018958AE895E00E94441721E0892B09F4BC
:1031D00020E0822F089510928D0510928C0588EEC4
:1031E00093E0A0E0B0E080938E0590938F05A093CC
:1031F0009005B093910588E491E090938B058093BE
:103200008A0585EC90E0909397058093960584EC71
:1032100090E0909399058093980580EC90E09093CE
:103220009B0580939A0581EC90E090939D05809397
:103230009C0582EC90E090939F0580939E0586EC20
:1032400090E09093A1058093A0051092A3051092A1
:10325000A4051092A5051092A6050895AF92BF92FD
:10326000CF92DF92EF92FF920F931F93CF93DF9352
:103270006C017B01C0E0D0E000E010E0F601EC0F53
:10328000FD1F4AE050E06281C7010E942E1A5C01D6
:103290006EE2C7010E94CB198A0D9B1D080F191FF2
:1032A0002196C330D10551F74AE050E0F60165811F
:1032B000C7010E942E1A800F911FDF91CF911F919D
:1032C0000F91FF90EF90DF90CF90BF90AF90089557
:1032D00028E531E0FC0131832083128213821482BD
:1032E000158208950F93FC0188E591E09183808316
:1032F00062834383248305830F91089588E591E0D9
:1033000090932806809327061092290610922A0689
:1033100010922B0610922C060895CF92DF92EF9216
:10332000FF920F931F93CF93DF937C016A01EB0110
:1033300000E010E00C151D0571F06991D701ED91C9
:10334000FC910190F081E02DC7010995892B19F0BE
:103350000F5F1F4FEFCFC801DF91CF911F910F91EA
:10336000FF90EF90DF90CF9008956115710581F087
:10337000DB010D900020E9F7AD0141505109461BDA
:10338000570BDC01ED91FC910280F381E02D099453
:1033900080E090E00895DC01ED91FC910190F081D6
:1033A000E02D09948F929F92AF92BF92DF92EF929D
:1033B000FF920F931F93CF93DF93CDB7DEB7A19703
:1033C0000FB6F894DEBF0FBECDBF7C01F42FD52E13
:1033D000CB0119A2223008F42AE08E010F5D1F4FA5
:1033E000822E912CA12CB12C6F2F7D2DA501940143
:1033F0000E94B71CF22FD32ECA01015011096A3066
:1034000014F4E0E301C0E7E3E60FD801EC93232BCB
:10341000242B252B49F7B801C7010E94B519A196A5
:103420000FB6F894DEBF0FBECDBFDF91CF911F91D5
:103430000F91FF90EF90DF90BF90AF909F908F9093
:1034400008952115310541F4DC01ED91FC910190C5
:10345000F081E02D642F09940C94D2199A01462F23
:1034600050E060E070E00C94211A08950E94481624
:103470000E94351A0E944909C1E7D7E10E94550907
:103480002097E1F30E947117F9CF5058BB27AA2764
:103490000ED075C166D130F06BD120F031F49F3F72
:1034A00011F41EF45BC10EF4E095E7FB51C1E92F66
:1034B00077D180F3BA17620773078407950718F06E
:1034C00071F49EF58FC10EF4E0950B2EBA2FA02D4E
:1034D0000B01B90190010C01CA01A0011124FF27C1
:1034E000591B99F0593F50F4503E68F11A16F040BC
:1034F000A22F232F342F4427585FF3CF46953795BB
:103500002795A795F0405395C9F77EF41F16BA0B7F
:10351000620B730B840BBAF09150A1F0FF0FBB1F2D
:10352000661F771F881FC2F70EC0BA0F621F731F76
:10353000841F48F4879577956795B795F7959E3FD3
:1035400008F0B3CF9395880F08F09927EE0F979561
:1035500087950895D9D008F481E008950CD00FC163
:1035600007D140F0FED030F021F45F3F19F0F0C0F9
:10357000511139C1F3C014D198F39923C9F35523DC
:10358000B1F3951B550BBB27AA2762177307840756
:1035900038F09F5F5F4F220F331F441FAA1FA9F30C
:1035A00033D00E2E3AF0E0E830D091505040E695FE
:1035B000001CCAF729D0FE2F27D0660F771F881F5F
:1035C000BB1F261737074807AB07B0E809F0BB0B4E
:1035D000802DBF01FF2793585F4F2AF09E3F510572
:1035E00068F0B6C000C15F3FECF3983EDCF386950F
:1035F00077956795B795F7959F5FC9F7880F911DE8
:103600009695879597F90895E1E0660F771F881FD3
:10361000BB1F621773078407BA0720F0621B730B86
:10362000840BBA0BEE1F88F7E095089504D06894D8
:10363000B111D9C00895BCD088F09F5790F0B92F30
:103640009927B751A0F0D1F0660F771F881F991FF7
:103650001AF0BA95C9F712C0B13081F0C3D0B1E009
:103660000895C0C0672F782F8827B85F39F0B93F19
:10367000CCF3869577956795B395D9F73EF49095F9
:103680008095709561957F4F8F4F9F4F0895E89477
:1036900009C097FB3EF490958095709561957F4F9A
:1036A0008F4F9F4F9923A9F0F92F96E9BB27939548
:1036B000F695879577956795B795F111F8CFFAF458
:1036C000BB0F11F460FF1BC06F5F7F4F8F4F9F4F89
:1036D00016C0882311F096E911C0772321F09EE8E7
:1036E000872F762F05C0662371F096E8862F70E04D
:1036F00060E02AF09A95660F771F881FDAF7880F27
:103700009695879597F90895990F0008550FAA0B7C
:10371000E0E8FEEF16161706E807F907C0F01216E4
:103720001306E407F50798F0621B730B840B950BE7
:1037300039F40A2661F0232B242B252B21F408953C
:103740000A2609F4A140A6958FEF811D811D0895D9
:1037500097F99F6780E870E060E008959FEF80EC44
:10376000089500240A9416161706180609060895E7
:1037700000240A9412161306140605060895092E4D
:103780000394000C11F4882352F0BB0F40F4BF2BBC
:1037900011F460FF04C06F5F7F4F8F4F9F4F0895FC
:1037A00057FD9058440F551F59F05F3F71F04795F2
:1037B000880F97FB991F61F09F3F79F087950895D7
:1037C000121613061406551FF2CF4695F1DF08C0F6
:1037D000161617061806991FF1CF86957105610513
:1037E00008940895E894BB2766277727CB0197F9BB
:1037F00008958ADF08F48FEF08950BD0C0CFB1DFB2
:1038000028F0B6DF18F0952309F0A2CFA7CF112436
:10381000EACFC6DFA0F3959FD1F3950F50E0551F77
:10382000629FF001729FBB27F00DB11D639FAA2715
:10383000F00DB11DAA1F649F6627B00DA11D661F64
:10384000829F2227B00DA11D621F739FB00DA11D85
:10385000621F839FA00D611D221F749F3327A00D3F
:10386000611D231F849F600D211D822F762F6A2FDB
:1038700011249F5750408AF0E1F088234AF0EE0F60
:10388000FF1FBB1F661F771F881F91505040A9F76D
:103890009E3F510570F05CCFA6CF5F3FECF3983EA2
:1038A000DCF3869577956795B795F795E7959F5FD4
:1038B000C1F7FE2B880F911D9695879597F908956E
:1038C00011F40EF44BCF3EC073DFD0F39923D9F33C
:1038D000CEF39F57550B87FF43D00024A0E640EA64
:1038E000900180585695979528F4805C660F771F55
:1038F000881F20F026173707480730F4621B730B28
:10390000840B202931294A2BA6951794079420254A
:1039100031254A2758F7660F771F881F20F0261792
:103920003707480730F4620B730B840B200D311DF1
:10393000411DA09581F7B901842F9158880F969564
:10394000879508959F3F31F0915020F487957795A2
:103950006795B795880F911D9695879597F9089566
:1039600091505040660F771F881FD2F70895A1E24B
:103970001A2EAA1BBB1BFD010DC0AA1FBB1FEE1FE9
:10398000FF1FA217B307E407F50720F0A21BB30B34
:10399000E40BF50B661F771F881F991F1A9469F7B0
:1039A00060957095809590959B01AC01BD01CF010C
:1039B0000895052E97FB1EF400940E94F01C57FDFD
:1039C00007D00E94B71C07FC03D04EF40C94F01CE7
:1039D00050954095309521953F4F4F4F5F4F08953B
:1039E00090958095709561957F4F8F4F9F4F08956B
:1039F000EE0FFF1F0590F491E02D0994692796279B
:103A000069277827872778270895CF93DF93823017
:103A1000910510F482E090E0E0912F06F0913006DD
:103A200020E030E0A0E0B0E0309739F140815181F2
:103A300048175907B8F04817590771F482819381E4
:103A4000109729F013969C938E9312972CC0909305
:103A5000300680932F0627C02115310531F042171B
:103A6000530718F0A901DB0101C0EF019A01BD0164
:103A7000DF010280F381E02DD7CF21153105F9F068
:103A8000281B390B2430310580F48A819B81611514
:103A9000710521F0FB019383828304C0909330066B
:103AA00080932F06FE01329644C0FE01E20FF31F01
:103AB0008193919322503109398328833AC0209110
:103AC0002D0630912E06232B41F4209102013091D6
:103AD000030130932E0620932D0620910001309192
:103AE00001012115310541F42DB73EB74091040184
:103AF00050910501241B350BE0912D06F0912E0607
:103B0000E217F307A0F42E1B3F0B2817390778F0B4
:103B1000AC014E5F5F4F2417350748F04E0F5F1F13
:103B200050932E0640932D068193919302C0E0E0BE
:103B3000F0E0CF01DF91CF910895CF93DF9300970D
:103B400009F487C0FC01329713821282C0912F06BC
:103B5000D0913006209781F420813181280F391FC0
:103B600080912D0690912E068217930779F5F09398
:103B70002E06E0932D066DC0DE0120E030E0AE178A
:103B8000BF0750F412964D915C9113979D0141151A
:103B9000510509F1DA01F3CFB383A283408151814A
:103BA000840F951F8A179B0771F48D919C91119733
:103BB000840F951F02969183808312968D919C911C
:103BC0001397938382832115310529F4F0933006EE
:103BD000E0932F063EC0D9011396FC93EE93129703
:103BE0004D915D91A40FB51FEA17FB0779F4808111
:103BF0009181840F951F0296D90111969C938E9303
:103C00008281938113969C938E931297E0E0F0E06B
:103C10008A819B81009719F0FE01EC01F9CFCE015A
:103C2000029628813981820F931F20912D063091B1
:103C30002E062817390769F4309729F410923006B8
:103C400010922F0602C013821282D0932E06C093C8
:103C50002D06DF91CF91089581E090E0F8940C94C7
:103C60003A1EFB01DC0102C001900D924150504010
:103C7000D8F7089511E0CAE4D1E004C0FE010E9423
:0E3C8000FA1C2296CE34D107C9F7F894FFCF74
:103C8E0000003106800001000000000000003E0B25
:103C9E005B0B340A6509B20A780AC80AE90A1D0BD9
:103CAE00A909FF090000000032110511DA10E21017
:103CBE00F51004110000000016148D196C1469140F
:103CCE006F14681400000000C2178D1944175D1799
:0A3CDE004F17A017000000002E1978
:00000001FF
