:100000000C9489000C94B1000C94B1000C94B100D4
:100010000C94B1000C94B1000C94B1000C94B1009C
:100020000C94B1000C94B1000C94B1000C94B1008C
:100030000C94B1000C94B1000C94B1000C94B1007C
:100040000C941A0C0C94B1000C94F40A0C94CE0A83
:100050000C94B1000C94B1000C94B1000C94B1005C
:100060000C94640C0C94B100CF00D500DB00E100CF
:10007000E700ED00F3002E0235023C0243024A0283
:100080006102510261025802084AD73B3BCE016E21
:1000900084BCBFFDC12F3D6C74319ABD56833DDADF
:1000A0003D00C77F11BED9E4BB4C3E916BAAAABEEE
:1000B000000000803F00000000002300260029000F
:1000C00000000000240027002A0000000000250096
:1000D00028002B00040404040404040402020202A5
:1000E00002020303030303030102040810204080FB
:1000F000010204081020010204081020000000087A
:1001000000020100000304070000000000000000DE
:100110006A1311241FBECFEFD8E0DEBFCDBF11E0C0
:10012000A0E0B1E0EEEAF1E302C005900D92A6383E
:10013000B107D9F725E0A6E8B1E001C01D92AD33C3
:10014000B207E1F710E0C9E8D0E004C02197FE0152
:100150000E94CA18C838D107C9F70E94E70E0C944C
:10016000D5180C940000089580E090E00895CF9396
:10017000DF934770552766277727FA013197EC01FF
:10018000A881B981E730F10520F4EC5CFF4F0C94B5
:10019000CA181496ED91FC91159761E029C0149648
:1001A000ED91FC91159765E023C01496ED91FC91BB
:1001B000159764E01DC01496ED91FC91159766E0CB
:1001C00017C01496ED91FC91159762E011C014963A
:1001D000ED91FC9115976AE00BC01496ED91FC919E
:1001E000159768E005C01496ED91FC91159769E0AC
:1001F000DF91CF910994CF93DF93EC01CB01BA014A
:1002000026E030E040E050E00E94AD16623071051B
:100210008105910559F18CF46115710581059105F0
:10022000F1F06130710581059105C1F5E881F98131
:100230000480F581E02D65E02DC0643071058105F5
:10024000910511F1D4F0653071058105910531F505
:10025000E881F9810480F581E02D66E01BC0E8812A
:10026000F9810480F581E02D64E014C0E881F98112
:100270000480F581E02D61E00DC0E881F981048002
:10028000F581E02D63E006C0E881F9810480F58105
:10029000E02D62E0CE01DF91CF910994DF91CF9103
:1002A00008954370552766277727DC01ED91FC916F
:1002B0000480F581E02D423051056105710571F032
:1002C000433051056105710559F041305105610513
:1002D000710511F065E005C066E003C06AE001C089
:1002E00069E00994CF93DF93EC01CB01BA0123E0DD
:1002F00030E040E050E00E94AD16613071058105AC
:10030000910581F0623071058105910591F0672BAF
:10031000682B692BC1F4E881F9810480F581E02D17
:1003200064E00DC0E881F9810480F581E02D61E091
:1003300006C0E881F9810480F581E02D62E0CE01FC
:10034000DF91CF910994DF91CF91089543705527A4
:1003500066277727DC01ED91FC910480F581E02D83
:10036000423051056105710571F043305105610559
:10037000710559F0413051056105710511F062E0D8
:1003800005C063E003C061E001C060E009940F9321
:100390001F93CF93DF93EC01E881F9810480F5810D
:1003A000E02D8C010D5B1F4FD8018C91811102C093
:1003B00060E001C062E0CE010995E881F981048026
:1003C000F581E02DD8018C91811102C061E001C05E
:1003D00063E0CE010995EBA5FCA5E230F10538F00C
:1003E000EE0FFF1FEE0FFF1F35973197F1F7E881F2
:1003F000F9810480F581E02DD8018C91811102C032
:1004000060E001C062E0CE01DF91CF911F910F91BA
:100410000994CF93DF93EC0120E030E0A9016B89D0
:100420007C898D899E890E94591818161CF4EFA5A5
:10043000F8A902C0E9A9FAA9DF91CF9109940F9315
:100440001F93DC011296EC910E2F10E0093011057C
:10045000C0F5F801E55CFF4F0C94CA18DC01ED9182
:10046000FC910084F185E02D29C0DC01ED91FC9127
:100470000284F385E02D22C0DC01ED91FC9104841F
:10048000F585E02D1BC0DC01ED91FC910684F7851C
:10049000E02D14C0DC01ED91FC910088F189E02D84
:1004A0000DC0DC01ED91FC910288F389E02D06C0BE
:1004B000DC01ED91FC910488F589E02D1F910F91ED
:1004C00009941F910F910895CF92DF92EF92FF92BE
:1004D0000F931F93CF93DF937C01262F972F8A01D1
:1004E00080910B02882391F0C62FD72F6E01C40E86
:1004F000D51ECC15DD0571F06991D701ED91FC9108
:100500000190F081E02DC7010995F3CF642F822F70
:100510000E94920DC801DF91CF911F910F91FF9022
:10052000EF90DF90CF900895CF93DF931F92CDB7D8
:10053000DEB7698320910B022223D1F020910C02B7
:10054000203240F021E030E0FC013383228380E060
:1005500090E015C080910D02E82FF0E0E551FE4FCC
:10056000998190838F5F80930D0280930C0205C068
:1005700061E0CE0101960E94920D81E090E00F9023
:10058000DF91CF910895CF93DF93FC012281222345
:1005900059F1EC0161E083810E947F0B61E08C8165
:1005A0000E947F0B8A81843011F0883039F461E039
:1005B0008D810E947F0B61E08E8106C0833011F037
:1005C000863021F461E08D810E947F0B8EA58F3FE4
:1005D00059F061E00E947F0B6DA581E068278EA530
:1005E000DF91CF910C944F0BDF91CF910895CF9372
:1005F000DF93FC0122812223A9F0EC010190F0811C
:10060000E02D0480F581E02D60E009958EA58F3FF7
:1006100049F061E00E947F0B6DA58EA5DF91CF911F
:100620000C944F0BDF91CF910895CF92DF92EF9210
:10063000FF920F931F93CF93DF93FC01228124300D
:1006400041F0283031F0233031F0263021F012E033
:1006500003C014E001C013E0EC012796E12CF12C5B
:10066000C62ED12C01E0C6010E2C02C095958795AF
:100670000A94E2F7688180FD6027FE01349780814B
:100680000E944F0BFFEFEF1AFF0A2196E11658F375
:10069000DF91CF911F910F91FF90EF90DF90CF905E
:1006A0000895CF92DF92EF92FF920F931F93CF9313
:1006B000DF93EC016130710511F08FE101C08EE52F
:1006C00088A36AE00E94900E10920F0280930E029F
:1006D0008A3009F0ABC08E010F5D1F4F6E018BE2B7
:1006E000C80ED11C7801EC14FD0441F083E593E0C1
:1006F0000E94570AF70181937F01F5CFCE018696BC
:10070000F80121918F01211193C0E817F907C1F772
:1007100019AA88A588778AAB89A58BAB8AA58F7023
:100720008CABDE01D9968E010F5C1F4F7E01F5E385
:10073000EF0EF11CF801EE15FF0529F08D91908167
:10074000892B8193F8CFC8A181E080930B02C093DD
:10075000EA0110920D0210920C020E151F0559F0BD
:10076000F80161918F0183E593E00E94940281304A
:10077000A1F386E05EC090910C02913208F04AC06D
:100780008091B5028111FCCF22E02093B50221E0D7
:100790002093B4022FEF2093B3021092B2029093F1
:1007A000B102ABEEB1E04FE852E0FA012E2F241B6C
:1007B000291718F42D912193F9CF1092B00290913E
:1007C000B002CC0FC92BC093B0029091AF02913010
:1007D00061F41092AF029091B0029093BB0090919F
:1007E000BC0093FDF8CF95EC01C095EE9093BC0052
:1007F0009091B5029230E1F39091B3029F3F79F06E
:100800008091B302803241F08091B302803331F0A5
:1008100084E005C081E003C082E001C083E0109263
:100820000D0210920C0210920B0203C085E001C071
:1008300087E0DF91CF911F910F91FF90EF90DF90B4
:10084000CF900895FC0110821182128213821482CB
:1008500015821682178210861186128613861486D8
:10086000158616861786108A118A128A138A148AA8
:10087000158A168A178A108E118E128E138E148E78
:10088000158E168E178E10A215AA81E086AB17AAB8
:1008900090E890AF11AE82AF13AE20EC24AF15AE4E
:1008A00022E026AF17AEDF01A05CBF4F9C931196EC
:1008B0001C9211968C9311961C9211961C929397F0
:1008C000CF018B961D92A817B907E1F713A614A6BE
:1008D00015A616A617A610AA11AA12AA13AA14AA38
:1008E00008952F923F924F925F926F927F928F92D4
:1008F0009F92AF92BF92CF92DF92EF92FF920F93AF
:100900001F93CF93DF9300D000D0CDB7DEB71C018B
:10091000FC0187849088A188B28883859485A58509
:10092000B685881A990AAA0ABB0A638974898589D7
:1009300096899B01AC010E94EF156B017C01F101CE
:10094000638D748D858D968D9B01AC010E94EF1691
:100950009B01AC01C701B6010E948A170E94FC17D7
:1009600081149104A104B104A1F4623071058105E0
:1009700091050CF07CC0F10113A214A215A216A2DD
:10098000138A148A158A168A13AA14AA15AA16AAF3
:1009900003C1F10103A914A925A936A9ED5BFF4FF5
:1009A000181419041A041B04FCF41016110612067C
:1009B00013064CF4681579058A059B054CF52081D2
:1009C000211155C025C0011511052105310509F476
:1009D0004EC0681579058A059B050CF048C08081DA
:1009E000882309F444C037C01016110612061306F6
:1009F000F4F4002711279801081919092A093B095D
:100A000060177107820793071CF42081222379F174
:100A10009B01AC0188279927DC01821B930BA40B57
:100A2000B50BF10183AB94ABA5ABB6AB20C0011500
:100A3000110521053105D9F0CC24DD247601C81833
:100A4000D908EA08FB086C157D058E059F057CF426
:100A5000808181110CC030952095109501951F4F14
:100A60002F4F3F4FF10103AB14AB25AB36ABF10178
:100A7000C3A8D4A8E5A8F6A881010D5B1F4FC11437
:100A8000D104E104F10491F487A990ADA1ADB2AD18
:100A900083AF94AFA5AFB6AF81E0181419041A0460
:100AA0001B040CF080E0F801808340C0F10183ACAE
:100AB00094ACA5ACB6ACA5019401C501B4010E94EB
:100AC000EF162B013C01C701B6010E94901520E0F2
:100AD00030E040E850E40E94EF1520E030E040E8CC
:100AE0005FE30E94EF169B01AC01C301B2010E94BB
:100AF0008A179B01AC01C501B4010E94EE164B019F
:100B00005C01F101FF964080518062807380920108
:100B1000A3010E945918181614F042015301A401B0
:100B2000B501F10143AF54AF65AF76AFFFEFCF1A18
:100B3000DF0AEF0AFF0AF101C3AAD4AAE5AAF6AABE
:100B400023AD34AD45AD56ADCA01B90129833A8311
:100B50004B835C830E940318F10163A374A385A3F4
:100B600096A329813A814B815C8160E074E284E73D
:100B700099E40E948A17F101638B748B858B968BA5
:100B8000F8012081211108C0DC01CB01B058F1012E
:100B9000838B948BA58BB68B0F900F900F900F903B
:100BA000DF91CF911F910F91FF90EF90DF90CF9049
:100BB000BF90AF909F908F907F906F905F904F907D
:100BC0003F902F9008954F925F926F927F928F92F5
:100BD0009F92AF92BF92CF92DF92EF92FF92CF930C
:100BE000DF93EC016A017B018B8C9C8CAD8CBE8CFD
:100BF0009A01AB01C501B4010E948915882309F44B
:100C000049C06BA97CA98DA99EA90E9490152B01B2
:100C10003C01A7019601C501B4010E948A179B01FE
:100C2000AC01C301B2010E94EF150E94FC176BAB2F
:100C30007CAB8DAB9EABA701960160E070E080E0DD
:100C400090E40E948A170E946C1826E53EE04DE26F
:100C50005FE30E94EF1520E034E244E759E40E948C
:100C6000EF156FAB78AF89AF9AAFCB8EDC8EED8E80
:100C7000FE8ECE01DF91CF91FF90EF90DF90CF906D
:100C8000BF90AF909F908F907F906F905F904F90AC
:100C90000C947104DF91CF91FF90EF90DF90CF9093
:100CA000BF90AF909F908F907F906F905F904F908C
:100CB00008958F929F92AF92BF92CF92DF92EF9260
:100CC000FF92CF93DF93EC018B889C88AD88BE8820
:100CD00020E030E0A901C501B4010E9489158823F4
:100CE00009F44FC0A5019401C501B4010E94EF159C
:100CF0006B017C016B8D7C8D8D8D9E8D9B01AC017C
:100D00000E94EF169B01AC01C701B6010E948A1731
:100D10000E94FC176B017C012FEFC21AD20AE20A73
:100D2000F20A20E030E0A901C501B4010E9459187F
:100D30004B855C856D857E858F849888A988BA8867
:100D400018162CF44C0D5D1D6E1D7F1D04C04C1932
:100D50005D096E097F0984169506A606B70689F017
:100D60004F87588B698B7A8BCE01DF91CF91FF90A3
:100D7000EF90DF90CF90BF90AF909F908F900C94AA
:100D80007104DF91CF91FF90EF90DF90CF90BF90F3
:100D9000AF909F908F900895CF93DF93EC0188E6FA
:100DA00095ECAFEFBFEF8B879C87AD87BE878F87B2
:100DB000988BA98BBA8B1BAA1CAA1DAA1EAA1BA2C0
:100DC0001CA21DA21EA21B8A1C8A1D8A1E8ACE017D
:100DD0000E94380ECE010E94BA0D40E050E06AEF4A
:100DE00073E4CE010E94E3058F859889A989BA89A9
:100DF000892B8A2B8B2B39F01F86188A198A1A8A1D
:100E0000CE010E94710481E0DF91CF910895CF92CD
:100E1000DF92EF92FF920F931F93CF93DF93EC013A
:100E20008B01FB01228533853327F901E450FF4F05
:100E30008491F901E851FF4FE490F901EC52FF4F22
:100E4000F490FF20A1F081110E94260BEF2DF0E01D
:100E5000EE0FFF1FEA54FF4FA591B491EC91EE21E4
:100E600031E020E009F430E0832F922F02C080E0CF
:100E700090E0F801228133818217930789F09383F0
:100E800082832FB7F89480911F0290912002A09145
:100E90002102B09122022FBF84839583A683B7835A
:100EA0002FB7F89480911F0290912002A091210207
:100EB000B09122022FBFF80144815581668177816C
:100EC000841B950BA60BB70B4485558566857785E6
:100ED000481759076A077B0708F09AC082819381F7
:100EE00091838083208531858217930709F090C014
:100EF0004F85588969897A898B859C85AD85BE85A2
:100F0000481759076A077B070CF082C0CE010E9480
:100F100059068B859C85AD85BE858F87988BA98B5F
:100F2000BA8B1BAA1CAA1DAA1EAA1BA21CA21DA228
:100F30001EA21B8A1C8A1D8A1E8A11E04B855C85B5
:100F40006D857E858F859889A989BA894817590743
:100F50006A077B0709F451C0E881F9810280F381B7
:100F6000E02DCE0109958BA19CA1ADA1BEA1892B3D
:100F70008A2B8B2B09F44EC00E94BB0B6B017C01AA
:100F80008FA198A5A9A5BAA5B701A601481B590B21
:100F90006A0B7B0B8BA19CA1ADA1BEA14817590781
:100FA0006A077B07B8F1FE01ED5BFF4F80814B853F
:100FB0005C856D857E85882329F04F5F5F4F6F4F7D
:100FC0007F4F04C041505109610971094B875C870B
:100FD0006D877E87E881F9814B855C856D857E858F
:100FE0000680F781E02DCE010995CFA2D8A6E9A60B
:100FF000FAA6CE010E9471040DC0CE010E945906CE
:10100000E881F9810190F081E02DCE01099502C0BF
:1010100010E094CF812FDF91CF911F910F91FF901E
:10102000EF90DF90CF900895CF92DF92EF92FF92F2
:101030000F931F93CF93DF936C017A018B01C0E074
:10104000D0E0CE15DF0589F0D8016D918D01D60174
:10105000ED91FC910190F081E02DC6010995892B5D
:1010600011F47E0102C02196ECCFC701DF91CF9130
:101070001F910F91FF90EF90DF90CF9008950E9405
:10108000D0184F925F926F927F92EF92FF920F93E0
:101090001F93CF93DF93CDB7DEB7A1970FB6F89428
:1010A000DEBF0FBECDBF7C01FA01CB0119A22230F9
:1010B00008F42AE08E010F5D1F4F422E512C612C47
:1010C000712CBF01A30192010E94CC16F901CA0143
:1010D000015011096A3014F4605D01C0695CD801E7
:1010E0006C93232B242B252B61F7B801C7010E9499
:1010F000B90AA1960FB6F894DEBF0FBECDBFDF913F
:10110000CF911F910F91FF90EF907F906F905F9024
:101110004F900895DC01ED91FC910190F081E02D5C
:1011200009948F929F92AF92BF92CF92DF92EF92EB
:10113000FF92CF93DF936B017C019B01AC010E9476
:10114000B018882319F064E471E027C04601570104
:10115000E894B7F82FEF3FEF4FE75FE7C501B40121
:101160000E94B01881110DC02FEF3FEF4FE75FE7EE
:10117000C501B4010E94891518161CF468E471E0D9
:101180000CC02FEF3FEF4FE75FE4C701B6010E94AD
:101190005918181684F46CE471E086EB92E0DF9144
:1011A000CF91FF90EF90DF90CF90BF90AF909F9046
:1011B0008F900C94B90A2FEF3FEF4FE75FECC70118
:1011C000B6010E94891587FDE6CF20E030E0A90135
:1011D000C701B6010E94891587FF0BC06DE286EB3F
:1011E00092E00E948A08EC01F7FAF094F7F8F09484
:1011F00002C0C0E0D0E02AE037ED43EA5BE3C7017C
:10120000B6010E94EF164B015C010E9403186B01AE
:101210007C010E948E159B01AC01C501B4010E94A6
:10122000EE164B015C012AE0B701A60186EB92E0C5
:101230000E944108C80FD91F6EE286EB92E00E941F
:101240008A08C80FD91F20E030E040E251E4C50110
:10125000B4010E94EF154B015C010E9403186B0161
:10126000E12CF12C2AE0B701A60186EB92E00E9466
:101270004108C80FD91FC701B6010E948E159B01F6
:10128000AC01C501B4010E94EE1620E030E040E25E
:1012900051E40E94EF150E940318AB0160E070E07A
:1012A0002AE086EB92E00E9441088C0F9D1FDF919F
:1012B000CF91FF90EF90DF90CF90BF90AF909F9035
:1012C0008F900895FC01538D448D252F30E0842F9D
:1012D00090E0821B930B541710F0CF96089501975E
:1012E0000895FC01918D828D981761F0828DDF0148
:1012F000A80FB11D5D968C91928D9F5F9F73928F09
:1013000090E008958FEF9FEF0895FC01918D828DFD
:10131000981731F0828DE80FF11D858D90E00895CA
:101320008FEF9FEF0895FC01918D228D892F90E022
:10133000805C9F4F821B91098F739927089586EBDC
:1013400092E00E94930921E0892B09F420E0822F8A
:101350000895FC01848DDF01A80FB11DA35ABF4F72
:101360002C91848D90E001968F739927848FA689A4
:10137000B7892C93A089B1898C9180648C93938DCB
:10138000848D981306C00288F389E02D80818F7DBB
:1013900080830895EF92FF920F931F93CF93DF9373
:1013A000EC0181E0888F9B8D8C8D981305C0E889B6
:1013B000F989808185FD24C0F62E0B8D10E00F5F2A
:1013C0001F4F0F731127E02E8C8DE8120CC00FB643
:1013D00007FCFACFE889F989808185FFF5CFCE0136
:1013E0000E94A909F1CF8B8DFE01E80FF11DE35A90
:1013F000FF4FF0820B8FEA89FB898081806207C0F2
:10140000EE89FF896083E889F9898081806480831F
:1014100081E090E0DF91CF911F910F91FF90EF90CD
:101420000895CF93DF93EC01888D8823C9F0EA8972
:10143000FB89808185FD05C0A889B9898C9186FDCD
:101440000FC00FB607FCF5CF808185FFF2CFA889CA
:10145000B9898C9185FFEDCFCE010E94A909E7CF14
:10146000DF91CF91089580E090E0892B29F00E94D0
:101470009F0981110C940000089585ED8093BC00B4
:101480008091BC0084FDFCCF1092B50208950895B0
:10149000E0910F0280910E02E81730F4F0E0E1597C
:1014A000FD4F808190E008958FEF9FEF0895909118
:1014B0000F0280910E02981750F4E92FF0E0E159E5
:1014C000FD4F208130E09F5F90930F0202C02FEF0D
:1014D0003FEFC901089580910E0290E020910F0224
:1014E000821B910908958F929F92AF92BF92CF92E3
:1014F000DF92EF92FF920F931F93CF93DF937C01C4
:101500008B016C0182E0C80ED11C4701E5E08E0E14
:10151000911CC0E0D0E0F60141916F0150E060E025
:1015200070E02AE0C8010E9441085C016EE2C80137
:101530000E948A088A0D9B1DC80FD91FC814D904A0
:1015400051F7F701458150E060E070E02AE0C80102
:101550000E9441088C0F9D1FDF91CF911F910F9129
:10156000FF90EF90DF90CF90BF90AF909F908F90C3
:1015700008956115710579F0FB0101900020E9F7EC
:101580003197AF01461B570BDC01ED91FC910280B6
:10159000F381E02D099480E090E008951F920F926E
:1015A0000FB60F9211242F933F934F935F936F9336
:1015B0007F938F939F93AF93BF93EF93FF9386EBAC
:1015C00092E00E94A909FF91EF91BF91AF919F9185
:1015D0008F917F916F915F914F913F912F910F90DC
:1015E0000FBE0F901F9018951F920F920FB60F927B
:1015F00011242F938F939F93EF93FF93E091C60253
:10160000F091C7028081E091CC02F091CD0282FD81
:1016100012C090818091CF028F5F8F732091D00292
:10162000821751F0E091CF02F0E0EA54FD4F958F20
:101630008093CF0201C08081FF91EF919F918F91A4
:101640002F910F900FBE0F901F901895833081F04F
:1016500028F4813099F08230A1F008958730A9F004
:101660008830B9F08430D1F4809180008F7D03C040
:10167000809180008F7780938000089584B58F7764
:1016800002C084B58F7D84BD08958091B0008F77AE
:1016900003C08091B0008F7D8093B00008951F93A8
:1016A000CF93DF93282F30E0F901E450FF4F84916E
:1016B000F901E851FF4FD491F901EC52FF4FC49169
:1016C000CC23C9F0162F81110E94260BEC2FF0E0DD
:1016D000EE0FFF1FE653FF4FA591B4918FB7F8941B
:1016E000111105C09C91ED2FE095E92302C0EC910A
:1016F000ED2BEC938FBFDF91CF911F910895CF9386
:10170000DF9390E0FC01E851FF4F2491FC01EC5283
:10171000FF4F8491882361F190E0880F991FFC01AD
:10172000E054FF4FC591D491FC01E653FF4FA591C2
:10173000B491611109C09FB7F894888120958223E4
:101740008883EC912E230BC0623061F49FB7F8942C
:101750003881822F809583238883EC912E2B2C93C4
:101760009FBF06C08FB7F894E8812E2B28838FBFC8
:10177000DF91CF9108953FB7F89480916B029091DB
:101780006C02A0916D02B0916E0226B5A89B05C0B7
:101790002F3F19F00196A11DB11D3FBFBA2FA92FF0
:1017A000982F8827820F911DA11DB11DBC01CD016D
:1017B00042E0660F771F881F991F4A95D1F7089559
:1017C0008F929F92AF92BF92CF92DF92EF92FF9251
:1017D0006B017C010E94BB0B4B015C01C114D10465
:1017E000E104F104F1F00E94BB0BDC01CB0188198C
:1017F0009909AA09BB09883E9340A105B10570F378
:1018000021E0C21AD108E108F10888EE880E83E0D1
:10181000981EA11CB11CC114D104E104F10419F7F4
:10182000DDCFFF90EF90DF90CF90BF90AF909F9073
:101830008F9008951F920F920FB60F9211242F933D
:101840003F938F939F93AF93BF9380911F0290918B
:101850002002A0912102B091220230916A0223E07D
:10186000230F2D3720F40196A11DB11D05C026E8D8
:10187000230F0296A11DB11D20936A0280931F02BF
:1018800090932002A0932102B093220280916B02D8
:1018900090916C02A0916D02B0916E020196A11D13
:1018A000B11D80936B0290936C02A0936D02B09374
:1018B0006E02BF91AF919F918F913F912F910F90A9
:1018C0000FBE0F901F9018951F920F920FB60F9298
:1018D00011242F933F934F935F936F937F938F9335
:1018E0009F93AF93BF93EF93FF938091B900887F4D
:1018F000803609F49CC068F5883209F45BC090F426
:10190000803109F454C038F4882309F4F6C08830D3
:1019100009F44DC0F6C0883109F44CC0803209F496
:101920005DC0EFC0803409F468C048F4803309F426
:1019300055C0883309F0E5C08093B302D8C0803524
:1019400009F44FC0883509F45DC0883409F0D9C066
:10195000D6C0883909F4C7C0A8F4883709F467C02D
:1019600038F4883609F463C0803709F460C0C9C010
:10197000883809F4B8C0803909F45FC0803809F0AC
:10198000C0C05BC0803B09F486C038F4803A09F4DB
:1019900066C0883A09F47FC0B4C0803C09F4A7C08F
:1019A000883C09F4A4C0883B09F48AC0AAC080918D
:1019B000B00210C09091B2028091B102981770F5F8
:1019C000E091B20281E08E0F8093B202F0E0E15725
:1019D000FD4F80818093BB0085EC86C08093B3026D
:1019E0008EC0E091B20281E08E0F8093B2028091AE
:1019F000BB00F0E0E157FD4F80839091B2028091EF
:101A0000B1026EC0E091B20281E08E0F8093B2020B
:101A10008091BB00F0E0E157FD4F80838091B402DC
:101A200081116DC081E08093AF0284EA61C083E0E0
:101A30008093B50210926902CFCF80916902803203
:101A400008F051C0E091690281E08E0F8093690235
:101A50008091BB00F0E0E75BFD4F8083BDCF85EC5C
:101A60008093BC001092B50280916902803230F4FC
:101A7000E0916902F0E0E75BFD4F1082609169023E
:101A800070E0E0914702F091480289E492E0099504
:101A90001092690236C084E08093B502109246022B
:101AA00010924502E0914302F09144020995809121
:101AB0004502811105C081E0809345021092230206
:101AC000E091460281E08E0F80934602F0E0ED5DEA
:101AD000FD4F80818093BB0090914602809145022A
:101AE000981708F479CF85E88093BC000AC085EC8C
:101AF0008093BC001092B50204C01092B3020E9401
:101B00003D0AFF91EF91BF91AF919F918F917F918E
:101B10006F915F914F913F912F910F900FBE0F905A
:101B20001F90189540914502262F30E0240F311D5B
:101B300021323105DCF42091B5022430C9F4FC01D6
:101B400080E090E0861758F4309145022191DC0145
:101B5000AD5DBD4FA30FB11D2C930196F3CF8091C6
:101B60004502680F6093450280E0089581E0089582
:101B700082E008958F929F92AF92BF92CF92DF92B0
:101B8000EF92FF921F93CF93DF93EC0120E030E0C0
:101B90004AEF53E46B897C898D899E890E9489155F
:101BA000882309F459C0CF88D88CE98CFA8C460177
:101BB0005701B7FAB094B7F8B09420E030E04AEF9C
:101BC00053E4C501B4010E94591818165CF020E0D6
:101BD00030E04AEF53E4C701B6010E94891587FD42
:101BE00003C010C07501640120E030E0A901C70105
:101BF000B6010E94891581110BC01BA21CA21DA257
:101C00001EA226C0C12CD12C8AEFE82E83E4F82E28
:101C1000A701960160E074E284E799E40E948A17C4
:101C20009F770E9403186BA37CA38DA39EA35E01E4
:101C300083E4A80EB11C11E020E030E0A901C70147
:101C4000B6010E94591818160CF010E0F501108327
:101C5000CB8ADC8AED8AFE8ADF91CF911F91FF90BB
:101C6000EF90DF90CF90BF90AF909F908F900895AE
:101C7000CF92DF92EF92FF92CF93DF93EC0120E0BF
:101C800030E04AE754E46F89788D898D9A8D0E94FF
:101C900089158823F1F180E090E0AAE7B4E48F8B06
:101CA000988FA98FBA8FFE01FF9680839183A283BC
:101CB000B3838BA99CA9ADA9BEA9181619061A064B
:101CC0001B063CF56B897C898D899E899B01AC0143
:101CD0000E94EF156B017C016B8D7C8D8D8D9E8D2F
:101CE0009B01AC010E94EF169B01AC01C701B6013C
:101CF0000E948A170E94FC176BAB7CAB8DAB9EAB2E
:101D0000CE01DF91CF91FF90EF90DF90CF900C94B8
:101D10007104DF91CF91FF90EF90DF90CF90089505
:101D20009091B5029111FCCF91E09093B502909300
:101D3000B4022FEF2093B3021092B202260F209329
:101D4000B1029093B0029091B002880F892B8093DA
:101D5000B0028091AF02813061F41092AF028091A5
:101D6000B0028093BB008091BC0083FDF8CF85EC6E
:101D700001C085EE8093BC008091B5028130E1F313
:101D80008091B202861710F46091B202AFE8B2E01F
:101D90002FE632E0F9018E2F821B861718F48D9101
:101DA0008193F9CF862F0895CF93DF93BC0186EB03
:101DB00092E00E94B90AEC0163E871E086EB92E0E0
:101DC0000E94B90A8C0F9D1FDF91CF9108957894DE
:101DD00084B5826084BD84B5816084BD85B5826030
:101DE00085BD85B5816085BD80916E0081608093E1
:101DF0006E0010928100809181008260809381004A
:101E00008091810081608093810080918000816059
:101E1000809380008091B10084608093B1008091B4
:101E2000B00081608093B00080917A0084608093DC
:101E30007A0080917A00826080937A0080917A00A3
:101E4000816080937A0080917A00806880937A0024
:101E50001092C100E091C602F091C70282E0808337
:101E6000E091C202F091C3021082E091C402F091AD
:101E7000C50280E180831092CE02E091CA02F09107
:101E8000CB0286E08083E091C802F091C902808194
:101E900080618083E091C802F091C90280818860EE
:101EA0008083E091C802F091C902808180688083BC
:101EB000E091C802F091C90280818F7D808361E04A
:101EC00082E00E947F0B61E080E10E947F0B61E075
:101ED00081E10E947F0B61E082E10E947F0B60E064
:101EE00080E10E944F0B60E081E10E944F0B60E0B7
:101EF00082E10E944F0B64E670E080E090E00E9477
:101F0000E00B61E080E10E944F0B60E082E10E9403
:101F10004F0B64EF71E080E090E00E94E00B61E025
:101F200081E10E944F0B61E082E10E944F0B64EF60
:101F300071E080E090E00E94E00B10920F0210929E
:101F40000E0210920D0210920C021092B50281E066
:101F50008093B4021092AF0261E082E10E944F0BC5
:101F600061E083E10E944F0B8091B9008E7F8093E6
:101F7000B9008091B9008D7F8093B90088E4809387
:101F8000B80085E48093BC008CE08093B80060E0EA
:101F900070E080EA94E00E9451038093150261E0B2
:101FA00070E08BE594E00E9451038093140210923C
:101FB0001B0210921A0210921D0210921C0281E064
:101FC00090E09093130280931202909311028093F9
:101FD00010021092220410922304109224041092F2
:101FE00025041092260410922704109228041092BF
:101FF000290410924A0410924B0410924C0410923F
:102000004D0410923A0410923B0410923C0410923A
:102010003D0410922A0410922B0410922C0410926A
:102020002D0487E194E00E94380E87E194E00E943D
:10203000BA0D40E050E06AEF73E487E194E00E945B
:10204000E30587E194E00E94F7021092DE0310920C
:10205000DF031092E0031092E1031092E20310926A
:10206000E3031092E4031092E50310920604109229
:10207000070410920804109209041092F6031092BB
:10208000F7031092F8031092F9031092E6031092EE
:10209000E7031092E8031092E90383ED93E00E94B6
:1020A000380E83ED93E00E94BA0D40E050E06AEFF5
:1020B00073E483ED93E00E94E30583ED93E00E94D7
:1020C000F70268EE73E080E090E00E94E00BC0E071
:1020D000C13661F086EB92E00E949309892BC1F32F
:1020E00086EB92E00E947109C82FF2CF212C50EFAD
:1020F000352EC1E080911A0290911B028230910529
:1021000009F465C030F4009761F0019709F450C0FC
:10211000A2C28330910509F477C0049709F48AC2FA
:102120009AC280E591E00E94D40E8091260490919D
:102130002704A0912804B09129048037904AAE4F1B
:10214000BF4F81F080E790EAAEEFBFEF80932604A7
:1021500090932704A0932804B093290487E194E086
:102160000E9471048091E2039091E303A091E40343
:10217000B091E5038037904AAE4FBF4F81F080E7C2
:1021800090EAAEEFBFEF8093E2039093E303A09356
:10219000E403B093E50383ED93E00E947104C093E0
:1021A0001E02A1E0B0E0B0931B02A0931A0253C23A
:1021B00080911D02882309F44EC280911C0288235D
:1021C00009F449C210921E02E2E0F0E07EC2809162
:1021D000220490912304A0912404B0912504883D09
:1021E0009C4DAF4FBF4F0CF436C28091DE039091EF
:1021F000DF03A091E003B091E103883D9C4DAF4F18
:10220000BF4F0CF04DC227C24091220450912304CD
:102210006091240470912504411530EF53073FEF7E
:10222000630773070CF4ECC18091180290911902B6
:10223000092E000CAA0BBB0B84179507A607B7073E
:1022400009F4DEC1509319024093180200E010E037
:1022500066E08091C0040E94900E10920F0280935D
:102260000E02863019F00F5F1F4FF2CF4BECE42EB9
:1022700044E0F42EB1EDEB16B4E0FB0641F083E54B
:1022800093E00E94570AD7018D937D01F3CF80918F
:10229000CE0480FDE8CF8091D00480FDE4CF209172
:1022A000CF04622F607F70E0CB0134E09595879575
:1022B0003A95E1F76091CB04E0E16E9FB001112403
:1022C000682B792B6115F8E07F070CF070512F70A7
:1022D000E090CC0430E1E39E70011124E22AE11485
:1022E00088E0F80614F090E1F91A072E000C880B2C
:1022F000990B0E94901529E334EB48EC5DE30E94B2
:10230000EF1520E030E0A9010E94EF164B015C01BF
:102310006093A0047093A1048093A2049093A304FB
:10232000B701FF0C880B990B0E94901529E334EB41
:1023300048EC5DE30E94EF1520E030E0A9010E9427
:10234000EF166B017C016093A4047093A504809345
:10235000A6049093A70420E030E0A901C501B401D0
:102360000E94891520E030E0A901811107C0C70152
:10237000B6010E948915811111C0AEC0C501B4011A
:102380000E94591818169CF420E030E0A901C701FA
:10239000B6010E948915811113C09EC020E030E073
:1023A000A901C501B4010E94591818164CF020E08B
:1023B00030E0A901C501B4010E945918181694F41F
:1023C00020E030E0A901C701B6010E945918181693
:1023D0004CF4A5019401C701B6010E948A170E941E
:1023E0005B1777C020E030E0A901C501B4010E946D
:1023F000891581110AC020E030E0A901C701B601AA
:102400000E94591818160CF46BC020E030E0A901A6
:10241000C501B4010E94891587FF29C020E030E082
:10242000A901C701B6010E94591818169CF020E0B6
:1024300030E0A901C701B6010E948915882309F47B
:1024400058C020E030E0A901C701B6010E948915FB
:1024500087FF0DC0A5019401C701B6010E948A172C
:102460000E945B172BED3FE049E450E430C020E0D0
:1024700030E0A901C501B4010E948915811109C08C
:1024800020E030E0A901C701B6010E94891587FD4F
:1024900039C020E030E0A901C501B4010E945918FB
:1024A0001816C4F520E030E0A901C701B6010E946A
:1024B000891587FF2FC0A5019401C701B6010E94AD
:1024C0008A170E945B172BED3FE049EC50E40E9415
:1024D000EF162B013C011EC0412C512C32011AC0B9
:1024E0002BED422E2FE0522E29EC622E2FE3722E7E
:1024F00011C09BED492E9FE0592E99E4692E90E47E
:10250000792E08C084EE482E8BEC582E86E9682E72
:1025100080E4782E4092B0045092B1046092B204EC
:102520007092B30467E671E086EB92E00E94B90A0C
:102530006BE671E086EB92E00E94B90A6091A0041C
:102540007091A1048091A2049091A3040E9491082B
:102550006BE671E086EB92E00E94B90A6091A404F8
:102560007091A5048091A6049091A7040E949108FF
:102570006BE671E086EB92E00E94B90A6091B004CC
:102580007091B1048091B2049091B3040E949108BB
:102590006BE671E086EB92E00E94B90AC0902204DB
:1025A000D0902304E0902404F0902504F7FE0EC0A0
:1025B0006DE286EB92E00E948A0844275527BA0113
:1025C0004C195D096E097F092AE003C02AE0B701B2
:1025D000A60186EB92E00E9441086BE671E086EB73
:1025E00092E00E94B90AA801110F660B770B2AE04E
:1025F00086EB92E00E9441088BE691E00E94D40EA7
:102600008091220490912304A0912404B091250488
:10261000892B8A2B8B2BF9F48091DE039091DF03B9
:10262000A091E003B091E103892B8A2B8B2B09F455
:102630004AC011C086EB92E00E949309892B59F0A1
:1026400086EB92E00E9471098136910521F4109287
:102650001B0210921A0265EF74E087E194E00E9479
:102660000707082F65EE74E083ED93E00E940707EB
:10267000182F80911E02882381F0002331F087E11A
:1026800094E00E94CC06C0931D02112331F083ED2B
:1026900093E00E94CC06C0931C020E94330A2ACD0C
:1026A0008DE691E00E94D40EA3E0B0E0B0931B024F
:1026B000A0931A0230921902209218023092170247
:1026C00020921602C8CFE4E0F0E0F0931B02E09302
:1026D0001A02C1CF2F923F924F925F926F927F92D8
:1026E0008F929F92AF92BF92CF92DF92EF92FF9222
:1026F0000F931F93CF93DF93E5E0F5E088E291E03D
:10270000918380831282138214821582E6EBF2E0B9
:102710001382128248EE53E060E070E044835583F8
:102720006683778324E031E03183208325EC30E039
:102730003587248724EC30E03787268720EC30E08B
:10274000318B208B21EC30E0338B228B22EC30E07C
:10275000358B248B26EC30E0378B268B118E128E36
:10276000138E148EEBE0F5E0918380831282138246
:1027700014821582E1E1F5E0918380831282138255
:1027800014821582E7E1F5E091838083128213823F
:1027900014821582E5E2F5E0918380831282138230
:1027A00014821582EDE1F5E0918380831282138219
:1027B00014821582EBE2F5E091838083128213820A
:1027C00014821582E1E3F5E0918380831282138203
:1027D00014821582E3E5F3E0138212824483558369
:1027E0006683778326E131E031832083E7E3F5E0F8
:1027F00091838083128213821482158285EFC82E02
:1028000084E0D82EAA24A394B12CF601B182A08230
:10281000B382A282148215821682178211861086D4
:1028200083E090E09387828722E3422E512C612C33
:10283000712C448655866686778660E00E947F0B01
:1028400035EEE32E34E0F32EF701B182A082B3829D
:10285000A28214821582168217821186108684E065
:1028600090E093878287448655866686778660E007
:102870000E947F0B80EA94E00E9422048BE594E0A2
:102880000E94220407E114E04EE2842E41E0942EDF
:10289000F8019182808258E0352E328213861486A8
:1028A000158616861786108A118A128A138A148A48
:1028B000158A168A412C512C60E8662E6FE3762E1D
:1028C000478A508E618E728E138E148E158E168EE0
:1028D000478E50A261A272A213A214A215A216A240
:1028E000B4A6A3A622242A9426A617A210A611A64F
:1028F00012A68AE083838EE0848389E085838FE05B
:10290000868313AA14AA15AA16AA17AA10AE11AE86
:1029100012AE13AE14AE15AE16AE409256045092DF
:102920005704609258047092590410925A04178206
:10293000108611861286B301A201C8010E94E30528
:10294000C3EDD3E0998288823A821B861C861D865D
:102950001E861F86188A198A1A8A1B8A1C8A1D8A53
:102960001E8A4F8A588E698E7A8E1B8E1C8E1D8E03
:102970001E8E4F8E58A269A27AA21BA21CA21DA273
:102980001EA2BCA6ABA62EA61FA218A619A61AA602
:1029900085E08B8387E08C8386E08D833E821BAA53
:1029A0001CAA1DAA1EAA1FAA18AE19AE1AAE1BAEEB
:1029B0001CAE1DAE1EAE40921204509213046092E3
:1029C000140470921504109216041F82188619863A
:1029D0001A86B301A201CE010E94E305E9EAF3E001
:1029E000D182C08280EA94E093838283158304833A
:1029F0001782168211861086168E178E10A211A2CB
:102A000012A213A214A215A246A257A260A671A6F2
:102A100040E050E160E070E042875387648775874B
:102A200016861786108A118A128A138A148A158AC2
:102A3000168A178A108E118E128E138E148E158E92
:102A4000EFE7F3E0F182E0828BE594E09383828309
:102A5000D583C4831782168211861086168E178E30
:102A600010A211A212A213A214A215A246A257A24A
:102A700060A671A642875387648775871686178676
:102A8000108A118A128A138A148A158A168A178A5A
:102A9000108E118E128E138E148E158EE7E7F3E0D2
:102AA000D182C08213830283158214821782168218
:102AB000EFE6F3E0F182E082D383C28315821482D1
:102AC00017821682E7E6F3E0D182C0821383028385
:102AD0001582148217821682EFE5F3E0F182E0821C
:102AE000D383C2831582148217821682DF91CF911D
:102AF0001F910F91FF90EF90DF90CF90BF90AF901C
:102B00009F908F907F906F905F904F903F902F900D
:102B100008950E94CB1508F481E00895E89409C057
:102B200097FB3EF490958095709561957F4F8F4F00
:102B30009F4F9923A9F0F92F96E9BB279395F69516
:102B4000879577956795B795F111F8CFFAF4BB0F94
:102B500011F460FF1BC06F5F7F4F8F4F9F4F16C0F8
:102B6000882311F096E911C0772321F09EE8872F82
:102B7000762F05C0662371F096E8862F70E060E03E
:102B80002AF09A95660F771F881FDAF7880F9695B7
:102B9000879597F90895990F0008550FAA0BE0E85B
:102BA000FEEF16161706E807F907C0F0121613060F
:102BB000E407F50798F0621B730B840B950B39F44F
:102BC0000A2661F0232B242B252B21F408950A26B5
:102BD00009F4A140A6958FEF811D811D08950E94E3
:102BE00002160C9473160E94651638F00E946C163B
:102BF00020F0952311F00C945C160C9462161124AD
:102C00000C94A7160E94841670F3959FC1F3950F3C
:102C100050E0551F629FF001729FBB27F00DB11D60
:102C2000639FAA27F00DB11DAA1F649F6627B00DF0
:102C3000A11D661F829F2227B00DA11D621F739FD9
:102C4000B00DA11D621F839FA00D611D221F749FE7
:102C50003327A00D611D231F849F600D211D822F2E
:102C6000762F6A2F11249F5750409AF0F1F0882355
:102C70004AF0EE0FFF1FBB1F661F771F881F915082
:102C80005040A9F79E3F510580F00C945C160C94BF
:102C9000A7165F3FE4F3983ED4F386957795679542
:102CA000B795F795E7959F5FC1F7FE2B880F911DAC
:102CB0009695879597F9089597F99F6780E870E052
:102CC00060E008959FEF80EC089500240A941616A2
:102CD000170618060906089500240A94121613060A
:102CE000140605060895092E0394000C11F4882398
:102CF00052F0BB0F40F4BF2B11F460FF04C06F5FB4
:102D00007F4F8F4F9F4F089557FD9058440F551F89
:102D100059F05F3F71F04795880F97FB991F61F05D
:102D20009F3F79F087950895121613061406551FD4
:102D3000F2CF4695F1DF08C0161617061806991F40
:102D4000F1CF86957105610508940895E894BB2735
:102D500066277727CB0197F90895052E97FB1EF478
:102D600000940E94C41657FD07D00E94CC1607FCA1
:102D700003D04EF40C94C41650954095309521958F
:102D80003F4F4F4F5F4F0895909580957095619597
:102D90007F4F8F4F9F4F0895A1E21A2EAA1BBB1B96
:102DA000FD010DC0AA1FBB1FEE1FFF1FA217B30717
:102DB000E407F50720F0A21BB30BE40BF50B661F2D
:102DC000771F881F991F1A9469F7609570958095F1
:102DD00090959B01AC01BD01CF0108955058BB27D0
:102DE000AA270E9406170C9473160E94651638F0E5
:102DF0000E946C1620F039F49F3F19F426F40C94CD
:102E000062160EF4E095E7FB0C945C16E92F0E9425
:102E1000841658F3BA17620773078407950720F0E2
:102E200079F4A6F50C94A6160EF4E0950B2EBA2FA5
:102E3000A02D0B01B90190010C01CA01A0011124C0
:102E4000FF27591B99F0593F50F4503E68F11A166C
:102E5000F040A22F232F342F4427585FF3CF4695FD
:102E600037952795A795F0405395C9F77EF41F161F
:102E7000BA0B620B730B840BBAF09150A1F0FF0FE9
:102E8000BB1F661F771F881FC2F70EC0BA0F621FD5
:102E9000731F841F48F4879577956795B795F795C5
:102EA0009E3F08F0B0CF9395880F08F09927EE0F5A
:102EB000979587950895DF93DD27B92FBF7740E871
:102EC0005FE31616170648075B0718F4D92F0E9410
:102ED0005E189F938F937F936F930E94AC18E8E8DE
:102EE000F0E00E9432180E9473162F913F914F918B
:102EF0005F910E940216DD2351F09058A2EA2AED5C
:102F00003FE049EC5FE3D0785D270E940617DF9130
:102F10000C9473160E949E170C9473160E946C16E4
:102F200058F00E94651640F029F45F3F29F00C9498
:102F30005C1651110C94A7160C9462160E9484160C
:102F400068F39923B1F3552391F3951B550BBB27D8
:102F5000AA2762177307840738F09F5F5F4F220F1D
:102F6000331F441FAA1FA9F335D00E2E3AF0E0E814
:102F700032D091505040E695001CCAF72BD0FE2F5E
:102F800029D0660F771F881FBB1F261737074807F2
:102F9000AB07B0E809F0BB0B802DBF01FF279358AA
:102FA0005F4F3AF09E3F510578F00C945C160C94FC
:102FB000A7165F3FE4F3983ED4F38695779567951F
:102FC000B795F7959F5FC9F7880F911D96958795DF
:102FD00097F90895E1E0660F771F881FBB1F6217FE
:102FE00073078407BA0720F0621B730B840BBA0BBC
:102FF000EE1F88F7E09508950E9403186894B111B8
:103000000C94A71608950E948C1688F09F5798F08C
:10301000B92F9927B751B0F0E1F0660F771F881FDD
:10302000991F1AF0BA95C9F714C0B13091F00E94F7
:10303000A616B1E008950C94A616672F782F88275E
:10304000B85F39F0B93FCCF3869577956795B3951E
:10305000D9F73EF490958095709561957F4F8F4F8D
:103060009F4F0895DF93CF931F930F93FF92EF929B
:10307000DF927B018C01689406C0DA2EEF010E947A
:103080000216FE01E894A59125913591459155913F
:10309000A6F3EF010E940617FE019701A801DA943A
:1030A00069F7DF90EF90FF900F911F91CF91DF9123
:1030B00008950E94CB1508F48FEF08959B01AC0191
:1030C00060E070E080E89FE30C948A1719F416F42E
:1030D0000C9462160C94B5180E948C16B8F39923C0
:1030E000C9F3B6F39F57550B87FF0E94C3180024FE
:1030F000A0E640EA900180585695979528F4805CA8
:10310000660F771F881F20F026173707480730F40F
:10311000621B730B840B202931294A2BA695179427
:103120000794202531254A2758F7660F771F881FF7
:1031300020F026173707480730F4620B730B840B17
:10314000200D311D411DA09581F7B901842F9158A3
:10315000880F9695879508959B01AC010C94EF1507
:103160000E94CB15880B990B08959F3F31F0915029
:1031700020F4879577956795B795880F911D96955B
:10318000879597F9089591505040660F771F881FD3
:10319000D2F70895EE0FFF1F0590F491E02D0994EA
:0E31A00081E090E0F8940C94D518F894FFCFDD
:1031AE0000000000CA0914086209110A9309710986
:1031BE0085090000000094026402B400470A6B0AFD
:1031CE00570A480A00000000730A00000000F702C8
:1031DE00C30215031F020902C701A60172015101A4
:1031EE00FB00B7006E616E00696E66006F7666005A
:1031FE00537461727420686F6D696E672070726FA0
:10320E006365647572650053313A002C0053746126
:10321E0072742072656164696E672073656E736F78
:06322E007273000D0A009E
:00000001FF
