:100000000C94BF000C94E7000C94E7000C94E700FC
:100010000C94E7000C94E7000C94E7000C94E700C4
:100020000C94E7000C94E7000C94E7000C94E700B4
:100030000C94E7000C94E7000C94E7000C94E700A4
:100040000C94AC170C94E7000C94AB1A0C94DD1ACA
:100050000C94E7000C94E7000C94E7000C94E70084
:100060000C940B150C94E700180320035A03E503C6
:100070001B046304520459042F04F208F908000910
:1000800007090E092509150925091C09950999096A
:100090009D09A109A509A909AD09084AD73B3BCE8D
:1000A000016E84BCBFFDC12F3D6C74319ABD568377
:1000B0003DDA3D00C77F11BED9E4BB4C3E916BAA2F
:1000C000AABE000000803F00000000006410B71DC1
:1000D000C8206E3BAC30D9269041DC76F4516B6B76
:1000E0005861B24D3C7105502083B8ED44930FF038
:1000F000E8A3D6D68CB361CBB0C2649BD4D2D386EE
:1001000078E20AA01CF2BDBD000000080002010058
:1001100000030407000000000000000001020408C2
:100120001020408001020408102001020408102061
:10013000040404040404040402020202020203038D
:100140000303030300000000230026002900000031
:100150000000250028002B000000000024002700DC
:100160002A006404B308DA082114661771177C1793
:100170008A179517A0170D1BA01BD604E0081124A1
:100180001FBECFEFD8E0DEBFCDBF11E0A0E0B1E0F1
:10019000E0E8F1E402C005900D92AC35B107D9F763
:1001A00026E0ACE5B1E001C01D92A733B207E1F74C
:1001B00011E0CAE7D1E004C02297FE010E94731F3C
:1001C000C236D107C9F70E94581C0C94B3200C9476
:1001D0000000FC0171836083538342833583248351
:1001E0001782168211861086168E178E10A211A203
:1001F00012A213A214A215A240E050E060E87FE32F
:1002000046A357A360A771A740E050E160E070E00B
:10021000428753876487758716861786108A118AE6
:10022000128A138A148A158A168A178A108E118EDA
:10023000128E138E148E158E0895CF93DF93CDB743
:10024000DEB7C456D1090FB6F894DEBF0FBECDBFDE
:10025000AC0164E670E0CE0101960E94C601AC01DB
:10026000009779F0E0919005F09191050280F3817B
:10027000E02DBE016F5F7F4F80E995E0099581E039
:1002800001C080E0CC59DF4F0FB6F894DEBF0FBE3F
:10029000CDBFDF91CF910895CF92DF92EF92FF9281
:1002A0000F931F93CF93DF93CDB7DEB7C456D10919
:1002B0000FB6F894DEBF0FBECDBF6A01FC0120E08F
:1002C00030E000E010E0462F50E07F01E81AF90A24
:1002D000E416F5060CF049C021303105B9F124F4DB
:1002E0002115310599F03FC022303105A9F02330A6
:1002F0003105C9F521E030E02C0F3D1F200F311FE3
:100300004081D9014C930F5F1F4F26C04081433F6E
:1003100001F1413F41F520C07081733F01F1713F10
:1003200009F1723F41F4A801BE016F5F7F4FC60122
:100330000E94E0071AC041E050E04C0F5D1F400FE3
:10034000511FDA017C930F5F1F4F0DC020E030E09A
:100350000AC021E030E007C022E030E004C023E022
:1003600030E001C060E03196AECFC801CC59DF4F1C
:100370000FB6F894DEBF0FBECDBFDF91CF911F91B6
:100380000F91FF90EF90DF90CF900895AF92BF92C2
:10039000CF92DF92EF92FF920F931F93CF93DF9351
:1003A0008C016B015A01CA010E943A077C01029636
:1003B000C816D90608F443C0C7010E947E1FEC018D
:1003C000009711F40E94A520A501B7010E944F07D4
:1003D0008E159F0511F521EFF8012083FE018C0F8A
:1003E0009D1F21E030E053EF12C040816FE0640FA9
:1003F000633030F4D801A20FB31F5C932F5F3F4FDF
:100400003196D801A20FB31F4C932F5F3F4FE817CF
:10041000F90739F02C153D0540F3CE010E94162056
:100420000EC07901FFEFEF1AFF0AF801E20FF31F88
:1004300082EF8083CE010E941620C70102C08FEF99
:100440009FEFDF91CF911F910F91FF90EF90DF9081
:10045000CF90BF90AF900895FC0171836083538368
:10046000428315821482178216820895982789275D
:100470009827089598278927982708950E94771F1D
:100480000895CF92DF92EF92FF921F93CF93DF9365
:10049000EC01CB010E94C50F811102C010E019C010
:1004A000CE010E94680B6B017C01CE010E946E0B95
:1004B000C616D706E806F9068CF7CE010E94390F5A
:1004C000CE010E946E0BAB01BC01CE010E94740BE9
:1004D00011E0CE010E946E0B6B017C01CE010E94E7
:1004E000680BC616D706E806F90659F0E881F981C7
:1004F0000280F381E02DCE010995CE010E94980D76
:100500000AC0CE010E94390FE881F9810190F08183
:10051000E02DCE010995812FDF91CF911F91FF90A2
:10052000EF90DF90CF900895CF93DF93EC0148E5F3
:100530005EE96FEF7FEF0E94740B40E050E06AE7E6
:1005400074E4CE010E94310E40E050E06AEF73E4A3
:10055000CE010E94BA0E40E050E06AEF73E4CE0193
:100560000E94960E40E050E0BA01CE010E94FC0CC1
:1005700081E0DF91CF91089526E040E052EC61E008
:1005800070E080E995E00E94491A61E082E00E94F3
:10059000CE1861E080E10E94CE1861E081E10E9406
:1005A000CE1861E082E10E94CE1860E080E10E94F6
:1005B000071960E081E10E94071960E082E10E9472
:1005C000071964E670E080E090E00C942518CF9362
:1005D000DF9363E073E081E392E00E944102C82F61
:1005E00063EF72E08DEE91E00E944102D82F80917E
:1005F0007401882371F0CC2321F081E392E00E9402
:100600009402DD2331F08DEE91E0DF91CF910C94D7
:100610009402DF91CF910895E0917501F0917601F8
:10062000E930F10508F04FC1EC5CFF4F0C94711FED
:1006300080917F04882309F442C181E090E034C1B5
:1006400044E953E0609113048BE194E00E944C0173
:1006500063E173E084E993E00E94F506892B09F0D9
:10066000BCC020910A0180911303909114032223AE
:1006700061F08730910519F488E090E015C1019789
:1006800009F010C182E090E00FC181309105D1F3F3
:100690008230910519F483E090E006C1863091051F
:1006A00019F484E090E000C1099709F0FBC085E0EF
:1006B00090E0FAC084EB92E00E9470112091B802A1
:1006C0003091B9024091BA025091BB026091B402DC
:1006D0007091B5028091B6029091B7020E94F81C09
:1006E0000E94CC1C20E030E04AE754E40E94731ED4
:1006F0000E94601D60935C0170935D0180935E01B8
:1007000090935F012091790230917A0240917B02AF
:1007100050917C026091750270917602809177020F
:10072000909178020E94F81C0E94CC1C20E030E0DE
:100730004AE754E40E94731E0E94601D60936001AA
:1007400070936101809362019093630185E193E06E
:100750000E94C80561E070E085E193E00E943C06DC
:1007600081E392E00E946E0B60936C0170936D01C7
:1007700080936E0190936F018DEE91E00E946E0B5D
:100780006093700170937101809372019093730173
:1007900080910A0181110CC06CE671E085E193E063
:1007A0000E944E066CE571E085E193E00E948306AD
:1007B00085E193E00E94920885E193E00E941D018B
:1007C00085E193E00E94D0056DC064E671E084E9A4
:1007D00093E00E941207892B39F084E993E00E948C
:1007E000D00586E090E060C01092740140916401F1
:1007F0005091650160916601709167014115510545
:10080000610580E8780721F081E392E00E94FC0C0A
:10081000409168015091690160916A0170916B018A
:1008200041155105610580E87807E1F18DEE91E011
:100830000E94FC0C37C040EC5DEB60EF7FEF81E382
:1008400092E00E94FC0C40EC5DEB60EF7FEF8DEEE0
:1008500091E00E94FC0C81E08093740123C064E667
:1008600071E084E993E00E941207892B09F0B5CF6B
:10087000409164015091650160916601709167013A
:1008800081E392E00E94740B4091680150916901EC
:1008900060916A0170916B018DEE91E00E94740B82
:1008A00010920A0187E090E09093760180937501A1
:1008B000089584E993E00E94D00510927F0410927D
:1008C0007601109275010895CF92EF92FF920F93E7
:1008D0001F9312E3E12EF12C00E010E020E040E055
:1008E00050E063E070E083E093E00E949C0F20E022
:1008F00040E050E064E070E083EF92E00E949C0FE3
:1009000084EB92E00E94E71085E792E00E94E710F6
:10091000C12C9FE0E92E09E02EE04AE068E081E387
:1009200092E00E94C50D28E0E22E06E027E045E0B7
:1009300068E08DEE91E00E94C50D21E332E044EBCA
:1009400052E063E073E083EC91E00E94E9002DEE59
:1009500031E045E752E063EF72E089E991E00E94FF
:10096000E90041E352E063E073E081E991E00E9435
:10097000BE084DEE51E063EF72E089E891E00E941D
:10098000BE0841E352E063E073E081E891E00E9439
:100990002C024DEE51E063EF72E089E791E01F9188
:1009A0000F91FF90EF90CF900C942C0285E792E08E
:1009B0000E942D1184EB92E00E942D1183EF92E0B2
:1009C0000E94C40F83E093E00C94C40F61E080E1C7
:1009D0000E94071960E082E10E94071964EF71E04C
:1009E00080E090E00E94251861E081E10E940719F3
:1009F00061E082E10E94071964EF71E080E090E01D
:100A00000E9425188BE994E00E94931360E070E047
:100A100084EB92E00E9490128093780161E070E094
:100A200085E792E00E9490128093770140E050E0C9
:100A3000BA0181E392E00E94740B40E050E06AE763
:100A400074E481E392E00E94310E40E050E06AEFEE
:100A500073E481E392E00E94BA0E40E050E06AEF56
:100A600073E481E392E00E94960E81E392E00E949B
:100A7000BD0A40E050E0BA018DEE91E00E94740B97
:100A800040E050E06AE774E48DEE91E00E94310EA0
:100A900040E050E06AEF73E48DEE91E00E94BA0E00
:100AA00040E050E06AEF73E48DEE91E00E94960E14
:100AB0008DEE91E00E94BD0A68EE73E080E090E068
:100AC0000C9425181F93CF93DF9311E0C1E0D0E081
:100AD00080E995E00E946619892B09F455C080E9E8
:100AE00095E00E947F19809319042091170430919A
:100AF00018042115310519F0813FC1F40CC040E004
:100B000050E0FA01E55EFB4F10824F5F5F4F4436C5
:100B10005105B9F7F1CF90911504933F91F0D0931F
:100B20001804C093170480931B041AC0823F49F431
:100B300090911504933F29F090911B04913F81F40B
:100B400012C090911B04913F59F4A9014F5F5F4F70
:100B50005093180440931704F901E55EFB4F80831E
:100B600080931504B5CFF901E55EFB4F80832F5FBD
:100B70003F4F3093140420931304109218041092E2
:100B8000170410937F04ECCFDF91CF911F9108954C
:100B90002FE7FC0111922A95E9F780E090E0089593
:100BA000EF92FF920F931F93CF93DF93EC017C01A1
:100BB00000E010E0F5E0EF0EF11C88819981081744
:100BC000190740F4F701808191810E9416200F5F80
:100BD0001F4FF0CFCE01DF91CF911F910F91FF906A
:100BE000EF900C94C805CF92DF92EF92FF920F9393
:100BF0001F93CF93DF9300D01F92CDB7DEB76C0168
:100C00007901DC010D911C910931110520F5CA0112
:100C10004A835B8369830E947E1F25E0209FF00149
:100C2000219FF00D1124EC0DFD1D968385834A81D3
:100C30005B816981009791F0628354834383B7019C
:100C40000E94AA20F6018081918101969183808380
:100C500080E090E005C08FEF9FEF02C08EEF9FEF26
:100C60000F900F900F90DF91CF911F910F91FF90F8
:100C7000EF90DF90CF900895CF93DF931F92CDB781
:100C8000DEB769839E012F5F3F4F41E050E062E095
:100C90000E94F3050F90DF91CF910895CF93DF93DA
:100CA000CDB7DEB728970FB6F894DEBF0FBECDBF25
:100CB000FC01DB016D917D918D919C9113970E94B8
:100CC000771F69837A838B839C8314966D917D91C2
:100CD0008D919C9117970E94771F6D837E838F83E0
:100CE00098879E012F5F3F4F48E050E064E0CF01BE
:100CF0000E94F30528960FB6F894DEBF0FBECDBF55
:100D0000DF91CF910895CF93DF93CDB7DEB72897CA
:100D10000FB6F894DEBF0FBECDBFFC01DB016D91B5
:100D20007D918D919C9113970E94771F69837A839F
:100D30008B839C8314966D917D918D919C911797D7
:100D40000E94771F6D837E838F8398879E012F5F1C
:100D50003F4F48E050E069E0CF010E94F30528963C
:100D60000FB6F894DEBF0FBECDBFDF91CF910895CF
:100D70000F931F93CF93DF93FC01CA0140815181F0
:100D8000A0E0B0E020E030E02417350739F11596F7
:100D9000EF01CA0FDB1F2397788189010F5F1F4F77
:100DA00076131AC045E0429FD001439FB00D112435
:100DB000AE0FBF1F409FE001419FD00D1124CE0F09
:100DC000DF1F6881798113964D915C9114970E9481
:100DD000AA2080E090E004C09801D6CF8AEF9FEF70
:100DE000DF91CF911F910F9108950F931F93CF9390
:100DF000DF931F92CDB7DEB78B0121E030E0AE016B
:100E00004F5F5F4F61E00E94B806009729F4298187
:100E100030E0F801318320830F90DF91CF911F9153
:100E20000F9108950F931F93CF93DF93EB0128E069
:100E300030E0AB0164E00E94B8068C010097A1F499
:100E4000688179818A819B810E943E0268837983CF
:100E50008A839B836C817D818E819F810E943E026B
:100E60006C837D838E839F83C801DF91CF911F9117
:100E70000F910895FC016081718120E030E080E0F5
:100E800090E02617370751F0438154814D5F5F4F43
:100E9000840F951F2F5F3F4F3596F3CF08956F92C4
:100EA0007F928F929F92AF92BF92CF92DF92EF92FA
:100EB000FF920F931F93CF93DF935C016B014A0165
:100EC000EA012296E12CF12C00E010E0F40180818F
:100ED0009181E816F90628F589819A813C0123E081
:100EE000620E711CC614D704F0F00E943602F501A0
:100EF000E00FF11F2881208392838183C80103962C
:100F00006B817C8149815A818A0D9B1D0E94AA2098
:100F1000060D171DC618D7088FEFE81AF80A259690
:100F2000D5CFC80102C08DEF9FEFDF91CF911F9108
:100F30000F91FF90EF90DF90CF90BF90AF909F9078
:100F40008F907F906F900895CF92DF92EF92FF92F3
:100F50000F931F93CF93DF9300D000D0CDB7DEB7B0
:100F60006C01CE0101960E94F7168601E12CF12C4E
:100F7000F60180819181E816F90678F4F801438141
:100F8000548165817681CE0101960E944217FFEF60
:100F9000EF1AFF0A0B5F1F4FEBCFCE0101960E94A5
:100FA0005C170E94771F0F900F900F900F90DF91AA
:100FB000CF911F910F91FF90EF90DF90CF90089508
:100FC0005F926F927F928F929F92AF92BF92CF92D9
:100FD000DF92EF92FF920F931F93CF93DF9300D096
:100FE00000D0CDB7DEB78C014B015A010E94C80575
:100FF000612C712C85E0582E6A147B0408F07CC0AB
:10100000D8018D919C918931910530F0C8010E94E1
:10101000D0058FEF9FEF72C0F401E60DF71D208120
:10102000589EF001599EF00D11247801EE0EFF1E1E
:10103000D70112962C93D3011196630183E0C80E59
:10104000D11CAC14BD0430F4C8010E94D0058CEF53
:101050009FEF54C0E00FF11FA80DB91D8D919C9119
:1010600094838383D70113968D919C9114970E944A
:101070003A023C01F701948383838C0D9D1DA816D1
:10108000B90610F3C3010E947E1FD70116969C93E8
:101090008E931597009731F4C8010E94D0058EEF0A
:1010A0009FEF2CC0B4016C0D7D1DA3010E94AA20EE
:1010B000F701638074806C0C7D1C82818330A9F4FD
:1010C000C8010E94A40769837A838B839C83D7011C
:1010D0001596ED91FC9116978081861731F0C80125
:1010E0000E94D0058BEF9FEF09C0F80180819181AC
:1010F00001969183808380CF80E090E00F900F90E5
:101100000F900F90DF91CF911F910F91FF90EF9073
:10111000DF90CF90BF90AF909F908F907F906F9017
:101120005F9008950F931F93CF93DF9300D000D06B
:10113000CDB7DEB78C010E94A40769837A838B83C5
:101140009C839E012F5F3F4F44E050E063E0C80165
:101150000E94F3050F900F900F900F90DF91CF91A9
:101160001F910F9108950F9300E020E040E060E0B0
:1011700080E894E00E94941B0F910895FC01718314
:1011800060835383428315821482178216820895E6
:1011900040E052EC61E070E086E894E00E94DF16E7
:1011A0000E94BC020C94E6040E94E7020E940C0319
:1011B0000C94620540E062E086E894E00C94C3166B
:1011C00086E894E00C9494160F931F93DC0112961A
:1011D0000C9110E009301105C0F5F801E35CFF4FF8
:1011E0000C94711FDC01ED91FC910084F185E02DE0
:1011F00029C0DC01ED91FC910284F385E02D22C031
:10120000DC01ED91FC910484F585E02D1BC0DC012F
:10121000ED91FC910684F785E02D14C0DC01ED9181
:10122000FC910088F189E02D0DC0DC01ED91FC916D
:101230000288F389E02D06C0DC01ED91FC91048861
:10124000F589E02D1F910F9109941F910F91089539
:10125000CF93DF93EC01CB01BA0126E030E040E010
:1012600050E00E94521F623071058105910559F1CD
:101270008CF46115710581059105F1F061307105FE
:1012800081059105C1F5E881F9810480F581E02DA2
:1012900065E02DC0643071058105910511F1D4F030
:1012A000653071058105910531F5E881F98104808A
:1012B000F581E02D66E01BC0E881F9810480F581AD
:1012C000E02D64E014C0E881F9810480F581E02D0F
:1012D00061E00DC0E881F9810480F581E02D63E0D3
:1012E00006C0E881F9810480F581E02D62E0CE013D
:1012F000DF91CF910994DF91CF910895CF93DF9340
:10130000477055276627772741505109DC01CD9159
:10131000DC914730510528F44A5B5F4FFA010C9489
:10132000711FEC81FD8161E01BC0EC81FD8165E0F6
:1013300017C0EC81FD8164E013C0EC81FD8166E0A3
:101340000FC0EC81FD8162E00BC0EC81FD816AE0A1
:1013500007C0EC81FD8168E003C0EC81FD8169E09C
:10136000DF91CF910994AF92BF92DF92EF92FF92FB
:101370000F931F93CF93DF931F92CDB7DEB78C01EE
:10138000FC018281843041F0883031F0833031F0CB
:10139000863021F022E003C024E001C023E0A12C2C
:1013A000B12CE62EF12CDD24D394F801EA0DFB1DBF
:1013B000C7010A2C02C0959587950A94E2F76781C8
:1013C00080FD6D25838129830E940719FFEFAF1AE5
:1013D000BF0A2981A21648F30F90DF91CF911F9188
:1013E0000F91FF90EF90DF90BF90AF9008950F9313
:1013F0001F93CF93DF93EC01E881F9810480F5819D
:10140000E02D8C010D5B1F4FD8018C91882311F0CA
:1014100062E001C060E0CE010995E881F9810480B5
:10142000F581E02DD8018C91882311F063E001C093
:1014300061E0CE0109958BA59CA50E945F18E8810B
:10144000F9810480F581E02DD8018C91882311F079
:1014500062E001C060E0CE01DF91CF911F910F915A
:101460000994CF93DF93EC0120E030E0A9016B8970
:101470007C898D899E890E94681E18161CF4EFA530
:10148000F8A902C0E9A9FAA9DF91CF9109944370A4
:10149000552766277727DC01ED91FC910480F581C3
:1014A000E02D423051056105710571F04330510561
:1014B0006105710559F0413051056105710511F063
:1014C00062E005C063E003C061E001C060E0099430
:1014D000CF93DF93EC01CB01BA0123E030E040E091
:1014E00050E00E94521F613071058105910581F025
:1014F000623071058105910591F0672B682B692B8E
:10150000C1F4E881F9810480F581E02D64E00DC02B
:10151000E881F9810480F581E02D61E006C0E88171
:10152000F9810480F581E02D62E0CE01DF91CF9159
:101530000994DF91CF910895437055276627772747
:10154000DC01ED91FC910480F581E02D42305105E4
:101550006105710571F0433051056105710559F060
:10156000413051056105710511F065E005C066E087
:1015700003C06AE001C069E00994CF93DF93EC01F6
:101580008A818823A1F0E881F9810480F581E02D2A
:1015900060E0CE0109958EA58F3F49F061E00E9481
:1015A000CE186DA58EA5DF91CF910C940719DF9110
:1015B000CF910895CF93DF93EC018A81882351F175
:1015C00061E08B810E94CE1861E08C810E94CE1870
:1015D0008A81843011F0883039F461E08D810E9475
:1015E000CE1861E08E8106C0833011F0863021F480
:1015F00061E08D810E94CE188EA58F3F59F061E089
:101600000E94CE186DA581E068278EA5DF91CF914D
:101610000C940719DF91CF910895CF92DF92EF924A
:10162000FF920F931F93CF93DF93EC014BA15CA12B
:101630006DA17EA1452B462B472B09F43FC00E948C
:1016400002186B017C014FA158A569A57AA59701E5
:101650008601041B150B260B370B4BA15CA16DA15A
:101660007EA1041715072607370740F1FE01ED5B41
:10167000FF4F80814B855C856D857E85882329F0B1
:101680004F5F5F4F6F4F7F4F04C041505109610959
:1016900071094B875C876D877E87E881F9814B856F
:1016A0005C856D857E850680F781E02DCE010995EC
:1016B000CFA2D8A6E9A6FAA681E001C080E0DF911A
:1016C000CF911F910F91FF90EF90DF90CF900895F1
:1016D000FC0167857089818992890895FC01638581
:1016E0007485858596850895FC01438754876587B1
:1016F00076874787508B618B728B13AA14AA15AA21
:1017000016AA13A214A215A216A2138A148A158A65
:10171000168A08952F923F924F925F926F927F9216
:101720008F929F92AF92BF92CF92DF92EF92FF92F1
:101730000F931F93CF93DF9300D000D0CDB7DEB7C8
:101740001C01FC0187849088A188B28883859485D8
:10175000A585B685881A990AAA0ABB0A638974897D
:10176000858996899B01AC010E94731E6B017C01E7
:10177000F101638D748D858D968D9B01AC010E9466
:10178000681C9B01AC01C701B6010E94F81C0E94B5
:10179000601D81149104A104B104A1F462307105AB
:1017A000810591050CF07CC0F10113A214A215A2D1
:1017B00016A2138A148A158A168A13AA14AA15AABD
:1017C00016AA03C1F10103A914A925A936A9ED5B45
:1017D000FF4F181419041A041B04FCF41016110608
:1017E000120613064CF4681579058A059B054CF51D
:1017F0002081211155C025C0011511052105310594
:1018000009F44EC0681579058A059B050CF048C09F
:101810008081882309F444C037C0101611061206CF
:101820001306F4F4002711279801081919092A0949
:101830003B0960177107820793071CF4208122235C
:1018400079F19B01AC0188279927DC01821B930B5E
:10185000A40BB50BF10183AB94ABA5ABB6AB20C029
:101860000115110521053105D9F0CC24DD247601BF
:10187000C818D908EA08FB086C157D058E059F0578
:101880007CF4808181110CC03095209510950195D4
:101890001F4F2F4F3F4FF10103AB14AB25AB36ABBE
:1018A000F101C3A8D4A8E5A8F6A881010D5B1F4FDC
:1018B000C114D104E104F10491F487A990ADA1AD64
:1018C000B2AD83AF94AFA5AFB6AF81E018141904E1
:1018D0001A041B040CF080E0F801808340C0F10181
:1018E00083AC94ACA5ACB6ACA5019401C501B40120
:1018F0000E94681C2B013C01C701B6010E94931D88
:1019000020E030E040E850E40E94731E20E030E028
:1019100040E85FE30E94681C9B01AC01C301B20177
:101920000E94F81C9B01AC01C501B4010E94671C18
:101930002B013C01F101FF9680809180A280B38051
:101940009401A5010E94681E181614F44201530167
:10195000C401D501F10183AF94AFA5AFB6AFFFEFDE
:10196000CF1ADF0AEF0AFF0AF101C3AAD4AAE5AA37
:10197000F6AA23AD34AD45AD56ADCA01B9012983F0
:101980003A834B835C830E94651DF10163A374A3BA
:1019900085A396A329813A814B815C8160E074E242
:1019A00084E799E40E94F81CF101638B748B858BAA
:1019B000968BF8012081211108C0DC01CB01B058C1
:1019C000F101838B948BA58BB68B0F900F900F90AA
:1019D0000F90DF91CF911F910F91FF90EF90DF90CB
:1019E000CF90BF90AF909F908F907F906F905F90BF
:1019F0004F903F902F9008950F931F93FC01078500
:101A0000108921893289041715072607370741F005
:101A10004787508B618B728B1F910F910C948A0BAF
:101A20001F910F9108950F931F93FC010385148557
:101A300025853685400F511F621F731F1F910F911F
:101A40000C94FC0C4F925F926F927F928F929F92B8
:101A5000AF92BF92CF92DF92EF92FF92CF93DF933C
:101A6000EC016A017B018B8C9C8CAD8CBE8C9A0145
:101A7000AB01C501B4010E94F41C882309F449C0DC
:101A80006BA97CA98DA99EA90E94931D2B013C01E5
:101A9000A7019601C501B4010E94F81C9B01AC018D
:101AA000C301B2010E94731E0E94601D6BAB7CAB30
:101AB0008DAB9EABA701960160E070E080E090E402
:101AC0000E94F81C0E94DA1E26E53EE04DE25FE32C
:101AD0000E94731E20E034E244E759E40E94731E22
:101AE0006FAB78AF89AF9AAFCB8EDC8EED8EFE8E6A
:101AF000CE01DF91CF91FF90EF90DF90CF90BF901C
:101B0000AF909F908F907F906F905F904F900C94CC
:101B10008A0BDF91CF91FF90EF90DF90CF90BF9035
:101B2000AF909F908F907F906F905F904F900895AF
:101B30000F931F93CF93DF93EC010E940D0B88232B
:101B400019F0CE010E948A0B20E030E0A9016B89D8
:101B50007C898D899E890E94F41C811110C081E0CE
:101B60000F85188929893A894B855C856D857E8525
:101B7000041715072607370719F480E001C081E034
:101B8000DF91CF911F910F9108958F929F92AF9205
:101B9000BF92CF92EF920F93CF93DF93EC018FE040
:101BA00091E0998388836A831B861C861D861E8626
:101BB0001F86188A198A1A8A1B8A1C8A1D8A1E8AFD
:101BC000812C912C80E8A82E8FE3B82E8F8A988ED6
:101BD000A98EBA8E1B8E1C8E1D8E1E8E8F8E98A285
:101BE000A9A2BAA21BA21CA21DA21EA281E090E083
:101BF0009CA78BA78FEF8EA71FA218A619A61AA6BF
:101C00004B832C830D83EE821BAA1CAA1DAA1EAA3D
:101C10001FAA18AE19AE1AAE1BAE1CAE1DAE1EAE7C
:101C2000FE01FF9680829182A282B3823496108256
:101C30001F82188619861A86CC2019F0CE010E94C0
:101C4000DA0A40E050E060E87FE3CE01DF91CF9117
:101C50000F91EF90CF90BF90AF909F908F900C948A
:101C6000220DCF92DF92EF92FF920F931F93CF93AB
:101C7000DF93EC016A017B019A01AB016F89788DDA
:101C8000898D9A8D0E94F41C882309F446C0CF8A5E
:101C9000D88EE98EFA8E8E01015C1F4FA701960146
:101CA00060E074E284E799E40E94F81CF801608324
:101CB0007183828393838BA99CA9ADA9BEA91816B1
:101CC00019061A061B064CF56B897C898D899E893D
:101CD0009B01AC010E94731E6B017C016B8D7C8D9E
:101CE0008D8D9E8D9B01AC010E94681C9B01AC01F7
:101CF000C701B6010E94F81C0E94601D6BAB7CAB53
:101D00008DAB9EABCE01DF91CF911F910F91FF90D4
:101D1000EF90DF90CF900C948A0BDF91CF911F91C1
:101D20000F91FF90EF90DF90CF900895CF92DF92C8
:101D3000EF92FF92CF93DF93EC016A017B0120E0E9
:101D400030E0A901C701B6010E94F41C882359F0B4
:101D5000B701A601CE01DF91CF91FF90EF90DF9008
:101D6000CF900C94220DDF91CF91FF90EF90DF90F8
:101D7000CF9008956F927F928F929F92AF92BF9271
:101D8000CF92DF92EF92FF920F931F93CF93DF9347
:101D9000EC013A018B012B893C894D895E89B301A5
:101DA000C8010E94F41C882309F454C0CF88D88C41
:101DB000E98CFA8C46015701B7FAB094B7F8B094A1
:101DC000A5019401B301C8010E94F41C87FD0BC05A
:101DD000A7019601B301C8010E94681E18162CF4D1
:101DE0003601870102C03401850120E030E0A901FD
:101DF000B301C8010E94F41C811105C01BA21CA2E2
:101E00001DA21EA221C09301A80160E074E284E734
:101E100099E40E94F81C9F770E94651D6BA37CA328
:101E20008DA39EA37E0183E4E80EF11CDD24D394F0
:101E300020E030E0A901B301C8010E94681E181615
:101E40000CF0D12CF701D082C301D8018B8B9C8B75
:101E5000AD8BBE8BDF91CF911F910F91FF90EF90D3
:101E6000DF90CF90BF90AF909F908F907F906F90BA
:101E700008958F929F92AF92BF92CF92DF92EF928E
:101E8000FF92CF93DF93EC018B889C88AD88BE884E
:101E900020E030E0A901C501B4010E94F41C8823B0
:101EA00009F43FC0A5019401C501B4010E94731E4D
:101EB0006B017C016B8D7C8D8D8D9E8D9B01AC01AA
:101EC0000E94681C9B01AC01C701B6010E94F81C6E
:101ED0000E94601D6B017C018FEFC81AD80AE80AC6
:101EE000F80A20E030E0A901C501B4010E94681E93
:101EF00018161CF4B701A60107C044275527BA01DC
:101F00004C195D096E097F09CE01DF91CF91FF90D9
:101F1000EF90DF90CF90BF90AF909F908F900C94F8
:101F2000130DDF91CF91FF90EF90DF90CF90BF9096
:101F3000AF909F908F900895EF92FF920F931F9311
:101F4000FC01862FA1E0B0E04130510511F4A0E082
:101F5000B0E0B183A083B383A2831482158216827A
:101F600017825187408782877387E486F5860687C4
:101F70001787222311F062E001C060E01F910F91EA
:101F8000FF90EF900C94CE1808950F931F93CF936A
:101F9000DF93EC018A850E943D192A813B818217DB
:101FA000930741F09B838A830E94F6176C837D839D
:101FB0008E839F830E94F6170C811D812E813F81A5
:101FC000601B710B820B930B0C851D852E853F8545
:101FD000061717072807390750F42A813B813983F0
:101FE000288381E0488559852417350709F080E06A
:101FF000DF91CF911F910F9108958F929F92AF9291
:10200000BF92CF92DF92EF92FF924B015C01690188
:102010007A0120E030E0A9010E94F41C20E030E0C9
:10202000A901811107C0C701B6010E94F41C8111EA
:1020300011C0AAC0C501B4010E94681E181654F44C
:1020400020E030E0A901C701B6010E94F41C811113
:102050000AC09AC020E030E0A901C501B4010E9485
:10206000681E1816CCF420E030E0A901C701B601C3
:102070000E94681E181684F4A5019401C701B601D8
:102080000E94F81CFF90EF90DF90CF90BF90AF9030
:102090009F908F900C94CC1C20E030E0A901C501EA
:1020A000B4010E94F41C81110AC020E030E0A901B3
:1020B000C701B6010E94681E18160CF46AC020E021
:1020C00030E0A901C501B4010E94F41C87FF29C0BA
:1020D00020E030E0A901C701B6010E94681E181671
:1020E0006CF4A5019401C701B6010E94F81C0E947E
:1020F000CC1C2BED3FE049E450E443C020E030E04D
:10210000A901C701B6010E94F41C882309F446C046
:1021100020E030E0A901C701B6010E94F41C87FD50
:10212000E0CF20E030E0A901C501B4010E94F41C19
:10213000811109C020E030E0A901C701B6010E9469
:10214000F41C87FD2FC020E030E0A901C501B401D7
:102150000E94681E181674F520E030E0A901C7013E
:10216000B6010E94F41C87FF25C0A5019401C70198
:10217000B6010E94F81C0E94CC1C2BED3FE049ECFC
:1021800050E40E94681C12C060E070E080E090E0C3
:102190000DC06BED7FE089EC9FE308C06BED7FE045
:1021A00089E403C064EE7BEC86E990E4562F472F68
:1021B000382F292F652F742F832F922FFF90EF90A8
:1021C000DF90CF90BF90AF909F908F900895FC01CB
:1021D0001082118212821382148215821682178253
:1021E0001086118612861386148615861686178623
:1021F000108A118A128A138A148A158A168A178AF3
:10220000108E118E128E138E148E158E168E178EC2
:1022100010A217A681E080AB11AA90E892AB13AA96
:1022200084AB15AA20EC26AB17AA22E020AF11AE92
:1022300092AF13AE84AF15AE16AE80E090E0DF0132
:10224000A80FB91F91961C9201968A309105B9F793
:1022500013A614A615A616A608950895607F7727DD
:1022600024E0759567952A95E1F734E0880F991F6A
:102270003A95E1F7682B792B611588E078070CF027
:102280007051CB01089544E0880F991F4A95E1F7FA
:102290006F707727862B972B811528E092070CF01B
:1022A0009051089554E0880F991F5A95E1F76F7087
:1022B0007727862B972B811528E092070CF09051F9
:1022C0000895807F9927E4E0880F991FEA95E1F748
:1022D000862B972B811528E092070CF090510895DA
:1022E0002F923F924F925F926F927F928F929F9226
:1022F000AF92BF92CF92DF92EF92FF920F931F9314
:10230000CF93DF9300D000D0CDB7DEB79C838B8313
:102310004AE0FC0160A18BE994E00E941B148A3022
:1023200011F081E0E6C000E010E08BE994E00E944B
:102330000413EB81FC81E00FF11F81A30F5F1F4F9E
:102340000A30110591F7EB81FC8105A110E081A114
:10235000B80190E00E942E116C01EB81FC8182A1FA
:10236000B80190E00E9443117C01EB81FC81F6A151
:10237000F9836F2F70E0EB81FC8183A190E00E94D4
:1023800052118C01EB81FC81F4A1FA83EB81FC8179
:1023900067A170E0FA818F2F90E00E9461111C010B
:1023A000B601882777FD8095982F0E94931D29E319
:1023B00034EB48EC5DE30E94731E4B015C01EB8142
:1023C000FC816083718382839383B701882777FDC3
:1023D0008095982F0E94931D29E334EB48EC5DE330
:1023E0000E94731E6B017C01EB81FC816483758309
:1023F00086839783B801882777FD8095982F0E9460
:10240000931D29E334EB48EC5DE30E94731E2B011E
:102410003C01EB81FC816087718782879387B101E2
:1024200060547140882777FD8095982F0E94931DF6
:102430002DEC3CEC4CE85FE30E94731EEB81FC81C9
:102440006487758786879787A7019601C501B401C0
:102450000E94FD0FEB81FC81608B718B828B938BD3
:10246000A3019201C701B6010E94FD0FEB81FC811F
:10247000648B758B868B978BA3019201C501B40188
:102480000E94FD0FEB81FC81608F718F828F938F93
:10249000A5019401C501B4010E94731E4B015C01AA
:1024A000A7019601C701B6010E94731E9B01AC01F2
:1024B000C501B4010E94681C6B017C01A30192015B
:1024C000C301B2010E94731E9B01AC01C701B6019A
:1024D0000E94681CEB81FC81648F758F868F978FBB
:1024E000FA81F0FD03C0298120FF02C082E001C013
:1024F00080E00F900F900F900F90DF91CF911F9180
:102500000F91FF90EF90DF90CF90BF90AF909F9092
:102510008F907F906F905F904F903F902F90089595
:102520000F931F93CF93DF93EC016130710511F48A
:102530006EE501C06FE168A34AE08BE994E00E9478
:102540001B148A3011F085E052C000E010E08BE9E6
:1025500094E00E940413FE01E00FF11F81A30F5FBE
:102560001F4F0A30110599F780E090E0FE01E80F57
:10257000F91F21A1211138C0019685309105B1F7CD
:102580001BA688A588778CA789A58DA78AA58F709B
:102590008EA780E090E0FE01E80FF91F23A533A984
:1025A000232B23A7019684309105A9F768A18BE915
:1025B00094E00E949D1300E010E0FE01E00FF11F87
:1025C00063A58BE994E00E945413813079F40F5F86
:1025D0001F4F0430110589F78BE994E0DF91CF910B
:1025E0001F910F910C941E1487E001C086E0DF91CB
:1025F000CF911F910F9108958091CB0490E020918D
:10260000CC04821B910908952091CC048091CB04C5
:10261000281750F4E22FF0E0E353FB4F808190E065
:102620002F5F2093CC0408958FEF9FEF0895E091E2
:10263000CC048091CB04E81730F4F0E0E353FB4F77
:10264000808190E008958FEF9FEF08950895CF92D5
:10265000DF92EF92FF920F931F93CF93DF937C0152
:10266000CB018A012091A704222389F0EB016B01A1
:10267000C40ED51ECC15DD0569F06991D701ED9129
:10268000FC910190F081E02DC7010995F3CF642FF3
:102690000E94E214C801DF91CF911F910F91FF902A
:1026A000EF90DF90CF900895CF93DF931F92CDB737
:1026B000DEB769832091A7042223D1F02091A804DA
:1026C000203240F021E030E0FC013383228380E0BF
:1026D00090E015C08091A904E82FF0E0E655FB4F8B
:1026E000998190838F5F8093A9048093A80405C08B
:1026F00061E0CE0101960E94E21481E090E00F902B
:10270000DF91CF910895FC011382128248EE53E0CD
:1027100060E070E0448355836683778389E291E0CB
:102720009183808308951092CC041092CB04109270
:10273000A9041092A8040C94251481E08093A704A6
:102740006093CA041092A9041092A80408950F93EC
:10275000062F21E04091A8046AEA74E08091CA043F
:102760000E948B141092A9041092A8041092A7043E
:102770000F9108958F929F92AF92BF92CF92DF9266
:10278000EF92FF920F931F93CF93DF93EC01F62EFE
:10279000D42E48015901EE2019F10E949D131E2DDF
:1027A000143008F013E01150B8F0E881F98128E006
:1027B000129FB0011124A501940104C056954795BC
:1027C000379527956A95D2F7CA01B9010190F08132
:1027D000E02DCE010995E7CF60E0CE010E94A7135E
:1027E0004D2D413208F040E22C2D6DEC74E08F2D20
:1027F0000E9443141092CC048093CB04DF91CF91BC
:102800001F910F91FF90EF90DF90CF90BF90AF900E
:102810009F908F900895CF92EF920F931F93C22EA7
:10282000E12C00E010E098010E94BA131F910F9173
:10283000EF90CF90089521E00C940B1461E00C947C
:10284000A7138BE994E00C94831310925A0581E04E
:10285000809358051092570561E082E10E940719A4
:1028600061E083E10E940719E9EBF0E080818E7F4F
:10287000808380818D7F808388E48093B80085E4A5
:102880008093BC000895413208F043C090915A05EE
:102890009111FCCF91E090935A05209358052FEFAA
:1028A0002093ED0410923205240F2093310590936C
:1028B000590590915905880F892B8093590580916E
:1028C0005705813061F41092570580915905809326
:1028D000BB008091BC0083FDF8CF85EC01C085EE84
:1028E0008093BC0080915A058130E1F380913205DC
:1028F000841710F44091320523E335E0FB01D90140
:102900008A2F821B841718F48D918193F9CF842F1D
:10291000089580E008950F93413208F04AC09091E5
:102920005A059111FCCF92E090935A0500935805F7
:102930009FEF9093ED041092320540933105FB0117
:1029400063E375E0DB019A2F961B941718F49191BD
:102950009D93F9CF1092590590915905880F892BB5
:102960008093590580915705813061F41092570585
:10297000809159058093BB008091BC0083FDF8CF06
:1029800085EC01C085EE8093BC00222321F080916C
:102990005A058230E1F38091ED048F3F61F0809120
:1029A000ED04803251F08091ED04803341F483E0F6
:1029B00007C081E005C080E003C082E001C084E080
:1029C0000F910895613298F420915A05243089F4CA
:1029D00060930F05FC0181E195E0DC012A2F281BA3
:1029E000261718F421912D93F9CF80E0089581E006
:1029F000089582E0089585ED8093BC008091BC002D
:102A000084FDFCCF10925A05089585EC8093BC009C
:102A100010925A0508951F920F920FB60F9211242B
:102A20002F933F934F935F936F937F938F939F93D6
:102A3000AF93BF93EF93FF938091B900887F803667
:102A400009F49EC078F5883209F45DC090F48031B5
:102A500009F456C038F4882309F4F5C0883009F425
:102A60004FC0F5C0883109F44EC0803209F45FC010
:102A7000EEC0803409F46AC058F4803309F457C0BA
:102A8000883309F0E4C08093ED040E940515DFC08F
:102A9000803509F44FC0883509F45DC0883409F0E9
:102AA000D6C0D3C0883909F4C4C0A8F4883709F463
:102AB00067C038F4883609F463C0803709F460C011
:102AC000C6C0883809F4B5C0803909F45FC08038C1
:102AD00009F0BDC05BC0803B09F483C038F4803A84
:102AE00009F466C0883A09F47CC0B1C0803C09F49E
:102AF000A4C0883C09F4A1C0883B09F487C0A7C0E2
:102B00008091590510C09091320580913105981738
:102B100070F5E091320581E08E0F80933205F0E090
:102B2000ED5CFA4F80818093BB0085EC83C080937D
:102B3000ED048BC0E091320581E08E0F8093320569
:102B40008091BB00F0E0ED5CFA4F808390913205FC
:102B5000809131056BC0E091320581E08E0F80934A
:102B600032058091BB00F0E0ED5CFA4F80838091EC
:102B7000580581116AC081E08093570584EA5EC0E0
:102B800083E080935A051092EE04CFCF8091EE043B
:102B9000803208F04EC0E091EE0481E08E0F809309
:102BA000EE048091BB00F0E0E151FB4F8083BDCF8C
:102BB0000E9405158091EE04803230F4E091EE041D
:102BC000F0E0E151FB4F10826091EE0470E0E09183
:102BD0005305F09154058FEE94E009951092EE04A0
:102BE00036C084E080935A051092100510920F05AC
:102BF000E0915505F0915605099580910F058111D9
:102C000005C081E080930F0510921105E091100539
:102C100081E08E0F80931005F0E0EF5EFA4F808127
:102C20008093BB009091100580910F05981708F4D0
:102C30007CCF85E88093BC000AC085EC8093BC0003
:102C400010925A0504C01092ED040E94FB14FF91EB
:102C5000EF91BF91AF919F918F917F916F915F9114
:102C60004F913F912F910F900FBE0F901F9018958D
:102C70001F93CF93DF93DC0152968D919C915397D4
:102C8000009749F481E090E013969C938E931297FD
:102C900080E090E03BC01D96ED91FC911E971C9644
:102CA0002C911C97322F30951FB754964C91549706
:102CB00041FB772770F941FD6095F89440817723B7
:102CC00011F0422B01C043234083EC012197F1F71F
:102CD00048E0508160FF02C0522B01C05323508353
:102CE000EC012197F1F76695415099F780817723A0
:102CF00011F0832301C0822B80831FBF52968D91D8
:102D00009C9153970197F1F781E090E0DF91CF918B
:102D10001F91089508958FEF9FEF089580E090E050
:102D200008958FEF9FEF089529E331E0FC0131838F
:102D3000208308951F93CF93DF93EC01162F6C89A6
:102D40006695617081E06827812F0E94071961E014
:102D5000812F0E94CE18812F90E0FC01E45EFE4F8F
:102D6000E491EC87FC01E05DFE4FE491F0E0EE0FB2
:102D7000FF1FE25BFE4F859194919E878D87DF91C7
:102D8000CF911F9108950F931F93FC01138212821C
:102D900008EE13E020E030E00483158326833783B8
:102DA00089E391E091838083138A128A848940FBAE
:102DB00081F9848BCF011F910F910C949A16CF93B8
:102DC000DF93EC019A01AB0160E079E08DE390E0E4
:102DD0000E94521F2430310518F02350310902C0DF
:102DE00021E030E03B8B2A8BDF91CF9108954FEFAC
:102DF0005FEFBA01FC0140835183628373830895BE
:102E00000F931F93A62FFC01408151816281738132
:102E10002A2F24272F7034E0239FF0011124E85338
:102E2000FF4F0591159125913491E4E076956795D2
:102E300057954795EA95D1F7402751276227732781
:102E4000EA2FE295EF70E427EF7024E0E29FF001B3
:102E50001124E853FF4F0591159125913491F4E029
:102E60007695679557954795FA95D1F7402751275D
:102E700062277327FC0140835183628373831F9110
:102E80000F910895EF92FF920F931F93CF93DF93CB
:102E90007C018A01EB01060F171FC017D10729F02B
:102EA0006991C7010E940017F8CFDF91CF911F9160
:102EB0000F91FF90EF900895FC01608171818281F4
:102EC0009381609570958095909508950F9300E09B
:102ED00020E040E060E08BE595E00E94941B0F91BC
:102EE00008950F9300E020E040E060E081E695E087
:102EF0000E94941B0F9108950F9300E020E040E0A2
:102F000060E08FE695E00E94941B87E695E00F91C4
:102F10000C948A1B0F9300E020E040E060E085E71E
:102F200095E00E94941B0F9108950F9300E020E01C
:102F300040E060E08BE795E00E94941B0F910895BC
:102F40000F9300E020E040E060E081E895E00E941F
:102F5000941B0F91089508951F920F920FB60F9230
:102F600011242F933F938F939F93AF93BF9380919F
:102F7000880590918905A0918A05B0918B053091C3
:102F8000870523E0230F2D3720F40196A11DB11DE5
:102F900005C026E8230F0296A11DB11D20938705C9
:102FA0008093880590938905A0938A05B0938B053B
:102FB00080918C0590918D05A0918E05B0918F0523
:102FC0000196A11DB11D80938C0590938D05A09352
:102FD0008E05B0938F05BF91AF919F918F913F91D7
:102FE0002F910F900FBE0F901F9018952FB7F89448
:102FF000609188057091890580918A0590918B0573
:103000002FBF08953FB7F89480918C0590918D055E
:10301000A0918E05B0918F0526B5A89B05C02F3FC6
:1030200019F00196A11DB11D3FBF6627782F892F8A
:103030009A2F620F711D811D911D42E0660F771F4F
:10304000881F991F4A95D1F708958F929F92AF924A
:10305000BF92CF92DF92EF92FF926B017C010E94B0
:1030600002184B015C01C114D104E104F104F1F038
:103070000E94AB170E940218681979098A099B09F6
:10308000683E73408105910570F321E0C21AD108B2
:10309000E108F10888EE880E83E0981EA11CB11C9F
:1030A000C114D104E104F10429F7DDCFFF90EF90C2
:1030B000DF90CF90BF90AF909F908F900895823017
:1030C000910538F0880F991F880F991F0597019770
:1030D000F1F70895789484B5826084BD84B58160E9
:1030E00084BD85B5826085BD85B5816085BDEEE610
:1030F000F0E0808181608083E1E8F0E010828081EF
:1031000082608083808181608083E0E8F0E080815C
:1031100081608083E1EBF0E0808184608083E0EB7C
:10312000F0E0808181608083EAE7F0E08081846064
:1031300080838081826080838081816080838081C0
:10314000806880831092C1000895833081F028F454
:10315000813099F08230A1F008958730A9F088304D
:10316000B9F08430D1F4809180008F7D03C08091CC
:1031700080008F7780938000089584B58F7702C098
:1031800084B58F7D84BD08958091B0008F7703C092
:103190008091B0008F7D8093B0000895CF93DF932E
:1031A00090E0FC01E45EFE4F2491FC01E05DFE4FE7
:1031B0008491882349F190E0880F991FFC01E85A17
:1031C000FE4FA591B491825B9E4FFC01C591D491B5
:1031D0009FB7611108C0F8948C91209582238C933D
:1031E000888182230AC0623051F4F8948C91322F86
:1031F000309583238C938881822B888304C0F89434
:103200008C91822B8C939FBFDF91CF9108950F9368
:103210001F93CF93DF931F92CDB7DEB7282F30E0F7
:10322000F901E85FFE4F8491F901E45EFE4F1491CD
:10323000F901E05DFE4F04910023C9F0882321F0DD
:1032400069830E94A5186981E02FF0E0EE0FFF1F4F
:10325000E25BFE4FA591B4919FB7F8948C916111F8
:1032600003C01095812301C0812B8C939FBF0F90C9
:10327000DF91CF911F910F910895CF93DF93282F66
:1032800030E0F901E85FFE4F8491F901E45EFE4F02
:10329000D491F901E05DFE4FC491CC2391F08111EE
:1032A0000E94A518EC2FF0E0EE0FFF1FEC5BFE4F25
:1032B000A591B4912C912D2381E090E021F480E040
:1032C00002C080E090E0DF91CF910895FC01818DF4
:1032D000228D90E0805C9F4F821B91098F7399270C
:1032E0000895FC01918D828D981731F0828DE80F41
:1032F000F11D858D90E008958FEF9FEF0895FC01FB
:10330000918D828D981761F0828DDF01A80FB11D1C
:103310005D968C91928D9F5F9F73928F90E0089540
:103320008FEF9FEF089583E09BE1892B49F080E0C8
:1033300090E0892B29F00E94031B81110C9400005E
:103340000895FC01848DDF01A80FB11DA35ABF4F62
:103350002C91848D90E001968F739927848FA68994
:10336000B7892C93A089B1898C9180648C93938DBB
:10337000848D981306C00288F389E02D80818F7DAB
:1033800080830895CF93DF93EC01888D8823C9F063
:10339000EA89FB89808185FD05C0A889B9898C915E
:1033A00086FD0FC00FB607FCF5CF808185FFF2CFF9
:1033B000A889B9898C9185FFEDCFCE010E94A11912
:1033C000E7CFDF91CF910895CF92DF92FF920F93D5
:1033D0001F93CF93DF931F92CDB7DEB76C0181E0CF
:1033E000D60158968C9358975B969C915B975C9608
:1033F0008C915C97981307C05096ED91FC91519772
:10340000808185FD2EC0F601038D10E00F5F1F4FF8
:103410000F731127F02EF601848DF81211C00FB62C
:1034200007FCF9CFD6015096ED91FC915197808120
:1034300085FFF1CFC60169830E94A1196981EBCF95
:10344000838DE80FF11DE35AFF4F6083D6015B9631
:103450000C935B975296ED91FC915397808180621B
:103460000CC0D6015696ED91FC915797608350960B
:10347000ED91FC91519780818064808381E090E0A0
:103480000F90DF91CF911F910F91FF90DF90CF9020
:103490000895BF92CF92DF92EF92FF92CF93DF9386
:1034A000EC016A017B01B22EE889F98982E0808310
:1034B000411581EE580761057105A1F060E079E0E2
:1034C0008DE390E0A70196010E94301F2150310941
:1034D000410951095695479537952795211580E162
:1034E000380798F0E889F989108260E874E88EE17D
:1034F00090E0A70196010E94301F21503109410937
:1035000051095695479537952795EC85FD8530836C
:10351000EE85FF852083188EEC89FD89B082EA89CB
:10352000FB89808180618083EA89FB898081886052
:103530008083EA89FB89808180688083EA89FB89AE
:1035400080818F7D8083DF91CF91FF90EF90DF901E
:10355000CF90BF9008951F920F920FB60F92112433
:103560002F938F939F93EF93FF93E091A005F0919A
:10357000A1058081E091A605F091A70582FD12C00A
:1035800090818091A9058F5F8F732091AA05821782
:1035900051F0E091A905F0E0E057FA4F958F809344
:1035A000A90501C08081FF91EF919F918F912F918B
:1035B0000F900FBE0F901F9018951F920F920FB68D
:1035C0000F9211242F933F934F935F936F937F93A9
:1035D0008F939F93AF93BF93EF93FF9380E995E011
:1035E0000E94A119FF91EF91BF91AF919F918F918F
:1035F0007F916F915F914F913F912F910F900FBEEF
:103600000F901F90189580E995E00E94661921E0BF
:10361000892B09F420E0822F0895109293051092CF
:10362000920588EE93E0A0E0B0E08093940590933B
:103630009505A0939605B093970589E491E0909342
:1036400091058093900585EC90E090939D05809383
:103650009C0584EC90E090939F0580939E0580EC00
:1036600090E09093A1058093A00581EC90E0909369
:10367000A3058093A20582EC90E09093A50580932A
:10368000A40586EC90E09093A7058093A605109280
:10369000A9051092AA051092AB051092AC050895E9
:1036A000AF92BF92CF92DF92EF92FF920F931F9350
:1036B000CF93DF936C017B01C0E0D0E000E010E02D
:1036C000F601EC0FFD1F4AE050E06281C7010E9445
:1036D000501C5C016EE2C7010E94ED1B8A0D9B1D10
:1036E000080F191F2196C330D10551F74AE050E069
:1036F000F6016581C7010E94501C800F911FDF9168
:10370000CF911F910F91FF90EF90DF90CF90BF90DE
:10371000AF90089529E531E0FC01318320831282C6
:1037200013821482158208950F93FC0189E591E0BC
:103730009183808362834383248305830F9108955B
:1037400089E591E090932E0680932D0610922F0626
:103750001092300610923106109232060895CF92E0
:10376000DF92EF92FF920F931F93CF93DF937C0131
:103770006A01EB0100E010E00C151D0571F0699184
:10378000D701ED91FC910190F081E02DC7010995E1
:10379000892B19F00F5F1F4FEFCFC801DF91CF9139
:1037A0001F910F91FF90EF90DF90CF9008956115DA
:1037B000710581F0DB010D900020E9F7AD0141506A
:1037C0005109461B570BDC01ED91FC910280F381FE
:1037D000E02D099480E090E00895DC01ED91FC91EA
:1037E0000190F081E02D09948F929F92AF92BF9249
:1037F000DF92EF92FF920F931F93CF93DF93CDB79A
:10380000DEB7A1970FB6F894DEBF0FBECDBF7C0127
:10381000F42FD52ECB0119A2223008F42AE08E0114
:103820000F5D1F4F822E912CA12CB12C6F2F7D2D5F
:10383000A50194010E94301FF22FD32ECA0101501E
:1038400011096A3014F4E0E301C0E7E3E60FD801A0
:10385000EC93232B242B252B49F7B801C7010E9499
:10386000D71BA1960FB6F894DEBF0FBECDBFDF9178
:10387000CF911F910F91FF90EF90DF90BF90AF908D
:103880009F908F9008952115310541F4DC01ED9151
:10389000FC910190F081E02D642F09940C94F41BAD
:1038A0009A01462F50E060E070E00C94431C0895AC
:1038B0000E946A180E94571C0E94C808C3E9D9E1F7
:1038C0000E94D4082097E1F30E949319F9CF505831
:1038D000BB27AA270ED0C2C1B3D130F0B8D120F097
:1038E00031F49F3F11F41EF483C10EF4E095E7FB21
:1038F00079C1E92FC4D180F3BA176207730784072F
:10390000950718F071F49EF5DCC10EF4E0950B2ECE
:10391000BA2FA02D0B01B90190010C01CA01A00121
:103920001124FF27591B99F0593F50F4503E68F17C
:103930001A16F040A22F232F342F4427585FF3CFBD
:10394000469537952795A795F0405395C9F77EF48E
:103950001F16BA0B620B730B840BBAF09150A1F0D7
:10396000FF0FBB1F661F771F881FC2F70EC0BA0F5D
:10397000621F731F841F48F4879577956795B795E5
:10398000F7959E3F08F0B3CF9395880F08F09927DD
:10399000EE0F979587950895DF93DD27B92FBF77B1
:1039A00040E85FE31616170648075B0710F4D92FA7
:1039B00093D19F938F937F936F933AD2EAE9F0E08C
:1039C0001AD14CD12F913F914F915F9198D1DD2326
:1039D00049F09058A2EA2AED3FE049EC5FE3D07845
:1039E0005D2787DFDF913AC1D9D008F481E00895DF
:1039F0000CD034C12CD140F023D130F021F45F3F02
:103A000019F0F0C051115EC1F3C039D198F3992378
:103A1000C9F35523B1F3951B550BBB27AA27621792
:103A20007307840738F09F5F5F4F220F331F441FD7
:103A3000AA1FA9F333D00E2E3AF0E0E830D091500F
:103A40005040E695001CCAF729D0FE2F27D0660FFC
:103A5000771F881FBB1F261737074807AB07B0E83B
:103A600009F0BB0B802DBF01FF2793585F4F2AF051
:103A70009E3F510568F0B6C025C15F3FECF3983E0C
:103A8000DCF3869577956795B795F7959F5FC9F7AE
:103A9000880F911D9695879597F90895E1E0660F37
:103AA000771F881FBB1F621773078407BA0720F0B0
:103AB000621B730B840BBA0BEE1F88F7E095089519
:103AC00004D06894B111FEC00895E1D088F09F57EA
:103AD00090F0B92F9927B751A0F0D1F0660F771F5A
:103AE000881F991F1AF0BA95C9F712C0B13081F03A
:103AF000E8D0B1E00895E5C0672F782F8827B85F38
:103B000039F0B93FCCF3869577956795B395D9F79A
:103B10003EF490958095709561957F4F8F4F9F4FA4
:103B20000895E89409C097FB3EF4909580957095B0
:103B300061957F4F8F4F9F4F9923A9F0F92F96E9F9
:103B4000BB279395F695879577956795B795F1116E
:103B5000F8CFFAF4BB0F11F460FF1BC06F5F7F4F0B
:103B60008F4F9F4F16C0882311F096E911C077231D
:103B700021F09EE8872F762F05C0662371F096E826
:103B8000862F70E060E02AF09A95660F771F881FF5
:103B9000DAF7880F9695879597F90895990F000899
:103BA000550FAA0BE0E8FEEF16161706E807F9070F
:103BB000C0F012161306E407F50798F0621B730BAA
:103BC000840B950B39F40A2661F0232B242B252B2B
:103BD00021F408950A2609F4A140A6958FEF811DCE
:103BE000811D089597F99F6780E870E060E008956F
:103BF0009FEF80EC0895DF93CF931F930F93FF9275
:103C0000EF92DF927B018C01689405C0DA2EEF0100
:103C100076D0FE01E894A591259135914591559175
:103C2000AEF3EF0166DEFE019701A801DA9479F7A1
:103C3000DF90EF90FF900F911F91CF91DF9108954A
:103C400000240A941616170618060906089500247B
:103C50000A9412161306140605060895092E0394F5
:103C6000000C11F4882352F0BB0F40F4BF2B11F469
:103C700060FF04C06F5F7F4F8F4F9F4F089557FDC8
:103C80009058440F551F59F05F3F71F04795880FCA
:103C900097FB991F61F09F3F79F087950895121661
:103CA00013061406551FF2CF4695F1DF08C016160D
:103CB00017061806991FF1CF8695710561050894BE
:103CC0000895E894BB2766277727CB0197F90895D5
:103CD00065DF08F48FEF08959B01AC0160E070E0B0
:103CE00080E89FE385CE0BD0B9CFAADF28F0AFDF05
:103CF00018F0952309F076CF7BCF1124E3CFBFDFF7
:103D0000A0F3959FD1F3950F50E0551F629FF001EE
:103D1000729FBB27F00DB11D639FAA27F00DB11D47
:103D2000AA1F649F6627B00DA11D661F829F2227D0
:103D3000B00DA11D621F739FB00DA11D621F839F57
:103D4000A00D611D221F749F3327A00D611D231F2D
:103D5000849F600D211D822F762F6A2F11249F577B
:103D600050408AF0E1F088234AF0EE0FFF1FBB1F9E
:103D7000661F771F881F91505040A9F79E3F51053D
:103D800070F030CF9FCF5F3FECF3983EDCF3869529
:103D900077956795B795F795E7959F5FC1F7FE2BE8
:103DA000880F911D9695879597F9089511F40EF453
:103DB0001FCF41C06CDFD0F39923D9F3CEF39F57C7
:103DC000550B87FF46D00024A0E640EA90018058BA
:103DD0005695979528F4805C660F771F881F20F012
:103DE00026173707480730F4621B730B840B202912
:103DF00031294A2BA69517940794202531254A2767
:103E000058F7660F771F881F20F0261737074807D7
:103E100030F4620B730B840B200D311D411DA095F6
:103E200081F7B901842F9158880F96958795089549
:103E30009B01AC0158CF9F3F31F0915020F4879502
:103E400077956795B795880F911D9695879597F902
:103E5000089591505040660F771F881FD2F708953C
:103E6000A1E21A2EAA1BBB1BFD010DC0AA1FBB1F7E
:103E7000EE1FFF1FA217B307E407F50720F0A21BF0
:103E8000B30BE40BF50B661F771F881F991F1A945D
:103E900069F760957095809590959B01AC01BD0187
:103EA000CF010895052E97FB1EF400940E94691F10
:103EB00057FD07D00E94301F07FC03D04EF40C942E
:103EC000691F50954095309521953F4F4F4F5F4F5B
:103ED000089590958095709561957F4F8F4F9F4F76
:103EE0000895EE0FFF1F0590F491E02D09946927C6
:103EF000962769277827872778270895CF93DF9318
:103F00008230910510F482E090E0E0913506F09166
:103F1000360620E030E0A0E0B0E0309739F1408193
:103F2000518148175907B8F04817590771F4828131
:103F30009381109729F013969C938E9312972CC01F
:103F4000909336068093350627C02115310531F050
:103F50004217530718F0A901DB0101C0EF019A01D4
:103F6000BD01DF010280F381E02DD7CF211531059E
:103F7000F9F0281B390B2430310580F48A819B81AC
:103F80006115710521F0FB019383828304C0909336
:103F9000360680933506FE01329644C0FE01E20FDC
:103FA000F31F8193919322503109398328833AC0BA
:103FB0002091330630913406232B41F420910201E5
:103FC0003091030130933406209333062091000191
:103FD000309101012115310541F42DB73EB74091D3
:103FE000040150910501241B350BE0913306F0913B
:103FF0003406E217F307A0F42E1B3F0B28173907EE
:1040000078F0AC014E5F5F4F2417350748F04E0F34
:104010005F1F50933406409333068193919302C0FF
:10402000E0E0F0E0CF01DF91CF910895CF93DF93EF
:10403000009709F487C0FC01329713821282C09165
:104040003506D0913606209781F420813181280FE2
:10405000391F80913306909134068217930779F5C2
:10406000F0933406E09333066DC0DE0120E030E0CB
:10407000AE17BF0750F412964D915C9113979D01B6
:104080004115510509F1DA01F3CFB383A2834081D1
:104090005181840F951F8A179B0771F48D919C9114
:1040A0001197840F951F02969183808312968D91AC
:1040B0009C911397938382832115310529F4F09302
:1040C0003606E09335063EC0D9011396FC93EE9375
:1040D00012974D915D91A40FB51FEA17FB0779F474
:1040E00080819181840F951F0296D90111969C932E
:1040F0008E938281938113969C938E931297E0E026
:10410000F0E08A819B81009719F0FE01EC01F9CF64
:10411000CE01029628813981820F931F20913306A8
:10412000309134062817390769F4309729F4109232
:1041300036061092350602C013821282D0933406DE
:10414000C0933306DF91CF91089581E090E0F89419
:104150000C94B320FB01DC0102C001900D92415090
:104160005040D8F7089511E0CAE7D1E004C0FE013D
:104170000E94731F2296CE37D107C9F7F894FFCF5C
:10418000000037068000010000000100000000BDB3
:104190000ADA0AB309E408310AF709470A680A9CEF
:1041A0000A28097E090000000054132713FC12049A
:1041B0001317132613000000003816AF1B8E168B42
:1041C0001691168A1600000000E419AF1B66197FCD
:0C41D000197119C21900000000501B00FA
:00000001FF
