:100000000C94B3000C94DB000C94DB000C94DB002C
:100010000C94DB000C94DB000C94DB000C94DB00F4
:100020000C94DB000C94DB000C94DB000C94DB00E4
:100030000C94DB000C94DB000C94DB000C94DB00D4
:100040000C94D30C0C94DB000C94AD0B0C94870B2C
:100050000C94DB000C94DB000C94DB000C94DB00B4
:100060000C941D0D0C94DB00F500FB000101070151
:100070000D011301190154025B0262026902700250
:100080008702770287027E024E135613B914CD16EB
:10009000FA167917751782170E17084AD73B3BCE09
:1000A000016E84BCBFFDC12F3D6C74319ABD568377
:1000B0003DDA3D00C77F11BED9E4BB4C3E916BAA2F
:1000C000AABE000000803F000000000023002600C0
:1000D0002900000000006410B71DC8206E3BAC3042
:1000E000D9269041DC76F4516B6B5861B24D3C716E
:1000F00005502083B8ED44930FF0E8A3D6D68CB317
:1001000061CBB0C2649BD4D2D38678E20AA01CF241
:10011000BDBD00000000240027002A0000000008E8
:1001200000020100000304070000000000000000BE
:1001300000000000250028002B000404040404042F
:100140000404020202020202030303030303010286
:100150000408102040800102040810200102040855
:1001600010201C18841C11241FBECFEFD8E0DEBF66
:10017000CDBF11E0A0E0B1E0ECE2F2E402C00590F6
:100180000D92AE35B107D9F726E0AEE5B1E001C07A
:100190001D92A034B207E1F710E0C2EBD0E004C03A
:1001A0002197FE010E94C11FC13BD107C9F70E94E0
:1001B000AB110C9409210C940000CF93DF9347708E
:1001C000552766277727FA013197EC01A881B98175
:1001D000E730F10520F4EC5CFF4F0C94C11F14963E
:1001E000ED91FC91159761E029C01496ED91FC9179
:1001F000159765E023C01496ED91FC91159764E086
:100200001DC01496ED91FC91159766E017C01496E9
:10021000ED91FC91159762E011C01496ED91FC915F
:1002200015976AE00BC01496ED91FC91159768E064
:1002300005C01496ED91FC91159769E0DF91CF917F
:100240000994CF93DF93EC01CB01BA0126E030E0B3
:1002500040E050E00E94A91D6230710581059105C2
:1002600059F18CF46115710581059105F1F061304A
:10027000710581059105C1F5E881F9810480F58159
:10028000E02D65E02DC0643071058105910511F107
:10029000D4F0653071058105910531F5E881F9816A
:1002A0000480F581E02D66E01BC0E881F9810480BF
:1002B000F581E02D64E014C0E881F9810480F581C6
:1002C000E02D61E00DC0E881F9810480F581E02D29
:1002D00063E006C0E881F9810480F581E02D62E0E9
:1002E000CE01DF91CF910994DF91CF9108954370B2
:1002F000552766277727DC01ED91FC910480F58175
:10030000E02D423051056105710571F04330510512
:100310006105710559F0413051056105710511F014
:1003200065E005C066E003C06AE001C069E00994C9
:10033000CF93DF93EC01CB01BA0123E030E040E042
:1003400050E00E94A91D613071058105910581F081
:10035000623071058105910591F0672B682B692B3F
:10036000C1F4E881F9810480F581E02D64E00DC0DD
:10037000E881F9810480F581E02D61E006C0E88123
:10038000F9810480F581E02D62E0CE01DF91CF910B
:100390000994DF91CF9108954370552766277727F9
:1003A000DC01ED91FC910480F581E02D4230510596
:1003B0006105710571F0433051056105710559F012
:1003C000413051056105710511F062E005C063E03F
:1003D00003C061E001C060E009940F931F93CF93C5
:1003E000DF93EC01E881F9810480F581E02D8C0137
:1003F0000D5B1F4FD8018C91811102C060E001C0DC
:1004000062E0CE010995E881F9810480F581E02D53
:10041000D8018C91811102C061E001C063E0CE017E
:100420000995EBA5FCA5E230F10538F0EE0FFF1FB2
:10043000EE0FFF1F35973197F1F7E881F9810480BE
:10044000F581E02DD8018C91811102C060E001C0DE
:1004500062E0CE01DF91CF911F910F910994CF936C
:10046000DF93EC0120E030E0A9016B897C898D8964
:100470009E890E94551F18161CF4EFA5F8A902C00A
:10048000E9A9FAA9DF91CF9109940F931F93DC0199
:100490001296EC910E2F10E009301105C0F5F8010D
:1004A000E55CFF4F0C94C11FDC01ED91FC910084D1
:1004B000F185E02D29C0DC01ED91FC910284F385EA
:1004C000E02D22C0DC01ED91FC910484F585E02D46
:1004D0001BC0DC01ED91FC910684F785E02D14C072
:1004E000DC01ED91FC910088F189E02D0DC0DC016B
:1004F000ED91FC910288F389E02D06C0DC01ED91BD
:10050000FC910488F589E02D1F910F9109941F91AA
:100510000F910895CF93DF93FC012281222359F19B
:10052000EC0161E083810E94380C61E08C810E94C3
:10053000380C8A81843011F0883039F461E08D8183
:100540000E94380C61E08E8106C0833011F0863045
:1005500021F461E08D810E94380C8EA58F3F59F007
:1005600061E00E94380C6DA581E068278EA5DF91BF
:10057000CF910C94080CDF91CF910895CF93DF9326
:10058000FC0122812223A9F0EC010190F081E02DF1
:100590000480F581E02D60E009958EA58F3F49F03C
:1005A00061E00E94380C6DA58EA5DF91CF910C946F
:1005B000080CDF91CF910895CF92DF92EF92FF92D6
:1005C0000F931F93CF93DF93FC012281243041F0DE
:1005D000283031F0233031F0263021F012E003C012
:1005E00014E001C013E0EC012796E12CF12CC62E9B
:1005F000D12C01E0C6010E2C02C0959587950A9476
:10060000E2F7688180FD6027FE01349780810E94B7
:10061000080CFFEFEF1AFF0A2196E11658F3DF915D
:10062000CF911F910F91FF90EF90DF90CF900895A1
:10063000CF92DF92EF92FF920F931F93CF93DF93AE
:10064000EC016130710511F08FE101C08EE588A3E6
:100650006AE00E9467111092D3018093D2018A3020
:1006600009F0A8C07E0181E2E80EF11C8E01055D53
:100670001F4F6701C016D10641F089E494E00E9443
:10068000BE0AF60181936F01F5CFCE018696F70180
:1006900021917F01211190C0E817F907C1F71BA62E
:1006A00088A588778CA789A58DA78AA58F708EA726
:1006B000DE01D3967E01FFE2EF0EF11CF801EE158C
:1006C000FF0529F08D919081892B8193F8CFC8A1E6
:1006D00081E080937F01C0935E011092D10110925E
:1006E000D0010E151F0559F0F80161918F0189E4C1
:1006F00094E00E940A0B8130A1F386E05EC09091E5
:10070000D001913208F04AC08091A1028111FCCF42
:1007100022E02093A10221E02093A0022FEF20935A
:100720009F0210929E0290939D02AFE5B1E04BE7CD
:1007300052E0FA012E2F241B291718F42D91219332
:10074000F9CF10929C0290919C02CC0FC92BC093C0
:100750009C0290919B02913061F410929B029091C7
:100760009C029093BB009091BC0093FDF8CF95EC58
:1007700001C095EE9093BC009091A1029230E1F3FC
:1007800090919F029F3F79F080919F02803241F0CB
:1007900080919F02803331F084E005C081E003C086
:1007A00082E001C083E01092D1011092D00110923A
:1007B0007F0103C085E001C087E0DF91CF911F91E9
:1007C0000F91FF90EF90DF90CF9008958F929F92BE
:1007D000AF92BF92CF92DF92EF92FF924B015C01FA
:1007E00069017A0120E030E0A9010E94851C20E027
:1007F00030E0A901811107C0C701B6010E94851C24
:10080000811111C0B3C0C501B4010E94551F181653
:100810009CF420E030E0A901C701B6010E94851CCC
:10082000811113C0A3C020E030E0A901C501B401CB
:100830000E94551F18164CF020E030E0A901C501B8
:10084000B4010E94551F1816CCF420E030E0A90135
:10085000C701B6010E94551F181684F4A501940122
:10086000C701B6010E94861EFF90EF90DF90CF90E7
:10087000BF90AF909F908F900C94571E20E030E077
:10088000A901C501B4010E94851C81110AC020E0A4
:1008900030E0A901C701B6010E94551F18160CF4DB
:1008A0006AC020E030E0A901C501B4010E94851CA6
:1008B00087FF29C020E030E0A901C701B6010E94EE
:1008C000551F18166CF4A5019401C701B6010E94CA
:1008D000861E0E94571E2BED3FE049E450E443C0C2
:1008E00020E030E0A901C701B6010E94851C8823E1
:1008F00009F446C020E030E0A901C701B6010E941A
:10090000851C87FDE0CF20E030E0A901C501B401DE
:100910000E94851C811109C020E030E0A901C701B7
:10092000B6010E94851C87FD2FC020E030E0A901A0
:10093000C501B4010E94551F181674F520E030E07F
:10094000A901C701B6010E94851C87FF25C0A5012A
:100950009401C701B6010E94861E0E94571E2BED0E
:100960003FE049EC50E40E94EB1D12C060E070E0F3
:1009700080E090E00DC06BED7FE089EC9FE308C064
:100980006BED7FE089E403C064EE7BEC86E990E4E4
:10099000262F572F482F392F622F752F842F932FF3
:1009A000FF90EF90DF90CF90BF90AF909F908F908F
:1009B00008952F923F924F925F926F927F928F9203
:1009C0009F92AF92BF92CF92DF92EF92FF920F93DE
:1009D0001F93CF93DF9300D000D0CDB7DEB71C01BB
:1009E000FC0187849088A188B28883859485A58539
:1009F000B685881A990AAA0ABB0A63897489858907
:100A000096899B01AC010E94EB1C6B017C01F101FA
:100A1000638D748D858D968D9B01AC010E94EB1DBD
:100A20009B01AC01C701B6010E94861E0E94F81E00
:100A300081149104A104B104A1F46230710581050F
:100A400091050CF07CC0F10113A214A215A216A20C
:100A5000138A148A158A168A13AA14AA15AA16AA22
:100A600003C1F10103A914A925A936A9ED5BFF4F24
:100A7000181419041A041B04FCF4101611061206AB
:100A800013064CF4681579058A059B054CF5208101
:100A9000211155C025C0011511052105310509F4A5
:100AA0004EC0681579058A059B050CF048C0808109
:100AB000882309F444C037C0101611061206130625
:100AC000F4F4002711279801081919092A093B098C
:100AD00060177107820793071CF42081222379F1A4
:100AE0009B01AC0188279927DC01821B930BA40B87
:100AF000B50BF10183AB94ABA5ABB6AB20C0011530
:100B0000110521053105D9F0CC24DD247601C81862
:100B1000D908EA08FB086C157D058E059F057CF455
:100B2000808181110CC030952095109501951F4F43
:100B30002F4F3F4FF10103AB14AB25AB36ABF101A7
:100B4000C3A8D4A8E5A8F6A881010D5B1F4FC11466
:100B5000D104E104F10491F487A990ADA1ADB2AD47
:100B600083AF94AFA5AFB6AF81E0181419041A048F
:100B70001B040CF080E0F801808340C0F10183ACDD
:100B800094ACA5ACB6ACA5019401C501B4010E941A
:100B9000EB1D2B013C01C701B6010E948C1C20E01B
:100BA00030E040E850E40E94EB1C20E030E040E8F8
:100BB0005FE30E94EB1D9B01AC01C301B2010E94E7
:100BC000861E9B01AC01C501B4010E94EA1D4B01C8
:100BD0005C01F101FF964080518062807380920138
:100BE000A3010E94551F181614F042015301A401DD
:100BF000B501F10143AF54AF65AF76AFFFEFCF1A48
:100C0000DF0AEF0AFF0AF101C3AAD4AAE5AAF6AAED
:100C100023AD34AD45AD56ADCA01B90129833A8340
:100C20004B835C830E94FF1EF10163A374A385A321
:100C300096A329813A814B815C8160E074E284E76C
:100C400099E40E94861EF101638B748B858B968BD1
:100C5000F8012081211108C0DC01CB01B058F1015D
:100C6000838B948BA58BB68B0F900F900F900F906A
:100C7000DF91CF911F910F91FF90EF90DF90CF9078
:100C8000BF90AF909F908F907F906F905F904F90AC
:100C90003F902F9008954F925F926F927F928F9224
:100CA0009F92AF92BF92CF92DF92EF92FF92CF933B
:100CB000DF93EC016A017B018B8C9C8CAD8CBE8C2C
:100CC0009A01AB01C501B4010E94851C882309F477
:100CD00049C06BA97CA98DA99EA90E948C1C2B01DF
:100CE0003C01A7019601C501B4010E94861E9B012B
:100CF000AC01C301B2010E94EB1C0E94F81E6BAB59
:100D00007CAB8DAB9EABA701960160E070E080E00C
:100D100090E40E94861E0E94681F26E53EE04DE298
:100D20005FE30E94EB1C20E034E244E759E40E94B8
:100D3000EB1C6FAB78AF89AF9AAFCB8EDC8EED8EAC
:100D4000FE8ECE01DF91CF91FF90EF90DF90CF909C
:100D5000BF90AF909F908F907F906F905F904F90DB
:100D60000C94D904DF91CF91FF90EF90DF90CF905A
:100D7000BF90AF909F908F907F906F905F904F90BB
:100D800008950F931F93FC010785108921893289EB
:100D9000041715072607370741F04787508B618BEB
:100DA000728B1F910F910C94D9041F910F9108958C
:100DB0008F929F92AF92BF92CF92DF92EF92FF926B
:100DC000CF93DF93EC018B889C88AD88BE8820E0B0
:100DD00030E0A901C501B4010E94851C882309F4F3
:100DE00042C0A5019401C501B4010E94EB1C6B0136
:100DF0007C016B8D7C8D8D8D9E8D9B01AC010E9445
:100E0000EB1D9B01AC01C701B6010E94861E0E942A
:100E1000F81E6B017C012FEFC21AD20AE20AF20A15
:100E200020E030E0A901C501B4010E94551F4B85A7
:100E30005C856D857E8518162CF44C0D5D1D6E1D30
:100E40007F1D04C04C195D096E097F09CE01DF9139
:100E5000CF91FF90EF90DF90CF90BF90AF909F9099
:100E60008F900C94C106DF91CF91FF90EF90DF90AF
:100E7000CF90BF90AF909F908F9008958F929F9248
:100E8000AF92BF92CF92DF92EF92FF920F931F9398
:100E9000CF93DF93FC0100811181DC01CC24CA9443
:100EA000DC2C760120E030E02017310709F446C041
:100EB0001596CD91DC91169713964D915C911497F0
:100EC0004C0F5D1FC417D50709F434C09991E92F61
:100ED000EC25EF7084E0E89FF0011124EE52FF4F03
:100EE00085909590A590B49084E0F694E794D7947B
:100EF000C7948A95D1F78C249D24AE24BF24E92F72
:100F0000E295EF70E825EF7084E0E89FF00111248E
:100F1000EE52FF4FC590D590E590F49094E0B694D2
:100F2000A794979487949A95D1F7C824D924EA2452
:100F3000FB24C8CF2F5F3F4F1596B6CFC701B60130
:100F400060957095809590950E94C71FDF91CF9115
:100F50001F910F91FF90EF90DF90CF90BF90AF90D7
:100F60009F908F900895EF92FF920F931F93CF93CE
:100F7000DF93EC017C0100E010E0F5E0EF0EF11CE6
:100F8000888199810817190740F4F70180819181C0
:100F90000E9463200F5F1F4FF0CF8FE7FE01119279
:100FA0008A95E9F7DF91CF911F910F91FF90EF9014
:100FB0000895CF93DF93EC0188E59EE9AFEFBFEF93
:100FC0008B879C87AD87BE878F87988BA98BBA8BC1
:100FD0001BAA1CAA1DAA1EAA1BA21CA21DA21EA2FD
:100FE0001B8A1C8A1D8A1E8ACE010E946B10CE01AC
:100FF0000E94ED0F40E050E06AEF73E4CE010E94E2
:101000004B0640E050E0BA01CE010E94C10681E0EB
:10101000DF91CF910895CF92DF92EF92FF920F93DD
:101020001F93CF93DF93EC018B01FB012285338566
:101030003327F901E45EFE4F8491F901E25BFE4F34
:10104000E490F901E65CFE4FF490FF20A1F08111DD
:101050000E94DF0BEF2DF0E0EE0FFF1FE853FF4F74
:10106000A591B491EC91EE2131E020E009F430E05B
:10107000832F922F02C080E090E0F801228133811B
:101080008217930789F0938382832FB7F894809116
:10109000800190918101A0918201B09183012FBFC5
:1010A00084839583A683B7832FB7F89480918001BA
:1010B00090918101A0918201B09183012FBFF8012D
:1010C0004481558166817781841B950BA60BB70BF4
:1010D0004485558566857785481759076A077B07D4
:1010E00008F09AC082819381918380832085318525
:1010F0008217930709F090C04F85588969897A89CA
:101100008B859C85AD85BE85481759076A077B0787
:101110000CF082C0CE010E94D8068B859C85AD85DF
:10112000BE858F87988BA98BBA8B1BAA1CAA1DAA78
:101130001EAA1BA21CA21DA21EA21B8A1C8A1D8AFB
:101140001E8A11E04B855C856D857E858F8598892B
:10115000A989BA89481759076A077B0709F451C05A
:10116000E881F9810280F381E02DCE0109958BA100
:101170009CA1ADA1BEA1892B8A2B8B2B09F44EC05B
:101180000E94740C6B017C018FA198A5A9A5BAA53A
:10119000B701A601481B590B6A0B7B0B8BA19CA1C5
:1011A000ADA1BEA1481759076A077B07B8F1FE0138
:1011B000ED5BFF4F80814B855C856D857E85882347
:1011C00029F04F5F5F4F6F4F7F4F04C0415051096F
:1011D000610971094B875C876D877E87E881F9819A
:1011E0004B855C856D857E850680F781E02DCE017F
:1011F0000995CFA2D8A6E9A6FAA6CE010E94D904E5
:101200000DC0CE010E94D806E881F9810190F081DD
:10121000E02DCE01099502C010E094CF812FDF911F
:10122000CF911F910F91FF90EF90DF90CF90089595
:10123000CF92DF92EF92FF920F931F93CF93DF93A2
:101240006C017A018B01C0E0D0E0CE15DF0589F09A
:10125000D8016D918D01D601ED91FC910190F08145
:10126000E02DC6010995892B11F47E0102C021965B
:10127000ECCFC701DF91CF911F910F91FF90EF90BD
:10128000DF90CF900895FC01538D448D252F30E0E1
:10129000842F90E0821B930B541710F0CF96089583
:1012A00001970895FC01918D828D981761F0828DD0
:1012B000DF01A80FB11D5D968C91928D9F5F9F738A
:1012C000928F90E008958FEF9FEF0895FC01918D2C
:1012D000828D981731F0828DE80FF11D858D90E099
:1012E00008958FEF9FEF0895FC01918D228D892F36
:1012F00090E0805C9F4F821B91098F73992708951E
:101300008CEA93E00E94740921E0892B09F420E023
:10131000822F0895FC01848DDF01A80FB11DA35A0F
:10132000BF4F2C91848D90E001968F739927848F05
:10133000A689B7892C93A089B1898C9180648C93FC
:10134000938D848D981306C00288F389E02D8081E7
:101350008F7D80830895EF92FF920F931F93CF9319
:10136000DF93EC0181E0888F9B8D8C8D981305C0F5
:10137000E889F989808185FD24C0F62E0B8D10E067
:101380000F5F1F4F0F731127E02E8C8DE8120CC0DA
:101390000FB607FCFACFE889F989808185FFF5CF80
:1013A000CE010E948A09F1CF8B8DFE01E80FF11D5D
:1013B000E35AFF4FF0820B8FEA89FB8980818062BC
:1013C00007C0EE89FF896083E889F989808180649C
:1013D000808381E090E0DF91CF911F910F91FF908A
:1013E000EF900895CF93DF93EC01888D8823C9F0A7
:1013F000EA89FB89808185FD05C0A889B9898C911E
:1014000086FD0FC00FB607FCF5CF808185FFF2CFB8
:10141000A889B9898C9185FFEDCFCE010E948A09F8
:10142000E7CFDF91CF91089580E090E0892B29F0FC
:101430000E94800981110C94000008958FEF9FEFA6
:10144000089580E090E008958FEF9FEF089508954C
:101450001F93CF93DF93DC0152962D913C915397CC
:101460002115310539F481E090E013969C938E9319
:1014700012973DC01D96ED91FC911E971C969C9174
:101480001C97892F80951FB754964C91549741FB18
:10149000772770F941FD6095F8944081772311F02A
:1014A000492B01C048234083E9012197F1F748E027
:1014B000508160FF02C0592B01C058235083E901BD
:1014C0002197F1F76695415099F7772321F09081A4
:1014D0008923808303C08081982B90831FBF5296FD
:1014E0008D919C9153970197F1F721E030E0C9016C
:1014F000DF91CF911F91089585ED8093BC0080917D
:10150000BC0084FDFCCF1092A10208954091A60179
:10151000262F30E0240F311D21323105DCF42091DB
:10152000A1022430C9F4FC0180E090E0861758F451
:101530003091A6012191DC01AC57BE4FA30FB11D24
:101540002C930196F3CF8091A601680F6093A601BA
:1015500080E0089581E0089582E008950895E09183
:10156000D3018091D201E81730F4F0E0E55AFD4F45
:10157000808190E008958FEF9FEF08959091D301BF
:101580008091D201981750F4E92FF0E0E55AFD4F11
:10159000208130E09F5F9093D30102C02FEF3FEF97
:1015A000C90108958091D20190E02091D301821B5E
:1015B00091090895CF92DF92EF92FF920F931F93BC
:1015C000CF93DF937C01262F972F8A0180917F0193
:1015D000882391F0C62FD72F6E01C40ED51ECC15CF
:1015E000DD0571F06991D701ED91FC910190F081D9
:1015F000E02DC7010995F3CF642F822F0E94860A40
:10160000C801DF91CF911F910F91FF90EF90DF9074
:10161000CF900895CF93DF931F92CDB7DEB7698344
:1016200020917F012223D1F02091D001203240F07F
:1016300021E030E0FC013383228380E090E015C09C
:101640008091D101E82FF0E0E15AFE4F998190831B
:101650008F5F8093D1018093D00105C061E0CE01FE
:1016600001960E94860A81E090E00F90DF91CF9171
:101670000895089580E090E008958F929F92AF9230
:10168000BF92CF92DF92EF92FF920F931F93CF936F
:10169000DF937C01EB016C0182E0C80ED11C470195
:1016A000E5E08E0E911C00E010E0F60141916F0123
:1016B00050E060E070E02AE0CE010E94910F5C01F2
:1016C000E881F9810190F081E02D6EE2CE0109956B
:1016D0008A0D9B1D080F191FC814D90431F7F70193
:1016E000458150E060E070E02AE0CE010E94910F59
:1016F000800F911FDF91CF911F910F91FF90EF907D
:10170000DF90CF90BF90AF909F908F9008951F92E1
:101710000F920FB60F9211242F933F934F935F9325
:101720006F937F938F939F93AF93BF93EF93FF93A9
:101730008CEA93E00E948A09FF91EF91BF91AF91EB
:101740009F918F917F916F915F914F913F912F91D9
:101750000F900FBE0F901F9018951F920F920FB60B
:101760000F9211242F938F939F93EF93FF93E09108
:10177000BC03F091BD038081E091C203F091C303EB
:1017800082FD12C090818091C5038F5F8F7320917D
:10179000C603821751F0E091C503F0E0E455FC4F19
:1017A000958F8093C50301C08081FF91EF919F9138
:1017B0008F912F910F900FBE0F901F90189583302F
:1017C00081F028F4813099F08230A1F008958730BB
:1017D000A9F08830B9F08430D1F4809180008F7DF9
:1017E00003C0809180008F7780938000089584B536
:1017F0008F7702C084B58F7D84BD08958091B0003D
:101800008F7703C08091B0008F7D8093B0000895E2
:101810001F93CF93DF93282F30E0F901E45EFE4F52
:101820008491F901E25BFE4FD491F901E65CFE4F31
:10183000C491CC23C9F0162F81110E94DF0BEC2F2D
:10184000F0E0EE0FFF1FE05DFE4FA591B4918FB762
:10185000F894111105C09C91ED2FE095E92302C089
:10186000EC91ED2BEC938FBFDF91CF911F910895F9
:10187000CF93DF9390E0FC01E25BFE4F2491FC01EB
:10188000E65CFE4F8491882361F190E0880F991FF8
:10189000FC01EE5EFE4FC591D491FC01E05DFE4F70
:1018A000A591B491611109C09FB7F89488812095E2
:1018B00082238883EC912E230BC0623061F49FB7A2
:1018C000F8943881822F809583238883EC912E2B86
:1018D0002C939FBF06C08FB7F894E8812E2B2883E6
:1018E0008FBFDF91CF9108953FB7F8948091CC01DD
:1018F0009091CD01A091CE01B091CF0126B5A89BCA
:1019000005C02F3F19F00196A11DB11D3FBFBA2F91
:10191000A92F982F8827820F911DA11DB11DBC01F1
:10192000CD0142E0660F771F881F991F4A95D1F7B6
:1019300008958F929F92AF92BF92CF92DF92EF92D3
:10194000FF926B017C010E94740C4B015C01C1147D
:10195000D104E104F104F1F00E94740CDC01CB012C
:1019600088199909AA09BB09883E9340A105B105C8
:1019700070F321E0C21AD108E108F10888EE880E60
:1019800083E0981EA11CB11CC114D104E104F10430
:1019900019F7DDCFFF90EF90DF90CF90BF90AF9021
:1019A0009F908F9008951F920F920FB60F9211245F
:1019B0002F933F938F939F93AF93BF938091800119
:1019C00090918101A0918201B09183013091CB016E
:1019D00023E0230F2D3720F40196A11DB11D05C072
:1019E00026E8230F0296A11DB11D2093CB01809301
:1019F000800190938101A0938201B0938301809133
:101A0000CC019091CD01A091CE01B091CF01019672
:101A1000A11DB11D8093CC019093CD01A093CE0167
:101A2000B093CF01BF91AF919F918F913F912F9133
:101A30000F900FBE0F901F9018951F920F920FB628
:101A40000F9211242F933F934F935F936F937F9344
:101A50008F939F93AF93BF93EF93FF938091B900C0
:101A6000887F803609F49CC068F5883209F45BC031
:101A700090F4803109F454C038F4882309F4F6C096
:101A8000883009F44DC0F6C0883109F44CC080326A
:101A900009F45DC0EFC0803409F468C048F48033B5
:101AA00009F455C0883309F0E5C080939F02D8C07F
:101AB000803509F44FC0883509F45DC0883409F0D9
:101AC000D9C0D6C0883909F4C7C0A8F4883709F44A
:101AD00067C038F4883609F463C0803709F460C001
:101AE000C9C0883809F4B8C0803909F45FC08038AB
:101AF00009F0C0C05BC0803B09F486C038F4803A6E
:101B000009F466C0883A09F47FC0B4C0803C09F487
:101B1000A7C0883C09F4A4C0883B09F48AC0AAC0C5
:101B200080919C0210C090919E0280919D02981716
:101B300070F5E0919E0281E08E0F80939E02F0E0AE
:101B4000E558FD4F80818093BB0085EC86C0809373
:101B50009F028EC0E0919E0281E08E0F80939E02D4
:101B60008091BB00F0E0E558FD4F808390919E028C
:101B700080919D026EC0E0919E0281E08E0F809365
:101B80009E028091BB00F0E0E558FD4F808380917C
:101B9000A00281116DC081E080939B0284EA61C044
:101BA00083E08093A1021092CA01CFCF8091CA0135
:101BB000803208F051C0E091CA0181E08E0F80931D
:101BC000CA018091BB00F0E0E655FE4F8083BDCF97
:101BD00085EC8093BC001092A1028091CA018032F2
:101BE00030F4E091CA01F0E0E655FE4F10826091BA
:101BF000CA0170E0E091A801F091A9018AEA91E0A0
:101C000009951092CA0136C084E08093A102109217
:101C1000A7011092A601E091A401F091A5010995F8
:101C20008091A601811105C081E08093A6011092E8
:101C30008401E091A70181E08E0F8093A701F0E07D
:101C4000EC57FE4F80818093BB009091A70180915B
:101C5000A601981708F479CF85E88093BC000AC0E4
:101C600085EC8093BC001092A10204C010929F02E8
:101C70000E947C0AFF91EF91BF91AF919F918F914C
:101C80007F916F915F914F913F912F910F900FBE78
:101C90000F901F9018952F923F924F925F926F92E4
:101CA0007F928F929F92AF92BF92CF92DF92EF92EC
:101CB000FF920F931F93CF93DF9300D000D0CDB747
:101CC000DEB79C838B836AE0FC0180A10E946711D0
:101CD0001092D3018093D2018A3009F008C10B81A0
:101CE0001C810F5D1F4FEB80FC80FBE2EF0EF11CAF
:101CF0000E151F0541F089E494E00E94BE0AF80128
:101D000081938F01F5CFEB81FC8125A1622F607F4C
:101D100070E0CB0134E0959587953A95E1F761A1A4
:101D2000F0E16F9FB0011124682B792B611538E029
:101D300073070CF070512F70EB81FC81E2A0F0E191
:101D4000EF9E70011124E22AE11438E0F30614F04A
:101D500080E1F81AEB81FC81F6A1F9838F2F8F7057
:101D6000EB81FC8103A1F0E10F9F80011124082B7E
:101D7000011538E013070CF01051EB81FC81F4A140
:101D8000FA838F2F807F30E1839F10011124EB8134
:101D9000FC8187A1282A2114F8E03F0614F030E1E5
:101DA000331A072E000C880B990B0E948C1C29E318
:101DB00034EB48EC5DE30E94EB1C4B015C01EB81D2
:101DC000FC816083718382839383B701FF0C880B4E
:101DD000990B0E948C1C29E334EB48EC5DE30E94D4
:101DE000EB1C6B017C01EB81FC8164837583868332
:101DF0009783B801110F880B990B0E948C1C29E363
:101E000034EB48EC5DE30E94EB1C2B013C01EB81C1
:101E1000FC816087718782879387B101605471402C
:101E2000072E000C880B990B0E948C1C2DEC3CECAF
:101E30004CE85FE30E94EB1CEB81FC8164877587B3
:101E400086879787A7019601C501B4010E94E60322
:101E5000EB81FC81608B718B828B938BA301920150
:101E6000C701B6010E94E603EB81FC81648B758B90
:101E7000868B978BA3019201C501B4010E94E603F2
:101E8000EB81FC81608F718F828F938FA50194010C
:101E9000C501B4010E94EB1C4B015C01A701960136
:101EA000C701B6010E94EB1C9B01AC01C501B40146
:101EB0000E94EB1D6B017C01A3019201C301B201E1
:101EC0000E94EB1C9B01AC01C701B6010E94EB1DF7
:101ED000EB81FC81648F758F868F978F9A81F98152
:101EE0009F2B892F817090FF03C082E001C081E0A9
:101EF0000F900F900F900F90DF91CF911F910F9146
:101F0000FF90EF90DF90CF90BF90AF909F908F9019
:101F10007F906F905F904F903F902F9008950E9418
:101F2000FB204F925F926F927F92EF92FF920F93FE
:101F30001F93CF93DF93CDB7DEB7A1970FB6F89479
:101F4000DEBF0FBECDBF7C01FA01CB0119A222304A
:101F500008F42AE08E010F5D1F4F422E512C612C98
:101F6000712CBF01A30192010E94C81DF901CA0191
:101F7000015011096A3014F4605D01C0695CD80138
:101F80006C93232B242B252B61F70115110591F060
:101F9000F80101900020E9F73197AF01401B510B88
:101FA000D701ED91FC910280F381E02DB801C701CA
:101FB000099502C080E090E0A1960FB6F894DEBFCC
:101FC0000FBECDBFDF91CF911F910F91FF90EF908A
:101FD0007F906F905F904F9008958F929F92AF92F5
:101FE000BF92CF92DF92EF92FF921F93CF93DF9336
:101FF000EC0120E030E04AEF53E46B897C898D8965
:102000009E890E94851C882309F459C0CF88D88CEA
:10201000E98CFA8C46015701B7FAB094B7F8B0943E
:1020200020E030E04AEF53E4C501B4010E94551F9F
:1020300018165CF020E030E04AEF53E4C701B60127
:102040000E94851C87FD03C010C07501640120E05B
:1020500030E0A901C701B6010E94851C81110BC0A7
:102060001BA21CA21DA21EA226C0C12CD12C8AEF2D
:10207000E82E83E4F82EA701960160E074E284E77D
:1020800099E40E94861E9F770E94FF1E6BA37CA38B
:102090008DA39EA35E0183E4A80EB11C11E020E095
:1020A00030E0A901C701B6010E94551F18160CF0B7
:1020B00010E0F5011083CB8ADC8AED8AFE8ADF917D
:1020C000CF911F91FF90EF90DF90CF90BF90AF9096
:1020D0009F908F900895CF92DF92EF92FF92CF93CF
:1020E000DF93EC0120E030E04AE754E46F89788D1B
:1020F000898D9A8D0E94851C8823F1F180E090E003
:10210000AAE7B4E48F8B988FA98FBA8FFE01FF9650
:1021100080839183A283B3838BA99CA9ADA9BEA917
:10212000181619061A061B063CF56B897C898D89E1
:102130009E899B01AC010E94EB1C6B017C016B8DA5
:102140007C8D8D8D9E8D9B01AC010E94EB1D9B01B2
:10215000AC01C701B6010E94861E0E94F81E6BAB3F
:102160007CAB8DAB9EABCE01DF91CF91FF90EF901A
:10217000DF90CF900C94D904DF91CF91FF90EF9036
:10218000DF90CF90089560912D0370912E032FE280
:1021900033E080E090E08617970709F44AC02B5F90
:1021A0003F4FF9013597E081AC014F5F5F4FE4305D
:1021B000F1F525E0289FF001299FF00D1124E35D42
:1021C000FC4F249FD001259FB00D1124A35DBC4F6F
:1021D0006D917C914381548181E293E00E940021C2
:1021E0006091210370912203809123039091240335
:1021F0000E94C71F609321037093220380932303DF
:102200009093240360912503709126038091270306
:10221000909128030E94C71F6093250370932603A3
:10222000809327039093280380E090E00895CA01EB
:10223000B2CF8AEF9FEF0895AF92BF92CF92DF9215
:10224000FF920F931F93CF93DF93A090A202B090C1
:10225000A30229E1A216B10458F58A01EB01F82E78
:10226000CB010E94CE1F65012FEFC21AD20A25E0D2
:102270002C9DF0012D9DF00D1124EE55FD4F918305
:1022800080830097C1F02A9DF0012B9DF00D112451
:10229000EE55FD4FF282D483C383AE01B8010E9494
:1022A0000021D092A302C092A20280E090E005C07B
:1022B0008FEF9FEF02C08EEF9FEFDF91CF911F91C5
:1022C0000F91FF90DF90CF90BF90AF9008959091C5
:1022D000A1029111FCCF91E09093A1029093A002F2
:1022E0002FEF20939F0210929E02260F20939D02B3
:1022F00090939C0290919C02880F892B80939C0262
:1023000080919B02813061F410929B0280919C022B
:102310008093BB008091BC0083FDF8CF85EC01C0A9
:1023200085EE8093BC008091A1028130E1F3809121
:102330009E02861710F460919E02ABE7B2E02BE597
:1023400032E0F9018E2F821B861718F48D9181934C
:10235000F9CF862F0895CF93DF93CDB7DEB7C85658
:10236000D1090FB6F894DEBF0FBECDBF789484B507
:10237000826084BD84B5816084BD85B5826085BD81
:1023800085B5816085BD80916E00816080936E000F
:102390001092810080918100826080938100809101
:1023A00081008160809381008091800081608093B2
:1023B00080008091B10084608093B1008091B00072
:1023C00081608093B00080917A00846080937A006D
:1023D00080917A00826080937A0080917A00816097
:1023E00080937A0080917A00806880937A001092BE
:1023F000C100E091BC03F091BD0382E08083E091D5
:10240000B803F091B9031082E091BA03F091BB03D5
:1024100080E180831092C403E091C003F091C10376
:1024200086E08083E091BE03F091BF0380818061EC
:102430008083E091BE03F091BF0380818860808338
:10244000E091BE03F091BF03808180688083E091BA
:10245000BE03F091BF0380818F7D808361E082E0C5
:102460000E94380C61E080E10E94380C61E081E15B
:102470000E94380C61E082E10E94380C60E080E14B
:102480000E94080C60E081E10E94080C60E082E19B
:102490000E94080C64E670E080E090E00E94990CD5
:1024A00061E080E10E94080C60E082E10E94080C7B
:1024B00064EF71E080E090E00E94990C61E081E1BE
:1024C0000E94080C61E082E10E94080C64EF71E058
:1024D00080E090E00E94990C1092D3011092D201FA
:1024E0001092D1011092D0011092A10281E080934C
:1024F000A00210929B0261E082E10E94080C61E060
:1025000083E10E94080C8091B9008E7F8093B9000E
:102510008091B9008D7F8093B90088E48093B800E2
:1025200085E48093BC0060E070E088EC95E00E9458
:1025300018038093D50161E070E089E895E00E947E
:1025400018038093D40110925005109251051092F7
:102550005205109253051092540510925505109291
:102560005605109257051092780510927905109231
:102570007A0510927B0510926805109269051092F9
:102580006A0510926B051092580510925905109229
:102590005A0510925B0585E495E00E946B1085E476
:1025A00095E00E94ED0F40E050E06AEF73E485E4AF
:1025B00095E00E944B0685E495E00E94BE021092D1
:1025C0000C0510920D0510920E0510920F05109239
:1025D0001005109211051092120510921305109219
:1025E0003405109235051092360510923705109279
:1025F00024051092250510922605109227051092A9
:10260000140510921505109216051092170581E019
:1026100095E00E946B1081E095E00E94ED0F40E094
:1026200050E06AEF73E481E095E00E944B0681E0A0
:1026300095E00E94BE0268EE73E080E090E00E94A8
:10264000990CA7E0AA2EB12C67E176E085E495E02D
:102650000E940B08082F67E076E081E095E00E9479
:102660000B08182F8091D601882361F0002321F0F8
:1026700085E495E00E94D907112321F081E095E0DF
:102680000E94D907E091ED01F091EE01E930F105EA
:1026900008F02FC4EC5BFF4F0C94C11F8091EF0139
:1026A000882309F435C481E090E03FC16091F001D6
:1026B000E4EFF1E080E090E000E010E0462F50E031
:1026C0009F01245F3140241735070CF0DBC08130B7
:1026D0009105B1F01CF40097B1F0D2C082309105A1
:1026E000D1F08330910509F0CBC0A1E0B0E0AC0F90
:1026F000BD1FA00FB11F80818C930F5F1F4FB6C00D
:1027000080E090E0BDC02081233F09F4B2C0213FAA
:1027100009F0B6C0ABC02081233F09F4ADC0213F12
:1027200009F4ADC0223F09F097C08FE7EDE2F3E076
:10273000DF011D928A95E9F7E12CF12CF5E03F2E9F
:10274000E016F10608F09EC0C0902D03D0902E0335
:10275000B9E1CB16D10408F070C03C9CC0013D9C8F
:10276000900D1124FC01E35DFC4F4F01E1E0F0E02E
:10277000EC0FFD1FEE0DFF1D2081D40112962C934E
:1027800097012F5F3F4F2701B3E04B0E511C0415FB
:10279000150508F452C0FC01E05DFC4FA1E0B0E07B
:1027A000AC0FBD1FA20FB31F2D913C91318320832D
:1027B000F4016380748076246724762474826382B3
:1027C0007201E60CF71C0E151F05B8F1C3010E943B
:1027D000CE1F96012F5F3F4F329EA001339E500DBA
:1027E00011249A01235D3C4F6901D9018D939C937B
:1027F000009719F161E070E06C0F7D1F640D751D8D
:10280000A3010E940021F40182818330D9F48DE27A
:1028100093E00E943E07A6966FAFA697A7967FAF5C
:10282000A797A8968FAFA897A9969FAFA997D6010B
:10283000ED91FC918081861729F08DE293E00E9452
:10284000B30720C080912D0390912E0301969093A1
:102850002E0380932D0374CFA1E0B0E0AC0FBD1F19
:10286000A00FB11F2C930F5F1F4F0AC082E090E0B2
:1028700007C081E090E004C083E090E001C060E028
:1028800031961CCF60912D0370912E032FE233E01F
:1028900080E090E08617970761F12B5F3F4FF901C9
:1028A0003597E081AC014F5F5F4FE13001F525E0E6
:1028B000289FF001299FF00D1124E35DFC4F249F18
:1028C000D001259FB00D1124A35DBC4F6D917C916B
:1028D00043815481CE0101960E940021898190E0BC
:1028E0009093EC018093EB0180E090E004C0CA017A
:1028F000D1CF8AEF9FEF892B59F08DE293E00E94B0
:10290000B307E6E0F0E0F093EE01E093ED01F1C2F1
:10291000209100018091EB019091EC012223A1F024
:102920008730910539F488E090E09093EE01809330
:10293000ED01DFC2019709F0D8C222E030E0309308
:10294000EE012093ED01D5C281309105B1F38230C3
:10295000910519F483E090E0E8CF8630910519F4F1
:1029600084E090E0E2CF099709F0BFC285E090E0F3
:10297000DCCF88EC95E00E944B0E89E895E00E9440
:102980004B0E2091CC053091CD054091CE05509154
:10299000CF056091C8057091C9058091CA059091D5
:1029A000CB050E94861E0E94571E20E030E048ECB6
:1029B00052E40E94EB1C0E94F81E6093E7017093A2
:1029C000E8018093E9019093EA0120918D0530910F
:1029D0008E0540918F055091900560918905709109
:1029E0008A0580918B0590918C050E94861E0E941D
:1029F000571E20E030E048EC52E40E94EB1C0E949D
:102A0000F81E6093E3017093E4018093E5019093D5
:102A1000E6018FE7A2EAB2E01D928A95E9F781E02C
:102A20008983AE014F5F5F4F61E070E082E00E94FA
:102A30001C114091500550915105609152057091C3
:102A400053054093D7015093D8016093D9017093F7
:102A5000DA0180910C0590910D05A0910E05B091C1
:102A60000F058093DB019093DC01A093DD01B0930F
:102A7000DE011092DF011092E0011092E10110924C
:102A8000E201209100012111D0C0C72EDD24EE24E7
:102A9000FF24342F222711270027C02AD12AE22A17
:102AA000F32A0027142F252F362F0027112733272D
:102AB000C02AD12AE22AF32A052F162F272F3327DF
:102AC00027FD3A950027222733270C291D292E2977
:102AD0003F2909831A832B833C83CB2EDD24EE24EC
:102AE000FF24782F662755274427C42AD52AE62AAB
:102AF000F72A4427582F692F7A2F8A019B01002734
:102B000011273327B701A601402B512B622B732BC2
:102B1000892F9A2FAB2FBB27A7FDBA958827AA2705
:102B2000BB27842B952BA62BB72B8D839E83AF833E
:102B3000B88719861A861B861C86AE014F5F5F4FC9
:102B40006CE070E084E00E941C118091E3019091A0
:102B5000E401A091E501B091E601CB2EDD24EE2445
:102B6000FF24782F662755274427C42AD52AE62A2A
:102B7000F72A4427582F692F7A2F8A019B010027B3
:102B800011273327B701A601402B512B622B732B42
:102B9000892F9A2FAB2FBB27A7FDBA958827AA2785
:102BA000BB27842B952BA62BB72B89839A83AB83CA
:102BB000BC838091E7019091E801A091E901B09177
:102BC000EA01CB2EDD24EE24FF24782F662755273B
:102BD0004427C42AD52AE62AF72A4427582F692FE2
:102BE0007A2F8A019B01002711273327B701A601FD
:102BF000402B512B622B732B892F9A2FAB2FBB2786
:102C0000A7FDBA958827AA27BB27842B952BA62B2F
:102C1000B72B8D839E83AF83B887AE014F5F5F4F25
:102C200068E070E089E00E941C1182EA92E00E9454
:102C30003E0769837A838B839C83AE014F5F5F4F2E
:102C400064E070E083E00E941C114091A202509168
:102C5000A302E2EAF2E080E090E0C12CD12C8417DC
:102C6000950749F0238134812D5F3F4FC20ED31E5B
:102C700001963596F4CF2601C60102968536910558
:102C800008F0C7C1C6010E94CE1F8C01892B49F0F4
:102C900024EA822E22E0922E212C312CE12CF12CE0
:102CA0002BC00E94FB20F401418152813A01F3E0E4
:102CB0006F0E711C4614570408F44CC0942F852FD6
:102CC000F801EE0DFF1DD4012C91208392838183A6
:102CD000C701039613966D917C911497800F911FF5
:102CE0000E940021E60CF71C46185708BFEF2B1A6C
:102CF0003B0AE5E08E0E911C8091A2029091A30206
:102D00002816390680F2EC14FD0421F581EF898341
:102D1000F801E00EF11E81E090E016C021913FE045
:102D2000320F333048F4A1E0B0E0AC0FBD1FA80F64
:102D3000B91F33EF3C930196A1E0B0E0AC0FBD1F8B
:102D4000A80FB91F2C930196EE15FF0539F08436B4
:102D5000910520F3C8010E9463205BC17C014FEF05
:102D6000E41AF40AE1E0F0E0EC0FFD1FE80FF91FB0
:102D700022EF2083C8010E946320E114F10441F096
:102D8000A701BE016F5F7F4F8CEA93E00E94180994
:102D900082EA92E00E94B307A8C00E94C310892B68
:102DA00009F0ABCD1092D60140912103509122033E
:102DB000609123037091240341155105610580E85A
:102DC000780721F085E495E00E94C1064091250333
:102DD00050912603609127037091280341155105F6
:102DE000610590E8790709F480C081E095E00E94D0
:102DF000C1067BC040E750EA6EEF7FEF85E495E0C7
:102E00000E94C10640E750EA6EEF7FEF81E095E057
:102E10000E94C10681E08093D60167C00E94C31062
:102E2000892B09F06ACD8091210390912203A09112
:102E30002303B09124038093500590935105A093F0
:102E40005205B09353058093540590935505A09374
:102E50005605B09357051092780510927905109297
:102E60007A0510927B051092680510926905109200
:102E70006A0510926B051092580510925905109230
:102E80005A0510925B058091250390912603A0912D
:102E90002703B091280380930C0590930D05A09310
:102EA0000E05B0930F058093100590931105A09324
:102EB0001205B09313051092340510923505109247
:102EC00036051092370510922405109225051092B0
:102ED00026051092270510921405109215051092E0
:102EE00016051092170510920001B092EE01A09203
:102EF000ED01FF24F39482EFE82E01E010E091EF62
:102F0000D92E31C08DE293E00E94B3071092EF01F9
:102F10001092EE011092ED01ECCF8CEA93E00E944A
:102F2000520980935902813F29F1823FE9F1909142
:102F3000F401913F79F42091F2013091F301A9015C
:102F40004F5F5F4F5093F3014093F201F901EC5052
:102F5000FE4F8083833F09F056C080915802811153
:102F600052C0F09258028CEA93E00E947409892BB7
:102F7000A1F64CC080915802882329F02091F401D9
:102F8000213F09F449C080E090E0FC01EC50FE4F85
:102F90001082019684369105C1F71093F3010093D6
:102FA000F201D092F4012FC0909158029923A1F020
:102FB0009091F401913F81F42091F2013091F3015D
:102FC000A9014F5F5F4F5093F3014093F201F90164
:102FD000EC50FE4F808317C08091F401813F99F43B
:102FE0008091F2019091F301FC01EC50FE4FE082E0
:102FF00001969093F1018093F0011092F3011092E9
:10300000F201F092EF0110925802ADCF0E94140A23
:103010001BCB4FEF5FEFB5CE8091F2019091F301A2
:10302000AC014F5F5F4F5093F3014093F201FC01FD
:10303000EC50FE4F2083E7CF6F927F928F929F924A
:10304000AF92BF92CF92DF92EF92FF920F931F93B6
:10305000CF93DF93CFE2D1E0D0935604C0935504D1
:1030600010925704109258041092590410925A0466
:103070001092AF031092AE0388EE93E0A0E0B0E0B0
:103080008093B0039093B103A093B203B093B303C2
:103090002BE031E03093AD032093AC0325EC30E01E
:1030A0003093B9032093B80324EC30E03093BB0392
:1030B0002093BA0320EC30E03093BD032093BC038F
:1030C00021EC30E03093BF032093BE0322EC30E0CC
:1030D0003093C1032093C00326EC30E03093C30348
:1030E0002093C2031092C5031092C6031092C70327
:1030F0001092C803D0935C04C0935B0410925D04EB
:1031000010925E0410925F0410926004D0936204E7
:10311000C0936104109263041092640410926504D9
:1031200010926604D0936804C093670410926904F7
:1031300010926A0410926B0410926C04D09376047F
:10314000C093750410927704109278041092790459
:1031500010927A04D0936E04C0936D0410926F04A1
:10316000109270041092710410927204D0937C0437
:10317000C0937B0410927D0410927E0410927F0411
:1031800010928004D0938204C0938104109283042F
:1031900010928404109285041092860410924C04BC
:1031A00010924B0480934D0490934E04A0934F04CF
:1031B000B09350042DE131E030934A042093490448
:1031C00010922A061092290680932B0690932C06C3
:1031D000A0932D06B0932E068FE491E090932806DD
:1031E0008093270610923A061092390660913B06AA
:1031F0006D7F60933B0611E066956170612782E008
:103200000E94080C61E082E00E94380CE0E5F1E0E9
:10321000E491E0933306ECE3F1E0E491F0E0EE0FAB
:10322000FF1FE05DFE4F859194919093350680934A
:103230003406D0938804C0938704109289041092B6
:103240008A0410928B0410928C04C1E0D0E0D093D9
:103250001806C0931706D0931A06C0931906109249
:103260001B0610921C0610921D0610921E0610924C
:10327000200610921F0683E090E090932206809330
:10328000210652E3C52ED12CE12CF12CC09223064D
:10329000D0922406E0922506F092260660E00E9475
:1032A000380CD0930806C0930706D0930A06C09343
:1032B000090610920B0610920C0610920D06109241
:1032C0000E061092100610920F0684E090E0909384
:1032D000120680931106C0921306D0921406E09253
:1032E0001506F092160660E00E94380C1092C80590
:1032F0001092C9051092CA051092CB051092CC0508
:103300001092CD051092CE051092CF051092D005E7
:103310001092D1051092D2051092D3051092D405C7
:103320001092D5051092D6051092D7051092D805A7
:103330001092D9051092DA051092DB051092DC0587
:103340001092DD051092DE051092DF051092E00567
:103350001092E1051092E2051092E3051092E40547
:103360001092E5051092E6051092E7051092E80527
:103370001092F7051093F8051092F90580E88093F4
:10338000FA051092FB051093FC051092FD0590ECD8
:103390009093FE051092FF0592E090930006109224
:1033A0000106809302061092030610930406109201
:1033B000050610920606E9EEF5E0119285E0E33F7E
:1033C000F807D9F71092F3051092F4051092F5055D
:1033D0001092F6051092890510928A0510928B05BD
:1033E00010928C0510928D0510928E0510928F050B
:1033F00010929005109291051092920510929305EB
:1034000010929405109295051092960510929705CA
:10341000109298051092990510929A0510929B05AA
:1034200010929C0510929D0510929E0510929F058A
:103430001092A0051092A1051092A2051092A3056A
:103440001092A4051092A5051092A6051092A7054A
:103450001092A8051092A9051092B80581E08093FA
:10346000B9051092BA0590E89093BB051092BC057F
:103470008093BD051092BE0520EC2093BF051092ED
:10348000C00522E02093C1051092C2059093C305A8
:103490001092C4058093C5051092C6051092C70509
:1034A000EAEAF5E0119285E0E43BF807D9F71092DB
:1034B000B4051092B5051092B6051092B70505E453
:1034C00015E085E3882E81E0982E90924605809243
:1034D000450598E0792E709247051092500510929C
:1034E00051051092520510925305109254051092F6
:1034F00055051092560510925705109258051092D6
:10350000590510925A0510925B05C12CD12C20E868
:10351000E22E2FE3F22EC0925C05D0925D05E09280
:103520005E05F0925F0510926005109261051092A1
:10353000620510926305C0926405D0926505E09221
:103540006605F09267051092680510926905109261
:103550006A0510926B05AA24A394B12CB092710550
:10356000A092700566246A946092730510926C05AF
:1035700010926D0510926E0510926F058AE080938F
:1035800048058EE08093490589E080934A058FE0E5
:1035900080934B05109278051092790510927A0568
:1035A00010927B0510927C0510927D0510927E058D
:1035B00010927F051092800510928105109282056D
:1035C00010928305C0928405D0928505E09286050D
:1035D000F09287051092880510924C0510924D05C7
:1035E00010924E0510924F05B701A601C8010E9426
:1035F0004B06C1E0D5E090920205809201057092E1
:10360000030510920C0510920D0510920E051092F4
:103610000F051092100510921105109212051092CC
:1036200013051092140510921505109216051092AC
:103630001705C0921805D0921905E0921A05F0926C
:103640001B0510921C0510921D0510921E0510926C
:103650001F05C0922005D0922105E0922205F0922C
:10366000230510922405109225051092260510922C
:103670002705B0922D05A0922C0560922F0510927F
:1036800028051092290510922A0510922B0585E035
:103690008093040587E08093050586E08093060506
:1036A0007092070510923405109235051092360578
:1036B00010923705109238051092390510923A058C
:1036C00010923B0510923C0510923D0510923E056C
:1036D00010923F05C0924005D0924105E09242050C
:1036E000F0924305109244051092080510920905C6
:1036F00010920A0510920B05B701A601CE010E9497
:103700004B0627E136E03093D8042093D70488ECA9
:1037100095E09093DA048093D9041093DC0400932D
:10372000DB041092DE041092DD041092E00410928B
:10373000DF041092F5041092F6041092F704109230
:10374000F8041092F9041092FA041092FB041092FB
:10375000FC04C092FD04D092FE04E092FF04F092BB
:10376000000540E050E160E070E04093E1045093D8
:10377000E2046093E3047093E4041092E504109271
:10378000E6041092E7041092E8041092E904109203
:10379000EA041092EB041092EC041092ED041092E3
:1037A000EE041092EF041092F0041092F1041092C3
:1037B000F2041092F3041092F40487E096E09093E0
:1037C000AE048093AD04E9E8F5E0F093B004E09333
:1037D000AF04D093B204C093B1041092B404109219
:1037E000B3041092B6041092B5041092CB04109258
:1037F000CC041092CD041092CE041092CF041092FB
:10380000D0041092D1041092D204C092D304D0926A
:10381000D404E092D504F092D6044093B7045093B8
:10382000B8046093B9047093BA041092BB04109268
:10383000BC041092BD041092BE041092BF041092FA
:10384000C0041092C1041092C2041092C3041092DA
:10385000C4041092C5041092C6041092C7041092BA
:10386000C8041092C9041092CA043093A60420938D
:10387000A5041093A8040093A7041092AA04109220
:10388000A9041092AC041092AB0490939E04809310
:103890009D04D093A004C0939F041092A2041092A0
:1038A000A1041092A4041092A304309396042093D0
:1038B0009504109398040093970410929A04109220
:1038C000990410929C0410929B0490938E04809310
:1038D0008D04D0939004C0938F04109292041092A0
:1038E00091041092940410929304DF91CF911F9150
:1038F0000F91FF90EF90DF90CF90BF90AF909F908F
:103900008F907F906F90089508950E94C71C08F4CF
:1039100081E00895E89409C097FB3EF49095809566
:10392000709561957F4F8F4F9F4F9923A9F0F92F85
:1039300096E9BB279395F695879577956795B79503
:10394000F111F8CFFAF4BB0F11F460FF1BC06F5FE9
:103950007F4F8F4F9F4F16C0882311F096E911C0FB
:10396000772321F09EE8872F762F05C0662371F01C
:1039700096E8862F70E060E02AF09A95660F771F30
:10398000881FDAF7880F9695879597F90895990F0C
:103990000008550FAA0BE0E8FEEF16161706E80719
:1039A000F907C0F012161306E407F50798F0621B3A
:1039B000730B840B950B39F40A2661F0232B242B0F
:1039C000252B21F408950A2609F4A140A6958FEF2E
:1039D000811D811D08950E94FE1C0C946F1D0E9484
:1039E000611D38F00E94681D20F0952311F00C94A1
:1039F000581D0C945E1D11240C94A31D0E94801D63
:103A000070F3959FC1F3950F50E0551F629FF00131
:103A1000729FBB27F00DB11D639FAA27F00DB11D4A
:103A2000AA1F649F6627B00DA11D661F829F2227D3
:103A3000B00DA11D621F739FB00DA11D621F839F5A
:103A4000A00D611D221F749F3327A00D611D231F30
:103A5000849F600D211D822F762F6A2F11249F577E
:103A600050409AF0F1F088234AF0EE0FFF1FBB1F81
:103A7000661F771F881F91505040A9F79E3F510540
:103A800080F00C94581D0C94A31D5F3FE4F3983E06
:103A9000D4F3869577956795B795F795E7959F5FEA
:103AA000C1F7FE2B880F911D9695879597F908957C
:103AB00097F99F6780E870E060E008959FEF80ECE1
:103AC000089500240A941616170618060906089584
:103AD00000240A9412161306140605060895092EEA
:103AE0000394000C11F4882352F0BB0F40F4BF2B59
:103AF00011F460FF04C06F5F7F4F8F4F9F4F089599
:103B000057FD9058440F551F59F05F3F71F047958E
:103B1000880F97FB991F61F09F3F79F08795089573
:103B2000121613061406551FF2CF4695F1DF08C092
:103B3000161617061806991FF1CF869571056105AF
:103B400008940895E894BB2766277727CB0197F957
:103B50000895052E97FB1EF400940E94C01D57FD8A
:103B600007D00E94C81D07FC03D04EF40C94C01D62
:103B700050954095309521953F4F4F4F5F4F089599
:103B800090958095709561957F4F8F4F9F4F0895C9
:103B9000A1E21A2EAA1BBB1BFD010DC0AA1FBB1F51
:103BA000EE1FFF1FA217B307E407F50720F0A21BC3
:103BB000B30BE40BF50B661F771F881F991F1A9430
:103BC00069F760957095809590959B01AC01BD015A
:103BD000CF0108955058BB27AA270E94021E0C94BB
:103BE0006F1D0E94611D38F00E94681D20F039F49D
:103BF0009F3F19F426F40C945E1D0EF4E095E7FB4C
:103C00000C94581DE92F0E94801D58F3BA176207C3
:103C100073078407950720F079F4A6F50C94A21D8C
:103C20000EF4E0950B2EBA2FA02D0B01B9019001D7
:103C30000C01CA01A0011124FF27591B99F0593F1B
:103C400050F4503E68F11A16F040A22F232F342F63
:103C50004427585FF3CF469537952795A795F040B1
:103C60005395C9F77EF41F16BA0B620B730B840BC6
:103C7000BAF09150A1F0FF0FBB1F661F771F881F7E
:103C8000C2F70EC0BA0F621F731F841F48F48795D6
:103C900077956795B795F7959E3F08F0B0CF9395C8
:103CA000880F08F09927EE0F979587950895DF9371
:103CB000DD27B92FBF7740E85FE3161617064807E0
:103CC0005B0718F4D92F0E945A1F9F938F937F93FD
:103CD0006F930E94A81FEAE9F0E00E942E1F0E9445
:103CE0006F1D2F913F914F915F910E94FE1CDD232C
:103CF00051F09058A2EA2AED3FE049EC5FE3D0781A
:103D00005D270E94021EDF910C946F1D0E949A1E77
:103D10000C946F1D0E94681D58F00E94611D40F0B8
:103D200029F45F3F29F00C94581D51110C94A31DE8
:103D30000C945E1D0E94801D68F39923B1F35523F6
:103D400091F3951B550BBB27AA27621773078407AE
:103D500038F09F5F5F4F220F331F441FAA1FA9F344
:103D600035D00E2E3AF0E0E832D091505040E69532
:103D7000001CCAF72BD0FE2F29D0660F771F881F93
:103D8000BB1F261737074807AB07B0E809F0BB0B86
:103D9000802DBF01FF2793585F4F3AF09E3F51059A
:103DA00078F00C94581D0C94A31D5F3FE4F3983EEB
:103DB000D4F3869577956795B795F7959F5FC9F783
:103DC000880F911D9695879597F90895E1E0660F04
:103DD000771F881FBB1F621773078407BA0720F07D
:103DE000621B730B840BBA0BEE1F88F7E0950895E6
:103DF0000E94FF1E6894B1110C94A31D08950E94A7
:103E0000881D88F09F5798F0B92F9927B751B0F0C7
:103E1000E1F0660F771F881F991F1AF0BA95C9F74E
:103E200014C0B13091F00E94A21DB1E008950C942D
:103E3000A21D672F782F8827B85F39F0B93FCCF3E0
:103E4000869577956795B395D9F73EF490958095CB
:103E5000709561957F4F8F4F9F4F0895DF93CF935C
:103E60001F930F93FF92EF92DF927B018C01689476
:103E700006C0DA2EEF010E94FE1CFE01E894A59117
:103E80002591359145915591A6F3EF010E94021EAF
:103E9000FE019701A801DA9469F7DF90EF90FF9097
:103EA0000F911F91CF91DF9108950E94C71C08F4D4
:103EB0008FEF08959B01AC0160E070E080E89FE324
:103EC0000C94861E19F416F40C945E1D0C94AC1F11
:103ED0000E94881DB8F39923C9F3B6F39F57550B79
:103EE00087FF0E94BA1F0024A0E640EA9001805894
:103EF0005695979528F4805C660F771F881F20F0F1
:103F000026173707480730F4621B730B840B2029F0
:103F100031294A2BA69517940794202531254A2745
:103F200058F7660F771F881F20F0261737074807B6
:103F300030F4620B730B840B200D311D411DA095D5
:103F400081F7B901842F9158880F96958795089528
:103F50009B01AC010C94EB1C9F3F31F0915020F47D
:103F6000879577956795B795880F911D9695879555
:103F700097F9089591505040660F771F881FD2F728
:103F80000895EE0FFF1F0590F491E02D0994692725
:103F9000962769277827872778270895CF93DF9377
:103FA0008230910510F482E090E0E0913E06F091BD
:103FB0003F0620E030E0C0E0D0E0309711F14081D2
:103FC000518148175907C0F04817590761F4828199
:103FD0009381209719F09B838A832BC090933F068F
:103FE00080933E0626C02115310519F0421753076C
:103FF00018F49A01BE01DF01EF010280F381E02D88
:10400000DCCF2115310509F1281B390B243031058E
:1040100090F412968D919C9113976115710521F082
:10402000FB019383828304C090933F0680933E06F6
:10403000FD01329644C0FD01E20FF31F819391937D
:10404000225031092D933C933AC020913C06309187
:104050003D06232B41F4209103013091040130935C
:104060003D0620933C06209101013091020121156B
:10407000310541F42DB73EB740910501509106013D
:10408000241B350BE0913C06F0913D06E217F30747
:10409000A0F42E1B3F0B2817390778F0AC014E5FB8
:1040A0005F4F2417350748F04E0F5F1F50933D06B2
:1040B00040933C068193919302C0E0E0F0E0CF0191
:1040C000DF91CF9108950F931F93CF93DF930097C4
:1040D00009F48CC0FC0132971382128200913E06D3
:1040E00010913F060115110581F420813181820F65
:1040F000931F20913C0630913D062817390779F52A
:10410000F0933D06E0933C0671C0D80140E050E0DA
:10411000AE17BF0750F412962D913C911397AD0145
:104120002115310509F1D901F3CF9D01DA0133835E
:10413000228360817181860F971F8217930769F42C
:10414000EC0128813981260F371F2E5F3F4F3183C5
:1041500020838A819B8193838283452B29F4F0936A
:104160003F06E0933E0642C01396FC93EE931297EF
:10417000ED01499159919E01240F351FE217F30774
:1041800071F480819181840F951F029611969C9302
:104190008E938281938113969C938E931297E0E085
:1041A000F0E0D80112968D919C911397009719F029
:1041B000F8018C01F6CF8D919C9198012E5F3F4FB5
:1041C000820F931F20913C0630913D062817390736
:1041D00069F4309729F410923F0610923E0602C00F
:1041E0001382128210933D0600933C06DF91CF911B
:1041F0001F910F91089581E090E0F8940C940921AB
:10420000FB01DC0102C001900D9241505040D8F7F3
:10421000089510E0C2EBD0E004C0FE010E94C11F6F
:0C4220002196C33BD107C9F7F894FFCFEB
:10422C000100004006800000000000AB09180943A3
:10423C0009F209740952096609000000000A0BDA38
:10424C000A3A0BAE0AD20ABE0AAF0A000000003DC1
:10425C000B00000000BE028A02DC0245022F02EDB8
:10426C0001CC01980177012101DD0000000000283C
:0E427C000A18093A0B270A210A240A1E0A0012
:00000001FF
