:100000000C94B3000C94DB000C94DB000C94DB002C
:100010000C94DB000C94DB000C94DB000C94DB00F4
:100020000C94DB000C94DB000C94DB000C94DB00E4
:100030000C94DB000C94DB000C94DB000C94DB00D4
:100040000C94310D0C94DB000C940B0C0C94E50B10
:100050000C94DB000C94DB000C94DB000C94DB00B4
:100060000C947B0D0C94DB00F500FB0001010701F3
:100070000D011301190154025B0262026902700250
:100080008702770287027E024E135613B914CD16EB
:10009000FA167917751782170E17084AD73B3BCE09
:1000A000016E84BCBFFDC12F3D6C74319ABD568377
:1000B0003DDA3D00C77F11BED9E4BB4C3E916BAA2F
:1000C000AABE000000803F000000000023002600C0
:1000D0002900000000006410B71DC8206E3BAC3042
:1000E000D9269041DC76F4516B6B5861B24D3C716E
:1000F00005502083B8ED44930FF0E8A3D6D68CB317
:1001000061CBB0C2649BD4D2D38678E20AA01CF241
:10011000BDBD00000000240027002A0000000008E8
:1001200000020100000304070000000000000000BE
:1001300000000000250028002B000404040404042F
:100140000404020202020202030303030303010286
:100150000408102040800102040810200102040855
:1001600010201C18841C11241FBECFEFD8E0DEBF66
:10017000CDBF11E0A0E0B1E0ECE2F2E402C00590F6
:100180000D92AE35B107D9F726E0AEE5B1E001C07A
:100190001D92A034B207E1F710E0C2EBD0E004C03A
:1001A0002197FE010E94C11FC13BD107C9F70E94E0
:1001B000AB110C9409210C940000CF93DF9347708E
:1001C000552766277727FA013197EC01A881B98175
:1001D000E730F10520F4EC5CFF4F0C94C11F14963E
:1001E000ED91FC91159761E029C01496ED91FC9179
:1001F000159765E023C01496ED91FC91159764E086
:100200001DC01496ED91FC91159766E017C01496E9
:10021000ED91FC91159762E011C01496ED91FC915F
:1002200015976AE00BC01496ED91FC91159768E064
:1002300005C01496ED91FC91159769E0DF91CF917F
:100240000994CF93DF93EC01CB01BA0126E030E0B3
:1002500040E050E00E94A91D6230710581059105C2
:1002600059F18CF46115710581059105F1F061304A
:10027000710581059105C1F5E881F9810480F58159
:10028000E02D65E02DC0643071058105910511F107
:10029000D4F0653071058105910531F5E881F9816A
:1002A0000480F581E02D66E01BC0E881F9810480BF
:1002B000F581E02D64E014C0E881F9810480F581C6
:1002C000E02D61E00DC0E881F9810480F581E02D29
:1002D00063E006C0E881F9810480F581E02D62E0E9
:1002E000CE01DF91CF910994DF91CF9108954370B2
:1002F000552766277727DC01ED91FC910480F58175
:10030000E02D423051056105710571F04330510512
:100310006105710559F0413051056105710511F014
:1003200065E005C066E003C06AE001C069E00994C9
:10033000CF93DF93EC01CB01BA0123E030E040E042
:1003400050E00E94A91D613071058105910581F081
:10035000623071058105910591F0672B682B692B3F
:10036000C1F4E881F9810480F581E02D64E00DC0DD
:10037000E881F9810480F581E02D61E006C0E88123
:10038000F9810480F581E02D62E0CE01DF91CF910B
:100390000994DF91CF9108954370552766277727F9
:1003A000DC01ED91FC910480F581E02D4230510596
:1003B0006105710571F0433051056105710559F012
:1003C000413051056105710511F062E005C063E03F
:1003D00003C061E001C060E009940F931F93CF93C5
:1003E000DF93EC01E881F9810480F581E02D8C0137
:1003F0000D5B1F4FD8018C91811102C060E001C0DC
:1004000062E0CE010995E881F9810480F581E02D53
:10041000D8018C91811102C061E001C063E0CE017E
:100420000995EBA5FCA5E230F10538F0EE0FFF1FB2
:10043000EE0FFF1F35973197F1F7E881F9810480BE
:10044000F581E02DD8018C91811102C060E001C0DE
:1004500062E0CE01DF91CF911F910F910994CF936C
:10046000DF93EC0120E030E0A9016B897C898D8964
:100470009E890E94551F18161CF4EFA5F8A902C00A
:10048000E9A9FAA9DF91CF9109940F931F93DC0199
:100490001296EC910E2F10E009301105C0F5F8010D
:1004A000E55CFF4F0C94C11FDC01ED91FC910084D1
:1004B000F185E02D29C0DC01ED91FC910284F385EA
:1004C000E02D22C0DC01ED91FC910484F585E02D46
:1004D0001BC0DC01ED91FC910684F785E02D14C072
:1004E000DC01ED91FC910088F189E02D0DC0DC016B
:1004F000ED91FC910288F389E02D06C0DC01ED91BD
:10050000FC910488F589E02D1F910F9109941F91AA
:100510000F910895CF93DF93FC012281222359F19B
:10052000EC0161E083810E94960C61E08C810E9465
:10053000960C8A81843011F0883039F461E08D8125
:100540000E94960C61E08E8106C0833011F08630E7
:1005500021F461E08D810E94960C8EA58F3F59F0A9
:1005600061E00E94960C6DA581E068278EA5DF9161
:10057000CF910C94660CDF91CF910895CF93DF93C8
:10058000FC0122812223A9F0EC010190F081E02DF1
:100590000480F581E02D60E009958EA58F3F49F03C
:1005A00061E00E94960C6DA58EA5DF91CF910C9411
:1005B000660CDF91CF910895CF92DF92EF92FF9278
:1005C0000F931F93CF93DF93FC012281243041F0DE
:1005D000283031F0233031F0263021F012E003C012
:1005E00014E001C013E0EC012796E12CF12CC62E9B
:1005F000D12C01E0C6010E2C02C0959587950A9476
:10060000E2F7688180FD6027FE01349780810E94B7
:10061000660CFFEFEF1AFF0A2196E11658F3DF91FF
:10062000CF911F910F91FF90EF90DF90CF900895A1
:10063000CF92DF92EF92FF920F931F93CF93DF93AE
:10064000EC016130710511F08FE101C08EE588A3E6
:100650006AE00E94671110926201809361018A3002
:1006600009F0A8C07E0181E2E80EF11C8E01055D53
:100670001F4F6701C016D10641F083E893E00E9446
:10068000660BF60181936F01F5CFCE018696F701D7
:1006900021917F01211190C0E817F907C1F71BA62E
:1006A00088A588778CA789A58DA78AA58F708EA726
:1006B000DE01D3967E01FFE2EF0EF11CF801EE158C
:1006C000FF0529F08D919081892B8193F8CFC8A1E6
:1006D00081E080930A02C0935E0110926001109243
:1006E0005F010E151F0559F0F80161918F0183E834
:1006F00093E00E94B20B8130A1F386E05EC090913E
:100700005F01913208F04AC08091BC058111FCCF95
:1007100022E02093BC0521E02093BB052FEF20931E
:10072000BA051092B9059093B805AAEEB1E046E972
:1007300055E0FA012E2F241B291718F42D9121932F
:10074000F9CF1092B7059091B705CC0FC92BC09384
:10075000B7059091B605913061F41092B60590916D
:10076000B7059093BB009091BC0093FDF8CF95EC3A
:1007700001C095EE9093BC009091BC059230E1F3DE
:100780009091BA059F3F79F08091BA05803241F08F
:100790008091BA05803331F084E005C081E003C068
:1007A00082E001C083E01092600110925F0110921C
:1007B0000A0203C085E001C087E0DF91CF911F915D
:1007C0000F91FF90EF90DF90CF9008958F929F92BE
:1007D000AF92BF92CF92DF92EF92FF924B015C01FA
:1007E00069017A0120E030E0A9010E94851C20E027
:1007F00030E0A901811107C0C701B6010E94851C24
:10080000811111C0B3C0C501B4010E94551F181653
:100810009CF420E030E0A901C701B6010E94851CCC
:10082000811113C0A3C020E030E0A901C501B401CB
:100830000E94551F18164CF020E030E0A901C501B8
:10084000B4010E94551F1816CCF420E030E0A90135
:10085000C701B6010E94551F181684F4A501940122
:10086000C701B6010E94861EFF90EF90DF90CF90E7
:10087000BF90AF909F908F900C94571E20E030E077
:10088000A901C501B4010E94851C81110AC020E0A4
:1008900030E0A901C701B6010E94551F18160CF4DB
:1008A0006AC020E030E0A901C501B4010E94851CA6
:1008B00087FF29C020E030E0A901C701B6010E94EE
:1008C000551F18166CF4A5019401C701B6010E94CA
:1008D000861E0E94571E2BED3FE049E450E443C0C2
:1008E00020E030E0A901C701B6010E94851C8823E1
:1008F00009F446C020E030E0A901C701B6010E941A
:10090000851C87FDE0CF20E030E0A901C501B401DE
:100910000E94851C811109C020E030E0A901C701B7
:10092000B6010E94851C87FD2FC020E030E0A901A0
:10093000C501B4010E94551F181674F520E030E07F
:10094000A901C701B6010E94851C87FF25C0A5012A
:100950009401C701B6010E94861E0E94571E2BED0E
:100960003FE049EC50E40E94EB1D12C060E070E0F3
:1009700080E090E00DC06BED7FE089EC9FE308C064
:100980006BED7FE089E403C064EE7BEC86E990E4E4
:10099000262F572F482F392F622F752F842F932FF3
:1009A000FF90EF90DF90CF90BF90AF909F908F908F
:1009B00008952F923F924F925F926F927F928F9203
:1009C0009F92AF92BF92CF92DF92EF92FF920F93DE
:1009D0001F93CF93DF9300D000D0CDB7DEB71C01BB
:1009E000FC0187849088A188B28883859485A58539
:1009F000B685881A990AAA0ABB0A63897489858907
:100A000096899B01AC010E94EB1C6B017C01F101FA
:100A1000638D748D858D968D9B01AC010E94EB1DBD
:100A20009B01AC01C701B6010E94861E0E94F81E00
:100A300081149104A104B104A1F46230710581050F
:100A400091050CF07CC0F10113A214A215A216A20C
:100A5000138A148A158A168A13AA14AA15AA16AA22
:100A600003C1F10103A914A925A936A9ED5BFF4F24
:100A7000181419041A041B04FCF4101611061206AB
:100A800013064CF4681579058A059B054CF5208101
:100A9000211155C025C0011511052105310509F4A5
:100AA0004EC0681579058A059B050CF048C0808109
:100AB000882309F444C037C0101611061206130625
:100AC000F4F4002711279801081919092A093B098C
:100AD00060177107820793071CF42081222379F1A4
:100AE0009B01AC0188279927DC01821B930BA40B87
:100AF000B50BF10183AB94ABA5ABB6AB20C0011530
:100B0000110521053105D9F0CC24DD247601C81862
:100B1000D908EA08FB086C157D058E059F057CF455
:100B2000808181110CC030952095109501951F4F43
:100B30002F4F3F4FF10103AB14AB25AB36ABF101A7
:100B4000C3A8D4A8E5A8F6A881010D5B1F4FC11466
:100B5000D104E104F10491F487A990ADA1ADB2AD47
:100B600083AF94AFA5AFB6AF81E0181419041A048F
:100B70001B040CF080E0F801808340C0F10183ACDD
:100B800094ACA5ACB6ACA5019401C501B4010E941A
:100B9000EB1D2B013C01C701B6010E948C1C20E01B
:100BA00030E040E850E40E94EB1C20E030E040E8F8
:100BB0005FE30E94EB1D9B01AC01C301B2010E94E7
:100BC000861E9B01AC01C501B4010E94EA1D4B01C8
:100BD0005C01F101FF964080518062807380920138
:100BE000A3010E94551F181614F042015301A401DD
:100BF000B501F10143AF54AF65AF76AFFFEFCF1A48
:100C0000DF0AEF0AFF0AF101C3AAD4AAE5AAF6AAED
:100C100023AD34AD45AD56ADCA01B90129833A8340
:100C20004B835C830E94FF1EF10163A374A385A321
:100C300096A329813A814B815C8160E074E284E76C
:100C400099E40E94861EF101638B748B858B968BD1
:100C5000F8012081211108C0DC01CB01B058F1015D
:100C6000838B948BA58BB68B0F900F900F900F906A
:100C7000DF91CF911F910F91FF90EF90DF90CF9078
:100C8000BF90AF909F908F907F906F905F904F90AC
:100C90003F902F9008954F925F926F927F928F9224
:100CA0009F92AF92BF92CF92DF92EF92FF92CF933B
:100CB000DF93EC016A017B018B8C9C8CAD8CBE8C2C
:100CC0009A01AB01C501B4010E94851C882309F477
:100CD00049C06BA97CA98DA99EA90E948C1C2B01DF
:100CE0003C01A7019601C501B4010E94861E9B012B
:100CF000AC01C301B2010E94EB1C0E94F81E6BAB59
:100D00007CAB8DAB9EABA701960160E070E080E00C
:100D100090E40E94861E0E94681F26E53EE04DE298
:100D20005FE30E94EB1C20E034E244E759E40E94B8
:100D3000EB1C6FAB78AF89AF9AAFCB8EDC8EED8EAC
:100D4000FE8ECE01DF91CF91FF90EF90DF90CF909C
:100D5000BF90AF909F908F907F906F905F904F90DB
:100D60000C94D904DF91CF91FF90EF90DF90CF905A
:100D7000BF90AF909F908F907F906F905F904F90BB
:100D800008950F931F93FC010785108921893289EB
:100D9000041715072607370741F04787508B618BEB
:100DA000728B1F910F910C94D9041F910F9108958C
:100DB0008F929F92AF92BF92CF92DF92EF92FF926B
:100DC000CF93DF93EC018B889C88AD88BE8820E0B0
:100DD00030E0A901C501B4010E94851C882309F4F3
:100DE00042C0A5019401C501B4010E94EB1C6B0136
:100DF0007C016B8D7C8D8D8D9E8D9B01AC010E9445
:100E0000EB1D9B01AC01C701B6010E94861E0E942A
:100E1000F81E6B017C012FEFC21AD20AE20AF20A15
:100E200020E030E0A901C501B4010E94551F4B85A7
:100E30005C856D857E8518162CF44C0D5D1D6E1D30
:100E40007F1D04C04C195D096E097F09CE01DF9139
:100E5000CF91FF90EF90DF90CF90BF90AF909F9099
:100E60008F900C94C106DF91CF91FF90EF90DF90AF
:100E7000CF90BF90AF909F908F9008958F929F9248
:100E8000AF92BF92CF92DF92EF92FF920F931F9398
:100E9000CF93DF93FC0100811181DC01CC24CA9443
:100EA000DC2C760120E030E02017310709F446C041
:100EB0001596CD91DC91169713964D915C911497F0
:100EC0004C0F5D1FC417D50709F434C09991E92F61
:100ED000EC25EF7084E0E89FF0011124EE52FF4F03
:100EE00085909590A590B49084E0F694E794D7947B
:100EF000C7948A95D1F78C249D24AE24BF24E92F72
:100F0000E295EF70E825EF7084E0E89FF00111248E
:100F1000EE52FF4FC590D590E590F49094E0B694D2
:100F2000A794979487949A95D1F7C824D924EA2452
:100F3000FB24C8CF2F5F3F4F1596B6CFC701B60130
:100F400060957095809590950E94C71FDF91CF9115
:100F50001F910F91FF90EF90DF90CF90BF90AF90D7
:100F60009F908F900895EF92FF920F931F93CF93CE
:100F7000DF93EC017C0100E010E0F5E0EF0EF11CE6
:100F8000888199810817190740F4F70180819181C0
:100F90000E9463200F5F1F4FF0CF8FE7FE01119279
:100FA0008A95E9F7DF91CF911F910F91FF90EF9014
:100FB0000895CF93DF93EC0188E695ECAFEFBFEF98
:100FC0008B879C87AD87BE878F87988BA98BBA8BC1
:100FD0001BAA1CAA1DAA1EAA1BA21CA21DA21EA2FD
:100FE0001B8A1C8A1D8A1E8ACE010E946B10CE01AC
:100FF0000E94ED0F40E050E06AEF73E4CE010E94E2
:101000004B0640E050E0BA01CE010E94C10681E0EB
:10101000DF91CF910895CF92DF92EF92FF920F93DD
:101020001F93CF93DF93EC018B01FB012285338566
:101030003327F901E45EFE4F8491F901E25BFE4F34
:10104000E490F901E65CFE4FF490FF20A1F08111DD
:101050000E943D0CEF2DF0E0EE0FFF1FE853FF4F15
:10106000A591B491EC91EE2131E020E009F430E05B
:10107000832F922F02C080E090E0F801228133811B
:101080008217930789F0938382832FB7F894809116
:101090000B0290910C02A0910D02B0910E022FBF95
:1010A00084839583A683B7832FB7F89480910B022E
:1010B00090910C02A0910D02B0910E022FBFF80189
:1010C0004481558166817781841B950BA60BB70BF4
:1010D0004485558566857785481759076A077B07D4
:1010E00008F09AC082819381918380832085318525
:1010F0008217930709F090C04F85588969897A89CA
:101100008B859C85AD85BE85481759076A077B0787
:101110000CF082C0CE010E94D8068B859C85AD85DF
:10112000BE858F87988BA98BBA8B1BAA1CAA1DAA78
:101130001EAA1BA21CA21DA21EA21B8A1C8A1D8AFB
:101140001E8A11E04B855C856D857E858F8598892B
:10115000A989BA89481759076A077B0709F451C05A
:10116000E881F9810280F381E02DCE0109958BA100
:101170009CA1ADA1BEA1892B8A2B8B2B09F44EC05B
:101180000E94D20C6B017C018FA198A5A9A5BAA5DC
:10119000B701A601481B590B6A0B7B0B8BA19CA1C5
:1011A000ADA1BEA1481759076A077B07B8F1FE0138
:1011B000ED5BFF4F80814B855C856D857E85882347
:1011C00029F04F5F5F4F6F4F7F4F04C0415051096F
:1011D000610971094B875C876D877E87E881F9819A
:1011E0004B855C856D857E850680F781E02DCE017F
:1011F0000995CFA2D8A6E9A6FAA6CE010E94D904E5
:101200000DC0CE010E94D806E881F9810190F081DD
:10121000E02DCE01099502C010E094CF812FDF911F
:10122000CF911F910F91FF90EF90DF90CF90089595
:10123000CF92DF92EF92FF920F931F93CF93DF93A2
:101240006C017A018B01C0E0D0E0CE15DF0589F09A
:10125000D8016D918D01D601ED91FC910190F08145
:10126000E02DC6010995892B11F47E0102C021965B
:10127000ECCFC701DF91CF911F910F91FF90EF90BD
:10128000DF90CF9008950E94FB204F925F926F9263
:101290007F92EF92FF920F931F93CF93DF93CDB77F
:1012A000DEB7A1970FB6F894DEBF0FBECDBF7C01AD
:1012B000FA01CB0119A2223008F42AE08E010F5D59
:1012C0001F4F422E512C612C712CBF01A3019201A2
:1012D0000E94C81DF901CA01015011096A3014F4B5
:1012E000605D01C0695CD8016C93232B242B252BF6
:1012F00061F70115110591F0F80101900020E9F75F
:101300003197AF01401B510BD701ED91FC91028049
:10131000F381E02DB801C701099502C080E090E09B
:10132000A1960FB6F894DEBF0FBECDBFDF91CF916F
:101330001F910F91FF90EF907F906F905F904F9073
:1013400008958F929F92AF92BF92CF92DF92EF92C9
:10135000FF920F931F93CF93DF937C01EB016C01FE
:1013600082E0C80ED11C4701E5E08E0E911C00E022
:1013700010E0F60141916F0150E060E070E02AE07A
:10138000CE010E9445095C01E881F9810190F0815C
:10139000E02D6EE2CE0109958A0D9B1D080F191FE5
:1013A000C814D90431F7F701458150E060E070E0DE
:1013B0002AE0CE010E944509800F911FDF91CF9155
:1013C0001F910F91FF90EF90DF90CF90BF90AF9063
:1013D0009F908F900895FC01538D448D252F30E010
:1013E000842F90E0821B930B541710F0CF96089532
:1013F00001970895FC01918D828D981761F0828D7F
:10140000DF01A80FB11D5D968C91928D9F5F9F7338
:10141000928F90E008958FEF9FEF0895FC01918DDA
:10142000828D981731F0828DE80FF11D858D90E047
:1014300008958FEF9FEF0895FC01918D228D892FE4
:1014400090E0805C9F4F821B91098F7399270895CC
:1014500086EE92E00E941C0A21E0892B09F420E02C
:10146000822F0895FC01848DDF01A80FB11DA35ABE
:10147000BF4F2C91848D90E001968F739927848FB4
:10148000A689B7892C93A089B1898C9180648C93AB
:10149000938D848D981306C00288F389E02D808196
:1014A0008F7D80830895EF92FF920F931F93CF93C8
:1014B000DF93EC0181E0888F9B8D8C8D981305C0A4
:1014C000E889F989808185FD24C0F62E0B8D10E016
:1014D0000F5F1F4F0F731127E02E8C8DE8120CC089
:1014E0000FB607FCFACFE889F989808185FFF5CF2F
:1014F000CE010E94320AF1CF8B8DFE01E80FF11D63
:10150000E35AFF4FF0820B8FEA89FB89808180626A
:1015100007C0EE89FF896083E889F989808180644A
:10152000808381E090E0DF91CF911F910F91FF9038
:10153000EF900895CF93DF93EC01888D8823C9F055
:10154000EA89FB89808185FD05C0A889B9898C91CC
:1015500086FD0FC00FB607FCF5CF808185FFF2CF67
:10156000A889B9898C9185FFEDCFCE010E94320AFE
:10157000E7CFDF91CF91089580E090E0892B29F0AB
:101580000E94280A81110C94000008958FEF9FEFAC
:10159000089580E090E008958FEF9FEF08950895FB
:1015A0001F93CF93DF93DC0152962D913C9153977B
:1015B0002115310539F481E090E013969C938E93C8
:1015C00012973DC01D96ED91FC911E971C969C9123
:1015D0001C97892F80951FB754964C91549741FBC7
:1015E000772770F941FD6095F8944081772311F0D9
:1015F000492B01C048234083E9012197F1F748E0D6
:10160000508160FF02C0592B01C058235083E9016B
:101610002197F1F76695415099F7772321F0908152
:101620008923808303C08081982B90831FBF5296AB
:101630008D919C9153970197F1F721E030E0C9011A
:10164000DF91CF911F91089585ED8093BC0080912B
:10165000BC0084FDFCCF1092BC050895409131027E
:10166000262F30E0240F311D21323105DCF420918A
:10167000BC052430C9F4FC0180E090E0861758F4E2
:10168000309131022191DC01A15FBD4FA30FB11D4B
:101690002C930196F3CF80913102680F6093310251
:1016A00080E0089581E0089582E008950895E09132
:1016B000620180916101E81730F4F0E0EA58FA4FD6
:1016C000808190E008958FEF9FEF089590916201DF
:1016D00080916101981750F4E92FF0E0EA58FA4F31
:1016E000208130E09F5F9093620102C02FEF3FEFB7
:1016F000C90108958091610190E020916201821BEF
:1017000091090895CF92DF92EF92FF920F931F936A
:10171000CF93DF937C01262F972F8A0180910A02B5
:10172000882391F0C62FD72F6E01C40ED51ECC157D
:10173000DD0571F06991D701ED91FC910190F08187
:10174000E02DC7010995F3CF642F822F0E942E0B45
:10175000C801DF91CF911F910F91FF90EF90DF9023
:10176000CF900895CF93DF931F92CDB7DEB76983F3
:1017700020910A022223D1F020915F01203240F013
:1017800021E030E0FC013383228380E090E015C04B
:1017900080916001E82FF0E0E651FE4F998190833F
:1017A0008F5F8093600180935F0105C061E0CE018F
:1017B00001960E942E0B81E090E00F90DF91CF9177
:1017C0000895089580E090E008951F920F920FB65B
:1017D0000F9211242F933F934F935F936F937F93B7
:1017E0008F939F93AF93BF93EF93FF9386EE92E017
:1017F0000E94320AFF91EF91BF91AF919F918F911B
:101800007F916F915F914F913F912F910F900FBEFC
:101810000F901F9018951F920F920FB60F921124E0
:101820002F938F939F93EF93FF93E091F602F091A4
:10183000F7028081E091FC02F091FD0282FD12C06E
:1018400090818091FF028F5F8F7320910003821738
:1018500051F0E091FF02F0E0EA51FD4F958F809347
:10186000FF0201C08081FF91EF919F918F912F9195
:101870000F900FBE0F901F901895833081F028F4C1
:10188000813099F08230A1F008958730A9F0883036
:10189000B9F08430D1F4809180008F7D03C08091B5
:1018A00080008F7780938000089584B58F7702C081
:1018B00084B58F7D84BD08958091B0008F7703C07B
:1018C0008091B0008F7D8093B00008951F93CF93D7
:1018D000DF93282F30E0F901E45EFE4F8491F90197
:1018E000E25BFE4FD491F901E65CFE4FC491CC233C
:1018F000C9F0162F81110E943D0CEC2FF0E0EE0F85
:10190000FF1FE05DFE4FA591B4918FB7F8941111C0
:1019100005C09C91ED2FE095E92302C0EC91ED2BE1
:10192000EC938FBFDF91CF911F910895CF93DF93F9
:1019300090E0FC01E25BFE4F2491FC01E65CFE4F6F
:101940008491882361F190E0880F991FFC01EE5E7D
:10195000FE4FC591D491FC01E05DFE4FA591B4917D
:10196000611109C09FB7F8948881209582238883EC
:10197000EC912E230BC0623061F49FB7F89438814C
:10198000822F809583238883EC912E2B2C939FBFED
:1019900006C08FB7F894E8812E2B28838FBFDF9184
:1019A000CF9108953FB7F8948091570290915802D3
:1019B000A0915902B0915A0226B5A89B05C02F3FAD
:1019C00019F00196A11DB11D3FBFBA2FA92F982F65
:1019D0008827820F911DA11DB11DBC01CD0142E0E0
:1019E000660F771F881F991F4A95D1F708958F9228
:1019F0009F92AF92BF92CF92DF92EF92FF926B01D4
:101A00007C010E94D20C4B015C01C114D104E104A1
:101A1000F104F1F00E94D20CDC01CB018819990984
:101A2000AA09BB09883E9340A105B10570F321E0E6
:101A3000C21AD108E108F10888EE880E83E0981EEA
:101A4000A11CB11CC114D104E104F10419F7DDCFCC
:101A5000FF90EF90DF90CF90BF90AF909F908F90CE
:101A600008951F920F920FB60F9211242F933F9358
:101A70008F939F93AF93BF9380910B0290910C0231
:101A8000A0910D02B0910E023091560223E0230F77
:101A90002D3720F40196A11DB11D05C026E8230FA6
:101AA0000296A11DB11D2093560280930B029093C4
:101AB0000C02A0930D02B0930E02809157029091F8
:101AC0005802A0915902B0915A020196A11DB11D70
:101AD0008093570290935802A0935902B0935A02F0
:101AE000BF91AF919F918F913F912F910F900FBE1A
:101AF0000F901F9018951F920F920FB60F921124FE
:101B00002F933F934F935F936F937F938F939F9305
:101B1000AF93BF93EF93FF938091B900887F803696
:101B200009F49CC068F5883209F45BC090F48031F8
:101B300009F454C038F4882309F4F6C0883009F455
:101B40004DC0F6C0883109F44CC0803209F45DC044
:101B5000EFC0803409F468C048F4803309F455C0FC
:101B6000883309F0E5C08093BA05D8C0803509F400
:101B70004FC0883509F45DC0883409F0D9C0D6C09B
:101B8000883909F4C7C0A8F4883709F467C038F465
:101B9000883609F463C0803709F460C0C9C088384A
:101BA00009F4B8C0803909F45FC0803809F0C0C0BA
:101BB0005BC0803B09F486C038F4803A09F466C003
:101BC000883A09F47FC0B4C0803C09F4A7C0883CBF
:101BD00009F4A4C0883B09F48AC0AAC08091B70563
:101BE00010C09091B9058091B805981770F5E091F3
:101BF000B90581E08E0F8093B905F0E0EA56FA4FFF
:101C000080818093BB0085EC86C08093BA058EC02E
:101C1000E091B90581E08E0F8093B9058091BB00FA
:101C2000F0E0EA56FA4F80839091B9058091B805AB
:101C30006EC0E091B90581E08E0F8093B905809167
:101C4000BB00F0E0EA56FA4F80838091BB0581111A
:101C50006DC081E08093B60584EA61C083E0809323
:101C6000BC0510925502CFCF80915502803208F00A
:101C700051C0E091550281E08E0F80935502809112
:101C8000BB00F0E0EB5CFD4F8083BDCF85EC809323
:101C9000BC001092BC0580915502803230F4E09176
:101CA0005502F0E0EB5CFD4F10826091550270E050
:101CB000E0913302F091340285E392E009951092AD
:101CC000550236C084E08093BC0510923202109217
:101CD0003102E0912F02F09130020995809131029A
:101CE000811105C081E08093310210920F02E091D2
:101CF000320281E08E0F80933202F0E0E15FFD4F0F
:101D000080818093BB0090913202809131029817BC
:101D100008F479CF85E88093BC000AC085EC8093F5
:101D2000BC001092BC0504C01092BA050E94240B9E
:101D3000FF91EF91BF91AF919F918F917F916F91A3
:101D40005F914F913F912F910F900FBE0F901F9079
:101D500018952F923F924F925F926F927F928F923F
:101D60009F92AF92BF92CF92DF92EF92FF920F932A
:101D70001F93CF93DF9300D000D0CDB7DEB79C8305
:101D80008B836AE0FC0180A10E94671110926201BE
:101D9000809361018A3009F008C10B811C810F5DBD
:101DA0001F4FEB80FC80FBE2EF0EF11C0E151F05B0
:101DB00041F083E893E00E94660BF80181938F0164
:101DC000F5CFEB81FC8125A1622F607F70E0CB0114
:101DD00034E0959587953A95E1F761A1F0E16F9F21
:101DE000B0011124682B792B611538E073070CF0D2
:101DF00070512F70EB81FC81E2A0F0E1EF9E700149
:101E00001124E22AE11438E0F30614F080E1F81A14
:101E1000EB81FC81F6A1F9838F2F8F70EB81FC8120
:101E200003A1F0E10F9F80011124082B011538E078
:101E300013070CF01051EB81FC81F4A1FA838F2F72
:101E4000807F30E1839F10011124EB81FC8187A109
:101E5000282A2114F8E03F0614F030E1331A072E47
:101E6000000C880B990B0E948C1C29E334EB48EC86
:101E70005DE30E94EB1C4B015C01EB81FC81608304
:101E8000718382839383B701FF0C880B990B0E94A7
:101E90008C1C29E334EB48EC5DE30E94EB1C6B01E6
:101EA0007C01EB81FC816483758386839783B80111
:101EB000110F880B990B0E948C1C29E334EB48EC22
:101EC0005DE30E94EB1C2B013C01EB81FC816087F0
:101ED000718782879387B10160547140072E000C8F
:101EE000880B990B0E948C1C2DEC3CEC4CE85FE3BA
:101EF0000E94EB1CEB81FC8164877587868797873E
:101F0000A7019601C501B4010E94E603EB81FC81A3
:101F1000608B718B828B938BA3019201C701B601F9
:101F20000E94E603EB81FC81648B758B868B978B1B
:101F3000A3019201C501B4010E94E603EB81FC817B
:101F4000608F718F828F938FA5019401C501B401B9
:101F50000E94EB1C4B015C01A7019601C701B60171
:101F60000E94EB1C9B01AC01C501B4010E94EB1D5A
:101F70006B017C01A3019201C301B2010E94EB1C21
:101F80009B01AC01C701B6010E94EB1DEB81FC81F6
:101F9000648F758F868F978F9A81F9819F2B892FF8
:101FA000817090FF03C082E001C081E00F900F902C
:101FB0000F900F90DF91CF911F910F91FF90EF90B5
:101FC000DF90CF90BF90AF909F908F907F906F9059
:101FD0005F904F903F902F9008958F929F92AF9275
:101FE000BF92CF92DF92EF92FF921F93CF93DF9336
:101FF000EC0120E030E04AEF53E46B897C898D8965
:102000009E890E94851C882309F459C0CF88D88CEA
:10201000E98CFA8C46015701B7FAB094B7F8B0943E
:1020200020E030E04AEF53E4C501B4010E94551F9F
:1020300018165CF020E030E04AEF53E4C701B60127
:102040000E94851C87FD03C010C07501640120E05B
:1020500030E0A901C701B6010E94851C81110BC0A7
:102060001BA21CA21DA21EA226C0C12CD12C8AEF2D
:10207000E82E83E4F82EA701960160E074E284E77D
:1020800099E40E94861E9F770E94FF1E6BA37CA38B
:102090008DA39EA35E0183E4A80EB11C11E020E095
:1020A00030E0A901C701B6010E94551F18160CF0B7
:1020B00010E0F5011083CB8ADC8AED8AFE8ADF917D
:1020C000CF911F91FF90EF90DF90CF90BF90AF9096
:1020D0009F908F900895CF92DF92EF92FF92CF93CF
:1020E000DF93EC0120E030E04AE754E46F89788D1B
:1020F000898D9A8D0E94851C8823F1F180E090E003
:10210000AAE7B4E48F8B988FA98FBA8FFE01FF9650
:1021100080839183A283B3838BA99CA9ADA9BEA917
:10212000181619061A061B063CF56B897C898D89E1
:102130009E899B01AC010E94EB1C6B017C016B8DA5
:102140007C8D8D8D9E8D9B01AC010E94EB1D9B01B2
:10215000AC01C701B6010E94861E0E94F81E6BAB3F
:102160007CAB8DAB9EABCE01DF91CF91FF90EF901A
:10217000DF90CF900C94D904DF91CF91FF90EF9036
:10218000DF90CF900895609167027091680229E610
:1021900032E080E090E08617970709F44AC02B5F91
:1021A0003F4FF9013597E081AC014F5F5F4FE4305D
:1021B000F1F525E0289FF001299FF00D1124E95940
:1021C000FD4F249FD001259FB00D1124A959BD4F6B
:1021D0006D917C91438154818BE592E00E940021B6
:1021E00060915B0270915C0280915D0290915E0251
:1021F0000E94C71F60935B0270935C0280935D0234
:1022000090935E0260915F02709160028091610222
:10221000909162020E94C71F60935F0270936002F8
:10222000809361029093620280E090E00895CA0179
:10223000B2CF8AEF9FEF0895AF92BF92CF92DF9215
:10224000FF920F931F93CF93DF93A090BD05B090A3
:10225000BE0529E1A216B10458F58A01EB01F82E5A
:10226000CB010E94CE1F65012FEFC21AD20A25E0D2
:102270002C9DF0012D9DF00D1124E354FA4F918314
:1022800080830097C1F02A9DF0012B9DF00D112451
:10229000E354FA4FF282D483C383AE01B8010E94A3
:1022A0000021D092BE05C092BD0580E090E005C03F
:1022B0008FEF9FEF02C08EEF9FEFDF91CF911F91C5
:1022C0000F91FF90DF90CF90BF90AF9008959091C5
:1022D000BC059111FCCF91E09093BC059093BB0598
:1022E0002FEF2093BA051092B905260F2093B80559
:1022F0009093B7059091B705880F892B8093B70508
:102300008091B605813061F41092B6058091B705D1
:102310008093BB008091BC0083FDF8CF85EC01C0A9
:1023200085EE8093BC008091BC058130E1F3809103
:10233000B905861710F46091B905A6E9B5E026E75E
:1023400035E0F9018E2F821B861718F48D91819349
:10235000F9CF862F0895CF93DF93CDB7DEB7C85658
:10236000D1090FB6F894DEBF0FBECDBF789484B507
:10237000826084BD84B5816084BD85B5826085BD81
:1023800085B5816085BD80916E00816080936E000F
:102390001092810080918100826080938100809101
:1023A00081008160809381008091800081608093B2
:1023B00080008091B10084608093B1008091B00072
:1023C00081608093B00080917A00846080937A006D
:1023D00080917A00826080937A0080917A00816097
:1023E00080937A0080917A00806880937A001092BE
:1023F000C100E091F602F091F70282E08083E09163
:10240000F202F091F3021082E091F402F091F502F1
:1024100080E180831092FE02E091FA02F091FB02CB
:1024200086E08083E091F802F091F902808180617A
:102430008083E091F802F091F902808188608083C6
:10244000E091F802F091F902808180688083E09148
:10245000F802F091F90280818F7D808361E082E053
:102460000E94960C61E080E10E94960C61E081E19F
:102470000E94960C61E082E10E94960C60E080E18F
:102480000E94660C60E081E10E94660C60E082E1DF
:102490000E94660C64E670E080E090E00E94F70C19
:1024A00061E080E10E94660C60E082E10E94660CBF
:1024B00064EF71E080E090E00E94F70C61E081E160
:1024C0000E94660C61E082E10E94660C64EF71E09C
:1024D00080E090E00E94F70C10926201109261017E
:1024E0001092600110925F011092BC0581E0809310
:1024F000BB051092B60561E082E10E94660C61E0C6
:1025000083E10E94660C8091B9008E7F8093B900B0
:102510008091B9008D7F8093B90088E48093B800E2
:1025200085E48093BC0060E070E082E095E00E946A
:1025300018038093640161E070E083EC94E00E94F2
:1025400018038093630110928A0410928B041092F6
:102550008C0410928D0410928E0410928F041092AD
:102560009004109291041092B2041092B30410924D
:10257000B4041092B5041092A2041092A304109215
:10258000A4041092A5041092920410929304109245
:102590009404109295048FE794E00E946B108FE7EB
:1025A00094E00E94ED0F40E050E06AEF73E48FE7A3
:1025B00094E00E944B068FE794E00E94BE021092C6
:1025C0004604109247041092480410924904109255
:1025D0004A0410924B0410924C0410924D04109235
:1025E0006E0410926F041092700410927104109295
:1025F0005E0410925F0410926004109261041092C5
:102600004E0410924F0410925004109251048BE328
:1026100094E00E946B108BE394E00E94ED0F40E089
:1026200050E06AEF73E48BE394E00E944B068BE387
:1026300094E00E94BE0268EE73E080E090E00E94A9
:10264000F70CA7E0AA2EB12C61E575E08FE794E0C6
:102650000E940B08082F61E475E08BE394E00E9470
:102660000B08182F80916501882361F0002321F069
:102670008FE794E00E94D907112321F08BE394E0C7
:102680000E94D907E0917C01F0917D01E930F105CC
:1026900008F02FC4EC5BFF4F0C94C11F80917E01AA
:1026A000882309F435C481E090E03FC160917F0147
:1026B000E3E8F1E080E090E000E010E0462F50E039
:1026C0009F0123583140241735070CF0DBC08130BF
:1026D0009105B1F01CF40097B1F0D2C082309105A1
:1026E000D1F08330910509F0CBC0A1E0B0E0AC0F90
:1026F000BD1FA00FB11F80818C930F5F1F4FB6C00D
:1027000080E090E0BDC02081233F09F4B2C0213FAA
:1027100009F0B6C0ABC02081233F09F4ADC0213F12
:1027200009F4ADC0223F09F097C08FE7E7E6F2E079
:10273000DF011D928A95E9F7E12CF12CF5E03F2E9F
:10274000E016F10608F09EC0C0906702D0906802C3
:10275000B9E1CB16D10408F070C03C9CC0013D9C8F
:10276000900D1124FC01E959FD4F4F01E1E0F0E02B
:10277000EC0FFD1FEE0DFF1D2081D40112962C934E
:1027800097012F5F3F4F2701B3E04B0E511C0415FB
:10279000150508F452C0FC01E659FD4FA1E0B0E078
:1027A000AC0FBD1FA20FB31F2D913C91318320832D
:1027B000F4016380748076246724762474826382B3
:1027C0007201E60CF71C0E151F05B8F1C3010E943B
:1027D000CE1F96012F5F3F4F329EA001339E500DBA
:1027E00011249A0129593D4F6901D9018D939C9378
:1027F000009719F161E070E06C0F7D1F640D751D8D
:10280000A3010E940021F40182818330D9F487E67C
:1028100092E00E943E07A6966FAFA697A7967FAF5D
:10282000A797A8968FAFA897A9969FAFA997D6010B
:10283000ED91FC918081861729F087E692E00E9455
:10284000B30720C08091670290916802019690932F
:1028500068028093670274CFA1E0B0E0AC0FBD1FA7
:10286000A00FB11F2C930F5F1F4F0AC082E090E0B2
:1028700007C081E090E004C083E090E001C060E028
:1028800031961CCF609167027091680229E632E0B0
:1028900080E090E08617970761F12B5F3F4FF901C9
:1028A0003597E081AC014F5F5F4FE13001F525E0E6
:1028B000289FF001299FF00D1124E959FD4F249F15
:1028C000D001259FB00D1124A959BD4F6D917C9168
:1028D00043815481CE0101960E940021898190E0BC
:1028E00090937B0180937A0180E090E004C0CA015C
:1028F000D1CF8AEF9FEF892B59F087E692E00E94B3
:10290000B307E6E0F0E0F0937D01E0937C01F1C2D3
:102910002091000180917A0190917B012223A1F006
:102920008730910539F488E090E090937D018093A1
:102930007C01DFC2019709F0D8C222E030E0309379
:102940007D0120937C01D5C281309105B1F38230A5
:10295000910519F483E090E0E8CF8630910519F4F1
:1029600084E090E0E2CF099709F0BFC285E090E0F3
:10297000DCCF82E095E00E94A90E83EC94E00E94F7
:10298000A90E209106053091070540910805509148
:1029900009056091020570910305809104059091ED
:1029A00005050E94861E0E94571E20E030E048EC7C
:1029B00052E40E94EB1C0E94F81E60937601709313
:1029C000770180937801909379012091C704309129
:1029D000C8044091C9045091CA046091C304709125
:1029E000C4048091C5049091C6040E94861E0E9472
:1029F000571E20E030E048EC52E40E94EB1C0E949D
:102A0000F81E609372017093730180937401909328
:102A100075018FE7ADEBB5E01D928A95E9F781E08E
:102A20008983AE014F5F5F4F61E070E082E00E94FA
:102A30001C1140918A0450918B0460918C04709118
:102A40008D04409366015093670160936801709311
:102A500069018091460490914704A0914804B09187
:102A6000490480936A0190936B01A0936C01B09329
:102A70006D0110926E0110926F0110927001109210
:102A80007101209100012111D0C0C72EDD24EE2458
:102A9000FF24342F222711270027C02AD12AE22A17
:102AA000F32A0027142F252F362F0027112733272D
:102AB000C02AD12AE22AF32A052F162F272F3327DF
:102AC00027FD3A950027222733270C291D292E2977
:102AD0003F2909831A832B833C83CB2EDD24EE24EC
:102AE000FF24782F662755274427C42AD52AE62AAB
:102AF000F72A4427582F692F7A2F8A019B01002734
:102B000011273327B701A601402B512B622B732BC2
:102B1000892F9A2FAB2FBB27A7FDBA958827AA2705
:102B2000BB27842B952BA62BB72B8D839E83AF833E
:102B3000B88719861A861B861C86AE014F5F5F4FC9
:102B40006CE070E084E00E941C1180917201909111
:102B50007301A0917401B0917501CB2EDD24EE2498
:102B6000FF24782F662755274427C42AD52AE62A2A
:102B7000F72A4427582F692F7A2F8A019B010027B3
:102B800011273327B701A601402B512B622B732B42
:102B9000892F9A2FAB2FBB27A7FDBA958827AA2785
:102BA000BB27842B952BA62BB72B89839A83AB83CA
:102BB000BC838091760190917701A0917801B091CA
:102BC0007901CB2EDD24EE24FF24782F66275527AC
:102BD0004427C42AD52AE62AF72A4427582F692FE2
:102BE0007A2F8A019B01002711273327B701A601FD
:102BF000402B512B622B732B892F9A2FAB2FBB2786
:102C0000A7FDBA958827AA27BB27842B952BA62B2F
:102C1000B72B8D839E83AF83B887AE014F5F5F4F25
:102C200068E070E089E00E941C118DEB95E00E9445
:102C30003E0769837A838B839C83AE014F5F5F4F2E
:102C400064E070E083E00E941C114091BD0550914A
:102C5000BE05EDEBF5E080E090E0C12CD12C8417AF
:102C6000950749F0238134812D5F3F4FC20ED31E5B
:102C700001963596F4CF2601C60102968536910558
:102C800008F0C7C1C6010E94CE1F8C01892B49F0F4
:102C90002FEB822E25E0922E212C312CE12CF12CD1
:102CA0002BC00E94FB20F401418152813A01F3E0E4
:102CB0006F0E711C4614570408F44CC0942F852FD6
:102CC000F801EE0DFF1DD4012C91208392838183A6
:102CD000C701039613966D917C911497800F911FF5
:102CE0000E940021E60CF71C46185708BFEF2B1A6C
:102CF0003B0AE5E08E0E911C8091BD059091BE05CA
:102D00002816390680F2EC14FD0421F581EF898341
:102D1000F801E00EF11E81E090E016C021913FE045
:102D2000320F333048F4A1E0B0E0AC0FBD1FA80F64
:102D3000B91F33EF3C930196A1E0B0E0AC0FBD1F8B
:102D4000A80FB91F2C930196EE15FF0539F08436B4
:102D5000910520F3C8010E9463205BC17C014FEF05
:102D6000E41AF40AE1E0F0E0EC0FFD1FE80FF91FB0
:102D700022EF2083C8010E946320E114F10441F096
:102D8000A701BE016F5F7F4F86EE92E00E94180997
:102D90008DEB95E00E94B307A8C00E94C310892B59
:102DA00009F0ABCD1092650140915B0250915C023D
:102DB00060915D0270915E0241155105610580E8E8
:102DC000780721F08FE794E00E94C10640915F02EE
:102DD000509160026091610270916202411551054B
:102DE000610590E8790709F480C08BE394E00E94C4
:102DF000C1067BC040E750EA6EEF7FEF8FE794E0BB
:102E00000E94C10640E750EA6EEF7FEF8BE394E04B
:102E10000E94C10681E08093650167C00E94C310D3
:102E2000892B09F06ACD80915B0290915C02A091A0
:102E30005D02B0915E0280938A0490938B04A0930C
:102E40008C04B0938D0480938E0490938F04A09390
:102E50009004B09391041092B2041092B3041092B3
:102E6000B4041092B5041092A2041092A30410921C
:102E7000A4041092A504109292041092930410924C
:102E800094041092950480915F0290916002A09149
:102E90006102B09162028093460490934704A0932C
:102EA0004804B093490480934A0490934B04A09340
:102EB0004C04B0934D0410926E0410926F04109263
:102EC00070041092710410925E0410925F041092CC
:102ED00060041092610410924E0410924F041092FC
:102EE00050041092510410920001B0927D01A09202
:102EF0007C01FF24F39482EFE82E01E010E091EFD3
:102F0000D92E31C087E692E00E94B30710927E016D
:102F100010927D0110927C01ECCF86EE92E00E942F
:102F2000FA098093E801813F29F1823FE9F190910C
:102F30008301913F79F42091810130918201A901AF
:102F40004F5F5F4F5093820140938101F901ED572C
:102F5000FE4F8083833F09F056C08091E7018111C5
:102F600052C0F092E70186EE92E00E941C0A892B83
:102F7000A1F64CC08091E701882329F020918301BC
:102F8000213F09F449C080E090E0FC01ED57FE4F7D
:102F90001082019684369105C1F710938201009347
:102FA0008101D09283012FC09091E7019923A1F074
:102FB00090918301913F81F42091810130918201B0
:102FC000A9014F5F5F4F5093820140938101F90146
:102FD000ED57FE4F808317C080918301813F99F4A4
:102FE0008091810190918201FC01ED57FE4FE082BA
:102FF00001969093800180937F011092820110923C
:103000008101F0927E011092E701ADCF0E94BC0ACF
:103010001BCB4FEF5FEFB5CE809181019091820184
:10302000AC014F5F5F4F5093820140938101FC01DF
:10303000ED57FE4F2083E7CF6F927F928F929F9242
:10304000AF92BF92CF92DF92EF92FF920F931F93B6
:10305000CF93DF93CFE2D1E0D0939003C0938F035F
:103060001092910310929203109293031092940382
:103070001092E9021092E80288EE93E0A0E0B0E03E
:103080008093EA029093EB02A093EC02B093ED02DE
:103090002BE031E03093E7022093E60225EC30E0AC
:1030A0003093F3022093F20224EC30E03093F502E7
:1030B0002093F40220EC30E03093F7022093F602E4
:1030C00021EC30E03093F9022093F80222EC30E05A
:1030D0003093FB022093FA0226EC30E03093FD029D
:1030E0002093FC021092FF02109200031092010341
:1030F00010920203D0939603C09395031092970306
:10310000109298031092990310929A03D0939C0303
:10311000C0939B0310929D0310929E0310929F03F5
:103120001092A003D093A203C093A1031092A30313
:103130001092A4031092A5031092A603D093B0039B
:10314000C093AF031092B1031092B2031092B30375
:103150001092B403D093A803C093A7031092A903BD
:103160001092AA031092AB031092AC03D093B60353
:10317000C093B5031092B7031092B8031092B9032D
:103180001092BA03D093BC03C093BB031092BD034B
:103190001092BE031092BF031092C00310928603D8
:1031A000109285038093870390938803A0938903EB
:1031B000B0938A032DE131E030938403209383039D
:1031C00010926405109263058093650590936605DF
:1031D000A0936705B09368058FE491E09093620532
:1031E00080936105109274051092730560917505C6
:1031F0006D7F6093750511E066956170612782E0CF
:103200000E94660C61E082E00E94960CE0E5F1E02D
:10321000E491E0936D05ECE3F1E0E491F0E0EE0F72
:10322000FF1FE05DFE4F8591949190936F05809311
:103230006E05D093C203C093C1031092C3031092D2
:10324000C4031092C5031092C603C1E0D0E0D0932E
:103250005205C0935105D0935405C0935305109265
:103260005505109256051092570510925805109268
:103270005A051092590583E090E090935C05809385
:103280005B0552E3C52ED12CE12CF12CC0925D05DB
:10329000D0925E05E0925F05F092600560E00E94CA
:1032A000960CD0934205C0934105D0934405C0933A
:1032B000430510924505109246051092470510925D
:1032C000480510924A051092490584E090E09093D9
:1032D0004C0580934B05C0924D05D0924E05E0926F
:1032E0004F05F092500560E00E94960C1092020586
:1032F0001092030510920405109205051092060520
:1033000010920705109208051092090510920A05FF
:1033100010920B0510920C0510920D0510920E05DF
:1033200010920F05109210051092110510921205BF
:10333000109213051092140510921505109216059F
:1033400010921705109218051092190510921A057F
:1033500010921B0510921C0510921D0510921E055F
:1033600010921F051092200510922105109222053F
:1033700010923105109332051092330580E8809346
:10338000340510923505109336051092370590ECF0
:10339000909338051092390592E090933A05109277
:1033A0003B0580933C0510923D0510933E0510921D
:1033B0003F0510924005E3E2F5E0119285E0ED3221
:1033C000F807D9F710922D0510922E0510922F05AF
:1033D000109230051092C3041092C4041092C504D8
:1033E0001092C6041092C7041092C8041092C90427
:1033F0001092CA041092CB041092CC041092CD0407
:103400001092CE041092CF041092D0041092D104E6
:103410001092D2041092D3041092D4041092D504C6
:103420001092D6041092D7041092D8041092D904A6
:103430001092DA041092DB041092DC041092DD0486
:103440001092DE041092DF041092E0041092E10466
:103450001092E2041092E3041092F20481E080934F
:10346000F3041092F40490E89093F5041092F6049B
:103470008093F7041092F80420EC2093F904109242
:10348000FA0422E02093FB041092FC049093FD04C4
:103490001092FE048093FF04109200051092010523
:1034A000E4EEF4E0119284E0EE3EF807D9F71092D2
:1034B000EE041092EF041092F0041092F1040FE762
:1034C00014E085E3882E81E0982E9092800480920B
:1034D0007F0498E0792E7092810410928A041092F1
:1034E0008B0410928C0410928D0410928E04109212
:1034F0008F041092900410929104109292041092F2
:1035000093041092940410929504C12CD12C20E8BD
:10351000E22E2FE3F22EC0929604D0929704E0920E
:103520009804F092990410929A0410929B041092BD
:103530009C0410929D04C0929E04D0929F04E0923D
:10354000A004F092A1041092A2041092A30410927D
:10355000A4041092A504AA24A394B12CB092AB04A5
:10356000A092AA0466246A946092AD041092A60404
:103570001092A7041092A8041092A9048AE08093E4
:1035800082048EE08093830489E0809384048FE03A
:10359000809385041092B2041092B3041092B40484
:1035A0001092B5041092B6041092B7041092B804A9
:1035B0001092B9041092BA041092BB041092BC0489
:1035C0001092BD04C092BE04D092BF04E092C00429
:1035D000F092C1041092C2041092860410928704E3
:1035E0001092880410928904B701A601C8010E94B4
:1035F0004B06CBE3D4E090923C0480923B04709263
:103600003D04109246041092470410924804109210
:10361000490410924A0410924B0410924C041092E8
:103620004D0410924E0410924F04109250041092C8
:103630005104C0925204D0925304E0925404F09288
:103640005504109256041092570410925804109288
:103650005904C0925A04D0925B04E0925C04F09248
:103660005D0410925E0410925F0410926004109248
:103670006104B0926704A09266046092690410929B
:10368000620410926304109264041092650485E051
:1036900080933E0487E080933F0486E0809340045B
:1036A0007092410410926E0410926F041092700494
:1036B00010927104109272041092730410927404A8
:1036C0001092750410927604109277041092780488
:1036D00010927904C0927A04D0927B04E0927C0428
:1036E000F0927D0410927E041092420410924304E2
:1036F0001092440410924504B701A601CE010E9425
:103700004B0621E535E0309312042093110482E04A
:1037100095E090931404809313041093160400937F
:103720001504109218041092170410921A041092A3
:10373000190410922F041092300410923104109248
:103740003204109233041092340410923504109213
:103750003604C0923704D0923804E0923904F092D3
:103760003A0440E050E160E070E040931B04509365
:103770001C0460931D0470931E0410921F04109289
:10378000200410922104109222041092230410921B
:1037900024041092250410922604109227041092FB
:1037A00028041092290410922A0410922B041092DB
:1037B0002C0410922D0410922E0481E495E0909335
:1037C000E8038093E703E3ECF4E0F093EA03E0938B
:1037D000E903D093EC03C093EB031092EE03109235
:1037E000ED031092F0031092EF0310920504109273
:1037F0000604109207041092080410920904109213
:103800000A0410920B0410920C04C0920D04D09282
:103810000E04E0920F04F09210044093F1035093D1
:10382000F2036093F3037093F4031092F503109284
:10383000F6031092F7031092F8031092F903109216
:10384000FA031092FB031092FC031092FD031092F6
:10385000FE031092FF0310920004109201041092D4
:10386000020410920304109204043093E0032093A6
:10387000DF031093E2030093E1031092E40310923C
:10388000E3031092E6031092E5039093D80380932C
:10389000D703D093DA03C093D9031092DC031092BC
:1038A000DB031092DE031092DD033093D0032093EC
:1038B000CF031093D2030093D1031092D40310923C
:1038C000D3031092D6031092D5039093C80380932C
:1038D000C703D093CA03C093C9031092CC031092BC
:1038E000CB031092CE031092CD03DF91CF911F91A5
:1038F0000F91FF90EF90DF90CF90BF90AF909F908F
:103900008F907F906F90089508950E94C71C08F4CF
:1039100081E00895E89409C097FB3EF49095809566
:10392000709561957F4F8F4F9F4F9923A9F0F92F85
:1039300096E9BB279395F695879577956795B79503
:10394000F111F8CFFAF4BB0F11F460FF1BC06F5FE9
:103950007F4F8F4F9F4F16C0882311F096E911C0FB
:10396000772321F09EE8872F762F05C0662371F01C
:1039700096E8862F70E060E02AF09A95660F771F30
:10398000881FDAF7880F9695879597F90895990F0C
:103990000008550FAA0BE0E8FEEF16161706E80719
:1039A000F907C0F012161306E407F50798F0621B3A
:1039B000730B840B950B39F40A2661F0232B242B0F
:1039C000252B21F408950A2609F4A140A6958FEF2E
:1039D000811D811D08950E94FE1C0C946F1D0E9484
:1039E000611D38F00E94681D20F0952311F00C94A1
:1039F000581D0C945E1D11240C94A31D0E94801D63
:103A000070F3959FC1F3950F50E0551F629FF00131
:103A1000729FBB27F00DB11D639FAA27F00DB11D4A
:103A2000AA1F649F6627B00DA11D661F829F2227D3
:103A3000B00DA11D621F739FB00DA11D621F839F5A
:103A4000A00D611D221F749F3327A00D611D231F30
:103A5000849F600D211D822F762F6A2F11249F577E
:103A600050409AF0F1F088234AF0EE0FFF1FBB1F81
:103A7000661F771F881F91505040A9F79E3F510540
:103A800080F00C94581D0C94A31D5F3FE4F3983E06
:103A9000D4F3869577956795B795F795E7959F5FEA
:103AA000C1F7FE2B880F911D9695879597F908957C
:103AB00097F99F6780E870E060E008959FEF80ECE1
:103AC000089500240A941616170618060906089584
:103AD00000240A9412161306140605060895092EEA
:103AE0000394000C11F4882352F0BB0F40F4BF2B59
:103AF00011F460FF04C06F5F7F4F8F4F9F4F089599
:103B000057FD9058440F551F59F05F3F71F047958E
:103B1000880F97FB991F61F09F3F79F08795089573
:103B2000121613061406551FF2CF4695F1DF08C092
:103B3000161617061806991FF1CF869571056105AF
:103B400008940895E894BB2766277727CB0197F957
:103B50000895052E97FB1EF400940E94C01D57FD8A
:103B600007D00E94C81D07FC03D04EF40C94C01D62
:103B700050954095309521953F4F4F4F5F4F089599
:103B800090958095709561957F4F8F4F9F4F0895C9
:103B9000A1E21A2EAA1BBB1BFD010DC0AA1FBB1F51
:103BA000EE1FFF1FA217B307E407F50720F0A21BC3
:103BB000B30BE40BF50B661F771F881F991F1A9430
:103BC00069F760957095809590959B01AC01BD015A
:103BD000CF0108955058BB27AA270E94021E0C94BB
:103BE0006F1D0E94611D38F00E94681D20F039F49D
:103BF0009F3F19F426F40C945E1D0EF4E095E7FB4C
:103C00000C94581DE92F0E94801D58F3BA176207C3
:103C100073078407950720F079F4A6F50C94A21D8C
:103C20000EF4E0950B2EBA2FA02D0B01B9019001D7
:103C30000C01CA01A0011124FF27591B99F0593F1B
:103C400050F4503E68F11A16F040A22F232F342F63
:103C50004427585FF3CF469537952795A795F040B1
:103C60005395C9F77EF41F16BA0B620B730B840BC6
:103C7000BAF09150A1F0FF0FBB1F661F771F881F7E
:103C8000C2F70EC0BA0F621F731F841F48F48795D6
:103C900077956795B795F7959E3F08F0B0CF9395C8
:103CA000880F08F09927EE0F979587950895DF9371
:103CB000DD27B92FBF7740E85FE3161617064807E0
:103CC0005B0718F4D92F0E945A1F9F938F937F93FD
:103CD0006F930E94A81FEAE9F0E00E942E1F0E9445
:103CE0006F1D2F913F914F915F910E94FE1CDD232C
:103CF00051F09058A2EA2AED3FE049EC5FE3D0781A
:103D00005D270E94021EDF910C946F1D0E949A1E77
:103D10000C946F1D0E94681D58F00E94611D40F0B8
:103D200029F45F3F29F00C94581D51110C94A31DE8
:103D30000C945E1D0E94801D68F39923B1F35523F6
:103D400091F3951B550BBB27AA27621773078407AE
:103D500038F09F5F5F4F220F331F441FAA1FA9F344
:103D600035D00E2E3AF0E0E832D091505040E69532
:103D7000001CCAF72BD0FE2F29D0660F771F881F93
:103D8000BB1F261737074807AB07B0E809F0BB0B86
:103D9000802DBF01FF2793585F4F3AF09E3F51059A
:103DA00078F00C94581D0C94A31D5F3FE4F3983EEB
:103DB000D4F3869577956795B795F7959F5FC9F783
:103DC000880F911D9695879597F90895E1E0660F04
:103DD000771F881FBB1F621773078407BA0720F07D
:103DE000621B730B840BBA0BEE1F88F7E0950895E6
:103DF0000E94FF1E6894B1110C94A31D08950E94A7
:103E0000881D88F09F5798F0B92F9927B751B0F0C7
:103E1000E1F0660F771F881F991F1AF0BA95C9F74E
:103E200014C0B13091F00E94A21DB1E008950C942D
:103E3000A21D672F782F8827B85F39F0B93FCCF3E0
:103E4000869577956795B395D9F73EF490958095CB
:103E5000709561957F4F8F4F9F4F0895DF93CF935C
:103E60001F930F93FF92EF92DF927B018C01689476
:103E700006C0DA2EEF010E94FE1CFE01E894A59117
:103E80002591359145915591A6F3EF010E94021EAF
:103E9000FE019701A801DA9469F7DF90EF90FF9097
:103EA0000F911F91CF91DF9108950E94C71C08F4D4
:103EB0008FEF08959B01AC0160E070E080E89FE324
:103EC0000C94861E19F416F40C945E1D0C94AC1F11
:103ED0000E94881DB8F39923C9F3B6F39F57550B79
:103EE00087FF0E94BA1F0024A0E640EA9001805894
:103EF0005695979528F4805C660F771F881F20F0F1
:103F000026173707480730F4621B730B840B2029F0
:103F100031294A2BA69517940794202531254A2745
:103F200058F7660F771F881F20F0261737074807B6
:103F300030F4620B730B840B200D311D411DA095D5
:103F400081F7B901842F9158880F96958795089528
:103F50009B01AC010C94EB1C9F3F31F0915020F47D
:103F6000879577956795B795880F911D9695879555
:103F700097F9089591505040660F771F881FD2F728
:103F80000895EE0FFF1F0590F491E02D0994692725
:103F9000962769277827872778270895CF93DF9377
:103FA0008230910510F482E090E0E0913E06F091BD
:103FB0003F0620E030E0C0E0D0E0309711F14081D2
:103FC000518148175907C0F04817590761F4828199
:103FD0009381209719F09B838A832BC090933F068F
:103FE00080933E0626C02115310519F0421753076C
:103FF00018F49A01BE01DF01EF010280F381E02D88
:10400000DCCF2115310509F1281B390B243031058E
:1040100090F412968D919C9113976115710521F082
:10402000FB019383828304C090933F0680933E06F6
:10403000FD01329644C0FD01E20FF31F819391937D
:10404000225031092D933C933AC020913C06309187
:104050003D06232B41F4209103013091040130935C
:104060003D0620933C06209101013091020121156B
:10407000310541F42DB73EB740910501509106013D
:10408000241B350BE0913C06F0913D06E217F30747
:10409000A0F42E1B3F0B2817390778F0AC014E5FB8
:1040A0005F4F2417350748F04E0F5F1F50933D06B2
:1040B00040933C068193919302C0E0E0F0E0CF0191
:1040C000DF91CF9108950F931F93CF93DF930097C4
:1040D00009F48CC0FC0132971382128200913E06D3
:1040E00010913F060115110581F420813181820F65
:1040F000931F20913C0630913D062817390779F52A
:10410000F0933D06E0933C0671C0D80140E050E0DA
:10411000AE17BF0750F412962D913C911397AD0145
:104120002115310509F1D901F3CF9D01DA0133835E
:10413000228360817181860F971F8217930769F42C
:10414000EC0128813981260F371F2E5F3F4F3183C5
:1041500020838A819B8193838283452B29F4F0936A
:104160003F06E0933E0642C01396FC93EE931297EF
:10417000ED01499159919E01240F351FE217F30774
:1041800071F480819181840F951F029611969C9302
:104190008E938281938113969C938E931297E0E085
:1041A000F0E0D80112968D919C911397009719F029
:1041B000F8018C01F6CF8D919C9198012E5F3F4FB5
:1041C000820F931F20913C0630913D062817390736
:1041D00069F4309729F410923F0610923E0602C00F
:1041E0001382128210933D0600933C06DF91CF911B
:1041F0001F910F91089581E090E0F8940C940921AB
:10420000FB01DC0102C001900D9241505040D8F7F3
:10421000089510E0C2EBD0E004C0FE010E94C11F6F
:0C4220002196C33BD107C9F7F894FFCFEB
:10422C000100004006800000000000530A1809EB52
:10423C00099A0A1C0AFA090E0A00000000B20B8245
:10424C000BE20B560B7A0B660B570B00000000A110
:10425C000900000000BE028A02DC0245022F02EDBA
:10426C0001CC01980177012101DD0000000000D094
:0E427C000A1809E20BCF0AC90ACC0AC60A00CA
:00000001FF
