:100000000C9489000C94B1000C94B1000C94B100D4
:100010000C94B1000C94B1000C94B1000C94B1009C
:100020000C94B1000C94B1000C94B1000C94B1008C
:100030000C94B1000C94B1000C94B1000C94B1007C
:100040000C94E1030C94B1000C94BB020C94950247
:100050000C94B1000C94B1000C94B1000C94B1005C
:100060000C942B040C94B1005A0A600A660A6C0ABC
:10007000720A780A7E0AB90BC00BC70BCE0BD50BE0
:10008000EC0BDC0BEC0BE30B084AD73B3BCE016ED1
:1000900084BCBFFDC12F3D6C74319ABD56833DDADF
:1000A0003D00C77F11BED9E4BB4C3E916BAAAABEEE
:1000B000000000803F0000000000240027002A000C
:1000C00000000000250028002B00040404040404A0
:1000D00004040202020202020303030303030102F7
:1000E00004081020408001020408102001020408C6
:1000F00010200000000800020100000304070000B7
:10010000000000000000000000002300260029007D
:100110003E1411241FBECFEFD8E0DEBFCDBF11E0EB
:10012000A0E0B1E0E6E5F3E302C005900D92AA3845
:10013000B107D9F724E0AAE8B1E001C01D92AD3DB6
:10014000B207E1F710E0C9E8D0E004C02197FE0152
:100150000E949E19C838D107C9F70E949B100C94C1
:10016000A9190C940000FC01538D448D252F30E01B
:10017000842F90E0821B930B541710F0CF960895B4
:1001800001970895FC01918D828D981761F0828D01
:10019000DF01A80FB11D5D968C91928D9F5F9F73BB
:1001A000928F90E008958FEF9FEF0895FC01918D5D
:1001B000828D981731F0828DE80FF11D858D90E0CA
:1001C00008958FEF9FEF0895FC01918D228D892F67
:1001D00090E0805C9F4F821B91098F73992708954F
:1001E00086E592E00E94E40021E0892B09F420E0FA
:1001F000822F0895FC01848DDF01A80FB11DA35A41
:10020000BF4F2C91848D90E001968F739927848F36
:10021000A689B7892C93A089B1898C9180648C932D
:10022000938D848D981306C00288F389E02D808118
:100230008F7D80830895EF92FF920F931F93CF934A
:10024000DF93EC0181E0888F9B8D8C8D981305C026
:10025000E889F989808185FD24C0F62E0B8D10E098
:100260000F5F1F4F0F731127E02E8C8DE8120CC00B
:100270000FB607FCFACFE889F989808185FFF5CFB1
:10028000CE010E94FA00F1CF8B8DFE01E80FF11D27
:10029000E35AFF4FF0820B8FEA89FB8980818062ED
:1002A00007C0EE89FF896083E889F98980818064CD
:1002B000808381E090E0DF91CF911F910F91FF90BB
:1002C000EF900895CF93DF93EC01888D8823C9F0D8
:1002D000EA89FB89808185FD05C0A889B9898C914F
:1002E00086FD0FC00FB607FCF5CF808185FFF2CFEA
:1002F000A889B9898C9185FFEDCFCE010E94FA00C3
:10030000E7CFDF91CF91089580E090E0892B29F02D
:100310000E94F00081110C940000089585ED8093F7
:10032000BC008091BC0084FDFCCF10925502089562
:100330004091D201262F30E0240F311D21323105AA
:10034000DCF4209155022430C9F4FC0180E090E0F7
:10035000861758F43091D2012191DC01A055BE4F8F
:10036000A30FB11D2C930196F3CF8091D201680F9A
:100370006093D20180E0089581E0089582E00895BD
:100380000895E091FF018091FE01E81730F4F0E05C
:10039000E15FFD4F808190E008958FEF9FEF08951A
:1003A0009091FF018091FE01981750F4E92FF0E041
:1003B000E15FFD4F208130E09F5F9093FF0102C01D
:1003C0002FEF3FEFC90108958091FE0190E0209149
:1003D000FF01821B91090895CF92DF92EF92FF9265
:1003E0000F931F93CF93DF937C01262F972F8A01C2
:1003F0008091AF01882391F0C62FD72F6E01C40ED4
:10040000D51ECC15DD0571F06991D701ED91FC91F8
:100410000190F081E02DC7010995F3CF642F822F61
:100420000E949801C801DF91CF911F910F91FF9019
:10043000EF90DF90CF900895CF93DF931F92CDB7C9
:10044000DEB769832091AF012223D1F02091FC0116
:10045000203240F021E030E0FC013383228380E051
:1004600090E015C08091FD01E82FF0E0E157FE4FCC
:10047000998190838F5F8093FD018093FC0105C07B
:1004800061E0CE0101960E94980181E090E00F901A
:10049000DF91CF910895089580E090E008958F92C4
:1004A0009F92AF92BF92CF92DF92EF92FF920F9303
:1004B0001F93CF93DF937C018B016C0182E0C80E08
:1004C000D11C4701E5E08E0E911CC0E0D0E0F601A2
:1004D00041916F0150E060E070E02AE0C8010E94A5
:1004E00028095C016EE2C8010E940C098A0D9B1D5F
:1004F000C80FD91FC814D90451F7F701458150E03E
:1005000060E070E02AE0C8010E9428098C0F9D1F5E
:10051000DF91CF911F910F91FF90EF90DF90CF90DF
:10052000BF90AF909F908F9008951F920F920FB63B
:100530000F9211242F933F934F935F936F937F9369
:100540008F939F93AF93BF93EF93FF9386E592E0D2
:100550000E94FA00FF91EF91BF91AF919F918F910F
:100560007F916F915F914F913F912F910F900FBEAF
:100570000F901F9018951F920F920FB60F92112493
:100580002F938F939F93EF93FF93E0916602F091E7
:1005900067028081E0916C02F0916D0282FD12C0D1
:1005A000908180916F028F5F8F732091700282170C
:1005B00051F0E0916F02F0E0EA5AFD4F958F809381
:1005C0006F0201C08081FF91EF919F918F912F91D8
:1005D0000F900FBE0F901F901895833081F028F474
:1005E000813099F08230A1F008958730A9F08830E9
:1005F000B9F08430D1F4809180008F7D03C0809168
:1006000080008F7780938000089584B58F7702C033
:1006100084B58F7D84BD08958091B0008F7703C02D
:100620008091B0008F7D8093B00008951F93CF9389
:10063000DF93282F30E0F901EE50FF4F8491F9014C
:10064000E252FF4FD491F901E653FF4FC491CC23FE
:10065000C9F0162F81110E94ED02EC2FF0E0EE0F91
:10066000FF1FE054FF4FA591B4918FB7F89411117B
:1006700005C09C91ED2FE095E92302C0EC91ED2B94
:10068000EC938FBFDF91CF911F910895CF93DF93AC
:1006900090E0FC01E252FF4F2491FC01E653FF4F32
:1006A0008491882361F190E0880F991FFC01EA543E
:1006B000FF4FC591D491FC01E054FF4FA591B49137
:1006C000611109C09FB7F89488812095822388839F
:1006D000EC912E230BC0623061F49FB7F8943881FF
:1006E000822F809583238883EC912E2B2C939FBFA0
:1006F00006C08FB7F894E8812E2B28838FBFDF9137
:10070000CF9108953FB7F8948091F8019091F90145
:10071000A091FA01B091FB0126B5A89B05C02F3F1F
:1007200019F00196A11DB11D3FBFBA2FA92F982F17
:100730008827820F911DA11DB11DBC01CD0142E092
:10074000660F771F881F991F4A95D1F708958F92DA
:100750009F92AF92BF92CF92DF92EF92FF926B0186
:100760007C010E9482034B015C01C114D104E104AD
:10077000F104F1F00E948203DC01CB018819990990
:10078000AA09BB09883E9340A105B10570F321E099
:10079000C21AD108E108F10888EE880E83E0981E9D
:1007A000A11CB11CC114D104E104F10419F7DDCF7F
:1007B000FF90EF90DF90CF90BF90AF909F908F9081
:1007C00008951F920F920FB60F9211242F933F930B
:1007D0008F939F93AF93BF9380918A0190918B01E8
:1007E000A0918C01B0918D013091F70123E0230F8E
:1007F0002D3720F40196A11DB11D05C026E8230F59
:100800000296A11DB11D2093F70180938A01909358
:100810008B01A0938C01B0938D018091F801909190
:10082000F901A091FA01B091FB010196A11DB11D42
:100830008093F8019093F901A093FA01B093FB0122
:10084000BF91AF919F918F913F912F910F900FBECC
:100850000F901F9018951F920F920FB60F921124B0
:100860002F933F934F935F936F937F938F939F93B8
:10087000AF93BF93EF93FF938091B900887F803649
:1008800009F49CC068F5883209F45BC090F48031AB
:1008900009F454C038F4882309F4F6C0883009F408
:1008A0004DC0F6C0883109F44CC0803209F45DC0F7
:1008B000EFC0803409F468C048F4803309F455C0AF
:1008C000883309F0E5C080935302D8C0803509F41D
:1008D0004FC0883509F45DC0883409F0D9C0D6C04E
:1008E000883909F4C7C0A8F4883709F467C038F418
:1008F000883609F463C0803709F460C0C9C08838FD
:1009000009F4B8C0803909F45FC0803809F0C0C06C
:100910005BC0803B09F486C038F4803A09F466C0B5
:10092000883A09F47FC0B4C0803C09F4A7C0883C71
:1009300009F4A4C0883B09F48AC0AAC0809150027F
:1009400010C09091520280915102981770F5E09179
:10095000520281E08E0F80935202F0E0E15DFD4F84
:1009600080818093BB0085EC86C0809353028EC04B
:10097000E091520281E08E0F809352028091BB0081
:10098000F0E0E15DFD4F8083909152028091510231
:100990006EC0E091520281E08E0F809352028091EE
:1009A000BB00F0E0E15DFD4F808380915402811136
:1009B0006DC081E080934F0284EA61C083E0809340
:1009C00055021092F601CFCF8091F601803208F0E7
:1009D00051C0E091F60181E08E0F8093F601809185
:1009E000BB00F0E0EA52FE4F8083BDCF85EC8093E0
:1009F000BC00109255028091F601803230F4E091F3
:100A0000F601F0E0EA52FE4F10826091F60170E0CC
:100A1000E091D401F091D50186ED91E00995109215
:100A2000F60136C084E0809355021092D3011092F3
:100A3000D201E091D001F091D10109958091D201CC
:100A4000811105C081E08093D2011092B001E09144
:100A5000D30181E08E0F8093D301F0E0E055FE4F8B
:100A600080818093BB009091D3018091D20198172F
:100A700008F479CF85E88093BC000AC085EC8093A8
:100A8000BC001092550204C0109253020E948E01C5
:100A9000FF91EF91BF91AF919F918F917F916F9156
:100AA0005F914F913F912F910F900FBE0F901F902C
:100AB0001895CF92DF92EF92FF920F931F93CF93EF
:100AC000DF93EC016130710511F08FE101C08EE51B
:100AD00088A36AE00E940D101092FF018093FE012E
:100AE0008A3009F0ABC08E010F5D1F4F6E018BE2A3
:100AF000C80ED11C7801EC14FD0441F083EF92E0A4
:100B00000E94D001F70181937F01F5CFCE01869637
:100B1000F80121918F01211193C0E817F907C1F75E
:100B200019AA88A588778AAB89A58BAB8AA58F700F
:100B30008CABDE01D9968E010F5C1F4F7E01F5E371
:100B4000EF0EF11CF801EE15FF0529F08D91908153
:100B5000892B8193F8CFC8A181E08093AF01C09326
:100B60008E011092FD011092FC010E151F0559F027
:100B7000F80161918F0183EF92E00E941C028130A5
:100B8000A1F386E05EC09091FC01913208F04AC06A
:100B9000809155028111FCCF22E02093550221E083
:100BA000209354022FEF20935302109252029093FD
:100BB0005102AFE8B1E04FE252E0FA012E2F241BC0
:100BC000291718F42D912193F9CF1092500290918A
:100BD0005002CC0FC92BC093500290914F0291301C
:100BE00061F410924F02909150029093BB0090914B
:100BF000BC0093FDF8CF95EC01C095EE9093BC003E
:100C0000909155029230E1F3909153029F3F79F019
:100C100080915302803241F080915302803331F051
:100C200084E005C081E003C082E001C083E010924F
:100C3000FD011092FC011092AF0103C085E001C0DC
:100C400087E0DF91CF911F910F91FF90EF90DF90A0
:100C5000CF900895FC0110821182128213821482B7
:100C600015821682178210861186128613861486C4
:100C7000158616861786108A118A128A138A148A94
:100C8000158A168A178A108E118E128E138E148E64
:100C9000158E168E178E10A215AA81E086AB17AAA4
:100CA00090E890AF11AE82AF13AE20EC24AF15AE3A
:100CB00022E026AF17AEDF01A05CBF4F9C931196D8
:100CC0001C9211968C9311961C9211961C929397DC
:100CD000CF018B961D92A817B907E1F713A614A6AA
:100CE00015A616A617A610AA11AA12AA13AA14AA24
:100CF00008954F925F926F927F928F929F92AF92E0
:100D0000BF92CF92DF92EF92FF92CF93DF93EC01ED
:100D10006A017B018B8C9C8CAD8CBE8C9A01AB01E3
:100D2000C501B4010E945D16882309F449C06BA96E
:100D30007CA98DA99EA90E9464162B013C01A701E4
:100D40009601C501B4010E945E189B01AC01C3016C
:100D5000B2010E94C3160E94D0186BAB7CAB8DAB66
:100D60009EABA701960160E070E080E090E40E94F5
:100D70005E180E94401926E53EE04DE25FE30E94C6
:100D8000C31620E034E244E759E40E94C3166FAB77
:100D900078AF89AF9AAFCB8EDC8EED8EFE8ECE0112
:100DA000DF91CF91FF90EF90DF90CF90BF90AF9009
:100DB0009F908F907F906F905F904F900C947D0CE0
:100DC000DF91CF91FF90EF90DF90CF90BF90AF90E9
:100DD0009F908F907F906F905F904F9008958F922B
:100DE0009F92AF92BF92CF92DF92EF92FF92CF93FA
:100DF000DF93EC018B889C88AD88BE8820E030E0D2
:100E0000A901C501B4010E945D16882309F44FC0F1
:100E1000A5019401C501B4010E94C3166B017C01B8
:100E20006B8D7C8D8D8D9E8D9B01AC010E94C317B7
:100E30009B01AC01C701B6010E945E180E94D01848
:100E40006B017C012FEFC21AD20AE20AF20A20E0FB
:100E500030E0A901C501B4010E942D194B855C85C4
:100E60006D857E858F849888A988BA8818162CF499
:100E70004C0D5D1D6E1D7F1D04C04C195D096E0972
:100E80007F0984169506A606B70689F04F87588B0A
:100E9000698B7A8BCE01DF91CF91FF90EF90DF903D
:100EA000CF90BF90AF909F908F900C947D0CDF916E
:100EB000CF91FF90EF90DF90CF90BF90AF909F9039
:100EC0008F900895CF92DF92EF92FF920F931F932E
:100ED000CF93DF936C017A018B01C0E0D0E0CE1597
:100EE000DF0589F0D8016D918D01D601ED91FC915E
:100EF0000190F081E02DC6010995892B11F47E0146
:100F000002C02196ECCFC701DF91CF911F910F91C5
:100F1000FF90EF90DF90CF9008954F925F926F9285
:100F20007F928F929F92AF92BF92CF92DF92EF9279
:100F3000FF920F931F93CF93DF93EC0166E088A19C
:100F40000E940D101092FF018093FE01863009F07F
:100F50004DC18E01055D1F4F7E0131E3E30EF11C93
:100F60000E151F0541F083EF92E00E94D001F801B9
:100F700081938F01F5CF2FA5622F607F70E034E061
:100F8000759567953A95E1F78BA5F0E18F9FC001C4
:100F90001124682B792B611538E073070CF0705120
:100FA0002F700CA580E1089F80011124022B0115F0
:100FB000E8E01E070CF01051072E000C880B990B6F
:100FC0000E94641629E334EB48EC5DE30E94C316EB
:100FD00020E030E0A9010E94C3176B017C01688307
:100FE00079838A839B83B801110F880B990B0E9428
:100FF000641629E334EB48EC5DE30E94C31620E05D
:1010000030E0A9010E94C3172B013C016C837D8352
:101010008E839F8320E030E0A901C701B6010E94C2
:101020005D1620E030E0A901811107C0C301B201C3
:101030000E945D16811111C0AEC0C701B6010E94A9
:101040002D1918169CF420E030E0A901C301B2016B
:101050000E945D16811113C09EC020E030E0A901FE
:10106000C701B6010E942D1918164CF020E030E09F
:10107000A901C701B6010E942D19181694F420E0A9
:1010800030E0A901C301B2010E942D1918164CF4D9
:10109000A7019601C301B2010E945E180E942F1899
:1010A00077C020E030E0A901C701B6010E945D16BB
:1010B00081110AC020E030E0A901C301B2010E9401
:1010C0002D1918160CF46BC020E030E0A901C701FF
:1010D000B6010E945D1687FF29C020E030E0A9011B
:1010E000C301B2010E942D1918169CF020E030E0D7
:1010F000A901C301B2010E945D16882309F458C0FA
:1011000020E030E0A901C301B2010E945D1687FF13
:101110000DC0A7019601C301B2010E945E180E9492
:101120002F182BED3FE049E450E430C020E030E0E0
:10113000A901C701B6010E945D16811109C020E016
:1011400030E0A901C301B2010E945D1687FD39C0DC
:1011500020E030E0A901C701B6010E942D19181640
:10116000C4F520E030E0A901C301B2010E945D1680
:1011700087FF2FC0A7019601C301B2010E945E182C
:101180000E942F182BED3FE049EC50E40E94C3175A
:101190004B015C011EC0812C912C54011AC02BED17
:1011A000822E2FE0922E29ECA22E2FE3B22E11C018
:1011B0009BED892E9FE0992E99E4A92E90E4B92EFB
:1011C00008C084EE882E8BEC982E86E9A82E80E449
:1011D000B82E888A998AAA8ABB8A8EA580FD08C003
:1011E00098A9892F817090FD03C003C081E001C0E0
:1011F00082E0DF91CF911F910F91FF90EF90DF90F0
:10120000CF90BF90AF909F908F907F906F905F90A6
:101210004F9008950E94A419DC01ED91FC9101907A
:10122000F081E02D09946115710579F0FB010190C1
:101230000020E9F73197AF01461B570BDC01ED9118
:10124000FC910280F381E02D099480E090E0089504
:101250004F925F926F927F92EF92FF920F931F9344
:10126000CF93DF93CDB7DEB7A1970FB6F894DEBF6B
:101270000FBECDBF7C01FA01CB0119A2223008F4C8
:101280002AE08E010F5D1F4F422E512C612C712CD4
:10129000BF01A30192010E94A017F901CA010150E8
:1012A00011096A3014F4605D01C0695CD8016C9367
:1012B000232B242B252B61F7B801C7010E941309AA
:1012C000A1960FB6F894DEBF0FBECDBFDF91CF91D0
:1012D0001F910F91FF90EF907F906F905F904F90D4
:1012E00008958F929F92AF92BF92CF92DF92EF922A
:1012F000FF92CF93DF936B017C019B01AC010E94B5
:101300008419882319F064E471E027C0460157016D
:10131000E894B7F82FEF3FEF4FE75FE7C501B4015F
:101320000E94841981110DC02FEF3FEF4FE75FE757
:10133000C501B4010E945D1618161CF468E471E042
:101340000CC02FEF3FEF4FE75FE4C701B6010E94EB
:101350002D19181684F46CE471E086E592E0DF91B3
:10136000CF91FF90EF90DF90CF90BF90AF909F9084
:101370008F900C9413092FEF3FEF4FE75FECC701FD
:10138000B6010E945D1687FDE6CF20E030E0A9019E
:10139000C701B6010E945D1687FF0BC06DE286E5AE
:1013A00092E00E940C09EC01F7FAF094F7F8F0943F
:1013B00002C0C0E0D0E02AE037ED43EA5BE3C701BA
:1013C000B6010E94C3174B015C010E94D7186B0144
:1013D0007C010E9462169B01AC01C501B4010E9410
:1013E000C2174B015C012AE0B701A60186E592E035
:1013F0000E942809C80FD91F6EE286E592E00E947C
:101400000C09C80FD91F20E030E040E251E4C501CB
:10141000B4010E94C3164B015C010E94D7186B01F6
:10142000E12CF12C2AE0B701A60186E592E00E94AA
:101430002809C80FD91FC701B6010E9462169B0177
:10144000AC01C501B4010E94C21720E030E040E2C7
:1014500051E40E94C3160E94D718AB0160E070E00F
:101460002AE086E592E00E9428098C0F9D1FDF91FB
:10147000CF91FF90EF90DF90CF90BF90AF909F9073
:101480008F900895CF93DF9347705527662777276E
:10149000FA013197EC01A881B981E730F10520F418
:1014A000EC5CFF4F0C949E191496ED91FC911597EE
:1014B00061E029C01496ED91FC91159765E023C079
:1014C0001496ED91FC91159764E01DC01496ED9172
:1014D000FC91159766E017C01496ED91FC91159755
:1014E00062E011C01496ED91FC9115976AE00BC073
:1014F0001496ED91FC91159768E005C01496ED9156
:10150000FC91159769E0DF91CF910994CF93DF9318
:10151000EC01CB01BA0126E030E040E050E00E944F
:101520008117623071058105910559F18CF46115BF
:10153000710581059105F1F0613071058105910515
:10154000C1F5E881F9810480F581E02D65E02DC0C9
:10155000643071058105910511F1D4F06530710594
:101560008105910531F5E881F9810480F581E02D4F
:1015700066E01BC0E881F9810480F581E02D64E01C
:1015800014C0E881F9810480F581E02D61E00DC08F
:10159000E881F9810480F581E02D63E006C0E881EF
:1015A000F9810480F581E02D62E0CE01DF91CF91D9
:1015B0000994DF91CF9108954370552766277727C7
:1015C000DC01ED91FC910480F581E02D4230510564
:1015D0006105710571F0433051056105710559F0E0
:1015E000413051056105710511F065E005C066E007
:1015F00003C06AE001C069E00994CF93DF93EC0176
:10160000CB01BA0123E030E040E050E00E948117B6
:10161000613071058105910581F0623071058105A8
:10162000910591F0672B682B692BC1F4E881F98152
:101630000480F581E02D64E00DC0E881F98104802B
:10164000F581E02D61E006C0E881F9810480F58133
:10165000E02D62E0CE01DF91CF910994DF91CF912F
:1016600008954370552766277727DC01ED91FC919B
:101670000480F581E02D423051056105710571F05E
:10168000433051056105710559F04130510561053F
:10169000710511F062E005C063E003C061E001C0C4
:1016A00060E009940F931F93CF93DF93EC01E881DF
:1016B000F9810480F581E02D8C010D5B1F4FD8016D
:1016C0008C91811102C060E001C062E0CE010995F9
:1016D000E881F9810480F581E02DD8018C91811198
:1016E00002C061E001C063E0CE010995EBA5FCA555
:1016F000E230F10538F0EE0FFF1FEE0FFF1F3597B8
:101700003197F1F7E881F9810480F581E02DD80166
:101710008C91811102C060E001C062E0CE01DF91D6
:10172000CF911F910F910994CF93DF93EC0120E0AB
:1017300030E0A9016B897C898D899E890E942D19D1
:1017400018161CF4EFA5F8A902C0E9A9FAA9DF91BF
:10175000CF9109940F931F93DC011296EC910E2FF9
:1017600010E009301105C0F5F801E55CFF4F0C945D
:101770009E19DC01ED91FC910084F185E02D29C0DA
:10178000DC01ED91FC910284F385E02D22C0DC01A7
:10179000ED91FC910484F585E02D1BC0DC01ED91F9
:1017A000FC910684F785E02D14C0DC01ED91FC91DD
:1017B0000088F189E02D0DC0DC01ED91FC910288DB
:1017C000F389E02D06C0DC01ED91FC910488F589D8
:1017D000E02D1F910F9109941F910F910895CF93C0
:1017E000DF93FC012281222359F1EC0161E0838126
:1017F0000E94460361E08C810E9446038A81843006
:1018000011F0883039F461E08D810E94460361E077
:101810008E8106C0833011F0863021F461E08D8125
:101820000E9446038EA58F3F59F061E00E94460357
:101830006DA581E068278EA5DF91CF910C941603EA
:10184000DF91CF910895CF93DF93FC012281222372
:10185000A9F0EC010190F081E02D0480F581E02DEC
:1018600060E009958EA58F3F49F061E00E94460334
:101870006DA58EA5DF91CF910C941603DF91CF91CA
:101880000895CF92DF92EF92FF920F931F93CF9321
:10189000DF93FC012281243041F0283031F02330E5
:1018A00031F0263021F012E003C014E001C013E053
:1018B000EC012796E12CF12CC62ED12C01E0C601BB
:1018C0000E2C02C0959587950A94E2F7688180FDF9
:1018D0006027FE01349780810E941603FFEFEF1A04
:1018E000FF0A2196E11658F3DF91CF911F910F91D6
:1018F000FF90EF90DF90CF9008952F923F924F92FC
:101900005F926F927F928F929F92AF92BF92CF928F
:10191000DF92EF92FF920F931F93CF93DF9300D04C
:1019200000D0CDB7DEB71C01FC0187849088A18868
:10193000B28883859485A585B685881A990AAA0AEE
:10194000BB0A63897489858996899B01AC010E94D1
:10195000C3166B017C01F101638D748D858D968DAD
:101960009B01AC010E94C3179B01AC01C701B601EA
:101970000E945E180E94D01881149104A104B10441
:10198000A1F462307105810591050CF07CC0F10174
:1019900013A214A215A216A2138A148A158A168AF3
:1019A00013AA14AA15AA16AA03C1F10103A914A91E
:1019B00025A936A9ED5BFF4F181419041A041B045E
:1019C000FCF410161106120613064CF4681579057E
:1019D0008A059B054CF52081211155C025C00115B4
:1019E00011052105310509F44EC0681579058A05F0
:1019F0009B050CF048C08081882309F444C037C09F
:101A00001016110612061306F4F400271127980188
:101A1000081919092A093B096017710782079307FA
:101A20001CF42081222379F19B01AC01882799279E
:101A3000DC01821B930BA40BB50BF10183AB94ABC0
:101A4000A5ABB6AB20C00115110521053105D9F0B4
:101A5000CC24DD247601C818D908EA08FB086C15E7
:101A60007D058E059F057CF4808181110CC0309529
:101A70002095109501951F4F2F4F3F4FF10103AB5C
:101A800014AB25AB36ABF101C3A8D4A8E5A8F6A8E2
:101A900081010D5B1F4FC114D104E104F10491F4E5
:101AA00087A990ADA1ADB2AD83AF94AFA5AFB6AFEE
:101AB00081E0181419041A041B040CF080E0F801EA
:101AC000808340C0F10183AC94ACA5ACB6ACA50159
:101AD0009401C501B4010E94C3172B013C01C70149
:101AE000B6010E94641620E030E040E850E40E9415
:101AF000C31620E030E040E85FE30E94C3179B017B
:101B0000AC01C301B2010E945E189B01AC01C5018A
:101B1000B4010E94C2174B015C01F101FF964080A5
:101B20005180628073809201A3010E942D191816C2
:101B300014F042015301A401B501F10143AF54AFC8
:101B400065AF76AFFFEFCF1ADF0AEF0AFF0AF101A8
:101B5000C3AAD4AAE5AAF6AA23AD34AD45AD56ADC5
:101B6000CA01B90129833A834B835C830E94D71849
:101B7000F10163A374A385A396A329813A814B81C4
:101B80005C8160E074E284E799E40E945E18F101F0
:101B9000638B748B858B968BF8012081211108C093
:101BA000DC01CB01B058F101838B948BA58BB68BF4
:101BB0000F900F900F900F90DF91CF911F910F9189
:101BC000FF90EF90DF90CF90BF90AF909F908F905D
:101BD0007F906F905F904F903F902F900895CF939C
:101BE000DF93EC0188E695ECAFEFBFEF8B879C8726
:101BF000AD87BE878F87988BA98BBA8B1BAA1CAA2F
:101C00001DAA1EAA1BA21CA21DA21EA21B8A1C8A00
:101C10001D8A1E8ACE010E94B50FCE010E94370F89
:101C200040E050E06AEF73E4CE010E9479068F85B0
:101C30009889A989BA89892B8A2B8B2B39F01F8621
:101C4000188A198A1A8ACE010E947D0C81E0DF91E0
:101C5000CF910895CF92DF92EF92FF920F931F934F
:101C6000CF93DF93EC018B01FB0122853385332772
:101C7000F901EE50FF4F8491F901E252FF4FE490D9
:101C8000F901E653FF4FF490FF20A1F081110E946B
:101C9000ED02EF2DF0E0EE0FFF1FEA5FFE4FA59182
:101CA000B491EC91EE2131E020E009F430E0832F93
:101CB000922F02C080E090E0F801228133818217E8
:101CC000930789F0938382832FB7F89480918A01D8
:101CD00090918B01A0918C01B0918D012FBF8483D5
:101CE0009583A683B7832FB7F89480918A0190914A
:101CF0008B01A0918C01B0918D012FBFF80144811F
:101D0000558166817781841B950BA60BB70B4485A3
:101D1000558566857785481759076A077B0708F058
:101D20009AC0828193819183808320853185821737
:101D3000930709F090C04F85588969897A898B8506
:101D40009C85AD85BE85481759076A077B070CF04F
:101D500082C0CE010E94EF068B859C85AD85BE8535
:101D60008F87988BA98BBA8B1BAA1CAA1DAA1EAAA7
:101D70001BA21CA21DA21EA21B8A1C8A1D8A1E8ACF
:101D800011E04B855C856D857E858F859889A98955
:101D9000BA89481759076A077B0709F451C0E881D7
:101DA000F9810280F381E02DCE0109958BA19CA1E0
:101DB000ADA1BEA1892B8A2B8B2B09F44EC00E94AA
:101DC00082036B017C018FA198A5A9A5BAA5B701D3
:101DD000A601481B590B6A0B7B0B8BA19CA1ADA1E3
:101DE000BEA1481759076A077B07B8F1FE01ED5BF2
:101DF000FF4F80814B855C856D857E85882329F02A
:101E00004F5F5F4F6F4F7F4F04C0415051096109D1
:101E100071094B875C876D877E87E881F9814B85E7
:101E20005C856D857E850680F781E02DCE01099564
:101E3000CFA2D8A6E9A6FAA6CE010E947D0C0DC0BD
:101E4000CE010E94EF06E881F9810190F081E02D3A
:101E5000CE01099502C010E094CF812FDF91CF9180
:101E60001F910F91FF90EF90DF90CF9008958F9288
:101E70009F92AF92BF92CF92DF92EF92FF921F9309
:101E8000CF93DF93EC0120E030E04AEF53E46B891D
:101E90007C898D899E890E945D16882309F459C02A
:101EA000CF88D88CE98CFA8C46015701B7FAB094E8
:101EB000B7F8B09420E030E04AEF53E4C501B40134
:101EC0000E942D1918165CF020E030E04AEF53E430
:101ED000C701B6010E945D1687FD03C010C07501E1
:101EE000640120E030E0A901C701B6010E945D163F
:101EF00081110BC01BA21CA21DA21EA226C0C12CB8
:101F0000D12C8AEFE82E83E4F82EA701960160E039
:101F100074E284E799E40E945E189F770E94D718C4
:101F20006BA37CA38DA39EA35E0183E4A80EB11CCA
:101F300011E020E030E0A901C701B6010E942D198F
:101F400018160CF010E0F5011083CB8ADC8AED8ABC
:101F5000FE8ADF91CF911F91FF90EF90DF90CF909D
:101F6000BF90AF909F908F900895CF92DF92EF92A5
:101F7000FF92CF93DF93EC0120E030E04AE754E496
:101F80006F89788D898D9A8D0E945D168823F1F175
:101F900080E090E0AAE7B4E48F8B988FA98FBA8F86
:101FA000FE01FF9680839183A283B3838BA99CA9B2
:101FB000ADA9BEA9181619061A061B063CF56B89B1
:101FC0007C898D899E899B01AC010E94C3166B019F
:101FD0007C016B8D7C8D8D8D9E8D9B01AC010E9453
:101FE000C3179B01AC01C701B6010E945E180E9495
:101FF000D0186BAB7CAB8DAB9EABCE01DF91CF919C
:10200000FF90EF90DF90CF900C947D0CDF91CF91FB
:10201000FF90EF90DF90CF9008959091550291112D
:10202000FCCF91E090935502909354022FEF2093B0
:10203000530210925202260F2093510290935002A5
:1020400090915002880F892B8093500280914F020B
:10205000813061F410924F02809150028093BB0056
:102060008091BC0083FDF8CF85EC01C085EE8093A4
:10207000BC00809155028130E1F3809152028617B5
:1020800010F460915202AFE2B2E02FE032E0F901C9
:102090008E2F821B861718F48D918193F9CF862F8E
:1020A0000895CF93DF93BC0186E592E00E94130967
:1020B000EC0167E871E086E592E00E9413098C0F5D
:1020C0009D1FDF91CF910895CF92DF92EF92FF9203
:1020D000CF93DF93AB01BC0177FF1DC06A017B0189
:1020E0006DE286E592E00E940C09EC014427552739
:1020F000BA014C195D096E097F092AE086E592E074
:102100000E9428098C0F9D1FDF91CF91FF90EF90C7
:10211000DF90CF9008952AE086E592E0DF91CF919D
:10212000FF90EF90DF90CF900C942809BC0186E5DA
:1021300092E00C941309789484B5826084BD84B5D0
:10214000816084BD85B5826085BD85B5816085BDB2
:1021500080916E00816080936E001092810080916A
:1021600081008260809381008091810081608093F2
:102170008100809180008160809380008091B10017
:1021800084608093B1008091B00081608093B00042
:1021900080917A00846080937A0080917A008260D6
:1021A00080937A0080917A00816080937A00809198
:1021B0007A00806880937A001092C100E0916602F4
:1021C000F091670282E08083E0916202F091630205
:1021D0001082E0916402F091650280E180831092A8
:1021E0006E02E0916A02F0916B0286E08083E091DA
:1021F0006802F0916902808180618083E0916802C9
:10220000F0916902808188608083E0916802F0919A
:102210006902808180688083E0916802F0916902A0
:1022200080818F7D808361E082E00E94460361E0CF
:1022300080E10E94460361E081E10E94460361E083
:1022400082E10E94460360E080E10E94160360E0A4
:1022500081E10E94160360E082E10E94160364E6B9
:1022600070E080E090E00E94A70361E080E10E94BE
:10227000160360E082E10E94160364EF71E080E0E3
:1022800090E00E94A70361E081E10E94160361E0F3
:1022900082E10E94160364EF71E080E090E00E940A
:1022A000A7031092FF011092FE011092FD011092FF
:1022B000FC011092550281E08093540210924F026B
:1022C00061E082E10E94160361E083E10E9416034F
:1022D0008091B9008E7F8093B9008091B9008D7F85
:1022E0008093B90088E48093B80085E48093BC00B3
:1022F0008CE08093B80060E070E080E494E00E949D
:1023000059058093050261E070E08BEF93E00E9435
:1023100059058093040210920B0210920A02109247
:102320000D0210920C0281E090E0909303028093E2
:10233000020290930102809300021092C203109255
:10234000C3031092C4031092C5031092C6031092E7
:10235000C7031092C8031092C9031092EA031092A7
:10236000EB031092EC031092ED031092DA0310923B
:10237000DB031092DC031092DD031092CA0310926B
:10238000CB031092CC031092CD0387EB93E00E9415
:10239000B50F87EB93E00E94370F40E050E06AEF03
:1023A00073E487EB93E00E94790687EB93E00E9449
:1023B000230C10927E0310927F03109280031092E0
:1023C000810310928203109283031092840310926F
:1023D00085031092A6031092A7031092A8031092EF
:1023E000A9031092960310929703109298031092EB
:1023F000990310928603109287031092880310921B
:10240000890383E793E00E94B50F83E793E00E947E
:10241000370F40E050E06AEF73E483E793E00E94F7
:10242000790683E793E00E94230C68EE73E080E076
:1024300090E00E94A703C0E0C13661F086E592E01B
:102440000E94E400892BC1F386E592E00E94C2005D
:10245000C82FF2CF83E0E82EF12C00E010EF94E0DB
:10246000292E312C99249394CC24C394D12C30E779
:10247000432E30EA532E3EEF632E77247A9442E0C7
:10248000A42EB12C80910A0290910B02823091050A
:1024900009F45DC030F4009761F0019709F446C07B
:1024A000B2C18330910509F46FC0049709F49AC151
:1024B000AAC180E591E00E9451108091C6039091DD
:1024C000C703A091C803B091C9038037904AAE4FAB
:1024D000BF4F61F04092C6035092C7036092C80399
:1024E0007092C90387EB93E00E947D0C8091820378
:1024F00090918303A0918403B09185038037904A23
:10250000AE4FBF4F61F040928203509283036092BE
:1025100084037092850383E793E00E947D0C909280
:102520000E02D0920B02C0920A026DC180910D0280
:10253000882309F468C180910C02882309F463C1DF
:1025400010920E02B0920B02A0920A025CC180911E
:10255000C2039091C303A091C403B091C503883D09
:102560009C4DAF4FBF4F0CF44EC180917E039091B4
:102570007F03A0918003B0918103883D9C4DAF4FB4
:10258000BF4F0CF065C13FC14091C2035091C303DE
:102590006091C4037091C503411580EF58078FEF18
:1025A000680778070CF47AC08091080290910902BC
:1025B000092E000CAA0BBB0B84179507A607B707BB
:1025C00009F46CC05093090240930802C0E0D0E0C7
:1025D00080E494E00E948D07882311F02196F8CFC3
:1025E00087E691E00E9496108BE691E00E9496109B
:1025F00060914004709141048091420490914304A1
:102600000E9471098BE691E00E949610609144044B
:102610007091450480914604909147040E9471098D
:102620008BE691E00E9496106091500470915104E5
:1026300080915204909153040E9471098BE691E0BD
:102640000E9496106091C2037091C3038091C403ED
:102650009091C5030E9464108BE691E00E94961051
:102660008BE691E00E9496108BE691E00E94961016
:102670008BE691E00E9496108BE691E00E94961006
:102680008BE691E00E949610BE01DD0F880B990B3E
:102690000E9464108BE691E00E94511040917E03ED
:1026A00050917F036091800370918103411520EF69
:1026B00052072FEF620772070CF47AC0809106026E
:1026C00090910702092E000CAA0BBB0B84179507EB
:1026D000A607B70709F46CC050930702409306029F
:1026E000C0E0D0E08BEF93E00E948D07882311F0CB
:1026F0002196F8CF8BE691E00E9496108BE691E050
:102700000E9496108BE691E00E9496108BE691E075
:102710000E9496108BE691E00E9496108DE691E063
:102720000E9496108BE691E00E9496106091FB0348
:102730007091FC038091FD039091FE030E9471094A
:102740008BE691E00E9496106091FF037091000467
:1027500080910104909102040E9471098BE691E03E
:102760000E94961060910B0470910C0480910D04EE
:1027700090910E040E9471098BE691E00E949610E0
:1027800060917E0370917F0380918003909181031B
:102790000E9464108BE691E00E949610BE01DD0F4E
:1027A000880B990B0E9464108BE691E00E945110F7
:1027B0008091C2039091C303A091C403B091C5035B
:1027C000892B8A2B8B2BF9F480917E0390917F03C8
:1027D000A0918003B0918103892B8A2B8B2B09F464
:1027E00048C011C086E592E00E94E400892B59F0B0
:1027F00086E592E00E94C2008136910521F4109294
:102800000B0210920A0265E974E087EB93E00E94E4
:102810002A0ED82F65E874E083E793E00E942A0E21
:10282000C82F80910E02882381F0DD2331F087EBE1
:1028300093E00E94EF0D90920D02CC2331F083E7DC
:1028400093E00E94EF0D90920C020E9484011ACE38
:1028500081E791E00E945110F0920B02E0920A028F
:1028600010930902009308021093070200930602D6
:10287000CACF30920B0220920A02C5CF2F923F920C
:102880004F925F926F927F928F929F92AF92BF9280
:10289000CF92DF92EF92FF920F931F93CF93DF932C
:1028A000E5EAF4E088E291E091838083128213826A
:1028B00014821582E6E5F2E01382128248EE53E0BC
:1028C00060E070E0448355836683778324E031E0E1
:1028D0003183208325EC30E03587248724EC30E0F9
:1028E0003787268720EC30E0318B208B21EC30E0DD
:1028F000338B228B22EC30E0358B248B26EC30E0BE
:10290000378B268B118E128E138E148EEBEAF4E029
:10291000918380831282138214821582E1EBF4E0AA
:10292000918380831282138214821582E7EBF4E094
:10293000918380831282138214821582E5ECF4E085
:10294000918380831282138214821582EDEBF4E06E
:10295000918380831282138214821582EBECF4E05F
:10296000918380831282138214821582E1EDF4E058
:10297000918380831282138214821582E3EFF2E046
:1029800013821282448355836683778326E131E084
:1029900031832083E7EDF4E09183808312821382F8
:1029A0001482158285E9C82E84E0D82EAA24A39427
:1029B000B12CF601B182A082B382A2821482158268
:1029C000168217821186108683E090E093878287B3
:1029D00022E3422E512C612C712C4486558666864A
:1029E000778660E00E94460335E8E32E34E0F32E5C
:1029F000F701B182A082B382A2821482158216826C
:102A000017821186108684E090E09387828744863F
:102A100055866686778660E00E94460380E494E0EF
:102A20000E942A068BEF93E00E942A0607EB13E030
:102A30004EE2842E41E0942EF8019182808258E08B
:102A4000352E328213861486158616861786108ACE
:102A5000118A128A138A148A158A168A412C512CDB
:102A600060E8662E6FE3762E478A508E618E728EF6
:102A7000138E148E158E168E478E50A261A272A2EE
:102A800013A214A215A216A2B4A6A3A622242A94C5
:102A900026A617A210A611A612A68AE083838EE0AE
:102AA000848389E085838FE0868313AA14AA15AAFC
:102AB00016AA17AA10AE11AE12AE13AE14AE15AE12
:102AC00016AE4092F6035092F7036092F8037092AC
:102AD000F9031092FA031782108611861286B30149
:102AE000A201C8010E947906C3E7D3E099828882D7
:102AF0003A821B861C861D861E861F86188A198AA6
:102B00001A8A1B8A1C8A1D8A1E8A4F8A588E698ED1
:102B10007A8E1B8E1C8E1D8E1E8E4F8E58A269A221
:102B20007AA21BA21CA21DA21EA2BCA6ABA62EA608
:102B30001FA218A619A61AA685E08B8387E08C83AE
:102B400086E08D833E821BAA1CAA1DAA1EAA1FAA6C
:102B500018AE19AE1AAE1BAE1CAE1DAE1EAE409224
:102B6000B2035092B3036092B4037092B503109213
:102B7000B6031F82188619861A86B301A201CE01F8
:102B80000E947906E9E4F3E0D182C08280E494E017
:102B9000938382831583048317821682118610869D
:102BA000168E178E10A211A212A213A214A215A2A1
:102BB00046A257A260A671A640E050E160E070E036
:102BC000428753876487758716861786108A118A0D
:102BD000128A138A148A158A168A178A108E118E01
:102BE000128E138E148E158EEFE1F3E0F182E082E7
:102BF0008BEF93E093838283D583C48317821682FD
:102C000011861086168E178E10A211A212A213A280
:102C100014A215A246A257A260A671A642875387A6
:102C20006487758716861786108A118A128A138A16
:102C3000148A158A168A178A108E118E128E138E98
:102C4000148E158EE7E1F3E0D182C08213830283F4
:102C50001582148217821682EFE0F3E0F182E0829F
:102C6000D383C2831582148217821682E7E0F3E0D1
:102C7000D182C08213830283158214821782168246
:102C8000EFEFF2E0F182E082D383C28315821482F7
:102C900017821682DF91CF911F910F91FF90EF90D5
:102CA000DF90CF90BF90AF909F908F907F906F906C
:102CB0005F904F903F902F9008950E949F1608F4C8
:102CC00081E00895E89409C097FB3EF490958095C3
:102CD000709561957F4F8F4F9F4F9923A9F0F92FE2
:102CE00096E9BB279395F695879577956795B79560
:102CF000F111F8CFFAF4BB0F11F460FF1BC06F5F46
:102D00007F4F8F4F9F4F16C0882311F096E911C057
:102D1000772321F09EE8872F762F05C0662371F078
:102D200096E8862F70E060E02AF09A95660F771F8C
:102D3000881FDAF7880F9695879597F90895990F68
:102D40000008550FAA0BE0E8FEEF16161706E80775
:102D5000F907C0F012161306E407F50798F0621B96
:102D6000730B840B950B39F40A2661F0232B242B6B
:102D7000252B21F408950A2609F4A140A6958FEF8A
:102D8000811D811D08950E94D6160C9447170E943C
:102D9000391738F00E94401720F0952311F00C9459
:102DA00030170C94361711240C947B170E94581777
:102DB00070F3959FC1F3950F50E0551F629FF0018E
:102DC000729FBB27F00DB11D639FAA27F00DB11DA7
:102DD000AA1F649F6627B00DA11D661F829F222730
:102DE000B00DA11D621F739FB00DA11D621F839FB7
:102DF000A00D611D221F749F3327A00D611D231F8D
:102E0000849F600D211D822F762F6A2F11249F57DA
:102E100050409AF0F1F088234AF0EE0FFF1FBB1FDD
:102E2000661F771F881F91505040A9F79E3F51059C
:102E300080F00C9430170C947B175F3FE4F3983EBE
:102E4000D4F3869577956795B795F795E7959F5F46
:102E5000C1F7FE2B880F911D9695879597F90895D8
:102E600097F99F6780E870E060E008959FEF80EC3D
:102E7000089500240A9416161706180609060895E0
:102E800000240A9412161306140605060895092E46
:102E90000394000C11F4882352F0BB0F40F4BF2BB5
:102EA00011F460FF04C06F5F7F4F8F4F9F4F0895F5
:102EB00057FD9058440F551F59F05F3F71F04795EB
:102EC000880F97FB991F61F09F3F79F087950895D0
:102ED000121613061406551FF2CF4695F1DF08C0EF
:102EE000161617061806991FF1CF8695710561050C
:102EF00008940895E894BB2766277727CB0197F9B4
:102F00000895052E97FB1EF400940E94981757FD14
:102F100007D00E94A01707FC03D04EF40C9498171A
:102F200050954095309521953F4F4F4F5F4F0895F5
:102F300090958095709561957F4F8F4F9F4F089525
:102F4000A1E21A2EAA1BBB1BFD010DC0AA1FBB1FAD
:102F5000EE1FFF1FA217B307E407F50720F0A21B1F
:102F6000B30BE40BF50B661F771F881F991F1A948C
:102F700069F760957095809590959B01AC01BD01B6
:102F8000CF0108955058BB27AA270E94DA170C9446
:102F900047170E94391738F00E94401720F039F483
:102FA0009F3F19F426F40C9436170EF4E095E7FBD6
:102FB0000C943017E92F0E94581758F3BA1762077C
:102FC00073078407950720F079F4A6F50C947A1717
:102FD0000EF4E0950B2EBA2FA02D0B01B901900134
:102FE0000C01CA01A0011124FF27591B99F0593F78
:102FF00050F4503E68F11A16F040A22F232F342FC0
:103000004427585FF3CF469537952795A795F0400D
:103010005395C9F77EF41F16BA0B620B730B840B22
:10302000BAF09150A1F0FF0FBB1F661F771F881FDA
:10303000C2F70EC0BA0F621F731F841F48F4879532
:1030400077956795B795F7959E3F08F0B0CF939524
:10305000880F08F09927EE0F979587950895DF93CD
:10306000DD27B92FBF7740E85FE31616170648073C
:103070005B0718F4D92F0E9432199F938F937F9387
:103080006F930E948019E8E8F0E00E9406190E9400
:1030900047172F913F914F915F910E94D616DD23E4
:1030A00051F09058A2EA2AED3FE049EC5FE3D07876
:1030B0005D270E94DA17DF910C9447170E9472185F
:1030C0000C9447170E94401758F00E94391740F09F
:1030D00029F45F3F29F00C94301751110C947B17A1
:1030E0000C9436170E94581768F39923B1F35523AF
:1030F00091F3951B550BBB27AA276217730784070B
:1031000038F09F5F5F4F220F331F441FAA1FA9F3A0
:1031100035D00E2E3AF0E0E832D091505040E6958E
:10312000001CCAF72BD0FE2F29D0660F771F881FEF
:10313000BB1F261737074807AB07B0E809F0BB0BE2
:10314000802DBF01FF2793585F4F3AF09E3F5105F6
:1031500078F00C9430170C947B175F3FE4F3983EA3
:10316000D4F3869577956795B795F7959F5FC9F7DF
:10317000880F911D9695879597F90895E1E0660F60
:10318000771F881FBB1F621773078407BA0720F0D9
:10319000621B730B840BBA0BEE1F88F7E095089542
:1031A0000E94D7186894B1110C947B1708950E945F
:1031B000601788F09F5798F0B92F9927B751B0F052
:1031C000E1F0660F771F881F991F1AF0BA95C9F7AB
:1031D00014C0B13091F00E947A17B1E008950C94B8
:1031E0007A17672F782F8827B85F39F0B93FCCF36B
:1031F000869577956795B395D9F73EF49095809528
:10320000709561957F4F8F4F9F4F0895DF93CF93B8
:103210001F930F93FF92EF92DF927B018C016894D2
:1032200006C0DA2EEF010E94D616FE01E894A591A1
:103230002591359145915591A6F3EF010E94DA173A
:10324000FE019701A801DA9469F7DF90EF90FF90F3
:103250000F911F91CF91DF9108950E949F1608F45E
:103260008FEF08959B01AC0160E070E080E89FE380
:103270000C945E1819F416F40C9436170C948919F2
:103280000E946017B8F39923C9F3B6F39F57550B03
:1032900087FF0E9497190024A0E640EA9001805819
:1032A0005695979528F4805C660F771F881F20F04D
:1032B00026173707480730F4621B730B840B20294D
:1032C00031294A2BA69517940794202531254A27A2
:1032D00058F7660F771F881F20F026173707480713
:1032E00030F4620B730B840B200D311D411DA09532
:1032F00081F7B901842F9158880F96958795089585
:103300009B01AC010C94C3160E949F16880B990B6D
:1033100008959F3F31F0915020F4879577956795F8
:10332000B795880F911D9695879597F908959150B7
:103330005040660F771F881FD2F70895EE0FFF1FCA
:103340000590F491E02D099481E090E0F8940C94BC
:06335000A919F894FFCF5B
:10335600000000001B016207B3006201E400C20026
:10336600D600000000001C02EC014C02C001E40182
:10337600D001C101000000004F0200000000230C34
:10338600EF0B410CAA0B940B520B310BFD0ADC0A16
:10339600860A420A6E616E00696E66006F76660086
:1033A600537461727420686F6D696E672070726FF6
:1033B6006365647572650053313A002C0053323AE6
:1033C6000053746172742072656164696E6720735C
:0A33D600656E736F7273000D0A003C
:00000001FF
