:100000000C94B3000C94DB000C94DB000C94DB002C
:100010000C94DB000C94DB000C94DB000C94DB00F4
:100020000C94DB000C94DB000C94DB000C94DB00E4
:100030000C94DB000C94DB000C94DB000C94DB00D4
:100040000C94320C0C94DB000C940C0B0C94E60A10
:100050000C94DB000C94DB000C94DB000C94DB00B4
:100060000C947C0C0C94DB00F500FB0001010701F3
:100070000D011301190154025B0262026902700250
:100080008702770287027E021F1327138D14AC1696
:10009000D916581754176117ED16084AD73B3BCEAF
:1000A000016E84BCBFFDC12F3D6C74319ABD568377
:1000B0003DDA3D00C77F11BED9E4BB4C3E916BAA2F
:1000C000AABE000000803F000000000023002600C0
:1000D0002900000000006410B71DC8206E3BAC3042
:1000E000D9269041DC76F4516B6B5861B24D3C716E
:1000F00005502083B8ED44930FF0E8A3D6D68CB317
:1001000061CBB0C2649BD4D2D38678E20AA01CF241
:10011000BDBD00000000240027002A0000000008E8
:1001200000020100000304070000000000000000BE
:1001300000000000250028002B000404040404042F
:100140000404020202020202030303030303010286
:100150000408102040800102040810200102040855
:100160001020FB17681A11241FBECFEFD8E0DEBFA6
:10017000CDBF11E0A0E0B1E0E4EFFDE302C00590E7
:100180000D92AE35B107D9F726E0AEE5B1E001C07A
:100190001D92AC34B207E1F710E0C2EBD0E004C02E
:1001A0002197FE010E94A51DC13BD107C9F70E94FE
:1001B00079110C94ED1E0C940000CF93DF934770DF
:1001C000552766277727FA013197EC01A881B98175
:1001D000E730F10520F4EC5CFF4F0C94A51D14965C
:1001E000ED91FC91159761E029C01496ED91FC9179
:1001F000159765E023C01496ED91FC91159764E086
:100200001DC01496ED91FC91159766E017C01496E9
:10021000ED91FC91159762E011C01496ED91FC915F
:1002200015976AE00BC01496ED91FC91159768E064
:1002300005C01496ED91FC91159769E0DF91CF917F
:100240000994CF93DF93EC01CB01BA0126E030E0B3
:1002500040E050E00E948D1B6230710581059105E0
:1002600059F18CF46115710581059105F1F061304A
:10027000710581059105C1F5E881F9810480F58159
:10028000E02D65E02DC0643071058105910511F107
:10029000D4F0653071058105910531F5E881F9816A
:1002A0000480F581E02D66E01BC0E881F9810480BF
:1002B000F581E02D64E014C0E881F9810480F581C6
:1002C000E02D61E00DC0E881F9810480F581E02D29
:1002D00063E006C0E881F9810480F581E02D62E0E9
:1002E000CE01DF91CF910994DF91CF9108954370B2
:1002F000552766277727DC01ED91FC910480F58175
:10030000E02D423051056105710571F04330510512
:100310006105710559F0413051056105710511F014
:1003200065E005C066E003C06AE001C069E00994C9
:10033000CF93DF93EC01CB01BA0123E030E040E042
:1003400050E00E948D1B613071058105910581F09F
:10035000623071058105910591F0672B682B692B3F
:10036000C1F4E881F9810480F581E02D64E00DC0DD
:10037000E881F9810480F581E02D61E006C0E88123
:10038000F9810480F581E02D62E0CE01DF91CF910B
:100390000994DF91CF9108954370552766277727F9
:1003A000DC01ED91FC910480F581E02D4230510596
:1003B0006105710571F0433051056105710559F012
:1003C000413051056105710511F062E005C063E03F
:1003D00003C061E001C060E009940F931F93CF93C5
:1003E000DF93EC01E881F9810480F581E02D8C0137
:1003F0000D5B1F4FD8018C91811102C060E001C0DC
:1004000062E0CE010995E881F9810480F581E02D53
:10041000D8018C91811102C061E001C063E0CE017E
:100420000995EBA5FCA5E230F10538F0EE0FFF1FB2
:10043000EE0FFF1F35973197F1F7E881F9810480BE
:10044000F581E02DD8018C91811102C060E001C0DE
:1004500062E0CE01DF91CF911F910F910994CF936C
:10046000DF93EC0120E030E0A9016B897C898D8964
:100470009E890E94391D18161CF4EFA5F8A902C028
:10048000E9A9FAA9DF91CF9109940F931F93DC0199
:100490001296EC910E2F10E009301105C0F5F8010D
:1004A000E55CFF4F0C94A51DDC01ED91FC910084EF
:1004B000F185E02D29C0DC01ED91FC910284F385EA
:1004C000E02D22C0DC01ED91FC910484F585E02D46
:1004D0001BC0DC01ED91FC910684F785E02D14C072
:1004E000DC01ED91FC910088F189E02D0DC0DC016B
:1004F000ED91FC910288F389E02D06C0DC01ED91BD
:10050000FC910488F589E02D1F910F9109941F91AA
:100510000F910895CF93DF93FC012281222359F19B
:10052000EC0161E083810E94970B61E08C810E9465
:10053000970B8A81843011F0883039F461E08D8125
:100540000E94970B61E08E8106C0833011F08630E7
:1005500021F461E08D810E94970B8EA58F3F59F0A9
:1005600061E00E94970B6DA581E068278EA5DF9161
:10057000CF910C94670BDF91CF910895CF93DF93C8
:10058000FC0122812223A9F0EC010190F081E02DF1
:100590000480F581E02D60E009958EA58F3F49F03C
:1005A00061E00E94970B6DA58EA5DF91CF910C9411
:1005B000670BDF91CF910895CF92DF92EF92FF9278
:1005C0000F931F93CF93DF93FC012281243041F0DE
:1005D000283031F0233031F0263021F012E003C012
:1005E00014E001C013E0EC012796E12CF12CC62E9B
:1005F000D12C01E0C6010E2C02C0959587950A9476
:10060000E2F7688180FD6027FE01349780810E94B7
:10061000670BFFEFEF1AFF0A2196E11658F3DF91FF
:10062000CF911F910F91FF90EF90DF90CF900895A1
:10063000CF92DF92EF92FF920F931F93CF93DF93AE
:10064000EC016130710511F08FE101C08EE588A3E6
:100650006AE00E9435111092D3018093D2018A3052
:1006600009F0ABC08E010F5D1F4F6E018BE2C80E0B
:10067000D11C7801EC14FD0441F089E494E00E945F
:100680001D0AF70181937F01F5CFCE018696F8010F
:1006900021918F01211193C0E817F907C1F719AA19
:1006A00088A588778AAB89A58BAB8AA58F708CAB20
:1006B000DE01D9968E010F5C1F4F7E01F5E3EF0E30
:1006C000F11CF801EE15FF0529F08D919081892B21
:1006D0008193F8CFC8A181E080937F01C0935E0130
:1006E0001092D1011092D0010E151F0559F0F8019A
:1006F00061918F0189E494E00E94690A8130A1F33D
:1007000086E05EC09091D001913208F04AC080919D
:10071000A1028111FCCF22E02093A10221E02093CD
:10072000A0022FEF20939F0210929E0290939D02B1
:10073000AFE5B1E04BE752E0FA012E2F241B291759
:1007400018F42D912193F9CF10929C0290919C0264
:10075000CC0FC92BC0939C0290919B02913061F405
:1007600010929B0290919C029093BB009091BC00D0
:1007700093FDF8CF95EC01C095EE9093BC0090915D
:10078000A1029230E1F390919F029F3F79F0809116
:100790009F02803241F080919F02803331F084E0EB
:1007A00005C081E003C082E001C083E01092D10166
:1007B0001092D00110927F0103C085E001C087E054
:1007C000DF91CF911F910F91FF90EF90DF90CF902D
:1007D0000895FC0110821182128213821482158204
:1007E0001682178210861186128613861486158645
:1007F00016861786108A118A128A138A148A158A15
:10080000168A178A108E118E128E138E148E158EE4
:10081000168E178E10A215AA81E086AB17AA90E853
:1008200090AF11AE82AF13AE20EC24AF15AE22E034
:1008300026AF17AEDF01A05CBF4F9C9311961C92B0
:1008400011968C9311961C9211961C929397CF013E
:100850008B961D92A817B907E1F713A614A615A643
:1008600016A617A610AA11AA12AA13AA14AA0895C6
:100870002F923F924F925F926F927F928F929F92B0
:10088000AF92BF92CF92DF92EF92FF920F931F939E
:10089000CF93DF9300D000D0CDB7DEB71C01FC01B1
:1008A00087849088A188B28883859485A585B6853C
:1008B000881A990AAA0ABB0A638974898589968964
:1008C0009B01AC010E94CF1A6B017C01F101638D89
:1008D000748D858D968D9B01AC010E94CF1B9B0171
:1008E000AC01C701B6010E946A1C0E94DC1C811485
:1008F0009104A104B104A1F4623071058105910550
:100900000CF07CC0F10113A214A215A216A2138A46
:10091000148A158A168A13AA14AA15AA16AA03C13C
:10092000F10103A914A925A936A9ED5BFF4F1814FD
:1009300019041A041B04FCF41016110612061306FF
:100940004CF4681579058A059B054CF52081211129
:1009500055C025C0011511052105310509F44EC00A
:10096000681579058A059B050CF048C080818823AD
:1009700009F444C037C01016110612061306F4F429
:10098000002711279801081919092A093B0960173E
:100990007107820793071CF42081222379F19B01C0
:1009A000AC0188279927DC01821B930BA40BB50BA4
:1009B000F10183AB94ABA5ABB6AB20C0011511051B
:1009C00021053105D9F0CC24DD247601C818D908D9
:1009D000EA08FB086C157D058E059F057CF4808177
:1009E00081110CC030952095109501951F4F2F4F08
:1009F0003F4FF10103AB14AB25AB36ABF101C3A8FC
:100A0000D4A8E5A8F6A881010D5B1F4FC114D1043D
:100A1000E104F10491F487A990ADA1ADB2AD83AF2B
:100A200094AFA5AFB6AF81E0181419041A041B04E3
:100A30000CF080E0F801808340C0F10183AC94ACFD
:100A4000A5ACB6ACA5019401C501B4010E94CF1BB1
:100A50002B013C01C701B6010E94701A20E030E072
:100A600040E850E40E94CF1A20E030E040E85FE325
:100A70000E94CF1B9B01AC01C301B2010E946A1C02
:100A80009B01AC01C501B4010E94CE1B4B015C016E
:100A9000F101FF9640805180628073809201A30132
:100AA0000E94391D181614F042015301A401B5012A
:100AB000F10143AF54AF65AF76AFFFEFCF1ADF0A56
:100AC000EF0AFF0AF101C3AAD4AAE5AAF6AA23AD48
:100AD00034AD45AD56ADCA01B90129833A834B8384
:100AE0005C830E94E31CF10163A374A385A396A316
:100AF00029813A814B815C8160E074E284E799E46A
:100B00000E946A1CF101638B748B858B968BF801B4
:100B10002081211108C0DC01CB01B058F101838B89
:100B2000948BA58BB68B0F900F900F900F90DF9149
:100B3000CF911F910F91FF90EF90DF90CF90BF90DA
:100B4000AF909F908F907F906F905F904F903F906D
:100B50002F9008954F925F926F927F928F929F9203
:100B6000AF92BF92CF92DF92EF92FF92CF93DF933B
:100B7000EC016A017B018B8C9C8CAD8CBE8C9A0144
:100B8000AB01C501B4010E94691A882309F449C068
:100B90006BA97CA98DA99EA90E94701A2B013C010A
:100BA000A7019601C501B4010E946A1C9B01AC011A
:100BB000C301B2010E94CF1A0E94DC1C6BAB7CAB5C
:100BC0008DAB9EABA701960160E070E080E090E401
:100BD0000E946A1C0E944C1D26E53EE04DE25FE348
:100BE0000E94CF1A20E034E244E759E40E94CF1A71
:100BF0006FAB78AF89AF9AAFCB8EDC8EED8EFE8E69
:100C0000CE01DF91CF91FF90EF90DF90CF90BF901A
:100C1000AF909F908F907F906F905F904F900C94CB
:100C20003804DF91CF91FF90EF90DF90CF90BF908D
:100C3000AF909F908F907F906F905F904F900895AE
:100C40000F931F93FC0107851089218932890417AE
:100C500015072607370741F04787508B618B728B4A
:100C60001F910F910C9438041F910F9108958F924A
:100C70009F92AF92BF92CF92DF92EF92FF92CF936B
:100C8000DF93EC018B889C88AD88BE8820E030E043
:100C9000A901C501B4010E94691A882309F442C060
:100CA000A5019401C501B4010E94CF1A6B017C011A
:100CB0006B8D7C8D8D8D9E8D9B01AC010E94CF1B19
:100CC0009B01AC01C701B6010E946A1C0E94DC1C9A
:100CD0006B017C012FEFC21AD20AE20AF20A20E06D
:100CE00030E0A901C501B4010E94391D4B855C8526
:100CF0006D857E8518162CF44C0D5D1D6E1D7F1DB7
:100D000004C04C195D096E097F09CE01DF91CF91B6
:100D1000FF90EF90DF90CF90BF90AF909F908F901B
:100D20000C942006DF91CF91FF90EF90DF90CF9051
:100D3000BF90AF909F908F9008958F929F92AF92A7
:100D4000BF92CF92DF92EF92FF920F931F93CF93B8
:100D5000DF93FC0100811181DC01CC24CA94DC2CDE
:100D6000760120E030E02017310709F446C01596DF
:100D7000CD91DC91169713964D915C9114974C0F81
:100D80005D1FC417D50709F434C09991E92FEC25EC
:100D9000EF7084E0E89FF0011124EE52FF4F859040
:100DA0009590A590B49084E0F694E794D794C79476
:100DB0008A95D1F78C249D24AE24BF24E92FE29597
:100DC000EF70E825EF7084E0E89FF0011124EE5207
:100DD000FF4FC590D590E590F49094E0B694A79419
:100DE000979487949A95D1F7C824D924EA24FB24B0
:100DF000C8CF2F5F3F4F1596B6CFC701B60160959C
:100E00007095809590950E94AB1DDF91CF911F91B9
:100E10000F91FF90EF90DF90CF90BF90AF909F9099
:100E20008F900895EF92FF920F931F93CF93DF93CC
:100E3000EC017C0100E010E0F5E0EF0EF11C888190
:100E400099810817190740F4F701808191810E9468
:100E5000471E0F5F1F4FF0CF8FE7FE0111928A955B
:100E6000E9F7DF91CF911F910F91FF90EF900895D7
:100E7000CF93DF93EC0188E695ECAFEFBFEF8B8764
:100E80009C87AD87BE878F87988BA98BBA8B1BAA4F
:100E90001CAA1DAA1EAA1BA21CA21DA21EA21B8A5E
:100EA0001C8A1D8A1E8ACE010E943910CE010E9422
:100EB000BB0F40E050E06AEF73E4CE010E94AA0548
:100EC00040E050E0BA01CE010E94200681E0DF91AF
:100ED000CF910895CF92DF92EF92FF920F931F93DD
:100EE000CF93DF93EC018B01FB0122853385332700
:100EF000F901E45EFE4F8491F901E25BFE4FE4905C
:100F0000F901E65CFE4FF490FF20A1F081110E94F0
:100F10003E0BEF2DF0E0EE0FFF1FE853FF4FA591C2
:100F2000B491EC91EE2131E020E009F430E0832F20
:100F3000922F02C080E090E0F80122813381821775
:100F4000930789F0938382832FB7F894809180016F
:100F500090918101A0918201B09183012FBF848380
:100F60009583A683B7832FB7F894809180019091E1
:100F70008101A0918201B09183012FBFF8014481CA
:100F8000558166817781841B950BA60BB70B448531
:100F9000558566857785481759076A077B0708F0E6
:100FA0009AC08281938191838083208531858217C5
:100FB000930709F090C04F85588969897A898B8594
:100FC0009C85AD85BE85481759076A077B070CF0DD
:100FD00082C0CE010E9437068B859C85AD85BE857B
:100FE0008F87988BA98BBA8B1BAA1CAA1DAA1EAA35
:100FF0001BA21CA21DA21EA21B8A1C8A1D8A1E8A5D
:1010000011E04B855C856D857E858F859889A989E2
:10101000BA89481759076A077B0709F451C0E88164
:10102000F9810280F381E02DCE0109958BA19CA16D
:10103000ADA1BEA1892B8A2B8B2B09F44EC00E9437
:10104000D30B6B017C018FA198A5A9A5BAA5B70107
:10105000A601481B590B6A0B7B0B8BA19CA1ADA170
:10106000BEA1481759076A077B07B8F1FE01ED5B7F
:10107000FF4F80814B855C856D857E85882329F0B7
:101080004F5F5F4F6F4F7F4F04C04150510961095F
:1010900071094B875C876D877E87E881F9814B8575
:1010A0005C856D857E850680F781E02DCE010995F2
:1010B000CFA2D8A6E9A6FAA6CE010E9438040DC098
:1010C000CE010E943706E881F9810190F081E02D80
:1010D000CE01099502C010E094CF812FDF91CF910E
:1010E0001F910F91FF90EF90DF90CF900895CF92D6
:1010F000DF92EF92FF920F931F93CF93DF936C01D8
:101100007A018B01C0E0D0E0CE15DF0589F0D8016F
:101110006D918D01D601ED91FC910190F081E02D52
:10112000C6010995892B11F47E0102C02196ECCFEE
:10113000C701DF91CF911F910F91FF90EF90DF904A
:10114000CF900895FC01538D448D252F30E0842FDE
:1011500090E0821B930B541710F0CF9608950197DF
:101160000895FC01918D828D981761F0828DDF01C9
:10117000A80FB11D5D968C91928D9F5F9F73928F8A
:1011800090E008958FEF9FEF0895FC01918D828D7F
:10119000981731F0828DE80FF11D858D90E008954C
:1011A0008FEF9FEF0895FC01918D228D892F90E0A4
:1011B000805C9F4F821B91098F73992708958CEA59
:1011C00093E00E94D30821E0892B09F420E0822FCC
:1011D0000895FC01848DDF01A80FB11DA35ABF4FF4
:1011E0002C91848D90E001968F739927848FA68926
:1011F000B7892C93A089B1898C9180648C93938D4D
:10120000848D981306C00288F389E02D80818F7D3C
:1012100080830895EF92FF920F931F93CF93DF93F4
:10122000EC0181E0888F9B8D8C8D981305C0E88937
:10123000F989808185FD24C0F62E0B8D10E00F5FAB
:101240001F4F0F731127E02E8C8DE8120CC00FB6C4
:1012500007FCFACFE889F989808185FFF5CFCE01B7
:101260000E94E908F1CF8B8DFE01E80FF11DE35AD2
:10127000FF4FF0820B8FEA89FB898081806207C073
:10128000EE89FF896083E889F989808180648083A1
:1012900081E090E0DF91CF911F910F91FF90EF904F
:1012A0000895CF93DF93EC01888D8823C9F0EA89F4
:1012B000FB89808185FD05C0A889B9898C9186FD4F
:1012C0000FC00FB607FCF5CF808185FFF2CFA8894C
:1012D000B9898C9185FFEDCFCE010E94E908E7CF57
:1012E000DF91CF91089580E090E0892B29F00E9452
:1012F000DF0881110C94000008958FEF9FEF08958F
:1013000080E090E008958FEF9FEF089508951F9378
:10131000CF93DF93DC0152962D913C915397211589
:10132000310539F481E090E013969C938E931297E7
:101330003DC01D96ED91FC911E971C969C911C97AB
:10134000892F80951FB754964C91549741FB77276E
:1013500070F941FD6095F8944081772311F0492B95
:1013600001C048234083E9012197F1F748E050810B
:1013700060FF02C0592B01C058235083E901219717
:10138000F1F76695415099F7772321F090818923F1
:10139000808303C08081982B90831FBF52968D91CC
:1013A0009C9153970197F1F721E030E0C901DF915B
:1013B000CF911F91089585ED8093BC008091BC0072
:1013C00084FDFCCF1092A10208954091A601262F22
:1013D00030E0240F311D21323105DCF42091A102CF
:1013E0002430C9F4FC0180E090E0861758F4309175
:1013F000A6012191DC01AC57BE4FA30FB11D2C9368
:101400000196F3CF8091A601680F6093A60180E05A
:10141000089581E0089582E008950895E091D30150
:101420008091D201E81730F4F0E0E55AFD4F808159
:1014300090E008958FEF9FEF08959091D3018091F0
:10144000D201981750F4E92FF0E0E55AFD4F2081C2
:1014500030E09F5F9093D30102C02FEF3FEFC901AF
:1014600008958091D20190E02091D301821B9109CF
:101470000895CF92DF92EF92FF920F931F93CF9335
:10148000DF937C01262F972F8A0180917F0188238B
:1014900091F0C62FD72F6E01C40ED51ECC15DD05D9
:1014A00071F06991D701ED91FC910190F081E02DEF
:1014B000C7010995F3CF642F822F0E94E509C80167
:1014C000DF91CF911F910F91FF90EF90DF90CF9020
:1014D0000895CF93DF931F92CDB7DEB76983209134
:1014E0007F012223D1F02091D001203240F021E071
:1014F00030E0FC013383228380E090E015C08091CE
:10150000D101E82FF0E0E15AFE4F998190838F5F7F
:101510008093D1018093D00105C061E0CE01019696
:101520000E94E50981E090E00F90DF91CF9108954E
:10153000089580E090E008958F929F92AF92BF92BD
:10154000CF92DF92EF92FF920F931F93CF93DF938F
:101550007C01EB016C0182E0C80ED11C4701E5E083
:101560008E0E911C00E010E0F60141916F0150E0F9
:1015700060E070E02AE0CE010E945F0F5C01E8812C
:10158000F9810190F081E02D6EE2CE0109958A0D7E
:101590009B1D080F191FC814D90431F7F7014581A5
:1015A00050E060E070E02AE0CE010E945F0F800F03
:1015B000911FDF91CF911F910F91FF90EF90DF90DE
:1015C000CF90BF90AF909F908F9008951F920F92F1
:1015D0000FB60F9211242F933F934F935F936F9306
:1015E0007F938F939F93AF93BF93EF93FF938CEA77
:1015F00093E00E94E908FF91EF91BF91AF919F9115
:101600008F917F916F915F914F913F912F910F90AB
:101610000FBE0F901F9018951F920F920FB60F924A
:1016200011242F938F939F93EF93FF93E091BC032B
:10163000F091BD038081E091C203F091C30382FD6C
:1016400012C090818091C5038F5F8F732091C60374
:10165000821751F0E091C503F0E0E455FC4F958FFF
:101660008093C50301C08081FF91EF919F918F917D
:101670002F910F900FBE0F901F901895833081F01F
:1016800028F4813099F08230A1F008958730A9F0D4
:101690008830B9F08430D1F4809180008F7D03C010
:1016A000809180008F7780938000089584B58F7734
:1016B00002C084B58F7D84BD08958091B0008F777E
:1016C00003C08091B0008F7D8093B00008951F9378
:1016D000CF93DF93282F30E0F901E45EFE4F849131
:1016E000F901E25BFE4FD491F901E65CFE4FC49133
:1016F000CC23C9F0162F81110E943E0BEC2FF0E095
:10170000EE0FFF1FE05DFE4FA591B4918FB7F894E7
:10171000111105C09C91ED2FE095E92302C0EC91D9
:10172000ED2BEC938FBFDF91CF911F910895CF9355
:10173000DF9390E0FC01E25BFE4F2491FC01E65C4C
:10174000FE4F8491882361F190E0880F991FFC017E
:10175000EE5EFE4FC591D491FC01E05DFE4FA59178
:10176000B491611109C09FB7F894888120958223B4
:101770008883EC912E230BC0623061F49FB7F894FC
:101780003881822F809583238883EC912E2B2C9394
:101790009FBF06C08FB7F894E8812E2B28838FBF98
:1017A000DF91CF9108953FB7F8948091CC0190914B
:1017B000CD01A091CE01B091CF0126B5A89B05C067
:1017C0002F3F19F00196A11DB11D3FBFBA2FA92FC0
:1017D000982F8827820F911DA11DB11DBC01CD013D
:1017E00042E0660F771F881F991F4A95D1F7089529
:1017F0008F929F92AF92BF92CF92DF92EF92FF9221
:101800006B017C010E94D30B4B015C01C114D1041C
:10181000E104F104F1F00E94D30BDC01CB01881943
:101820009909AA09BB09883E9340A105B10570F347
:1018300021E0C21AD108E108F10888EE880E83E0A1
:10184000981EA11CB11CC114D104E104F10419F7C4
:10185000DDCFFF90EF90DF90CF90BF90AF909F9043
:101860008F9008951F920F920FB60F9211242F930D
:101870003F938F939F93AF93BF93809180019091FB
:101880008101A0918201B09183013091CB0123E0CD
:10189000230F2D3720F40196A11DB11D05C026E8A8
:1018A000230F0296A11DB11D2093CB0180938001CF
:1018B00090938101A0938201B09383018091CC0128
:1018C0009091CD01A091CE01B091CF010196A11DC3
:1018D000B11D8093CC019093CD01A093CE01B09324
:1018E000CF01BF91AF919F918F913F912F910F9019
:1018F0000FBE0F901F9018951F920F920FB60F9268
:1019000011242F933F934F935F936F937F938F9304
:101910009F93AF93BF93EF93FF938091B900887F1C
:10192000803609F49CC068F5883209F45BC090F4F5
:10193000803109F454C038F4882309F4F6C08830A3
:1019400009F44DC0F6C0883109F44CC0803209F466
:101950005DC0EFC0803409F468C048F4803309F4F6
:1019600055C0883309F0E5C080939F02D8C0803508
:1019700009F44FC0883509F45DC0883409F0D9C036
:10198000D6C0883909F4C7C0A8F4883709F467C0FD
:1019900038F4883609F463C0803709F460C0C9C0E0
:1019A000883809F4B8C0803909F45FC0803809F07C
:1019B000C0C05BC0803B09F486C038F4803A09F4AB
:1019C00066C0883A09F47FC0B4C0803C09F4A7C05F
:1019D000883C09F4A4C0883B09F48AC0AAC080915D
:1019E0009C0210C090919E0280919D02981770F504
:1019F000E0919E0281E08E0F80939E02F0E0E55818
:101A0000FD4F80818093BB0085EC86C080939F0250
:101A10008EC0E0919E0281E08E0F80939E028091A5
:101A2000BB00F0E0E558FD4F808390919E028091CD
:101A30009D026EC0E0919E0281E08E0F80939E0217
:101A40008091BB00F0E0E558FD4F80838091A002BB
:101A500081116DC081E080939B0284EA61C083E0C4
:101A60008093A1021092CA01CFCF8091CA01803227
:101A700008F051C0E091CA0181E08E0F8093CA0145
:101A80008091BB00F0E0E655FE4F8083BDCF85EC32
:101A90008093BC001092A1028091CA01803230F480
:101AA000E091CA01F0E0E655FE4F10826091CA0154
:101AB00070E0E091A801F091A9018AEA91E009950E
:101AC0001092CA0136C084E08093A1021092A7014F
:101AD0001092A601E091A401F091A50109958091D1
:101AE000A601811105C081E08093A60110928401B6
:101AF000E091A70181E08E0F8093A701F0E0EC5701
:101B0000FE4F80818093BB009091A7018091A60138
:101B1000981708F479CF85E88093BC000AC085EC5B
:101B20008093BC001092A10204C010929F020E94F8
:101B3000DB09FF91EF91BF91AF919F918F917F91C1
:101B40006F915F914F913F912F910F900FBE0F902A
:101B50001F9018952F923F924F925F926F927F92B3
:101B60008F929F92AF92BF92CF92DF92EF92FF92AD
:101B70000F931F93CF93DF93CDB7DEB72B970FB69D
:101B8000F894DEBF0FBECDBF1C014A835B836C831C
:101B90007D830E831F832887398766E0FC0180A13F
:101BA0000E9435111092D3018093D201863009F042
:101BB00062C18101055D1F4F91012F5C3F4F0217EC
:101BC000130761F089E494E02A873B870E941D0A8D
:101BD000F80181938F013B852A85F1CFF10186A51C
:101BE00080FD4CC180A9F82FF170F98380FD49C1B7
:101BF000F10127A5622F607F70E034E0759567954D
:101C00003A95E1F783A5F0E18F9FC0011124682B7D
:101C1000792B611538E073070CF070512F70F101CA
:101C200084A5F0E18F9FC00111248C01022B0115C6
:101C300038E013070CF01051072E000C880B990B9D
:101C40000E94701A29E334EB48EC5DE30E94CF1A3E
:101C50002A813B814C815D810E94CF1BA7019601A7
:101C60000E946A1C6B017C01F10160837183828395
:101C70009383B801110F880B990B0E94701A29E306
:101C800034EB48EC5DE30E94CF1A2E813F814885FA
:101C900059850E94CF1BA50194010E946A1C4B012B
:101CA0005C01F101648375838683978320E030E0D3
:101CB000A901C701B6010E94691A20E030E0A9011C
:101CC000811107C0C501B4010E94691A811111C0B8
:101CD000AEC0C701B6010E94391D18169CF420E061
:101CE00030E0A901C501B4010E94691A811113C035
:101CF0009EC020E030E0A901C701B6010E94391D55
:101D000018164CF020E030E0A901C701B6010E948E
:101D1000391D181694F420E030E0A901C501B40182
:101D20000E94391D18164CF4A7019601C501B40193
:101D30000E946A1C0E943B1C77C020E030E0A90191
:101D4000C701B6010E94691A81110AC020E030E083
:101D5000A901C501B4010E94391D18160CF46BC00D
:101D600020E030E0A901C701B6010E94691A87FF8F
:101D700029C020E030E0A901C501B4010E94391D4D
:101D800018169CF020E030E0A901C501B4010E94C2
:101D9000691A882309F458C020E030E0A901C50180
:101DA000B4010E94691A87FF0DC0A7019601C50101
:101DB000B4010E946A1C0E943B1C2BED3FE049E4E9
:101DC00050E430C020E030E0A901C701B6010E9414
:101DD000691A811109C020E030E0A901C501B401F0
:101DE0000E94691A87FD39C020E030E0A901C701CF
:101DF000B6010E94391D1816C4F520E030E0A90193
:101E0000C501B4010E94691A87FF2FC0A70196017E
:101E1000C501B4010E946A1C0E943B1C2BED3FE0EF
:101E200049EC50E40E94CF1B2B013C011EC0412C09
:101E3000512C32011AC02BED422E2FE0522E29ECEC
:101E4000622E2FE3722E11C09BED492E9FE0592E7A
:101E500099E4692E90E4792E08C084EE482E8BEC2C
:101E6000582E86E9682E80E4782EF101408A518A46
:101E7000628A738A08C0F1E0F98305C032E03983D1
:101E800002C082E0898389812B960FB6F894DEBF69
:101E90000FBECDBFDF91CF911F910F91FF90EF90BB
:101EA000DF90CF90BF90AF909F908F907F906F907A
:101EB0005F904F903F902F9008950E94DF1E4F92A9
:101EC0005F926F927F92EF92FF920F931F93CF9347
:101ED000DF93CDB7DEB7A1970FB6F894DEBF0FBE84
:101EE000CDBF7C01FA01CB0119A2223008F42AE00F
:101EF0008E010F5D1F4F422E512C612C712CBF01A2
:101F0000A30192010E94AC1BF901CA010150110901
:101F10006A3014F4605D01C0695CD8016C93232BB6
:101F2000242B252B61F70115110591F0F801019083
:101F30000020E9F73197AF01401B510BD701ED911C
:101F4000FC910280F381E02DB801C701099502C020
:101F500080E090E0A1960FB6F894DEBF0FBECDBF33
:101F6000DF91CF911F910F91FF90EF907F906F9035
:101F70005F904F9008958F929F92AF92BF92CF92B1
:101F8000DF92EF92FF921F93CF93DF93EC0120E05B
:101F900030E04AEF53E46B897C898D899E890E94E9
:101FA000691A882309F459C0CF88D88CE98CFA8C37
:101FB00046015701B7FAB094B7F8B09420E030E08A
:101FC0004AEF53E4C501B4010E94391D18165CF0B4
:101FD00020E030E04AEF53E4C701B6010E94691ADD
:101FE00087FD03C010C07501640120E030E0A90145
:101FF000C701B6010E94691A81110BC01BA21CA265
:102000001DA21EA226C0C12CD12C8AEFE82E83E48B
:10201000F82EA701960160E074E284E799E40E943B
:102020006A1C9F770E94E31C6BA37CA38DA39EA3D5
:102030005E0183E4A80EB11C11E020E030E0A901AC
:10204000C701B6010E94391D18160CF010E0F50109
:102050001083CB8ADC8AED8AFE8ADF91CF911F91B3
:10206000FF90EF90DF90CF90BF90AF909F908F90B8
:102070000895CF92DF92EF92FF92CF93DF93EC011E
:1020800020E030E04AE754E46F89788D898D9A8D9D
:102090000E94691A8823F1F180E090E0AAE7B4E495
:1020A0008F8B988FA98FBA8FFE01FF9680839183C3
:1020B000A283B3838BA99CA9ADA9BEA91816190642
:1020C0001A061B063CF56B897C898D899E899B01CC
:1020D000AC010E94CF1A6B017C016B8D7C8D8D8DC4
:1020E0009E8D9B01AC010E94CF1B9B01AC01C701DF
:1020F000B6010E946A1C0E94DC1C6BAB7CAB8DABF2
:102100009EABCE01DF91CF91FF90EF90DF90CF900B
:102110000C943804DF91CF91FF90EF90DF90CF9037
:10212000089560912D0370912E032FE233E080E03B
:1021300090E08617970709F44AC02B5F3F4FF901DB
:102140003597E081AC014F5F5F4FE430F1F525E05A
:10215000289FF001299FF00D1124E35DFC4F249F7F
:10216000D001259FB00D1124A35DBC4F6D917C91D2
:102170004381548181E293E00E94E41E6091210337
:102180007091220380912303909124030E94AB1D40
:10219000609321037093220380932303909324037D
:1021A0006091250370912603809127039091280365
:1021B0000E94AB1D60932503709326038093270331
:1021C0009093280380E090E00895CA01B2CF8AEF8F
:1021D0009FEF0895AF92BF92CF92DF92FF920F933D
:1021E0001F93CF93DF93A090A202B090A30229E1A6
:1021F000A216B10458F58A01EB01F82ECB010E941A
:10220000B21D65012FEFC21AD20A25E02C9DF00104
:102210002D9DF00D1124EE55FD4F91838083009785
:10222000C1F02A9DF0012B9DF00D1124EE55FD4FBC
:10223000F282D483C383AE01B8010E94E41ED0921F
:10224000A302C092A20280E090E005C08FEF9FEF52
:1022500002C08EEF9FEFDF91CF911F910F91FF9002
:10226000DF90CF90BF90AF9008959091A10291110F
:10227000FCCF91E09093A1029093A0022FEF2093C6
:102280009F0210929E02260F20939D0290939C0223
:1022900090919C02880F892B80939C0280919B02D5
:1022A000813061F410929B0280919C028093BB006C
:1022B0008091BC0083FDF8CF85EC01C085EE809352
:1022C000BC008091A1028130E1F380919E028617CB
:1022D00010F460919E02ABE7B2E02BE532E0F90129
:1022E0008E2F821B861718F48D918193F9CF862F3C
:1022F0000895CF93DF93CDB7DEB7C856D1090FB697
:10230000F894DEBF0FBECDBF789484B5826084BDE3
:1023100084B5816084BD85B5826085BD85B58160E9
:1023200085BD80916E00816080936E001092810067
:102330008091810082608093810080918100816022
:1023400080938100809180008160809380008091E3
:10235000B10084608093B1008091B000816080936F
:10236000B00080917A00846080937A0080917A0036
:10237000826080937A0080917A00816080937A00F5
:1023800080917A00806880937A001092C100E09179
:10239000BC03F091BD0382E08083E091B803F0912B
:1023A000B9031082E091BA03F091BB0380E180830E
:1023B0001092C403E091C003F091C10386E08083D2
:1023C000E091BE03F091BF03808180618083E09142
:1023D000BE03F091BF03808188608083E091BE03DB
:1023E000F091BF03808180688083E091BE03F0910B
:1023F000BF0380818F7D808361E082E00E94970B24
:1024000061E080E10E94970B61E081E10E94970BFF
:1024100061E082E10E94970B60E080E10E94670B1F
:1024200060E081E10E94670B60E082E10E94670B3F
:1024300064E670E080E090E00E94F80B61E080E1EB
:102440000E94670B60E082E10E94670B64EF71E01D
:1024500080E090E00E94F80B61E081E10E94670B50
:1024600061E082E10E94670B64EF71E080E090E040
:102470000E94F80B1092D3011092D2011092D10158
:102480001092D0011092A10281E08093A0021092DC
:102490009B0261E082E10E94670B61E083E10E94A0
:1024A000670B8091B9008E7F8093B9008091B9004D
:1024B0008D7F8093B90088E48093B80085E4809391
:1024C000BC008CE08093B80060E070E08EEC95E09A
:1024D0000E9418038093D50161E070E089E895E0DF
:1024E0000E9418038093D401109250051092510558
:1024F00010925205109253051092540510925505F2
:102500001092560510925705109278051092790591
:1025100010927A0510927B05109268051092690559
:1025200010926A0510926B05109258051092590589
:1025300010925A0510925B0585E495E00E943910CF
:1025400085E495E00E94BB0F40E050E06AEF73E441
:1025500085E495E00E94AA0585E495E00E94BE020C
:1025600010920C0510920D0510920E0510920F0599
:102570001092100510921105109212051092130579
:1025800010923405109235051092360510923705D9
:102590001092240510922505109226051092270509
:1025A0001092140510921505109216051092170539
:1025B00081E095E00E94391081E095E00E94BB0F18
:1025C00040E050E06AEF73E481E095E00E94AA05E4
:1025D00081E095E00E94BE0268EE73E080E090E04A
:1025E0000E94F80B97E0692E712C63E276E085E497
:1025F00095E00E946A07082F63E176E081E095E0AC
:102600000E946A07182F8091D601882361F0002369
:1026100021F085E495E00E943807112321F081E044
:1026200095E00E943807E091ED01F091EE01E9306C
:10263000F10508F03DC4EC5BFF4F0C94A51D8091A3
:10264000EF01882309F443C481E090E042C1409146
:10265000F001E4EFF1E080E090E000E010E0642FB2
:1026600070E09F01245F3140261737070CF0DEC071
:1026700081309105B1F01CF40097B1F0D5C08230E3
:102680009105D1F08330910509F0CEC0A1E0B0E012
:10269000AC0FBD1FA00FB11F80818C930F5F1F4F28
:1026A000B9C080E090E0C0C02081233F09F4B5C0EC
:1026B000213F09F0B9C0AEC02081233F09F4B0C06A
:1026C000213F09F4B0C0223F09F09AC08FE7EDE244
:1026D000F3E0DF011D928A95E9F7E12CF12C85E00A
:1026E000382EE016F10608F0A1C0C0902D03D0905E
:1026F0002E03B9E1CB16D10408F073C03C9CC00195
:102700003D9C900D1124FC01E35DFC4F5F01E1E075
:10271000F0E0EC0FFD1FEE0DFF1D2081D50112969C
:102720002C93F70131962701B3E04B0E511C041591
:10273000150508F456C0DC01A05DBC4F21E030E077
:102740002C0F3D1FE20FF31F208131812D933C930D
:10275000D50113968D909C901497982489249824E1
:1027600014969C928E9213977201E80CF91C0E1528
:102770001F05B8F1C4010E94B21D96012F5F3F4FA3
:10278000329EA001339E500D1124FA01E35DFC4FEF
:102790006F0191838083009721F161E070E06C0FFD
:1027A0007D1F640D751DA4010E94E41ED5011296C3
:1027B0008C918330D9F48DE293E00E949D06A69619
:1027C0006FAFA697A7967FAFA797A8968FAFA8974A
:1027D000A9969FAFA997D601ED91FC9180818617AC
:1027E00029F08DE293E00E94120720C080912D0312
:1027F00090912E03019690932E0380932D0371CF19
:10280000A1E0B0E0AC0FBD1FA00FB11F2C930F5F74
:102810001F4F0AC082E090E007C081E090E004C052
:1028200083E090E001C040E0319619CF60912D0324
:1028300070912E032FE233E080E090E08617970737
:1028400061F12B5F3F4FF9013597E081AC014F5F9C
:102850005F4FE13001F525E0289FF001299FF00D41
:102860001124E35DFC4F249FD001259FB00D11245E
:10287000A35DBC4F6D917C9143815481CE01019643
:102880000E94E41E898190E09093EC018093EB011B
:1028900080E090E004C0CA01D1CF8AEF9FEF892B7E
:1028A00059F08DE293E00E941207E6E0F0E0F09329
:1028B000EE01E093ED01FCC2209100018091EB015B
:1028C0009091EC012223A1F08730910539F488E042
:1028D00090E09093EE018093ED01EAC2019709F038
:1028E000E3C222E030E03093EE012093ED01E0C23C
:1028F00081309105B1F38230910519F483E090E0C5
:10290000E8CF8630910519F484E090E0E2CF099792
:1029100009F0CAC285E090E0DCCFAFE88A2EA2ECD5
:102920009A2EADE3AA2EA1E4BA2EBAE9CB2EB9E9CC
:10293000DB2EB9EEEB2EB1E4FB2E04E11EEA27EC10
:102940003EE340E050E0BA018EEC95E00E94AA0D13
:102950001FE1812E15E8912E1FEAA12E10E4B12E61
:102960000DE3C02E0AE0D02E01E1E02E02E4F02EAD
:1029700009E21CE52FE23FE344E15EEA67E47FEB16
:1029800089E895E00E94AA0D20E030E048EC52E48E
:102990006091DE057091DF058091E0059091E10581
:1029A0000E94CF1A0E94DC1C6093E3017093E40143
:1029B0008093E5019093E60120E030E048EC52E49A
:1029C0006091990570919A0580919B0590919C0565
:1029D0000E94CF1A0E94DC1C6093E7017093E8010B
:1029E0008093E9019093EA018FE7A2EAB2E01D9299
:1029F0008A95E9F781E08983AE014F5F5F4F61E01F
:102A000070E082E00E94EA1040915005509151051B
:102A100060915205709153054093D7015093D801AE
:102A20006093D9017093DA0180910C0590910D05A6
:102A3000A0910E05B0910F058093DB019093DC010E
:102A4000A093DD01B093DE011092DF011092E0014E
:102A50001092E1011092E201209100012111C4C005
:102A6000C72EDD24EE24FF24342F22271127002730
:102A70000C291D292E293F29CC24D42EE52EF62EF3
:102A8000CC24DD24FF240C291D292E293F29452F84
:102A9000562F672F772767FD7A9544276627772774
:102AA000402B512B622B732B49835A836B837C837E
:102AB0000B2F112722273327782F662755274427E6
:102AC000402B512B622B732B0027182F292F3A2FC5
:102AD000002711273327402B512B622B732B892F73
:102AE0009A2FAB2FBB27A7FDBA958827AA27BB270C
:102AF000842B952BA62BB72B8D839E83AF83B88712
:102B000019861A861B861C86AE014F5F5F4F6CE0EC
:102B100070E084E00E94EA108091E3019091E4016A
:102B2000A091E501B091E6010B2F11272227332751
:102B3000782F662755274427402B512B622B732B68
:102B40000027182F292F3A2F002711273327402B32
:102B5000512B622B732B892F9A2FAB2FBB27A7FDED
:102B6000BA958827AA27BB27842B952BA62BB72B92
:102B700089839A83AB83BC838091E7019091E801BC
:102B8000A091E901B091EA010B2F112722273327E9
:102B9000782F662755274427402B512B622B732B08
:102BA0000027182F292F3A2F002711273327402BD2
:102BB000512B622B732B892F9A2FAB2FBB27A7FD8D
:102BC000BA958827AA27BB27842B952BA62BB72B32
:102BD0008D839E83AF83B887AE014F5F5F4F68E000
:102BE00070E089E00E94EA1082EA92E00E949D066D
:102BF00069837A838B839C83AE014F5F5F4F64E070
:102C000070E083E00E94EA104091A2025091A3027A
:102C1000E2EAF2E080E090E0C12CD12C8417950725
:102C200049F0238134812D5F3F4FC20ED31E0196A0
:102C30003596F4CF2601C60102968536910508F037
:102C4000C7C1C6010E94B21D8C01892B49F024EA3C
:102C5000A22E22E0B22E212C312CE12CF12C2BC003
:102C60000E94DF1EF501418152814A01F3E08F0E7F
:102C7000911C4814590408F44CC0942F852FF80176
:102C8000EE0DFF1DD5012C91208392838183C70116
:102C9000039613966D917C911497800F911F0E945B
:102CA000E41EE80CF91C48185908BFEF2B1A3B0A20
:102CB000E5E0AE0EB11C8091A2029091A30228160D
:102CC000390680F2EC14FD0421F581EF8983F801C7
:102CD000E00EF11E81E090E016C021913FE0320F3E
:102CE000333048F4A1E0B0E0AC0FBD1FA80FB91F0E
:102CF00033EF3C930196A1E0B0E0AC0FBD1FA80FED
:102D0000B91F2C930196EE15FF0539F08436910515
:102D100020F3C8010E94471E5BC17C01AFEFEA1A95
:102D2000FA0AE1E0F0E0EC0FFD1FE80FF91F22EFD7
:102D30002083C8010E94471EE114F10441F0A7015D
:102D4000BE016F5F7F4F8CEA93E00E94770882EAB2
:102D500092E00E941207A8C00E949110892B09F0EE
:102D6000A0CD1092D6014091210350912203609191
:102D7000230370912403411551056105B0E87B07D9
:102D800021F085E495E00E942006409125035091B2
:102D900026036091270370912803411551056105B1
:102DA000E0E87E0709F480C081E095E00E942006FB
:102DB0007BC040E750EA6EEF7FEF85E495E00E942C
:102DC000200640E750EA6EEF7FEF81E095E00E9439
:102DD000200681E08093D60167C00E949110892B64
:102DE00009F05FCD8091210390912203A0912303EC
:102DF000B09124038093500590935105A093520500
:102E0000B09353058093540590935505A0935605B0
:102E1000B0935705109278051092790510927A05B3
:102E200010927B05109268051092690510926A0550
:102E300010926B05109258051092590510925A0580
:102E400010925B058091250390912603A0912703A2
:102E5000B091280380930C0590930D05A0930E0567
:102E6000B0930F058093100590931105A093120560
:102E7000B093130510923405109235051092360563
:102E80001092370510922405109225051092260500
:102E90001092270510921405109215051092160530
:102EA00010921705109200017092EE016092ED01F0
:102EB000FF24F39482EFE82E01E010E091EFD92E89
:102EC00031C08DE293E00E9412071092EF01109240
:102ED000EE011092ED01ECCF8CEA93E00E94B10874
:102EE00080935902813F29F1823FE9F19091F401E9
:102EF000913F79F42091F2013091F301A9014F5FE4
:102F00005F4F5093F3014093F201F901EC50FE4FF3
:102F10008083833F09F056C080915802811152C0CE
:102F2000F09258028CEA93E00E94D308892BA1F614
:102F30004CC080915802882329F02091F401213F50
:102F400009F449C080E090E0FC01EC50FE4F108293
:102F5000019684369105C1F71093F3010093F201B5
:102F6000D092F4012FC0909158029923A1F0909132
:102F7000F401913F81F42091F2013091F301A90114
:102F80004F5F5F4F5093F3014093F201F901EC5012
:102F9000FE4F808317C08091F401813F99F48091A6
:102FA000F2019091F301FC01EC50FE4FE08201969A
:102FB0009093F1018093F0011092F3011092F201CD
:102FC000F092EF0110925802ADCF0E9473090DCB21
:102FD0004FEF5FEFB5CE8091F2019091F301AC011C
:102FE0004F5F5F4F5093F3014093F201FC01EC50AF
:102FF000FE4F2083E7CF2F923F924F925F926F92C6
:103000007F928F929F92AF92BF92CF92DF92EF9278
:10301000FF920F931F93CF93DF93E5E5F4E0CFE2A8
:10302000D1E0D183C0831282138214821582ECEA2C
:10303000F3E01382128288EE93E0A0E0B0E0848394
:103040009583A683B7832BE031E03183208325EC81
:1030500030E03587248724EC30E03787268720EC62
:1030600030E0318B208B21EC30E0338B228B22EC53
:1030700030E0358B248B26EC30E0378B268B118E9D
:10308000128E138E148EEBE5F4E0D183C08312828E
:10309000138214821582E1E6F4E0D183C0831282A8
:1030A000138214821582E7E6F4E0D183C083128292
:1030B000138214821582E5E7F4E0D183C083128283
:1030C000138214821582EDE6F4E0D183C08312826C
:1030D000138214821582EBE7F4E0D183C08312825D
:1030E000138214821582E1E8F4E0D183C083128256
:1030F000138214821582E9E4F4E01382128284833D
:103100009583A683B7832DE131E03183208303E3E8
:1031100016E0F8011382128284839583A683B78315
:103120008FE491E091838083138A128AE7E4F6E0CA
:1031300060816D7F60836695617081E0682782E0C1
:103140000E94670B61E082E00E94970BE0E5F1E0EE
:10315000E491D8011C96EC93ECE3F1E0E491F0E00B
:10316000EE0FFF1FE05DFE4F85919491F801968769
:103170008587E7E8F4E0D183C0831282138214824A
:10318000158293E2C92E96E0D92EAA24A394B12CDD
:10319000D6011196BC92AE921396BC92AE92129743
:1031A000F60114821582168217821186108683E03A
:1031B00090E09387828732E3432E512C612C712C4F
:1031C0001C964D925D926D927C921F9760E00E94DA
:1031D000970B43E1E42E46E0F42EF701B182A08282
:1031E000B382A282148215821682178211861086FB
:1031F00084E090E09387828744865586668677864A
:1032000060E00E94970B8EEC95E00E94E90389E84C
:1032100095E00E94E90305E415E055E3852E51E0B1
:10322000952ED80111969C928E9268E0362E1296B9
:103230003C921297F80113861486158616861F96FF
:103240001D921D921D921C925297138A148A158A00
:10325000168A412C512C70E8672E7FE3772E579603
:103260004D925D926D927C925A97138E148E158EAC
:10327000168E5F964D925D926D927C92929713A2FC
:1032800014A215A216A2B4A6A3A622242A9426A6A6
:1032900097961D921D921D921C929A978AE0139602
:1032A0008C9313978EE014968C93149789E015965F
:1032B0008C9315978FE016968C93169713AA14AAE1
:1032C00015AA16AAD7961D921D921D921C92DA97E6
:1032D00013AE14AE15AE16AE40928405509285051D
:1032E0006092860570928705109288051782108675
:1032F00011861286B301A201C8010E94AA05C1E08D
:10330000D5E0998288823A821B861C861D861E869D
:103310001F86188A198A1A8A1B8A1C8A1D8A1E8A85
:103320004F8A588E698E7A8E1B8E1C8E1D8E1E8E35
:103330004F8E58A269A27AA21BA21CA21DA21EA295
:10334000BCA6ABA62EA61FA218A619A61AA685E093
:103350008B8387E08C8386E08D833E821BAA1CAA28
:103360001DAA1EAA1FAA18AE19AE1AAE1BAE1CAE1D
:103370001DAE1EAE4092400550924105609242053E
:1033800070924305109244051F82188619861A868A
:10339000B301A201CE010E94AA05E7EDF4E0D182BB
:1033A000C0828EEC95E09383828315830483178219
:1033B000168211861086168E178E10A211A212A2E6
:1033C00013A214A215A246A257A260A671A640E0BD
:1033D00050E160E070E04287538764877587168606
:1033E0001786108A118A128A138A148A158A168AF5
:1033F000178A108E118E128E138E148E158EEDEA92
:10340000F4E0F182E08289E895E093838283D583BA
:10341000C4831782168211861086168E178E10A20C
:1034200011A212A213A214A215A246A257A260A62C
:1034300071A6428753876487758716861786108A18
:10344000118A128A138A148A158A168A178A108E8C
:10345000118E128E138E148E158EE5EAF4E0D18251
:10346000C082138302831582148217821682EDE9CB
:10347000F4E0F182E082D383C28315821482178242
:103480001682E5E9F4E0D182C082138302831582BB
:10349000148217821682EDE8F4E0F182E082D38391
:1034A000C2831582148217821682DF91CF911F91F9
:1034B0000F91FF90EF90DF90CF90BF90AF909F90D3
:1034C0008F907F906F905F904F903F902F900895D6
:1034D00008950E94AB1A08F481E00895E89409C0A9
:1034E00097FB3EF490958095709561957F4F8F4F37
:1034F0009F4F9923A9F0F92F96E9BB279395F6954D
:10350000879577956795B795F111F8CFFAF4BB0FCA
:1035100011F460FF1BC06F5F7F4F8F4F9F4F16C02E
:10352000882311F096E911C0772321F09EE8872FB8
:10353000762F05C0662371F096E8862F70E060E074
:103540002AF09A95660F771F881FDAF7880F9695ED
:10355000879597F90895990F0008550FAA0BE0E891
:10356000FEEF16161706E807F907C0F01216130645
:10357000E407F50798F0621B730B840B950B39F485
:103580000A2661F0232B242B252B21F408950A26EB
:1035900009F4A140A6958FEF811D811D08950E9419
:1035A000E21A0C94531B0E94451B38F00E944C1BDE
:1035B00020F0952311F00C943C1B0C94421B112419
:1035C0000C94871B0E94641B70F3959FC1F3950FA9
:1035D00050E0551F629FF001729FBB27F00DB11D97
:1035E000639FAA27F00DB11DAA1F649F6627B00D27
:1035F000A11D661F829F2227B00DA11D621F739F10
:10360000B00DA11D621F839FA00D611D221F749F1D
:103610003327A00D611D231F849F600D211D822F64
:10362000762F6A2F11249F5750409AF0F1F088238B
:103630004AF0EE0FFF1FBB1F661F771F881F9150B8
:103640005040A9F79E3F510580F00C943C1B0C9410
:10365000871B5F3FE4F3983ED4F386957795679593
:10366000B795F795E7959F5FC1F7FE2B880F911DE2
:103670009695879597F9089597F99F6780E870E088
:1036800060E008959FEF80EC089500240A941616D8
:10369000170618060906089500240A941216130640
:1036A000140605060895092E0394000C11F48823CE
:1036B00052F0BB0F40F4BF2B11F460FF04C06F5FEA
:1036C0007F4F8F4F9F4F089557FD9058440F551FC0
:1036D00059F05F3F71F04795880F97FB991F61F094
:1036E0009F3F79F087950895121613061406551F0B
:1036F000F2CF4695F1DF08C0161617061806991F77
:10370000F1CF86957105610508940895E894BB276B
:1037100066277727CB0197F90895052E97FB1EF4AE
:1037200000940E94A41B57FD07D00E94AC1B07FC0D
:1037300003D04EF40C94A41B5095409530952195E0
:103740003F4F4F4F5F4F08959095809570956195CD
:103750007F4F8F4F9F4F0895A1E21A2EAA1BBB1BCC
:10376000FD010DC0AA1FBB1FEE1FFF1FA217B3074D
:10377000E407F50720F0A21BB30BE40BF50B661F63
:10378000771F881F991F1A9469F760957095809527
:1037900090959B01AC01BD01CF0108955058BB2706
:1037A000AA270E94E61B0C94531B0E94451B38F06D
:1037B0000E944C1B20F039F49F3F19F426F40C941E
:1037C000421B0EF4E095E7FB0C943C1BE92F0E9492
:1037D000641B58F3BA17620773078407950720F034
:1037E00079F4A6F50C94861B0EF4E0950B2EBA2FF7
:1037F000A02D0B01B90190010C01CA01A0011124F7
:10380000FF27591B99F0593F50F4503E68F11A16A2
:10381000F040A22F232F342F4427585FF3CF469533
:1038200037952795A795F0405395C9F77EF41F1655
:10383000BA0B620B730B840BBAF09150A1F0FF0F1F
:10384000BB1F661F771F881FC2F70EC0BA0F621F0B
:10385000731F841F48F4879577956795B795F795FB
:103860009E3F08F0B0CF9395880F08F09927EE0F90
:10387000979587950895DF93DD27B92FBF7740E8A7
:103880005FE31616170648075B0718F4D92F0E9446
:103890003E1D9F938F937F936F930E948C1DEAE947
:1038A000F0E00E94121D0E94531B2F913F914F91F7
:1038B0005F910E94E21ADD2351F09058A2EA2AEDAE
:1038C0003FE049EC5FE3D0785D270E94E61BDF9183
:1038D0000C94531B0E947E1C0C94531B0E944C1B87
:1038E00058F00E94451B40F029F45F3F29F00C94EA
:1038F0003C1B51110C94871B0C94421B0E94641BAF
:1039000068F39923B1F3552391F3951B550BBB270E
:10391000AA2762177307840738F09F5F5F4F220F53
:10392000331F441FAA1FA9F335D00E2E3AF0E0E84A
:1039300032D091505040E695001CCAF72BD0FE2F94
:1039400029D0660F771F881FBB1F26173707480728
:10395000AB07B0E809F0BB0B802DBF01FF279358E0
:103960005F4F3AF09E3F510578F00C943C1B0C944D
:10397000871B5F3FE4F3983ED4F386957795679570
:10398000B795F7959F5FC9F7880F911D9695879515
:1039900097F90895E1E0660F771F881FBB1F621734
:1039A00073078407BA0720F0621B730B840BBA0BF2
:1039B000EE1F88F7E09508950E94E31C6894B1110A
:1039C0000C94871B08950E946C1B88F09F5798F0F9
:1039D000B92F9927B751B0F0E1F0660F771F881F14
:1039E000991F1AF0BA95C9F714C0B13091F00E942E
:1039F000861BB1E008950C94861B672F782F8827CB
:103A0000B85F39F0B93FCCF3869577956795B39554
:103A1000D9F73EF490958095709561957F4F8F4FC3
:103A20009F4F0895DF93CF931F930F93FF92EF92D1
:103A3000DF927B018C01689406C0DA2EEF010E94B0
:103A4000E21AFE01E894A591259135914591559191
:103A5000A6F3EF010E94E61BFE019701A801DA948C
:103A600069F7DF90EF90FF900F911F91CF91DF9159
:103A700008950E94AB1A08F48FEF08959B01AC01E2
:103A800060E070E080E89FE30C946A1C19F416F47F
:103A90000C94421B0C94901D0E946C1BB8F399234C
:103AA000C9F3B6F39F57550B87FF0E949E1D002454
:103AB000A0E640EA900180585695979528F4805CDE
:103AC000660F771F881F20F026173707480730F446
:103AD000621B730B840B202931294A2BA69517945E
:103AE0000794202531254A2758F7660F771F881F2E
:103AF00020F026173707480730F4620B730B840B4E
:103B0000200D311D411DA09581F7B901842F9158D9
:103B1000880F9695879508959B01AC010C94CF1A58
:103B20009F3F31F0915020F4879577956795B79531
:103B3000880F911D9695879597F90895915050405B
:103B4000660F771F881FD2F70895EE0FFF1F0590AD
:103B5000F491E02D0994692796276927782787270C
:103B600078270895CF93DF938230910510F482E097
:103B700090E0E0914A06F0914B0620E030E0C0E092
:103B8000D0E0309711F14081518148175907C0F0BA
:103B90004817590761F482819381209719F09B831C
:103BA0008A832BC090934B0680934A0626C021152A
:103BB000310519F04217530718F49A01BE01DF01CD
:103BC000EF010280F381E02DDCCF2115310509F1F1
:103BD000281B390B2430310590F412968D919C915D
:103BE00013976115710521F0FB019383828304C053
:103BF00090934B0680934A06FD01329644C0FD0126
:103C0000E20FF31F81939193225031092D933C933E
:103C10003AC02091480630914906232B41F4209167
:103C20000301309104013093490620934806209106
:103C30000101309102012115310541F42DB73EB744
:103C40004091050150910601241B350BE091480677
:103C5000F0914906E217F307A0F42E1B3F0B28173B
:103C6000390778F0AC014E5F5F4F2417350748F0F5
:103C70004E0F5F1F509349064093480681939193DE
:103C800002C0E0E0F0E0CF01DF91CF9108950F9303
:103C90001F93CF93DF93009709F48CC0FC013297F8
:103CA0001382128200914A0610914B0601151105EC
:103CB00081F420813181820F931F20914806309139
:103CC00049062817390779F5F0934906E093480625
:103CD00071C0D80140E050E0AE17BF0750F4129613
:103CE0002D913C911397AD012115310509F1D901B1
:103CF000F3CF9D01DA013383228360817181860FC6
:103D0000971F8217930769F4EC0128813981260FE8
:103D1000371F2E5F3F4F318320838A819B8193839E
:103D20008283452B29F4F0934B06E0934A0642C068
:103D30001396FC93EE931297ED01499159919E01D0
:103D4000240F351FE217F30771F480819181840FEE
:103D5000951F029611969C938E9382819381139660
:103D60009C938E931297E0E0F0E0D80112968D912B
:103D70009C911397009719F0F8018C01F6CF8D9163
:103D80009C9198012E5F3F4F820F931F2091480610
:103D9000309149062817390769F4309729F41092B1
:103DA0004B0610924A0602C01382128210934906F3
:103DB00000934806DF91CF911F910F91089581E004
:103DC00090E0F8940C94ED1EFB01DC0102C0019020
:103DD0000D9241505040D8F7089510E0C2EBD0E06A
:103DE00004C0FE010E94A51D2196C33BD107C9F75F
:043DF000F894FFCF75
:103DF4000100004C068000000000000A097708A2B8
:103E0400085109D308B108C50800000000690A393F
:103E14000A990A0D0A310A1D0A0E0A000000009CC4
:103E24000A00000000BE028A02DC0245022F02EDF5
:103E340001CC01980177012101DD00000000008719
:0E3E4400097708990A8609800983097D09001B
:00000001FF
